:020000040800F2
:1000000000200020C5580008215800082358000887
:1000100000000000000000000000000000000000E0
:10002000000000000000000000000000255800084B
:1000300000000000000000002758000829580008B0
:1000400015590008155900081559000815590008D8
:1000500015590008155900081559000815590008C8
:10006000155900084D580008155900081559000881
:1000700015590008155900081559000815590008A8
:10008000155900081559000800000000155900080E
:100090001559000815590008155900081559000888
:1000A0001559000815590008155900081559000878
:1000B0001559000800000000155900080000000054
:1000C00010B5064C2378002B07D1054B002B02D02E
:1000D000044800E000BF0123237010BD8800002009
:1000E00000000000D0610008044B10B5002B03D0C5
:1000F0000349044800E000BF10BDC04600000000F6
:100100008C000020D06100080023C25C0133002A6B
:10011000FBD1581E7047000002B4714649084900DF
:10012000095649008E4402BC7047C04602B471466D
:1001300049084900095C49008E4402BC7047C0462A
:10014000002243088B4274D303098B425FD3030A16
:100150008B4244D3030B8B4228D3030C8B420DD329
:10016000FF22090212BA030C8B4202D312120902B7
:1001700065D0030B8B4219D300E0090AC30B8B42F5
:1001800001D3CB03C01A5241830B8B4201D38B03A3
:10019000C01A5241430B8B4201D34B03C01A524148
:1001A000030B8B4201D30B03C01A5241C30A8B428B
:1001B00001D3CB02C01A5241830A8B4201D38B0276
:1001C000C01A5241430A8B4201D34B02C01A52411A
:1001D000030A8B4201D30B02C01A5241CDD2C3098C
:1001E0008B4201D3CB01C01A524183098B4201D308
:1001F0008B01C01A524143098B4201D34B01C01AF3
:10020000524103098B4201D30B01C01A5241C3086A
:100210008B4201D3CB00C01A524183088B4201D3D9
:100220008B00C01A524143088B4201D34B00C01AC5
:100230005241411A00D20146524110467047FFE731
:1002400001B5002000F006F802BDC0460029F7D035
:1002500076E770477047C04670B500220C4B04002B
:100260000D0000F04DFE002804D12000290000F010
:10027000A7FD70BD064B00222000290000F08AFA7D
:1002800000F09EFD80231B069C466044F1E7C046BB
:100290000000E041F0B557464546DE464E46E0B523
:1002A0000C0398464E00230B87B0070092469B46EE
:1002B000760DCD0F002E6BD06D4B9E4235D0802435
:1002C0005B46420F2404DB0014431C43C3009946E1
:1002D000684BA3469C46002300276644029343468E
:1002E0001C035A00DB0F5046240B520D984600D1D8
:1002F00076E05F4B9A426DD08023410F1B040B4385
:100300005C49E4008C461C43C30000206244414623
:10031000B6186940721C0191944607430F2F00D90B
:10032000B0E0554ABF00D25997465B460343994611
:1003300000D087E000239B46023308270293CEE7D4
:1003400042460192022867D0032800D10EE201281C
:1003500000D062E100230024002299460199014067
:10036000CDB2002112030B0D120B1B051343434AA0
:10037000240513401C436400ED0764082C434846E1
:10038000210007B03CBC90469946A246AB46F0BD62
:10039000034399464FD05B46002B00D189E1584674
:1003A00000F0B8FD03000B3B1C2B00DD7AE11D22A1
:1003B000D31A3A0001005C46DA4008398C40130039
:1003C0008F4023439B46B94600232D4E0027361A03
:1003D000029384E7534623432AD10024022096E760
:1003E0005346234320D0002C00D157E1200000F0D9
:1003F00091FD03000B3B1C2B00DD49E11D21CB1AB5
:1004000051460200D9405346083A944093400C4369
:100410001B4A121A00207AE70125019B144C1D404B
:100420000023002299469CE70024002201206EE769
:10043000534603206BE700239B4601330427002625
:1004400002934CE7032381460C27029347E780225F
:100450000023002512039946054C82E75C464B4673
:1004600002986FE75C464B46019502986AE7C046E2
:10047000FF07000001FCFFFF08620008FFFF0F807C
:100480000DFCFFFF4A464946170C1A0C1B041B0CB7
:1004900008041900000C41431500884619007D43EB
:1004A0007943039589462900150045434D4402953B
:1004B00045462D0CAA46029D5544A94506D98A46B3
:1004C000802149028946CA4451460391290C04916E
:1004D000414609042D04090C88462900250C2404F2
:1004E0004144240C05912100414388462100794371
:1004F0008A466843414650448146080C48446F434D
:10050000824503D98021490289464F44010C89461E
:1005100039004944029141460F0404993F0C884632
:100520000004C01980444146049159460F0C090447
:10053000090C884659438A46390051438946414649
:100540004A435146090C8B467B43D2185A44934286
:1005500003D980235B029B46D94451460904090C08
:100560008A46414661437C43130C12044B44524477
:10057000A1468A463C0041466C434D4351464D449A
:100580000F0C7D19A94503D98021490288464444AE
:10059000049F0399B84641448B46834580414142BC
:1005A0008846514608042F04000C3F18584602990B
:1005B00010188946904292414F44BA465242994699
:1005C0009346C244D144CB448F42BF41C245894186
:1005D00099459B41934592417F4249422D0C52429D
:1005E0000F435B4213437F19FF185B463C19DB0D39
:1005F000059A64021C43430213435D1EAB415A46F5
:10060000C00D034352021343E20156D501205A089C
:1006100003401343E207134364085A486044002828
:100620004DDD5A0709D00F221A40042A05D01A1DA1
:100630009A429B415B42E4181300E20104D58020FA
:10064000514AC00014406044504A904200DDE3E645
:100650000125DB0862071A436402019B9146220BC5
:100660004405640D1D407CE6802259461203114268
:1006700008D0144206D122431203120B4546994674
:10068000434C6EE65B461A431203120B404C68E67D
:1006900003005446283B9C400023B9E600F03AFC96
:1006A0002030A6E60300283B9F400023BB46994626
:1006B0008AE600F02FFC203074E6B446ADE7012551
:1006C0002A1A382A06DD019B00241D40002300223F
:1006D000994646E61F2A21DC20252000AD1A1E007F
:1006E000AB40A840D6405D1EAB4130431843D440D8
:1006F000430709D00F230340042B05D00300181D26
:1007000098429B415B42E418230221D50125019BBD
:1007100001241D4000230022994622E61F252100C6
:100720006D42281AC1400800202A1DD05F35AA1A40
:10073000944023435C1EA341072503431D40002230
:10074000002D09D00F2200241A401800042AD6D107
:10075000030065076402220BDB082B430125994641
:10076000019B00241D40FCE50024E2E780220125D6
:100770001203224301991203120B0D409946044CB7
:10078000EFE5C046FF030000FFFFFFFEFE0700008D
:10079000FF070000F0B54646D6464F460C03C0B5ED
:1007A000CD0F4E00610A440F0C43C1005800400DAC
:1007B00084468A460F001903500F490A0143C64870
:1007C000760DA846DB0FD200844500D1D8E0012089
:1007D0004340AB4200D1A6E06046351A002D00DC54
:1007E00005E1002810D10B00134300D1D7E06B1EA8
:1007F000002B00D04BE153469F1ABA458041641A42
:100800004042241A01261EE0B34B9E4248D080236A
:100810001B041943382D00DD19E11F2D00DD4CE1CB
:1008200020230F005B1B10009A409F40E840531E9E
:100830009A41E940074317435346DF1B611ABA4503
:10084000A44164420C1B230200D4C5E06402650A83
:10085000002D00D1F6E0280000F05CFB0300083B0F
:100860001F2B00DDE9E020223C00D21A9D40D4403D
:100870009F4025439E4200DDDBE09E1B731C1F2B27
:1008800000DD0AE120223800D21A290097402C000E
:100890009140D8407A1E9741DC40002601430F4327
:1008A0007B0709D00F233B40042B05D03B1DBB42E7
:1008B000BF417F42E4191F00230225D5864B013634
:1008C0009E4200D1AFE0854B01251C4043466207A4
:1008D000FF08640276051743240B760D1D400021A6
:1008E0002403230B0C0D7E4A24051C4314403305BE
:1008F00023435B00ED075B082B43380019001CBC49
:1009000090469946A246F0BD012543466207FF087E
:100910001743E4081D40704B9E4236D024037605F1
:10092000240B760DDBE76346F31A002B00DC94E022
:100930006046002835D068488642B1D080273F0401
:100940003943382B00DCFDE00A43170000217A1EF2
:100950009741574457458041091944420C192302D5
:100960003AD55D4B01369E4200D14BE101225B4BF3
:100970001C407B0817401F43E207174364088FE7BA
:100980000800104300D024E721E723003B4300D1B7
:10099000B9E18022120314432403240B9FE72E00A5
:1009A0007EE70800104300D1CAE0581E84460028A4
:1009B00000D0E7E052445245804164184042241878
:1009C00017000126230207D50226CFE764462C43F1
:1009D00000D1B3E12C0067467B0700D062E76307D4
:1009E000FF081F4301254346E4081D4093E7002DFF
:1009F00078D1751C6D056D0D012D00DCF2E05046BF
:100A0000801A8245BF41651A7F42ED1B8446280249
:100A100000D48CE05046171ABA4292410C1B554242
:100A2000651B984614E70125434600241D40002716
:100A300055E72A4CF61A2C4032E73D00283885400D
:100A4000002717E7380000F065FA203006E70A4370
:100A5000170000217A1E9741EEE6002B00D0E5E05A
:100A6000731C9C465B055B0D012B00DC9FE01A4B61
:100A70009C4500D1C5E05244524580416418404233
:100A80002418E707520817436408664608E7124827
:100A9000854200D185E01D00BCE629001F3EF140E3
:100AA000202B00D17FE04022D31A9D402F437D1E92
:100AB000AF4100240F4300268EE72B000F00203BA0
:100AC000DF40202D71D040235D1BA9400A43511EF9
:100AD0008A4100211743AFE6FF070000FFFF7FFFB9
:100AE000FFFF0F80002E3ED0B34EB44545D0802688
:100AF00036046D423443382D00DDA8E01F2D00DDA3
:100B00001FE1202627005046761BB740E8400743E8
:100B10005046B040461EB041EC403843171ABA4226
:100B200092410C1B5242A41A664698468BE66446D4
:100B300067462C4300D08BE6002500260027EAE616
:100B40001E00ADE61F2B60DC2027F81A0F0084463C
:100B500087401000D840074360468240501E8241C3
:100B6000D9401743F5E626005046064305D0ED432D
:100B7000002DD3D0904EB445BDD10C001700664671
:100B800098468DE68C4883420BD06346D9E6002D0B
:100B900000D096E00800104300D1E2E00C001700FE
:100BA0009846854E7CE6002580E700218EE72300ED
:100BB00050460343002E00D0A8E0002B00D1DEE019
:100BC0000B00134300D16BE6524452458041641838
:100BD000404224181700230200D4FDE6774B6646F6
:100BE0001C405DE6250050460543002ECFD1002D68
:100BF0004FD10C00144300D1A0E00C001700984620
:100C00004EE666460024002785E61F000800203FC8
:100C1000F8400700202B00D18EE04020C31A9940F5
:100C20000A43511E8A410021174392E6002E14D137
:100C300026005046064362D0DB43002B5CD1871868
:100C40009742924164185242A418664687E650467D
:100C50002043441EA041002460E7574EB4454ED0C7
:100C6000802636045B423443382B00DD7FE01F2BA7
:100C700000DD8BE0202627005046F61AB740D8400A
:100C800007435046B040461EB0410743DC40BF1802
:100C9000D6E70D00154300D102E65046801A824582
:100CA000BF41651A7F42ED1B8446280200D48DE6C1
:100CB0005046171ABA4292410C1B5242A41A984647
:100CC000EEE50D00154300D16BE750466707C008FD
:100CD00007438020E4080003044207D0CD08054202
:100CE00004D12C009846D70849070F437B0FE40036
:100CF0001C43FF00304ED3E52F4EB445B4D10C0059
:100D000017006646CCE500270024E8E5002B39D023
:100D10000B00134300D144E7C00867070743802056
:100D2000E40800030442E1D0CB080342DED1D70837
:100D300049070F431C00D9E7002171E70025002770
:100D4000E9E52E002700203EF740202D2FD0402639
:100D5000751BAC4050462043441EA041002438433C
:100D6000DCE6802400252403134E0027D3E55046FB
:100D700020430700781E87410024BF1860E70C005D
:100D800017008DE50C0017000B4E89E51E002700AB
:100D9000203EF740202B0CD04026F31A9C405046B2
:100DA0002043441EA04107430024BF1848E7002405
:100DB000D0E70024F3E7C046FF070000FFFF7FFFF6
:100DC00030B5134D0A034B00120B5B0DC90F002405
:100DD000AB4210DD0F4CA3420FDC80240E4D6403A8
:100DE0002243ED1A1F2D0BDD0C48C31ADA40544282
:100DF000002900D11400200030BD094BCC18FAE7BF
:100E0000084CE840A44663449A400243EFE7C046DA
:100E1000FE0300001D040000330400001304000062
:100E2000FFFFFF7FEDFBFFFF10B5041E28D000F091
:100E300071F8154B154A1B1AD21A1F2A15DD144AD0
:100E4000D21A9440002224035B05240B5B0D002181
:100E5000100024030A0D240B120522430D4C1B0520
:100E6000224013435B00590810BD210091400A0045
:100E70000B21081AC4405B052403240B5B0DE6E735
:100E8000002300240022E2E71E04000033040000D7
:100E900013040000FFFF0F808446101C62468C463E
:100EA000191C634600E0C0461FB500F0EFF80028AB
:100EB00001D40021C8421FBD10B500F049F84042DE
:100EC000013010BD10B500F0E1F8002801DB002072
:100ED00010BD012010BDC04610B500F0D7F80028A5
:100EE00001DD002010BD012010BDC04610B500F08E
:100EF00069F8002801DC002010BD012010BDC046AB
:100F000010B500F05FF8002801DA002010BD0120C4
:100F100010BDC0461C2101231B04984201D3000CC4
:100F200010391B0A984201D3000A08391B0998425C
:100F300001D30009043902A2105C40187047C04672
:100F40000403020201010101000000000000000092
:100F5000F0B54F464646D6465C00C0B51F03DB0FD2
:100F60009A46174B0E034D0084468046360B6D0D96
:100F7000C90F91463F0B640D01209D4208D09C4251
:100F800001D0A5420BD01CBC90469946A246F0BDAC
:100F900063463343F7D1AC42F5D13A43F3D1012054
:100FA000BE42F0D1C845EED1514507D0002DEAD15F
:100FB00063461E433000461EB041E4E70020E2E7EE
:100FC000FF070000F0B54546DE4657464E46E0B501
:100FD0001F033D0B2C4F0E034C00AB465D008446B7
:100FE000360B640DC90F90466D0DDB0FBC422AD045
:100FF000254FBD422DD0002C0FD130430700814634
:1010000078427841C0B2002D17D15F463A4314D1DF
:101010004B460020002B0AD006E0002D02D1584696
:10102000024301D0994218D04842012108433CBCF8
:1010300090469946A246AB46F0BD0028F2D001206A
:10104000013B1843F3E737000743D1D00220404269
:10105000EDE75F461743CED0F8E7AC42E4DC03DAB5
:10106000481E01210843E2E75E45DDD806D0002096
:101070005E45DCD20123481E1843D8E7C445D3D8C7
:101080000020C445F6D3D2E7FF070000F0B54E4676
:101090004546DE4657465C00E0B51F03DB0F994628
:1010A0002A4B0E034D00C90F8446360B6D0D8B463F
:1010B00090463F0B640D9D4220D0244B9C4222D091
:1010C000002D12D1304343424341DBB2002C1FD0EC
:1010D000002B0CD04B460120013B034318003CBCC5
:1010E00090469946A246AB46F0BD002C16D0CB45A3
:1010F00017D05B46594201230B43EFE7310002232F
:101100000143EBD1D9E7390002231143E6D1D7E7F8
:101110003A43DDD100230028E0D0EAE73A43E6D1A4
:10112000E7E7A542E5DC05DBBE42E2D807D00023B5
:10113000BE42D3D25946012301390B43CEE7C44501
:10114000D7D80023C445F5D3C8E7C046FF07000041
:1011500070B50500FA200D4B80001978FEF7F0FFFE
:101160000B4B01001868FEF7EBFF00F09BF9040041
:101170000120002C09D1032D07D8023822002900B4
:1011800000F054F92000034B1D6070BD00000020EA
:101190000C000020040000201023064A10B511683E
:1011A00000200B431360FFF7D3FF04F035FA002053
:1011B00010BDC04600200240034A044B11681B7852
:1011C0005B1813607047C046E0020020000000205A
:1011D000014B18687047C046E0020020F8B50400D3
:1011E0000120002C73D0A36B002B06D122003432D7
:1011F000E3632000137004F027FAA36BDB0600D52D
:101200007AE0042223689868104000D074E0A26B52
:101210004349114002220A430321A2639A680A400B
:10122000012A00D06EE01968114202D1DA68120476
:1012300068D5DA683B490A40DA60257E627EAD03F4
:10124000D2031543A26AA17E013A561EB24116038B
:10125000E2684F03154322692F43022A00D104207C
:10126000621DD27F52003A4332430243E07E01289E
:1012700004D100292CD1802149020A43C220E1690E
:10128000FF30814202D0206A01430A438020D9689E
:1012900040051143D960E16A814202D0481E062808
:1012A00007D8072558692940A84358615869014360
:1012B0005961DB681C490B409A4211D1002003227E
:1012C000E063A36B93431A0001231343A363F8BDA8
:1012D0002021A56B2943A163E16B0843E063CDE7BF
:1012E0001222A36B012093431A0010231343A3631C
:1012F000E36B0343E363EAE71023A26B012013438C
:10130000A363E4E71821DA688A43A1680A43DA6034
:1013100019696268890089081143196189E7C04623
:10132000FDFEFFFF1902FEFFE7FF3F83F7B5002335
:10133000040001933434237805000220012B2BD0C4
:1013400001232A68EE6A9068237040075AD4304817
:101350004F680D6887423FD0AB4018008023976AE2
:101360005B05384390629E420FD0013E062E0CD999
:101370008B68072150690840834206D050690B40B2
:10138000884350615069034353612B00103B022B8B
:1013900003D9002000232370FEBD1E4A802311685C
:1013A000102D15D0112D15D05B040B431360102D9B
:1013B000EFD1194B19491868FEF7C2FE0A235843AA
:1013C0000190019B002BE4D0019B013B0193F8E7C6
:1013D0001B04EAE7DB03E8E7AB40916A99432B0083
:1013E000103B9162022BD4D80A4B1A68102D05D0FD
:1013F000112D05D00A490A401A60CAE70949FAE7DF
:101400000949F8E72022A96B18000A43AA63C1E73B
:1014100001100000082701400C00002040420F008E
:10142000FFFFFFFEFFFF7FFFFFFFBFFF70B58901DA
:10143000002812DB8308134A03249B009B18FF2219
:101440002040A0401400C025844011408140AD00E0
:101450005E59A6433143595170BD03240F23C0B2D6
:1014600003402040A040FC342500214085408140BD
:10147000083B054A9B089B009B18DA69AA43114365
:10148000D961E9E700E100E000ED00E0002805DBBC
:101490001F2318401E3B8340014A13607047C0461B
:1014A00000E100E0094A431E012093420DD8C0210B
:1014B000074A08485360036A09061B021B0A0B43CC
:1014C000036200200723906013607047FFFFFF0056
:1014D00010E000E000ED00E070B504000120002CF9
:1014E00024D002232068A51CEB770268104BA1686A
:1014F0001A4063680B43E1680B4321690B43616940
:101500000B43A1690B43E1690B4313430360094B90
:101510001421C018FEF714FE074B80002064E3631B
:1015200000200123A063E418EB77E07770BDC0468C
:101530000FC0FFFFF8FFFDBF00000240F8B5042711
:101540003E00016CC26B8E40156803681C682E4219
:101550000DD03C420BD01968890602D41968B943F2
:101560001960C36A5660002B19D0984717E002270C
:101570003E008E402E4213D03C4211D0196889069D
:1015800006D40A241968A14319600121C319D97727
:1015900056600022431CDA77836A9342E5D1F8BD96
:1015A000082637008F403D42F9D03442F7D00E254F
:1015B0001C68AC431C6001231C008C405460821CDE
:1015C0008363D3770022C318DA77036BE5E7000063
:1015D000F0B50B6887B0029300230191029ADA40BC
:1015E00001D107B0F0BD01229A4003920399029AFB
:1015F0000A40009200D18CE0019A10215268160036
:101600008E43022E0ED107251D40AD000139A940A1
:10161000DC08A4000419276A8F4301990969A940CD
:101620000F43276203245F00BC40E4430568013E8A
:101630002540AC4603251540BD4061460D4305607D
:10164000012E0FD801998668CD682640BD403543EC
:1016500085604668039915098E4301210D409D4020
:1016600035434560C56801992C408D688021BD4097
:1016700049052C43C4600A424BD00121264C032665
:10168000A5691E400D43A561A4699D080C40059401
:10169000059C0F242149AD00B6006D18B44090217F
:1016A000AF68C905A743002488420CD01C49013407
:1016B000884208D01B490134884204D01A490334B7
:1016C000884200D1023CB44000993C430E00AC601B
:1016D000164CCD4327683E43D10301D43E002E4033
:1016E00026606768009E3E43910301D43E002E4071
:1016F0006660A768009E3E43D10201D43E002E40A2
:10170000A660E668009F3743920201D42E4037005E
:10171000E760013362E7C04600100240000001406C
:101720000004004800080048000C00480004014084
:10173000002A01D0816170478162FCE7F0B50400A6
:1017400085B0002802D1012005B0F0BD0368DB0799
:101750002ED423689B077ED423681B0700D5BAE0EC
:1017600023685B0700D5DDE02368DB061AD56269D4
:10177000B44D0423012A00D049E1696B02260B43D2
:101780006B636B6B1A436A63FFF722FD07006B6B99
:10179000334200D134E1F8216A6BA3698A43DB004C
:1017A00013436B63236A002B00D057E10020CBE783
:1017B0000C21A44D6A680A40042A06D06B680B40CD
:1017C000082B09D16B68DB0306D52B689B03C0D5BA
:1017D0006368002BBDD1B6E76368012B13D180236A
:1017E0002A685B0213432B60FFF7F2FC8026070098
:1017F000B6022B683342ACD1FFF7EAFCC01B642869
:10180000F7D90320A0E7002B15D12B688E4A80263C
:1018100013402B602B688D4AB60213402B60FFF7F4
:10182000D7FC07002B68334293D0FFF7D1FCC01BD5
:101830006428F7D9E5E7052B05D180232A68DB0268
:1018400013432B60CBE72B687F4A13402B602B6838
:101850007E4A1340C7E70C227A4D6B68134206D0CC
:101860006B681340082B11D16B68DB030ED42B6817
:101870009B0703D5E368012B00D064E7F8212A68B1
:1018800023698A43DB0013432B6065E7E268012389
:10189000002A0FD02A68022613432B60FFF798FC1A
:1018A00007002B683342E9D1FFF792FCC01B0228E6
:1018B000F7D9A6E72A6802269A432A60FFF788FC30
:1018C00007002B68334200D146E7FFF781FCC01BBD
:1018D0000228F6D995E7E26901235A4D002A10D073
:1018E0006A6A022613436B62FFF772FC07006B6A99
:1018F000334200D034E7FFF76BFCC01B0228F6D957
:101900007FE76A6A02269A436A62FFF761FC070072
:101910006B6A334200D123E7FFF75AFCC01B022851
:10192000F6D96EE780220021464D5205EB69009101
:10193000134208D1EB691343EB61EB691340039346
:10194000039B012300938027414E7F0033683B4275
:1019500006D0A368012B13D12A6A13432B6230E00F
:1019600033683B433360FFF733FC019033683B42FD
:10197000EFD1FFF72DFC019BC01A6428F6D940E790
:101980000122002B14D12B6A022793432B622B6A6E
:10199000033293432B62FFF71BFC06002B6A3B428A
:1019A00025D0FFF715FC2B4B801B9842F6D928E772
:1019B000052B0BD1296A013B0B432B622B6A1A437F
:1019C0002A62FFF705FC022706000DE02B6A93430D
:1019D00004222B622B6A9343C0E7FFF7F9FB1D4BF0
:1019E000801B984200D90CE72B6A3B42F5D0009B44
:1019F000012B00D0B8E6EB69174A1340EB61B3E660
:101A0000FFF7E6FBC01B022800D8C0E6F9E6053266
:101A100003D16A6B9A436A63BDE66A6B022613437D
:101A200001226B636B6B93436B63FFF7D1FB070082
:101A30006B6B334200D1B5E6FFF7CAFBC01B02282F
:101A4000F6D9DEE600100240FFFFFEFFFFFFFBFFBE
:101A50000070004088130000FFFFFFEF0C20354AA4
:101A6000516815000140082947D0334A022B32D172
:101A70002B68802613402B60FFF7AAFB0700B604F3
:101A80002B68334221D10F22EB6A9343E26A13435E
:101A9000EB62616AA36A6A680B43284980240A40A2
:101AA00013436B6080232A685B0413432B60FFF7AA
:101AB0008FFB0600A4042B68234200D076E6FFF7D4
:101AC00087FB801B0228F6D99BE6FFF781FBC01B32
:101AD0000228D5D995E62B68802413402B60FFF7A8
:101AE00077FB0600A4042B68234200D15EE6FFF7D3
:101AF0006FFB801B0228F6D983E61800012B00D16A
:101B000022E680215368656A4902D26A19400120A1
:101B1000A94200D018E60F210A40E16A8A4200D0AB
:101B200012E6F02080030340A06A1B1A581E83416E
:101B3000D8B209E600100240FFFFFFFEFFFFC2FF20
:101B400070B5144C88B010222100684603F00EFFD7
:101B5000210004AD10221031280003F007FF0C22F1
:101B60000D4E73681A40082A11D10F206A46990C4D
:101B70000140545CF26A0240A95CDB0305D50748CA
:101B8000FEF7DEFA604308B070BD0548FAE7034887
:101B9000F9E7C046E86100080010024000127A0030
:101BA00000093D00F7B505000F00002801D1012014
:101BB000FEBD0122374C236813408B421CD3296899
:101BC0008B0722D4CB072FD4012322681A409742D7
:101BD00051D32B68304C5B0754D4FFF7B1FF6368D7
:101BE0002E4A1B061B0FD35CD8402D4B18600020DB
:101BF000FFF7AEFA0020DBE7236893430B43236033
:101C0000236813409942D2D1D9E7234A4B0704D520
:101C1000E0235068DB0003435360F02053688343A4
:101C2000A86803435360CDE71B4E6A683368012AF6
:101C300019D19B03BBD5032173688B431343736096
:101C4000FFF7C6FA01900C2372681A406B689B007C
:101C50009A42B9D0FFF7BCFA019BC01A114B9842C7
:101C6000F1D90320A4E7022A02D19B01E3D49EE725
:101C70009B07E0D49BE722689A43226022681A42BD
:101C800095D1A6E76368084A1340EA681343636086
:101C9000A3E7C04600200240001002407C69000813
:101CA0000C00002088130000FFF8FFFF044B054ADA
:101CB0005B685B055B0FD35C034A1068D8407047D4
:101CC000001002408C6900080C000020F0B5036889
:101CD00085B00500DB0328D5802200213B4C52054E
:101CE000E3690091134208D1E3691343E361E369B7
:101CF00013400393039B012300938027344E7F00FE
:101D000033683B422FD0C022236A92001340314EE9
:101D10003BD1236A1E406B681E43009B2662012B49
:101D200003D1E3692C4A1340E3612A68D30706D53F
:101D3000032026490B6B8343A86803430B63930678
:101D400006D5102021490B6B8343E86803430B63DE
:101D50000020530517D540211C4A136B8B4329697A
:101D60000B4313630FE033683B433360FFF730FAF4
:101D7000019033683B42C6D1FFF72AFA019BC01A93
:101D80006428F6D9032005B0F0BD69680A40934283
:101D9000BFD08023226A206A11005B0203432362C2
:101DA000236A0E483140034023622162D307B0D535
:101DB000FFF70EFA07000222236A1342A9D1FFF7A8
:101DC00007FA074BC01B9842F5D9DBE70010024029
:101DD00000700040FFFCFFFFFFFFFFEFFFFFFEFF73
:101DE00088130000E021036810B55A688A435A60DE
:101DF00082224168520091420CD1802182680902FE
:101E00008A4203D08021C9008A4203D140211A6846
:101E10008A431A608021826A89018A4206D1196840
:101E2000074C2140196019680A431A600300012217
:101E30005D331A7000235C300370032010BDC04670
:101E4000FFDFFFFFF8B504000D00170080262368B0
:101E50009868304009D06A1CFAD0FFF7B9F9C01B66
:101E60008542F4D82000FFF7BDFFF8BDF7B5C027C5
:101E700005000C0016000193FF002B6898682040B5
:101E80000DD0BC4200D11A7B721CF7D0FFF7A0F92D
:101E9000019BC01A8642F0D82800FFF7A3FFFEBDC1
:101EA00070B513000D0016000A00C021490104009E
:101EB000FFF7DCFF002805D02023226E0320134308
:101EC00023660FE0320029002000FFF7BBFF002847
:101ED000F2D1C02133002A00C9002000FFF7C6FF5D
:101EE0000028E9D170BD0000F8B504000120002CE5
:101EF0004BD000232500A3625D352B78DBB2002B8D
:101F000005D122005C321370200003F00DFC022387
:101F1000402221682B700B68002093430B60E02364
:101F2000E268DB009A4231D9F0263601B24233D161
:101F30000600206B002803D19A422FD90223236385
:101F4000A7686368A0693B4327693B4367693B43D4
:101F5000E7693B43276A3B43A76A3B438027BF00AF
:101F600007403B430B60636A000C1A43636B1A43E0
:101F700004231840104306434E60CB69084A0020F2
:101F80001340CB61012320662B70F8BD80267601BB
:101F90009A42CED0A062CCE70600FBE70123CEE751
:101FA000FFF7FFFFF0B587B0019303005C330393A5
:101FB0001B7804000D0017000226012B00D17CE0E5
:101FC0000123039A1370FFF703F9220002905D3298
:101FD0001378DBB2012B6AD11E00002D67D0002FD1
:101FE00065D0023313700023A21D23662364A5630A
:101FF000A787E78702329387D3872365E36480232B
:10200000A2681B029A4205D180232268DB01116875
:102010000B431360402223681968114202D11968EA
:102020000A431A60E021E068C9006268884247D923
:10203000002A01D0012F07D12A880235DA60E38F08
:10204000A563013B9BB2E3870225E38F002B16D1EA
:10205000029A01992000FFF723FF002800D06DE0CD
:10206000A368002B06D105932368DA6805929B6864
:102070000593059B266E731E9E41F6B217E02268FB
:1020800093682B4209D0A36B19880233D160A363F4
:10209000E38F013B9BB2E387D7E7FFF799F8029BF9
:1020A000C01A019B9842D0D30133CED0032601231E
:1020B0005D3423700023039A1370300007B0F0BD25
:1020C000002A01D0012F0AD1E28F012A1CD92A88C7
:1020D0000235DA60E38FA563023B9BB2E3870225FA
:1020E000E38F002BB4D0226893682B421CD0E18F81
:1020F000A36B012910D919880233D160A363E38F40
:10210000023B9BB2E387EBE72A781A73A36B013398
:10211000A363E38F013BE0E71B781373A36B0133E9
:10212000A363E38F013BECE7FFF752F8029BC01A71
:10213000019B8342D4D80133D2D0B7E72023236652
:102140008EE70000F7B51E00030001925C331A7899
:1021500004000F000225012A00D1ACE001221A7010
:10216000FFF736F8230000905D331B786168DBB21F
:10217000012B0BD082225200914200D094E0A26841
:10218000002A00D090E0042B00D08DE00125002F24
:1021900000D189E0019B002B00D185E0002E00D109
:1021A00082E023005D331A78042A01D005221A70D8
:1021B000019A00232264220008322366D687A21DDA
:1021C000D687E022E068E3642365A763E687A687F5
:1021D000D2002368904201D8012E31D95A68714D3E
:1021E0002A405A60402223681D68154202D11D68AA
:1021F0002A431A60E022D20090425ED9002901D021
:10220000012E07D13A880237DA60E38FA763013BDA
:102210009BB2E387012502272E00E38F002B14D108
:1022200023000833DB8F002B0FD1009A0899200080
:10223000FFF736FE051E37D020230125236633E045
:1022400080225D6852012A43CBE7226893683B42B3
:102250000ED0E38F002B0BD0012D09D10025A36BED
:1022600019880233D160A363E38F013B9BB2E387FC
:10227000936833420ED021000831CB8F002B09D058
:102280003500236CD2681A8002332364CB8F013B64
:102290009BB2CB87FEF79CFF009BC01A089B834232
:1022A000BBD80133B9D00325230001225D331A7056
:1022B00000235C3423702800FEBD002901D0012ECC
:1022C0000AD1E28F012A51D93A880237DA60E38FC6
:1022D000A763023B9BB2E387012502272E00E38F11
:1022E000002B05D123000833DB8F002B00D19CE7A6
:1022F000226893683B4211D0E38F002B0ED0012D52
:102300000CD1E18FA36B012938D919880233D16030
:10231000A363E38F023B00259BB2E38721688B68B0
:10232000334219D023000833DA8F002A14D0D88F13
:10233000226C01282AD9C868350010800232226434
:10234000DA8F023A92B2DA87DB8F012B04D880232E
:102350004A685B0113434B60FEF73AFF009BC01ACB
:10236000089B8342BBD80133B9D09CE73A781A73F3
:10237000A36B0133A363E38F013BABE71B781373BC
:10238000A36B0133A363E38F013BC4E7097B3500F3
:102390001170226C01322264DA8F013A92B2DA872C
:1023A000DAE7C046FFEFFFFF5D300078C0B270474C
:1023B00070B504002569A36802682B436569C1698B
:1023C0002B431068434D0B4328400343136053686D
:1023D0004148256A0340E06803435360A36990685D
:1023E0002B433E4D28400343936080233C481B020F
:1023F000824210D103203B4A126B02403A48805C73
:10240000994213D0082828D8FDF790FE4127462787
:10241000572727275A003548824256D1994236D14C
:10242000FFF744FC636840005B080BE008281ED8F7
:10243000FDF772FEF61D051D151D1D1D18006368B4
:1024400058082B4BC0186168FDF77AFE83B2002054
:102450001A002849103A8A420CD9012013E0FFF7EC
:102460006FFBDFE76368580880235B02EAE701201F
:102470000023EDE70F22190091430A001B07216892
:102480005B0F1343CB6000232366636670BDFFF7C9
:102490000DFC63685B0802E063685808164BC018BF
:1024A0006168FDF74DFE83B200201A001149103A11
:1024B0008A42D2D82268D360E5E7FFF741FBE8E71C
:1024C0006368580880231B02E9E79942CFD00120B6
:1024D0000023EAE7F369FFFFFFCFFFFFFFF4FFFFF1
:1024E00000380140001002404862000800440040EB
:1024F0000024F400EFFF000000127A00436A30B5B8
:10250000DA0706D50168284C4A682240846A2243CB
:102510004A609A0706D50168244C4A682240C46A7A
:1025200022434A605A0706D50168214C4A68224076
:10253000046B22434A601A0706D501681D4C4A689D
:102540002240446B22434A60DA0606D501681A4CE1
:102550008A682240846B22438A609A0606D5016805
:10256000164C8A682240C46B22438A605A0610D5F2
:102570000168134D4A68046C2A4022434A60802255
:102580005203944205D14A680E4C2240446C2243C7
:102590004A601B0606D502680B4953680B40816CE4
:1025A0000B43536030BDC046FFFFFDFFFFFFFEFF42
:1025B000FFFFFBFFFF7FFFFFFFEFFFFFFFDFFFFFDF
:1025C000FFFFEFFFFFFF9FFFFFFFF7FFF7B580273C
:1025D00004000E00150001933F012268D3693340C7
:1025E0009B1B59424B41AB4201D000201CE0089B91
:1025F0000133F3D0FEF7ECFD019B089AC01A236863
:10260000824201D3002A10D11A6813490A401A6085
:102610009A68A331FF318A439A6020236367A367D6
:102620000023032070342370FEBD04211A680A427F
:10263000D3D0DA693A42D0D01F621A6806490A40FC
:102640001A609A68A331FF318A439A602023636736
:10265000A367E367E4E7C0465FFEFFFFF0B587B01E
:102660000593436F04000D0017000220202B49D171
:102670000138002946D0002A44D08023A2685B019B
:102680009A4204D12369002B01D101423AD123009F
:1026900070331A780220012A34D0012200261A70E1
:1026A0002123E6676367FEF793FD230050331F8005
:1026B000023303931F808023A26804905B019A4237
:1026C00004D12369B34201D12E001D0023005233EF
:1026D0001A88059B92B20093049B002A0AD14021DC
:1026E0002000FFF773FF00280BD1202370346360B4
:1026F000207007E0002280212000FFF767FF0028FC
:1027000002D0032007B0F0BD2268002D0BD1338822
:102710000236DB05DB0D1385039B039A1B88013B07
:102720009BB21380D2E72B7801351385F4E70000C4
:1027300073B500260400C667FEF74AFD236805004E
:102740001B681B0715D423681B685B070AD580210B
:102750000E4B00220093C9032B002000FFF736FF29
:10276000002811D1202300206367A36770342070F4
:102770000BE08021054B3200009389030300200009
:10278000FFF724FF0028DED0032076BDFFFFFF0106
:1027900010B5041E01D1012010BD436F002B04D1E0
:1027A00002007032137002F0F1FF2423012122682D
:1027B0006367136820008B431360FFF7F9FD01285E
:1027C000E9D0636A002B02D02000FFF797FE236850
:1027D00007495A6820000A402A215A609A688A43A9
:1027E0009A60012219680A431A60FFF7A1FFD3E734
:1027F000FFB7FFFF054B10B51A1880001B18117AA0
:102800005B6808005B68984710BDC046C4020020A2
:10281000084B0200195C002010B5814208D101214B
:102820009954991892009B185B68087A1B6898471E
:1028300010BDC046C402002070B5054C25188000AC
:1028400024182E7A606884683000A04770BDC046A6
:10285000C402002070B5054C2518800024182E7A7B
:102860006068C4683000A04770BDC046C402002044
:10287000054B70B51C1880001B18257A5B68280072
:102880001B69984770BDC046C4020020002310B5E4
:102890009A4200D110BDCC5CC4540133F8E78218D1
:1028A000904200D1704701700130F9E7F0B5002483
:1028B00080252200164BAD001F68002F1CD0465902
:1028C000B7421AD18227BF005E68C759BE4214D1F1
:1028D0001E89B4460F4E875BBC450ED110200029DF
:1028E00015D10C235A430A4B9A1850890138FF38E6
:1028F0004242424110010AE0012401320C33022A13
:10290000DAD10020844202D1022900D01220F0BD89
:10291000A8000020060200008023F0B5244C9B0094
:102920008225C65822000023AD002768B7420AD18D
:102930006768BC464759BC4505D12789BC461D4F31
:10294000C75BBC4527D001330C34022BEDD1136893
:10295000002B04D00024D368A3421AD101230C24F5
:1029600082255C43AD004559165114196560114D1F
:10297000405B208100206081814215D10C215943A8
:1029800051184989013189B20C20584312185181DC
:102990005C1C2000F0BD0029F0D00C21002459431C
:1029A00051184989A142F4D180214900ECE7C04681
:1029B000A800002006020000411E10B502200129D7
:1029C00011D80C231A004A43074CA2185089074A11
:1029D000024001D0013882B200204B43E1184A8105
:1029E000824200D1E05010BDA8000020FFFEFFFF92
:1029F0008922030010B592008458243A9A58094B52
:102A0000480AD15CFDF79CFB0200043420680028D2
:102A100006D0824202D3121A0834F7E76068101811
:102A200010BDC04602020000010000230B315A080D
:102A3000DB011343027801309B18DBB28842F6D1E8
:102A4000180070470268131E03D1012040420EE0B7
:102A5000013319781F2909D93A29F9D1511C8B4220
:102A6000F3D11278302AF0D101330360002070478F
:102A700010B5002815D0802292008358002B10D06A
:102A80009A5C002A0DD0084A995A023A825A914219
:102A900007D1064A985CFFF7ADFE01230340181EDC
:102AA00000D0092010BDC04606020000010200004F
:102AB000CA7E10B50400887E12021043032C05D193
:102AC0004A7D0B7D120213431B04184310BD000006
:102AD0008B23F7B504009B00C558134E0123805D7E
:102AE0002A002100FFF7B6FE0196012300280AD133
:102AF00081239B00E05417361C33E358A259EB1A8C
:102B0000934202D300231800FEBD084BE75C012F5F
:102B1000F8D9A3592100ED18019B2A00E05C01239C
:102B2000FFF798FE013FF2E70102000003020000F8
:102B3000812310B59B00C25C00239A4202D0FFF7AC
:102B4000C7FF0300180010BDF8B50400FFF7F0FF41
:102B5000051E5ED180229200A35C032B50D12D4E26
:102B6000A75D012F4CD101002000FFF798FEFF2345
:102B70005522F22072215B00E254274B9218E25456
:102B8000AE3BFF3B23706370693A0F334000A37084
:102B9000E2702154E620FF3021547531FF31625438
:102BA000E822FF32A354B033FF33E3580132A35479
:102BB000EA22190AFF32A154190C0132A154EC2265
:102BC0001B0EFF32A35483239B00E3580132A3540E
:102BD000EE22190AFF32A154190C0132A154F0223D
:102BE0001B0EFF32A35487239B00E258103301329F
:102BF000E2500A4B2100E05C3B00FFF72BFEA5559D
:102C00000022064B1100E05CFFF732FE431E9841A4
:102C1000C0B2F8BD05020000FF0100000102000083
:102C20008B239B00C35870B504000E0000258B4217
:102C300012D0FFF77DFF051E0ED1084B3200E05C7D
:102C400021000123FFF7F8FD002802D001260135FD
:102C500076428B239B00E650280070BD01020000E5
:102C6000812300229B0010B5C2542833013AC25080
:102C70000400FFF7D5FF0323002821D1FF22114BC9
:102C80005200E35CA25C1B021A430F4912B20223FA
:102C90008A4215D1228FE38E12041A430B49120285
:102CA000120A03008A420BD05234638820881B0426
:102CB00003431B02064A1B0A9B18581E8341DBB2C2
:102CC000180010BDFF01000055AAFFFF4641540047
:102CD000BABEABFF0023F0B5036089B0070008005F
:102CE0001600FFF7AFFE0B23051E17DB9D4B82007E
:102CF000D4580C23002C11D0F5333C60FF33E35C37
:102D0000994F002B0DD0E05DFFF774FD01230340C8
:102D100007D1002E02D0420700D50A23180009B0BF
:102D2000F0BD802300229B00E8B2E254E055FFF79B
:102D30006FFD0323C207F1D4002E01D04307ECD46A
:102D400000212000FFF78CFF01282DD12300002057
:102D5000C733FF331A1F11780022914209D05978E6
:102D60001A78090211439A7812041143DA7812068C
:102D70000A4304A94250043010331028EAD1002538
:102D8000022604AB5B5930000093002B05D01900DC
:102D90002000FFF765FF00280ED00435102DF0D17C
:102DA0000123032805D1B9E701230328B6D0002861
:102DB00001D00D23B2E70090227BE37A1202134385
:102DC00080221BB292009342F3D1E37DA77D1B02C8
:102DD0001F4300D1676A86239B00E750237C634A28
:102DE000A3545A1E012AE4D8617B614AA1540029E8
:102DF000DFD04A1E1142DCD1A57C627C2D02154336
:102E000082229200A5522A07D3D1207DE27C0002C3
:102E1000104300D1206AE67BA27B36021643C8D05D
:102E20007B430393039A2B099B199B1802939842A7
:102E3000BFD3C01AFDF784F90028BAD001224D4B48
:102E40000192984205D94C4B83429B415B4202332D
:102E500001938523009A9B000230E0500833E25032
:102E60008823961994468A229B00E650029B920082
:102E70006344A350019B032B5FD1002D99D189237B
:102E8000E26A9B00E25080003C4BC018400A874237
:102E90008FD38426012383255B42B600AD00384FD3
:102EA000A35163518133E355019B032B2CD12300A4
:102EB00031331A78013B1B7812021343012B23D1C3
:102EC000009920000131FFF7ABFE00281CD12B4BED
:102ED000E055E25C013BE35C12021343294A1BB25A
:102EE000934211D1284B22689A420DD1F22252000E
:102EF000264BA2589A4207D1F4235B00E358A35112
:102F0000F6235B00E35863516A46802312799B00E5
:102F1000E2541F4A138801339BB213801D4AA35207
:102F20001D4A13689C4201D100231360D16800231D
:102F30008C4200D0F2E6D360F0E6002D00D138E7F5
:102F4000039B9E1989239B00E650019B022B01D114
:102F5000400099E703230122434310405B081818FF
:102F600092E7C046A4000020010200000302000016
:102F700002020000F50F0000F5FF0000FF01000055
:102F80000502000055AAFFFF525261417272416171
:102F9000C000002006020000A80000208522920048
:102FA00082580239023A03000020914205D2034AB6
:102FB000985C263241439858081870470202000076
:102FC000F7B5012406000D00A1421BD985239B0003
:102FD000C358994216D280239B00C35C022B2FD08A
:102FE000032B40D0A3420DD188234F089B00C35828
:102FF0007F18790AC9180193FFF712FE002803D041
:10300000012464422000FEBD7B1C590A01938823E1
:103010009B00F358FF05FF0DC9183000F75DFFF75F
:10302000FFFD0028ECD1019BDB05DB0DF35C1B02EF
:103030001F43254201D03C09E4E73F053C0DE1E791
:10304000882292000B0A81585918FFF7E9FD0028E1
:10305000D6D1FF236D005B001D4073195C78735D52
:1030600024021C43CEE788229200CB0981585918CC
:10307000FFF7D6FD0028C3D1FE23AD005B001D4045
:103080007319DC789A782406120414435B78725D15
:103090001B0214431C4324012409B3E7F7B50600BF
:1030A0002D4B0D00F1520233C458012C01D10220E6
:1030B000FEBD8022852192008358890059588C4298
:1030C000F5D2002C25D19A5C032A04D189229200E2
:1030D0009A58002A1ED1822292009A5A9542E6D22C
:1030E00089229200985883239B00F4500028DED058
:1030F0002B09181884239B00F0500F231D40F23336
:10310000FF33F3586D015D1985239B00F5500020B6
:10311000CEE72200802714001049BF005B5C1B0132
:103120000193019B2100F0599D4202D2FFF736FF27
:10313000D9E7FFF745FF0400431C0AD00128B6D9A0
:103140008522F35992009B589842B0D2019BED1A08
:10315000E7E70120ACE7C0460602000002020000DB
:10316000F7B505000C0016000220012965D985235A
:103170009B00EB58994260D280239B00EF5C874212
:1031800046D0032F5AD0012F57D14B085B18590A4C
:10319000009388239B00EB582800C918FFF740FDD7
:1031A00000284AD1009B3C4001330193009BF2B2BE
:1031B000DB05DB0D002C08D00F21FF20EA5C0001AD
:1031C0000A40310101400A43D2B2EA54812301226C
:1031D0009B00EA548822019B9200A9585B0A591867
:1031E0002800FFF71DFD002827D1019BDA05D20D2D
:1031F000002C06D03609F6B2AE54812301229B0082
:103200001AE00F21AB5C360A8B430E401E43F3E7F6
:10321000882292000B0AA95828005918FFF700FDD0
:1032200000280AD1FF2301225B0064001C402E55B8
:103230002C19360A66700633EA54FEBD88229200C5
:10324000CB09A95828005918FFF7EAFC0028F4D147
:10325000FE23A4005B001C402A19D3781B091B071E
:103260001E43330A2E555370330C360E9370D670AE
:10327000C3E70000F7B505000F1E0AD183239B00AA
:10328000C658002E03D00833C3589E4212D30126DD
:1032900010E0FFF795FE0400012847D9431C03D135
:1032A000012464422000FEBD85239B00EB583E00B4
:1032B0009842F7D3340085239B00EB5801340193E7
:1032C0009C4204D3012E01D80024EBE70224210004
:1032D0002800FFF775FE002806D0431CE0D0012827
:1032E00024D0B442E7D1EFE7114A21002800FFF7CC
:1032F00037FF002818D1002F0FD1832384229B0091
:103300009200EC50AB58591CCCD0013BAB50012380
:10331000084AA95C0B43AB54C4E7220039002800DB
:10332000FFF71EFF0028E8D00128B9D00124B9E733
:10333000FFFFFF0F05020000F0B54F4B87B0039170
:10334000C25A0400013201926A4692880493002A0C
:1033500002D1042007B0F0BD842292008358002BD4
:10336000F7D00F210198084002900FD183278026C3
:10337000BF00E1590133A350B600002915D18223C3
:10338000A2599B00D35A019A9A42E2D26A46049B00
:1033900092880020E2528022029B9200A2585B0198
:1033A000D31885229200A350D4E7344AA059019D36
:1033B000835C2D09013B1D4000950592E6D1FFF786
:1033C000FFFD0500012801D80220C3E7431C01D1FD
:1033D0000120BFE78523A0599B00C3589D422ED3EF
:1033E000039B002BB5D0E159FFF744FF05000720F0
:1033F000002DAFD0012DE7D06B1CE9D08026B600A0
:10340000A059FFF795FB011EE2D13200A059FFF74A
:1034100046FAA75929003800FFF7C0FD8B239B000F
:10342000F8508127BF00A059059B009AC35C9A42BF
:1034300011D38B229200835800995B1A8350832307
:103440009B00E5500C3BE0582900FFF7A7FD8423C3
:103450009B00E0509AE70123C355FFF739FB002892
:10346000B6D18B22A15992008B5801338B50009B0F
:1034700001330093D7E7C0460602000002020000B5
:103480000122892352429B00F0B5C252263BFF3BEA
:1034900005001C0087B0039384239B00E958103B70
:1034A000E858FFF7BDFB071E00D087E085239B008F
:1034B000EE583378002B00D183E0E52B06D03F2275
:1034C000F17A0A40090707D50F2A07D0012289237C
:1034D00052429B00EA524EE00F2A58D188229200B5
:1034E000AA580292002A47D04022134241D0934367
:1034F0001C00354B717BEA5A1E330391EA52737BF1
:10350000039A934237D140220D2733789343013BEE
:1035100000225F43012301922C4A0199895C7218B1
:103520005278705C12021043002B2CD001F0CEFABE
:103530000590FE2F1FD87B1C0493029B7F00F85A36
:1035400001F0C4FA059A0300824214D1049F019A43
:10355000013201920D2ADFD13278520606D5002BB6
:1035600004D0029A7B009B5A002B04D1013CE4B2A8
:1035700002E0A342C3D0FF2400212800FFF7DCFEB5
:10358000071E89D01AE0124A9042E0D0F3E7002CDF
:1035900005D13000FFF748FA039B98420ED08623EE
:1035A00001219B00EA58D37A0B408FD1581CF15C63
:1035B000D35C99428AD103000B28F7D1380007B0B9
:1035C000F0BD0427FAE7C04606020000CC620008FE
:1035D000FFFF0000F0B50B7887B0060001912F2B9C
:1035E00001D05C2B02D1019B013301938223002483
:1035F0009B00F450019B1B781F2B0BD8210030003F
:10360000FFF74CFD85239B00F45007B0F0BD019BF4
:1036100001330193019B1B782F2BF8D05C2BF6D044
:10362000882300249B00F3580593019B2700185D15
:10363000651C1F281BD92F2819D05C2817D0FF2CF8
:103640000ED0012101F024FA002809D07F2809D8E2
:1036500000238649CA5C002A04D001338242F9D192
:103660000620D2E7059B640018532C00DDE7019B80
:1036700000245B1901931F2383426441A400002F9F
:10368000EED0059A7B00D3189A1E1288202A02D009
:103690002E2A00D087E0013FF1E7013305995A0057
:1036A0008A5A202AF9D02E2AF7D0002B02D00322E2
:1036B0001443E4B27A000599023A8A5A2E2A02D0BB
:1036C000013F002FF6D10822029200221500049239
:1036D0005A1C0392059A5B00985A00287AD0202839
:1036E00004D02E2807D1039BBB4267D003231C4381
:1036F000E4B2039BECE7049B029A934262D2039BE1
:10370000BB4214D1029B0B2B09D15EE0039BBB4251
:1037100005D003231C43039BE4B2BB425AD80B23BE
:10372000AD000293EDB20397033B0493E1E77F28DA
:103730000FD9002101F0ACF90023984203D04C4B83
:1037400018188038037898B202231C43E4B200288A
:1037500007D000234749CA5C002A79D0013382424E
:10376000F9D103235F201C43E4B286239B00F35866
:10377000049A985413000133D7E702231D43F4E75A
:103780005B0700D541E785239B00F158CB7ADB0628
:103790005CD580239B00F258D05CFFF789F9822327
:1037A0009B00F05036E700251D8086239B00F058D3
:1037B0000B222021FFF773F82B006FE7049B029A7E
:1037C00093429FD3029B0B2BA0D103231C430833AE
:1037D000E4B2029386239B00F3581A78E52A01D1BC
:1037E000E03A1A70029B082B01D1AD00EDB20C2318
:1037F0002B400C2B02D0EA43920702D10222144341
:10380000E4B2A2070BD403221540012D02D10D32E0
:103810001443E4B2042B02D104331C43E4B28625E2
:10382000AD0073590021DC723000FFF737FC00282F
:1038300002D13000FFF724FE7359DB7A00289FD0B5
:10384000042800D0E1E6034200D0DEE60520DCE6F5
:103850000300413B192B90D90300613B192B84D8FD
:10386000012320381D4380B27FE7C046D96200089B
:103870004C620008E26200088623F0B588249B00B1
:10388000C65889B0A400035905AD07000C222800D2
:1038900031000093FEF7FAFFEB7A01252B4200D1AD
:1038A00077E00023F3723B510B2205A93000FEF7AD
:1038B000EDFF2B00052D47D80F2107228C4603A9C9
:1038C00064461C4020003030392800D90730013AC6
:1038D0008C1860701B09F3D17E2088549A4237D02F
:1038E000F05C202832D120242000072A01D8885CEF
:1038F0000132F0540133072BF6D900213800FFF7CD
:10390000CDFB041E3CD13800FFF7BAFD041E37D1B1
:103910000135642DC8D10724200009B0F0BD102066
:10392000023101241440A44680245B0063446402F5
:103930005208234201D06D4C634001380028F0D179
:103940000A88002AEBD1B7E70099F9E70133C5E708
:103950001300C8E70130009A4300D35A002BF9D175
:1039600019300D21FCF7ECFB050018E006000121E1
:103970003800FFF7E1FC041E18D0042CCBD0CBE7B5
:10398000042CC9D105ABDB7A009AF37288239B0023
:10399000FA5005ABDB7A012500209B07DBD4002120
:1039A0003800FFF77BFB041EE7D1060084239B0051
:1039B000F958103BF858FFF733F9041EDDD1852381
:1039C0009B00FB581B78E52B01D0002BCED1013694
:1039D000B542CCD1013D002D61D0454B3800F95A9C
:1039E000491BFFF75BFB041E00D095E786239B0075
:1039F000F858FFF719F8019084239B00F958103B01
:103A0000F858FFF70DF9041E00D085E788239B00C6
:103A1000FB58EAB20093852394466A469B00FB5804
:103A200012790D215A730F22DA72EAB2013A4A432F
:103A3000010018739876D8762E4CA04203D0009CD3
:103A40005000005B01322C4C0C5D18551C192600EF
:103A5000040A7470002800D1264801310D29EBD1E9
:103A60002449884204D000995200525A002A03D1B6
:103A70006146402211438C46624680211A708123A0
:103A80000122890079589B00CA5438000021FFF7B1
:103A900053FC041E00D03FE7013D002DACD1802631
:103AA0008423B6009B00F958B859FFF7B9F8041EF3
:103AB00000D031E78525AD00202221007859FEF79E
:103AC000EEFE86239B00F9580B227859FEF7DEFEA6
:103AD000862318219B00FB587A59DB7A0B4013731D
:103AE0008123BA5917399B00D15415E721100100E1
:103AF00006020000FFFF0000CC620008F7B51D4A77
:103B00000500835A009389239B00C35A1A480192E7
:103B10000099834200D019002800FFF7BFFA041E65
:103B200026D18026B60084239B00E958A859FFF7C8
:103B300077F8041E19D18527BF0001002022E8591B
:103B4000FEF7ADFEE522EB591A708123A959E43A3C
:103B50009B00CA54019B009AEB5A9A4208D9210053
:103B60002800FFF7E9FB041EDDD0042C00D1023C45
:103B70002000FEBD06020000FFFF0000FF23F7B596
:103B800005001C000427009384239B00E9580029AA
:103B900002D1002F71D060E080239B00E858FFF72E
:103BA0003FF8071E59D185239B00E8580378002B66
:103BB00000D16BE0E52B49D02E2B47D03F21C27AB4
:103BC0000A4016001F398E43082E3FD00F2A4DD1D0
:103BD0003132134238D093431C002D4B417BEA5ABB
:103BE0001E330091EA52437B009A93422ED18823E0
:103BF0003F229B00EB580021019303781340013BC7
:103C0000323A53430C3A94466646224A8A5C8718F5
:103C10007F78825C3F023A43002E23D0FE2B15D8DA
:103C20009446019E5F00BA53013301310D29EBD157
:103C30000278520605D5FE2B08D8002201995B00B8
:103C40005A52013CE4B202E0A342CCD0FF2400214E
:103C50002800FFF771FB071E96D0842300229B00EB
:103C6000EA500BE00C4EB242DFD0EFE7002C07D158
:103C7000FEF7DAFE009B984202D100273800FEBD15
:103C80000122892352429B00EA52F7E70427E4E726
:103C900006020000CC620008FFFF0000F7B5040038
:103CA0000D00012901D80220FEBD85239B00C258CA
:103CB0009142F8D284270093BF00009BE358019300
:103CC0009D4205D229002000FFF77AF9061E01D196
:103CD0000020E9E70128E6D0431C12D00022290089
:103CE0002000FFF73DFA0028DED1E3595A1C06D028
:103CF0000133E3510123044AA15C0B43A354350073
:103D0000DBE70120D0E7C046050200007FB5019047
:103D100003A8140000910391FEF794FE0B220028E3
:103D200024DB144D80004359002B0DD0124A11683A
:103D30008B4201D100211160D6680021B34200D12D
:103D4000D160802292009954019B002B03D08022E5
:103D50000021920099542B501A1E07D00022012CEA
:103D600004D1694601A8FEF7B5FF0200100004B0B7
:103D700070BDC046A4000020A8000020F0B5884C0B
:103D80000500A544039117000926002800D1CDE0C5
:103D9000802300229B00C2501E323A4003A988A80B
:103DA000FEF798FF061E00D0C0E01F233B401820FE
:103DB0000193862302A9091805AA9B00CA50794AD3
:103DC00002A908330918CA5008A80399FFF702FC92
:103DD0008523182102AA9B005218D45800280AD122
:103DE0000630002C07D00123019908A899434B1EE7
:103DF0009941FEF75BFD1C231F426AD0002860D06A
:103E000004285CD1684B1A68002A03D0DB680E30A6
:103E1000002B54D108A8FFF72FFD00284FD108230D
:103E2000019A18211A438523019202AA9B00521875
:103E3000D458019B1B0755D500F068FE00271821B8
:103E40008022030AE373030CA0732374000E02ABF9
:103E500092006074E77227776777A777E7775B1838
:103E60009B582100985C0293FEF722FE80221821C5
:103E700002ABA776E7762775677592005B1802900C
:103E80009858812301229B00C254029BBB4229D037
:103E90008B2302999B00C758FFF700FF00280ED123
:103EA0001821802202AB5B1892009858029B0C32BA
:103EB000013B83503900FEF7B3FE002812D0060004
:103EC00034E01123E27A1A4237D17B07B1D50826B4
:103ED0002CE00028F3D1E37ADA062CD4BA0701D516
:103EE000DB072AD4019B1B0703D52023019A1A4321
:103EF00001921822802702AB9B18BF00DB59019961
:103F000002938B23029A9B00D258103BEA50043351
:103F1000EC50012399434B1E994108A8FEF7FCFC85
:103F20008A239B00E850002809D102263000932301
:103F30009B009D44F0BD0426F8E70726F6E76A4695
:103F40001A4B12792100EA540022194BEA54182224
:103F500002AB9B18DB59D85D0193FEF7A9FD8423C2
:103F60009B00E850627F237F12021A43A37F1B0449
:103F70001A43E37F1B06134383229200AB50822334
:103F800000229B00EA501033EA500C33EA50019BA8
:103F9000064AEB519A5A81239B00EA52C6E7C04673
:103FA000B4FDFFFFC2000020A800002006020000B0
:103FB00007020000F0B589B0069300231500069AA9
:103FC000040013600E00FEF753FD0190002816D187
:103FD000684AA35C0792002B2FD1674BE25C0593E4
:103FE000D30700D4C4E083239B00E258043BE75886
:103FF000D71BAF4200D92F000396002F02D10198A2
:1040000009B0F0BD82239B00E158CB0500D09CE0B5
:1040100080239B00E058594B4E0AC35C013B1E4075
:10402000F6B2002E21D1002909D184239B00E0584B
:10403000012813D80223079AA3540193DFE78923A9
:104040009B00E358002B03D02000FEF7D1FCEFE7E4
:1040500085239B00E158FEF7B3FFE9E7431C01D13C
:104060000123E8E785239B00E05080239B00E35871
:10407000049385239B00E1580498FEF78FFF0028E6
:10408000D8D0831902937D0A36D03C4A049B9B5CAE
:1040900072199A4200D99D1B394B049A0399D05C3E
:1040A0002B00029AFEF7C8FB0028D9D1059BE35CE0
:1040B0005B060ED586239B00E058029BC01A854202
:1040C00007D98022039B4002181892002100FEF7B6
:1040D000DDFB6D02039B82225B19039382239B000D
:1040E000E35892005B19A350069B069A1B687F1B3E
:1040F00002935B19136080E786239B00E258029BC2
:1041000093421ED04026059B1D4DE35C33420CD0EC
:10411000049B2100585D0123FEF79CFB00289FD1E2
:10412000059B059AE35CB343A35480239B00E358AB
:10413000029A0493585D21000123FEF77DFB0028BD
:104140008ED18623029A9B00E25082239B00E35883
:104150003D00D90502938023C90D9B005B1A9F4245
:1041600000D91D0061182A000398FEF78FFBB1E704
:10417000072362E7070200000602000002020000B7
:1041800001020000F0B589B0069300230092069A60
:10419000040013600D00FEF76BFC0190002821D194
:1041A0007B4AA35C0792002B49D17A4FE25D9307CB
:1041B00000D4EAE082239B00E258009989188A42E1
:1041C00004D802950393009B002B0ED182239B0001
:1041D000E2580433E1588A4200D9D4E02023E25D5A
:1041E0001343E355019809B0F0BD039BE158CB059B
:1041F00000D0B2E080239B00E058674BC25C4B0AC2
:10420000013A1340DBB20493002B2AD1002907D1D5
:1042100084239B00E15800290CD1FFF72BF807E01D
:1042200089239B00E358002B0BD02000FEF7E0FB16
:10423000011ECBD0012908D10223079AA354019370
:10424000D0E785239B00E158E7E74B1C01D1012310
:10425000F3E785239B00E150043BE258002A00D19C
:10426000E1504025E35D2B4212D080239B00E358B0
:1042700021000593059A494BD05C862292000123C8
:10428000A258FEF7E7FA0028E1D1E35DAB43E3551E
:1042900080239B00E358059385239B00E1580598F4
:1042A000FEF77CFE0028C7D0049BC618009B5D0A61
:1042B00037D0394A059B9B5C049A52199A4201D91E
:1042C000049A9D1A354B059A0299D05C2B00320056
:1042D000FEF7C0FA0028BAD186239B00E058861B5F
:1042E000B5420BD98022029B7602991992002000D8
:1042F000FEF7CCFA4022E35D9343E3556D02029B47
:10430000039A5B190293039BE3585B19A350069B26
:10431000069A1B6804935B191360009B5B1B009358
:1043200051E786239B00E3589E4213D0039BE3583A
:10433000049383239B00E358049A9A420AD2174BB2
:10434000059A2100D05C01233200FEF775FA00289F
:1043500000D07CE786239B00E650039B009DE3583A
:10436000D80504938023C00D9B001B1A9D4200D9E1
:104370001D002A0020180299FEF788FA4023E25D0A
:104380001343E355BBE7E25028E7072357E7C0464E
:104390000702000006020000020200000102000005
:1043A00073B504000E000A2902D10D21FFF7F8FFB2
:1043B0006368002B14DB5D1CE3181E733C2D0BDDC2
:1043C000210001AB2A000C312068FFF7DBFE019BC6
:1043D0005D1B6B1E9D416D42A36865600133A36048
:1043E00073BD0000F8B50400FEF742FB061E57D16E
:1043F0002C4FE35D9A0653D540252B4211D08023E4
:104400009B00E258284B2100D05C862292000123B9
:10441000A258FEF71FFA0136002841D1E35DAB43F5
:10442000E35587239B00E1581C3BE058FEF7F8FB5F
:10443000061E35D1882320229B00E558EB7A1343D2
:10444000EB7283239B00E25C2A77E258120A6A77B8
:10445000E258120CAA77E3581B0EEB7784239B00DB
:10446000E3581A0AAB761B0C2B751B0AEA766B75A0
:1044700000F04CFB2022030AA875EB75030C000E1C
:10448000AE74EE742B766876E35D9343E355802338
:104490009B00E0581F3A0433C254FEF755FB060058
:1044A0003000F8BD060200000102000010B5040053
:1044B000FFF798FF00280ED12000FEF7D9FA002858
:1044C00009D18A239B00E058FEF776FA002802D132
:1044D00080239B00E05010BDF0B587B004000D00B4
:1044E000FEF7C6FA0190002850D1B04AA35C0592AD
:1044F000002B25D189239B00E358002B00D192E0AB
:104500006A1C46D11E1D1B680335049384239B003F
:10451000E3580293002B02D102252DE002900023E4
:10452000029F0393039B39000133039380239B0075
:10453000E058FEF745FD012804D80223059AA3544C
:10454000019323E0431C01D10123F7E77B1C070003
:104550009842E7D0049B0235AB4204D3039B3360FF
:10456000029B73600836802385229B00E3589200EB
:1045700002939B589842D1D389239B00E3581D6036
:10458000049B9D4200D90EE100233360019807B0DF
:10459000F0BD83239B00E658AE4200D92E00822353
:1045A0009B00E650002EF1D0751E29002000FEF77A
:1045B0001FFA85239B00E050143BE75801003800A8
:1045C000FEF7ECFC0028B8D0F605DFD0784B6D0A7A
:1045D000FB5C013B1D4086239B00E2582D18954251
:1045E000D4D04021734EA35D0B420BD0724B2100FF
:1045F000F85C0123FEF72EF90028A5D14022A35D27
:104600009343A35580239B00E3586B4A2100985C99
:1046100001232A00FEF710F9002800D094E7862332
:104620009B00E550B2E783239B00E3589D4204D9E9
:10463000604AA25C920700D41D0082270022BF00BE
:10464000E359E25195423ED182239B00E258043364
:10465000E1588A429AD9E250564AED3BA15CFF3BB1
:104660000B43A35492E7002582239B00E358DB050C
:10467000EAD086239B00E2589542E5D040274D4E74
:10468000A35D3B420ED080239B00E3584A49585C0F
:1046900001232100FEF7DEF8002800D054E7A35DD7
:1046A000BB43A35580239B00E358434A2100985CF9
:1046B00001232A00FEF7C0F8002800D044E7862333
:1046C0009B00E550C0E780229200A2580292029916
:1046D000374A8E5C7602002B2DD0013B3100681EDC
:1046E0000393FBF72DFD310004900398FBF728FDA1
:1046F000049B83421FD3039A73421A4085239B0075
:10470000E158E251AD1A0029ADD08027BF00B54273
:1047100025D882229200A3585B19A350EB05A2D0A2
:1047200080239B00E058FEF739FC002800D104E705
:104730006D0A2D1898E78427BF00E15900290AD196
:104740000298FEF797FD0100012800D1F5E6431C11
:1047500000D1F9E6E05185239B00E150D3E7022226
:10476000144BE059E35C134205D0FEF783FD011EB4
:1047700004D13500CDE7FEF723FC01004B1C00D12E
:10478000E2E6012900D8D8E68523E2599B00D258F9
:10479000914200D3D1E682229200E150A358AD1B92
:1047A0009B19A350B3E71123CAE6C04607020000D5
:1047B000020200000602000001020000F0B5140031
:1047C00085B003900291002203A92000FEF782FA2F
:1047D000051E0BD1842324689B00E2580433E15862
:1047E000009102398A4204D8029B1A60280005B061
:1047F000F0BD80229200A25C0192012A1ED1022605
:104800000700019331002000FEF7DAFB431C49D07A
:10481000012849D043425841019B0136E3583F18D3
:1048200000939E42EED384239B00E7500123204A4D
:10483000A15C0B43A354029B1F60D7E788239B0016
:10484000E15807000300002809D120004E1CFEF7A4
:10485000E7F900282AD18020230031008000019A46
:10486000022A0ED15E781A783602324356427241DD
:104870000233BF180238009A013A0092002AE2D1AE
:10488000D1E75E781A78360216439A780438120413
:104890001643DA780433120632431201564272414B
:1048A000BF18E8E70125BEE70225BCE70500BAE727
:1048B0000502000030B5394C0122A544019001A940
:1048C00086A8FEF707FA002824D186236946183007
:1048D000091803AA9B00CA506946314A09180833CF
:1048E000CA5006A80199FEF775FE002812D10221D0
:1048F00006A8FDF7DBFF00280CD1182185236A46A6
:104900009B005218D1580630002903D0CD7AEB070E
:104910000FD50720234B9D4430BD182080236A46C5
:104920009B0012182100D058FFF7B8F90028F1D1E8
:104930002BE0182080236A469B001218D258D05CC6
:104940000092FEF7B5F8041E18D0EB0616D58A22A1
:1049500090AD06A928009200FDF798FF822302215E
:104960009B002800EC50FEF799FB0028D2D12800CC
:10497000FFF704F90028CCD00428CBD106A8FFF714
:10498000BDF80028C6D1002CC7D16A461821802363
:1049900052189B00D058FEF7D7F8BBE794FBFFFFF7
:1049A000C20000206C040000F0B5060017000500EE
:1049B000002485B00191019B013B9C4212DA03ABBC
:1049C000012202A93800FFF7F5FA039B012B09D158
:1049D00002AB1B780D2BEED06A1C2B700134150036
:1049E0000A2BE8D100232B70631E9C4164422640B1
:1049F000300005B0F0BD002310B5040096B003915F
:104A0000049305932178002906D1049A002A08DA34
:104A10000120404216B010BD03A80134FFF7C0FCCE
:104A2000F0E702AB06A90398FFF7ACFB0028EFD133
:104A3000049B029A01939342EAD10598EAE70000A9
:104A400030B501240E4B5D7AA54216D800245D7A5C
:104A5000EDB25C555D7AAD005D196860587A181842
:104A600002725A7AD2B2501CC0B258723A23303213
:104A70004B700B3B0A708B70CC70200030BDC04671
:104A8000C402002010B50022FFF7DAFF10BD0000BD
:104A900010B57F2807D9002906D0FF2811D8803803
:104AA000094B4000C05A10BD074A4C00A45A8BB2B3
:104AB000844203D001318029F7D10B008033D8B272
:104AC000F1E70020EFE7C046EA620008002310B5D6
:104AD000054C5A00115B002903D0814202D1034BDF
:104AE000D05A10BD0133F4E7EA630008CA65000834
:104AF00010B503490348FFF7C5FF034B187010BDFD
:104B0000E402002010000020E8020020002070478E
:104B100037B56B46DD1D2870064C2000FDF744FCC0
:104B200002000128F8D1FA2329009B002000FDF79C
:104B300039FA37BD100E002010B50022402102487E
:104B4000FCF7F6FD10BDC0460004004810B5012278
:104B500040210248FCF7ECFD10BDC04600040048AF
:104B60007FB50E26FF236E440F24337000236C4460
:104B70002370094D2800FDF717FC03000128F8D128
:104B8000FA2292000092310022002800FDF7DAFAA2
:104B9000207804B070BDC046100E002013B5FFF79A
:104BA000D5FF0A24FF20013CFFF7B2FF002CF9D10A
:104BB000FFF7C2FF6A464023137095235470947028
:104BC000D470147153716B46185D0134FFF7A0FF68
:104BD000062CF8D18024A401FFF7C2FF012802D0DF
:104BE000013C002CF8D1FFF7B1FFFF20FFF790FF49
:104BF0000122014B1A7013BDD1020020322310B5DF
:104C0000054C2370FFF7ACFFFFF7AAFFFF2802D087
:104C10002378002BF8D110BD5011002070B505008D
:104C20000E00FFF7EBFF03000020FF2B2CD130001C
:104C3000FFF76EFFFD2E21D080239B002C00ED1886
:104C40002078FFF765FF60780234FFF761FFAC4220
:104C5000F6D1FFF785FF4125FFF782FF1F26FFF7FB
:104C60007FFF030004003340052B03D0013DEDB26C
:104C7000002DF4D1FFF774FF0028FBD01F20044063
:104C8000053C60426041C0B270BD70B505000C00CB
:104C9000FFF7B4FF0300FF20834226D12800FFF76F
:104CA00037FF200EFFF734FF200CC0B2FFF730FFB4
:104CB000200AC0B2FFF72CFFE0B2FFF729FF9520D2
:104CC000402D03D00020482D00D18730FFF720FF72
:104CD0004C2D01D1FFF744FF0A24FFF741FF0306E3
:104CE00003D5013CE4B2002CF7D170BD0A2370B5A6
:104CF00004000D000F4E3370FFF732FF0300FF2852
:104D000004D13078C0B20028F6D170BD0020FE2B4F
:104D1000FBD12600FFF724FF3070FFF721FF7070F2
:104D20000236731BA342F5D1FFF71AFFFFF718FFF6
:104D30000120EAE751110020F7B50123002806D130
:104D40000226464D2C78344003D02B78DBB2180075
:104D5000FEBDFFF723FFFFF7EFFE21004020FFF726
:104D600094FF01286DD1D52164233D4F4900473080
:104D70003B70FFF78AFF012840D1FFF7F1FE01AE3B
:104D8000A0550134042CF8D1B378012B59D1F37814
:104D9000AA2B56D18024E40500217720FFF775FF68
:104DA000012824D93B78002BF6D13B78002B48D042
:104DB00000217A20FFF769FF002842D10400FFF7A5
:104DC000CFFE30550134042CF9D1337806265B062A
:104DD00000D4043E234B1E70FFF7B8FEFFF7C0FE61
:104DE000002E37D001222B7893432B70ADE72100A2
:104DF0006920FFF74AFF0028D4D1D6E721007720A9
:104E0000FFF743FF012805D821006920FFF73DFF88
:104E1000012800D9012600214120022E15D177203A
:104E2000FFF733FF01280ED93B78002BF3D13B78F5
:104E3000002B06D0802150208900FFF726FF002894
:104E4000C8D00026C6E700216920FFF71EFF002812
:104E5000EAD1ECE7044B1E7077E7C046080000205B
:104E600051110020D0020020D1020020012300288F
:104E700002D1024B1B78DBB21800704708000020FB
:104E8000F8B507000D0016001C000420002F23D1E8
:104E9000002B21D01D4B01381B78DB071CD41C4B89
:104EA0001B785B0700D45602FFF746FE3100012C49
:104EB00013D15120FFF7E9FE002806D180212800F8
:104EC0008900FFF713FF44424441FFF73FFEFFF71D
:104ED00047FE601E8441E0B2F8BD5220FFF7D5FEC8
:104EE0000028F2D18026B60031002800FFF7FEFE30
:104EF000002805D08023013C9B00ED18002CF3D145
:104F000000214C20FFF7C1FEDFE7C046080000206B
:104F1000D0020020F8B507000D0016001C00042088
:104F2000002F27D1002B25D0254B01381A78D20726
:104F300020D41A78042301381A421BD1214F3A7821
:104F40001A4200D17602FFF7F7FD012C13D1310090
:104F50005820FFF79AFE002830D1FE212800FFF7E5
:104F60005DFE44424441FFF7F1FDFFF7F9FD601E8D
:104F70008441E0B2F8BD3B789B0707D5002177203C
:104F8000FFF783FE21005720FFF77FFE31005920F5
:104F9000FFF77BFE0028E6D1FC212800FFF73EFE4C
:104FA000002805D08023013C9B00ED18002CF3D194
:104FB000FD210020FFF732FE0028D4D10124D2E7E2
:104FC00008000020D0020020F0B5060085B00F00D8
:104FD00015000424002808D1052918D11378012BC5
:104FE0000DD0002B04D0022B0DD0200005B0F0BD59
:104FF000464A1C0011780029F7D01370F5E7FFF737
:10500000CDFD3400F1E7414B1B785370F9E7404B7D
:1050100003241B78DB07E8D4FFF78EFD0D2F6BD838
:105020003800FBF783F84B07466969696969696964
:105030006953606300214920FFF727FE041E05D055
:105040000124FFF783FDFFF78BFDCEE710216846B3
:10505000FFF74CFE0028F3D06B4619785A7A89097D
:105060001B7A012906D101321B02D3189BB29B0285
:105070002B60E6E76946C9799B0989005B18694698
:10508000C020897900018902014001335B1869461B
:105090000F204979520001406846807A9BB2C009CE
:1050A00009180620023102408A18D2B2093A934008
:1050B000DEE780239B002B800024C2E7FFF79EFDE4
:1050C000FF380400601E8441E4B2BAE700214920A1
:1050D000FFF7DBFD0028B3D110212800FFF706FE03
:1050E00044424441F0E700214A20F1E700217A20C0
:1050F000FFF7CBFD002801D00424A2E72C1DFFF709
:105100002FFD28700135A542F9D1F5E7D102002025
:105110000800002010B50400FAF7F6FFFA23C2B227
:10512000DB0021000148FDF799FA10BD8409002039
:1051300002000300981A0133591E09780029F9D199
:105140007047000000238022180010B5034CD200E5
:105150001919013308709342FAD110BD040A0020D6
:1051600030B5102597B0302200210AA800F007FCC6
:105170002A00002101A800F002FC1422002105A849
:1051800000F0FDFB11230A9380235B02139380231D
:10519000012410955B030E3D0AA8129514930B94FD
:1051A0000F94FCF7CBFA072302950025210001A8F4
:1051B000019303950495FCF7F5FC05A80594079564
:1051C000FCF784FD17B030BDF0B58BB0FBF7E4FF02
:1051D000FFF7C6FF1422002105A800F0D0FB8021B4
:1051E000E64DC9036A69C0270A436A616B69BF005B
:1051F0000B4080210193019B6A6909030A436A619C
:105200006B69DF480B4080210293029B6A69890227
:105210000A436A616B6900240B4080210393039B5E
:105220006A69C9020A436A616B6900220B400493F0
:105230003900049BFCF77CFA00224021D148FCF79E
:1052400077FA9020012605A9C005059606940794D3
:10525000FCF7BEF905A9CA48059706960794089475
:10526000FCF7B6F9402305A9C648059306960794AE
:105270000894FCF7ADF96B69220033436B616B69ED
:105280002100334000930920009BFCF7CFF8092050
:10529000FCF7FCF80C22210005A800F070FBBA4DC9
:1052A000BA4B04272B60C223FF33EB6128006B1D30
:1052B0002E61AE76DC77AE626C60AC60EC606F61E4
:1052C0002C766C76EC762C62FBF788FF80235B01F2
:1052D0000693802305A95B05280005960793FCF734
:1052E00025F8022305A928000593FCF71FF80323DE
:1052F00005A928000593FCF719F805A928000597CA
:10530000FCF714F8052305A928000593FCF70EF80F
:10531000062305A9280005930636FCF707F805A91A
:1053200028000596FCF702F8082305A92800059334
:10533000FBF7FCFF092305A928000593FBF7F6FFFF
:105340000A2305A928000593FBF7F0FF9048914B2D
:1053500084600360E1235B0243600C23C46043610B
:1053600004618461C46104624462FDF711FA8A48F1
:105370008A4BC6620360E023DB00C36080239B008E
:1053800083614460846004614461046244628462B5
:1053900004634463FCF7A8FDFFF7AAFB804E2200DC
:1053A00031008048FEF7B2FC7F4B1870A04200D15C
:1053B000E2E07E48FFF7AEFE7D4C7E4D22002900E4
:1053C0003000FFF7FBF9852322687B4F9B00D35801
:1053D000D05D023B5843FBF727FD0022774BFAF7DD
:1053E00059FFFAF739FF764E764B0200186076497E
:1053F000300000F0CDFA3000FFF78CFEFFF7A2FE80
:1054000023682868DB5D5843FBF70EFD00226B4BD9
:10541000FAF740FFFAF720FF6C4B020018606C4966
:10542000300000F0B5FA3000FFF774FE694C6A4FA7
:10543000132239002000FEF7A1FC5B4D21002870EB
:105440006648FFF7D8FA28702000FFF72FF8287079
:105450006348FFF75FFE390001222000FEF78EFC53
:1054600083239B00E158220028703000FFF79CFA4C
:105470003000FFF74FFE2000FFF718F8FFF762FE3D
:10548000584F132239002000FEF778FC5649287047
:10549000300000F09FFA3000FFF74AFE534B020045
:1054A00031002000FEF76EFE28705148FFF732FEF3
:1054B0002000FEF7FBFFFFF745FE01223900200028
:1054C000FEF75CFC832292004A4BA2583100287000
:1054D0002000FEF76FFD3000FFF71CFE2000FEF7F6
:1054E000E5FFFFF72FFE122239002000FEF746FCF1
:1054F00083239B00E15828702000FEF7EDFF210078
:1055000028703D48FFF777FA28702000FEF7CEFF9D
:10551000012239002000FEF731FC83229200354B36
:10552000A258310028702000FEF744FD3000FFF73C
:10553000F1FD2000FEF7BAFFFFF704FE2F48FFF74A
:10554000B9F92870002802D12D48FFF7E3FD2D4856
:10555000FFF7B0F92870002802D12B48FFF7DAFDD9
:1055600001220F490020FEF7D1FB2870002802D14C
:105570002648FFF7CFFDFEE725481BE70010024055
:105580000008004800040048BC0E00200024014030
:105590008409002000380140100E00200030014036
:1055A0003F6800084C0700200C0E0020AA67000886
:1055B000080E002048070020020200000000E03F23
:1055C000040A0020740E0020E9670008800900200A
:1055D00003680008FC0E0020FE6800081D68000833
:1055E000406800082C6900086C680008040E002060
:1055F000A36800087C090020CA680008FD6800084C
:10560000086900082B690008366900085969000814
:10561000C86700087047000001200A4B82B09969F2
:105620000143996180219A69490502400092009ADC
:10563000DA690A43DA61DB690B400193019B02B02E
:105640007047C04600100240F0B505008BB0142230
:10565000002105A800F093F92D4B2A689A4254D1F5
:10566000802680202B4BB6009A69000332439A6152
:105670009A69032432400192019A59690027014333
:1056800059615A69024080200292029A5969800247
:105690000143596180215A69C90202400392039A69
:1056A0005A691D480A435A615B6906940B4004938A
:1056B000049B012305A90593FBF78AFF9020FE2395
:1056C00005A9C005059306940797FBF781FF1348CA
:1056D00005A9059406940797FBF77AFF104C114B28
:1056E000200023608023E36080231B01636120236B
:1056F0006760A7602661A361E761FBF7EDFEB84232
:1057000001D0FFF787FF2C6365620BB0F0BDC04688
:105710000024014000100240000800480004004836
:10572000780E00200800024010B5040088B0142252
:10573000002103A800F023F9114B22689A421CD1E2
:105740008020104B400199690143996180219A6939
:10575000C90202400192019A5A690B480A435A61F0
:105760005B690B400293029B38230393363B0493FF
:1057700003A901330693FBF72BFF08B010BDC04609
:1057800000300140001002400004004810B5040041
:1057900088B01422002103A800F0F1F8134B22680E
:1057A0009A4220D18020124BC0019969014399612E
:1057B00080219A69890202400192019A5A699020D7
:1057C0000A435A615B69C0050B400293029BC023E8
:1057D000DB000393022304930133069303A9023BE6
:1057E0000793FBF7F5FE08B010BDC0460038014036
:1057F00000100240084A1378002B03D01378013BB5
:10580000DBB21370054A1378002B03D01378013BE9
:10581000DBB213707047C0465111002050110020B8
:105820007047FEE77047704710B5074A1378013399
:10583000DBB213701378092B03D900231370FFF721
:10584000D9FFFBF7B9FC10BDD202002010B5024809
:10585000FBF774FE10BDC046780E00200A4B10B551
:1058600019680200002901D10849196069461868C1
:1058700082188A4206D900F04FF80C2303600120F9
:10588000404210BD1A60FCE7D402002058110020ED
:10589000704710B5FFF750FAC0B210BD10B5FFF752
:1058A000E5FAC0B210BD10B5FFF7EAFAC0B210BDFC
:1058B00010B5FFF72FFBC0B210BD10B5FFF784FB8A
:1058C000C0B210BD0D4885460D480E490E4A002352
:1058D00002E0D458C4500433C4188C42F9D30B4AA4
:1058E0000B4C002301E013600432A242FBD3FFF70C
:1058F000CFFF00F017F8FFF767FCFEE7002000205D
:105900000000002088000020D069000888000020E6
:1059100058110020FEE70000014B18687047C04690
:105920002400002070B500260C4D0D4C641BA41003
:10593000A64209D1002600F04BFC0A4D0A4C641B1C
:10594000A410A64205D170BDB300EB5898470136AC
:10595000EEE7B300EB5898470136F2E7C869000854
:10596000C8690008C8690008CC690008002310B5A0
:105970009A4200D110BDCC5CC4540133F8E7030057
:105980008218934200D1704719700133F9E7000083
:105990000EB410B59DB002A9029008610B48822494
:1059A00088604861012040421FABC881084804CB91
:1059B000A400006801938C8100F076F80023029A1D
:1059C00013701DB010BC08BC03B01847FFFFFF7F69
:1059D00024000020031C0A7801311A700133002AC8
:1059E000F9D17047F0B58E6885B007000C000392BE
:1059F00001939E4239D890238A89DB001A4234D021
:105A00000325096923685B1A0293636902985D4361
:105A1000EB0F5D19019B6D1001331B18AB4200D9D0
:105A20001D00530532D52900380000F031FB061E59
:105A300009D10C233B6040230120A289404213433B
:105A4000A38105B0F0BD029A2169FFF78FFFA389FA
:105A5000144A1A4080231343A381029B2661F6183F
:105A600026606561019EED1AA560019BB34200D2DC
:105A70001E0032000399206800F0ADFAA3680020F0
:105A80009B1BA36023689E192660DAE72A00380072
:105A900000F05CFB061EE0D12169380000F0AEFA90
:105AA000C7E7C0467FFBFFFFF0B59FB002900593AC
:105AB0008B890F0016001B0611D50B69002B0ED128
:105AC000402100F0E5FA38603861002805D10C2348
:105AD000029A013813601FB0F0BD40237B610023A0
