:020000040800F2
:1000000000200020215400087D5300087F53000881
:1000100000000000000000000000000000000000E0
:1000200000000000000000000000000081530008F4
:100030000000000000000000835300088553000802
:10004000715400087154000871540008715400087C
:10005000715400087154000871540008715400086C
:1000600071540008A9530008715400087154000825
:10007000715400087154000871540008715400084C
:100080007154000871540008000000007154000809
:10009000715400087154000871540008715400082C
:1000A000715400087154000871540008715400081C
:1000B00071540008000000007154000800000000A6
:1000C00010B5064C2378002B07D1054B002B02D02E
:1000D000044800E000BF0123237010BD8800002009
:1000E000000000001C5D0008044B10B5002B03D07D
:1000F0000349044800E000BF10BDC04600000000F6
:100100008C0000201C5D00080023C25C0133002A23
:10011000FBD1581E7047000002B4714649084900DF
:10012000095649008E4402BC7047C04602B471466D
:1001300049084900095C49008E4402BC7047C0462A
:10014000002243088B4274D303098B425FD3030A16
:100150008B4244D3030B8B4228D3030C8B420DD329
:10016000FF22090212BA030C8B4202D312120902B7
:1001700065D0030B8B4219D300E0090AC30B8B42F5
:1001800001D3CB03C01A5241830B8B4201D38B03A3
:10019000C01A5241430B8B4201D34B03C01A524148
:1001A000030B8B4201D30B03C01A5241C30A8B428B
:1001B00001D3CB02C01A5241830A8B4201D38B0276
:1001C000C01A5241430A8B4201D34B02C01A52411A
:1001D000030A8B4201D30B02C01A5241CDD2C3098C
:1001E0008B4201D3CB01C01A524183098B4201D308
:1001F0008B01C01A524143098B4201D34B01C01AF3
:10020000524103098B4201D30B01C01A5241C3086A
:100210008B4201D3CB00C01A524183088B4201D3D9
:100220008B00C01A524143088B4201D34B00C01AC5
:100230005241411A00D20146524110467047FFE731
:1002400001B5002000F006F802BDC0460029F7D035
:1002500076E770477047C04670B500220C4B04002B
:100260000D0000F04DFE002804D12000290000F010
:10027000A7FD70BD064B00222000290000F08AFA7D
:1002800000F09EFD80231B069C466044F1E7C046BB
:100290000000E041F0B557464546DE464E46E0B523
:1002A0000C0398464E00230B87B0070092469B46EE
:1002B000760DCD0F002E6BD06D4B9E4235D0802435
:1002C0005B46420F2404DB0014431C43C3009946E1
:1002D000684BA3469C46002300276644029343468E
:1002E0001C035A00DB0F5046240B520D984600D1D8
:1002F00076E05F4B9A426DD08023410F1B040B4385
:100300005C49E4008C461C43C30000206244414623
:10031000B6186940721C0191944607430F2F00D90B
:10032000B0E0554ABF00D25997465B460343994611
:1003300000D087E000239B46023308270293CEE7D4
:1003400042460192022867D0032800D10EE201281C
:1003500000D062E100230024002299460199014067
:10036000CDB2002112030B0D120B1B051343434AA0
:10037000240513401C436400ED0764082C434846E1
:10038000210007B03CBC90469946A246AB46F0BD62
:10039000034399464FD05B46002B00D189E1584674
:1003A00000F0B8FD03000B3B1C2B00DD7AE11D22A1
:1003B000D31A3A0001005C46DA4008398C40130039
:1003C0008F4023439B46B94600232D4E0027361A03
:1003D000029384E7534623432AD10024022096E760
:1003E0005346234320D0002C00D157E1200000F0D9
:1003F00091FD03000B3B1C2B00DD49E11D21CB1AB5
:1004000051460200D9405346083A944093400C4369
:100410001B4A121A00207AE70125019B144C1D404B
:100420000023002299469CE70024002201206EE769
:10043000534603206BE700239B4601330427002625
:1004400002934CE7032381460C27029347E780225F
:100450000023002512039946054C82E75C464B4673
:1004600002986FE75C464B46019502986AE7C046E2
:10047000FF07000001FCFFFF545D0008FFFF0F8035
:100480000DFCFFFF4A464946170C1A0C1B041B0CB7
:1004900008041900000C41431500884619007D43EB
:1004A0007943039589462900150045434D4402953B
:1004B00045462D0CAA46029D5544A94506D98A46B3
:1004C000802149028946CA4451460391290C04916E
:1004D000414609042D04090C88462900250C2404F2
:1004E0004144240C05912100414388462100794371
:1004F0008A466843414650448146080C48446F434D
:10050000824503D98021490289464F44010C89461E
:1005100039004944029141460F0404993F0C884632
:100520000004C01980444146049159460F0C090447
:10053000090C884659438A46390051438946414649
:100540004A435146090C8B467B43D2185A44934286
:1005500003D980235B029B46D94451460904090C08
:100560008A46414661437C43130C12044B44524477
:10057000A1468A463C0041466C434D4351464D449A
:100580000F0C7D19A94503D98021490288464444AE
:10059000049F0399B84641448B46834580414142BC
:1005A0008846514608042F04000C3F18584602990B
:1005B00010188946904292414F44BA465242994699
:1005C0009346C244D144CB448F42BF41C245894186
:1005D00099459B41934592417F4249422D0C52429D
:1005E0000F435B4213437F19FF185B463C19DB0D39
:1005F000059A64021C43430213435D1EAB415A46F5
:10060000C00D034352021343E20156D501205A089C
:1006100003401343E207134364085A486044002828
:100620004DDD5A0709D00F221A40042A05D01A1DA1
:100630009A429B415B42E4181300E20104D58020FA
:10064000514AC00014406044504A904200DDE3E645
:100650000125DB0862071A436402019B9146220BC5
:100660004405640D1D407CE6802259461203114268
:1006700008D0144206D122431203120B4546994674
:10068000434C6EE65B461A431203120B404C68E67D
:1006900003005446283B9C400023B9E600F03AFC96
:1006A0002030A6E60300283B9F400023BB46994626
:1006B0008AE600F02FFC203074E6B446ADE7012551
:1006C0002A1A382A06DD019B00241D40002300223F
:1006D000994646E61F2A21DC20252000AD1A1E007F
:1006E000AB40A840D6405D1EAB4130431843D440D8
:1006F000430709D00F230340042B05D00300181D26
:1007000098429B415B42E418230221D50125019BBD
:1007100001241D4000230022994622E61F252100C6
:100720006D42281AC1400800202A1DD05F35AA1A40
:10073000944023435C1EA341072503431D40002230
:10074000002D09D00F2200241A401800042AD6D107
:10075000030065076402220BDB082B430125994641
:10076000019B00241D40FCE50024E2E780220125D6
:100770001203224301991203120B0D409946044CB7
:10078000EFE5C046FF030000FFFFFFFEFE0700008D
:10079000FF070000F0B54646D6464F460C03C0B5ED
:1007A000CD0F4E00610A440F0C43C1005800400DAC
:1007B00084468A460F001903500F490A0143C64870
:1007C000760DA846DB0FD200844500D1D8E0012089
:1007D0004340AB4200D1A6E06046351A002D00DC54
:1007E00005E1002810D10B00134300D1D7E06B1EA8
:1007F000002B00D04BE153469F1ABA458041641A42
:100800004042241A01261EE0B34B9E4248D080236A
:100810001B041943382D00DD19E11F2D00DD4CE1CB
:1008200020230F005B1B10009A409F40E840531E9E
:100830009A41E940074317435346DF1B611ABA4503
:10084000A44164420C1B230200D4C5E06402650A83
:10085000002D00D1F6E0280000F05CFB0300083B0F
:100860001F2B00DDE9E020223C00D21A9D40D4403D
:100870009F4025439E4200DDDBE09E1B731C1F2B27
:1008800000DD0AE120223800D21A290097402C000E
:100890009140D8407A1E9741DC40002601430F4327
:1008A0007B0709D00F233B40042B05D03B1DBB42E7
:1008B000BF417F42E4191F00230225D5864B013634
:1008C0009E4200D1AFE0854B01251C4043466207A4
:1008D000FF08640276051743240B760D1D400021A6
:1008E0002403230B0C0D7E4A24051C4314403305BE
:1008F00023435B00ED075B082B43380019001CBC49
:1009000090469946A246F0BD012543466207FF087E
:100910001743E4081D40704B9E4236D024037605F1
:10092000240B760DDBE76346F31A002B00DC94E022
:100930006046002835D068488642B1D080273F0401
:100940003943382B00DCFDE00A43170000217A1EF2
:100950009741574457458041091944420C192302D5
:100960003AD55D4B01369E4200D14BE101225B4BF3
:100970001C407B0817401F43E207174364088FE7BA
:100980000800104300D024E721E723003B4300D1B7
:10099000B9E18022120314432403240B9FE72E00A5
:1009A0007EE70800104300D1CAE0581E84460028A4
:1009B00000D0E7E052445245804164184042241878
:1009C00017000126230207D50226CFE764462C43F1
:1009D00000D1B3E12C0067467B0700D062E76307D4
:1009E000FF081F4301254346E4081D4093E7002DFF
:1009F00078D1751C6D056D0D012D00DCF2E05046BF
:100A0000801A8245BF41651A7F42ED1B8446280249
:100A100000D48CE05046171ABA4292410C1B554242
:100A2000651B984614E70125434600241D40002716
:100A300055E72A4CF61A2C4032E73D00283885400D
:100A4000002717E7380000F065FA203006E70A4370
:100A5000170000217A1E9741EEE6002B00D0E5E05A
:100A6000731C9C465B055B0D012B00DC9FE01A4B61
:100A70009C4500D1C5E05244524580416418404233
:100A80002418E707520817436408664608E7124827
:100A9000854200D185E01D00BCE629001F3EF140E3
:100AA000202B00D17FE04022D31A9D402F437D1E92
:100AB000AF4100240F4300268EE72B000F00203BA0
:100AC000DF40202D71D040235D1BA9400A43511EF9
:100AD0008A4100211743AFE6FF070000FFFF7FFFB9
:100AE000FFFF0F80002E3ED0B34EB44545D0802688
:100AF00036046D423443382D00DDA8E01F2D00DDA3
:100B00001FE1202627005046761BB740E8400743E8
:100B10005046B040461EB041EC403843171ABA4226
:100B200092410C1B5242A41A664698468BE66446D4
:100B300067462C4300D08BE6002500260027EAE616
:100B40001E00ADE61F2B60DC2027F81A0F0084463C
:100B500087401000D840074360468240501E8241C3
:100B6000D9401743F5E626005046064305D0ED432D
:100B7000002DD3D0904EB445BDD10C001700664671
:100B800098468DE68C4883420BD06346D9E6002D0B
:100B900000D096E00800104300D1E2E00C001700FE
:100BA0009846854E7CE6002580E700218EE72300ED
:100BB00050460343002E00D0A8E0002B00D1DEE019
:100BC0000B00134300D16BE6524452458041641838
:100BD000404224181700230200D4FDE6774B6646F6
:100BE0001C405DE6250050460543002ECFD1002D68
:100BF0004FD10C00144300D1A0E00C001700984620
:100C00004EE666460024002785E61F000800203FC8
:100C1000F8400700202B00D18EE04020C31A9940F5
:100C20000A43511E8A410021174392E6002E14D137
:100C300026005046064362D0DB43002B5CD1871868
:100C40009742924164185242A418664687E650467D
:100C50002043441EA041002460E7574EB4454ED0C7
:100C6000802636045B423443382B00DD7FE01F2BA7
:100C700000DD8BE0202627005046F61AB740D8400A
:100C800007435046B040461EB0410743DC40BF1802
:100C9000D6E70D00154300D102E65046801A824582
:100CA000BF41651A7F42ED1B8446280200D48DE6C1
:100CB0005046171ABA4292410C1B5242A41A984647
:100CC000EEE50D00154300D16BE750466707C008FD
:100CD00007438020E4080003044207D0CD08054202
:100CE00004D12C009846D70849070F437B0FE40036
:100CF0001C43FF00304ED3E52F4EB445B4D10C0059
:100D000017006646CCE500270024E8E5002B39D023
:100D10000B00134300D144E7C00867070743802056
:100D2000E40800030442E1D0CB080342DED1D70837
:100D300049070F431C00D9E7002171E70025002770
:100D4000E9E52E002700203EF740202D2FD0402639
:100D5000751BAC4050462043441EA041002438433C
:100D6000DCE6802400252403134E0027D3E55046FB
:100D700020430700781E87410024BF1860E70C005D
:100D800017008DE50C0017000B4E89E51E002700AB
:100D9000203EF740202B0CD04026F31A9C405046B2
:100DA0002043441EA04107430024BF1848E7002405
:100DB000D0E70024F3E7C046FF070000FFFF7FFFF6
:100DC00030B5134D0A034B00120B5B0DC90F002405
:100DD000AB4210DD0F4CA3420FDC80240E4D6403A8
:100DE0002243ED1A1F2D0BDD0C48C31ADA40544282
:100DF000002900D11400200030BD094BCC18FAE7BF
:100E0000084CE840A44663449A400243EFE7C046DA
:100E1000FE0300001D040000330400001304000062
:100E2000FFFFFF7FEDFBFFFF10B5041E28D000F091
:100E300071F8154B154A1B1AD21A1F2A15DD144AD0
:100E4000D21A9440002224035B05240B5B0D002181
:100E5000100024030A0D240B120522430D4C1B0520
:100E6000224013435B00590810BD210091400A0045
:100E70000B21081AC4405B052403240B5B0DE6E735
:100E8000002300240022E2E71E04000033040000D7
:100E900013040000FFFF0F808446101C62468C463E
:100EA000191C634600E0C0461FB500F0EFF80028AB
:100EB00001D40021C8421FBD10B500F049F84042DE
:100EC000013010BD10B500F0E1F8002801DB002072
:100ED00010BD012010BDC04610B500F0D7F80028A5
:100EE00001DD002010BD012010BDC04610B500F08E
:100EF00069F8002801DC002010BD012010BDC046AB
:100F000010B500F05FF8002801DA002010BD0120C4
:100F100010BDC0461C2101231B04984201D3000CC4
:100F200010391B0A984201D3000A08391B0998425C
:100F300001D30009043902A2105C40187047C04672
:100F40000403020201010101000000000000000092
:100F5000F0B54F464646D6465C00C0B51F03DB0FD2
:100F60009A46174B0E034D0084468046360B6D0D96
:100F7000C90F91463F0B640D01209D4208D09C4251
:100F800001D0A5420BD01CBC90469946A246F0BDAC
:100F900063463343F7D1AC42F5D13A43F3D1012054
:100FA000BE42F0D1C845EED1514507D0002DEAD15F
:100FB00063461E433000461EB041E4E70020E2E7EE
:100FC000FF070000F0B54546DE4657464E46E0B501
:100FD0001F033D0B2C4F0E034C00AB465D008446B7
:100FE000360B640DC90F90466D0DDB0FBC422AD045
:100FF000254FBD422DD0002C0FD130430700814634
:1010000078427841C0B2002D17D15F463A4314D1DF
:101010004B460020002B0AD006E0002D02D1584696
:10102000024301D0994218D04842012108433CBCF8
:1010300090469946A246AB46F0BD0028F2D001206A
:10104000013B1843F3E737000743D1D00220404269
:10105000EDE75F461743CED0F8E7AC42E4DC03DAB5
:10106000481E01210843E2E75E45DDD806D0002096
:101070005E45DCD20123481E1843D8E7C445D3D8C7
:101080000020C445F6D3D2E7FF070000F0B54E4676
:101090004546DE4657465C00E0B51F03DB0F994628
:1010A0002A4B0E034D00C90F8446360B6D0D8B463F
:1010B00090463F0B640D9D4220D0244B9C4222D091
:1010C000002D12D1304343424341DBB2002C1FD0EC
:1010D000002B0CD04B460120013B034318003CBCC5
:1010E00090469946A246AB46F0BD002C16D0CB45A3
:1010F00017D05B46594201230B43EFE7310002232F
:101100000143EBD1D9E7390002231143E6D1D7E7F8
:101110003A43DDD100230028E0D0EAE73A43E6D1A4
:10112000E7E7A542E5DC05DBBE42E2D807D00023B5
:10113000BE42D3D25946012301390B43CEE7C44501
:10114000D7D80023C445F5D3C8E7C046FF07000041
:1011500070B50500FA200D4B80001978FEF7F0FFFE
:101160000B4B01001868FEF7EBFF00F09BF9040041
:101170000120002C09D1032D07D8023822002900B4
:1011800000F054F92000034B1D6070BD00000020EA
:101190000C000020040000201023064A10B511683E
:1011A00000200B431360FFF7D3FF03F0E3FF0020A1
:1011B00010BDC04600200240034A044B11681B7852
:1011C0005B1813607047C046E0020020000000205A
:1011D000014B18687047C046E0020020F8B50400D3
:1011E0000120002C73D0A36B002B06D122003432D7
:1011F000E3632000137003F0D5FFA36BDB0600D57B
:101200007AE0042223689868104000D074E0A26B52
:101210004349114002220A430321A2639A680A400B
:10122000012A00D06EE01968114202D1DA68120476
:1012300068D5DA683B490A40DA60257E627EAD03F4
:10124000D2031543A26AA17E013A561EB24116038B
:10125000E2684F03154322692F43022A00D104207C
:10126000621DD27F52003A4332430243E07E01289E
:1012700004D100292CD1802149020A43C220E1690E
:10128000FF30814202D0206A01430A438020D9689E
:1012900040051143D960E16A814202D0481E062808
:1012A00007D8072558692940A84358615869014360
:1012B0005961DB681C490B409A4211D1002003227E
:1012C000E063A36B93431A0001231343A363F8BDA8
:1012D0002021A56B2943A163E16B0843E063CDE7BF
:1012E0001222A36B012093431A0010231343A3631C
:1012F000E36B0343E363EAE71023A26B012013438C
:10130000A363E4E71821DA688A43A1680A43DA6034
:1013100019696268890089081143196189E7C04623
:10132000FDFEFFFF1902FEFFE7FF3F83F7B5002335
:10133000040001933434237805000220012B2BD0C4
:1013400001232A68EE6A9068237040075AD4304817
:101350004F680D6887423FD0AB4018008023976AE2
:101360005B05384390629E420FD0013E062E0CD999
:101370008B68072150690840834206D050690B40B2
:10138000884350615069034353612B00103B022B8B
:1013900003D9002000232370FEBD1E4A802311685C
:1013A000102D15D0112D15D05B040B431360102D9B
:1013B000EFD1194B19491868FEF7C2FE0A235843AA
:1013C0000190019B002BE4D0019B013B0193F8E7C6
:1013D0001B04EAE7DB03E8E7AB40916A99432B0083
:1013E000103B9162022BD4D80A4B1A68102D05D0FD
:1013F000112D05D00A490A401A60CAE70949FAE7DF
:101400000949F8E72022A96B18000A43AA63C1E73B
:1014100001100000082701400C00002040420F008E
:10142000FFFFFFFEFFFF7FFFFFFFBFFF70B58901DA
:10143000002812DB8308134A03249B009B18FF2219
:101440002040A0401400C025844011408140AD00E0
:101450005E59A6433143595170BD03240F23C0B2D6
:1014600003402040A040FC342500214085408140BD
:10147000083B054A9B089B009B18DA69AA43114365
:10148000D961E9E700E100E000ED00E0002805DBBC
:101490001F2318401E3B8340014A13607047C0461B
:1014A00000E100E0094A431E012093420DD8C0210B
:1014B000074A08485360036A09061B021B0A0B43CC
:1014C000036200200723906013607047FFFFFF0056
:1014D00010E000E000ED00E070B504000120002CF9
:1014E00024D002232068A51CEB770268104BA1686A
:1014F0001A4063680B43E1680B4321690B43616940
:101500000B43A1690B43E1690B4313430360094B90
:101510001421C018FEF714FE074B80002064E3631B
:1015200000200123A063E418EB77E07770BDC0468C
:101530000FC0FFFFF8FFFDBF00000240F8B5042711
:101540003E00016CC26B8E40156803681C682E4219
:101550000DD03C420BD01968890602D41968B943F2
:101560001960C36A5660002B19D0984717E002270C
:101570003E008E402E4213D03C4211D0196889069D
:1015800006D40A241968A14319600121C319D97727
:1015900056600022431CDA77836A9342E5D1F8BD96
:1015A000082637008F403D42F9D03442F7D00E254F
:1015B0001C68AC431C6001231C008C405460821CDE
:1015C0008363D3770022C318DA77036BE5E7000063
:1015D000F0B50B6887B0029300230191029ADA40BC
:1015E00001D107B0F0BD01229A4003920399029AFB
:1015F0000A40009200D18CE0019A10215268160036
:101600008E43022E0ED107251D40AD000139A940A1
:10161000DC08A4000419276A8F4301990969A940CD
:101620000F43276203245F00BC40E4430568013E8A
:101630002540AC4603251540BD4061460D4305607D
:10164000012E0FD801998668CD682640BD403543EC
:1016500085604668039915098E4301210D409D4020
:1016600035434560C56801992C408D688021BD4097
:1016700049052C43C4600A424BD00121264C032665
:10168000A5691E400D43A561A4699D080C40059401
:10169000059C0F242149AD00B6006D18B44090217F
:1016A000AF68C905A743002488420CD01C49013407
:1016B000884208D01B490134884204D01A490334B7
:1016C000884200D1023CB44000993C430E00AC601B
:1016D000164CCD4327683E43D10301D43E002E4033
:1016E00026606768009E3E43910301D43E002E4071
:1016F0006660A768009E3E43D10201D43E002E40A2
:10170000A660E668009F3743920201D42E4037005E
:10171000E760013362E7C04600100240000001406C
:101720000004004800080048000C00480004014084
:10173000002A01D0816170478162FCE7F0B50400A6
:1017400085B0002802D1012005B0F0BD0368DB0799
:101750002ED423689B077ED423681B0700D5BAE0EC
:1017600023685B0700D5DDE02368DB061AD56269D4
:10177000B44D0423012A00D049E1696B02260B43D2
:101780006B636B6B1A436A63FFF722FD07006B6B99
:10179000334200D134E1F8216A6BA3698A43DB004C
:1017A00013436B63236A002B00D057E10020CBE783
:1017B0000C21A44D6A680A40042A06D06B680B40CD
:1017C000082B09D16B68DB0306D52B689B03C0D5BA
:1017D0006368002BBDD1B6E76368012B13D180236A
:1017E0002A685B0213432B60FFF7F2FC8026070098
:1017F000B6022B683342ACD1FFF7EAFCC01B642869
:10180000F7D90320A0E7002B15D12B688E4A80263C
:1018100013402B602B688D4AB60213402B60FFF7F4
:10182000D7FC07002B68334293D0FFF7D1FCC01BD5
:101830006428F7D9E5E7052B05D180232A68DB0268
:1018400013432B60CBE72B687F4A13402B602B6838
:101850007E4A1340C7E70C227A4D6B68134206D0CC
:101860006B681340082B11D16B68DB030ED42B6817
:101870009B0703D5E368012B00D064E7F8212A68B1
:1018800023698A43DB0013432B6065E7E268012389
:10189000002A0FD02A68022613432B60FFF798FC1A
:1018A00007002B683342E9D1FFF792FCC01B0228E6
:1018B000F7D9A6E72A6802269A432A60FFF788FC30
:1018C00007002B68334200D146E7FFF781FCC01BBD
:1018D0000228F6D995E7E26901235A4D002A10D073
:1018E0006A6A022613436B62FFF772FC07006B6A99
:1018F000334200D034E7FFF76BFCC01B0228F6D957
:101900007FE76A6A02269A436A62FFF761FC070072
:101910006B6A334200D123E7FFF75AFCC01B022851
:10192000F6D96EE780220021464D5205EB69009101
:10193000134208D1EB691343EB61EB691340039346
:10194000039B012300938027414E7F0033683B4275
:1019500006D0A368012B13D12A6A13432B6230E00F
:1019600033683B433360FFF733FC019033683B42FD
:10197000EFD1FFF72DFC019BC01A6428F6D940E790
:101980000122002B14D12B6A022793432B622B6A6E
:10199000033293432B62FFF71BFC06002B6A3B428A
:1019A00025D0FFF715FC2B4B801B9842F6D928E772
:1019B000052B0BD1296A013B0B432B622B6A1A437F
:1019C0002A62FFF705FC022706000DE02B6A93430D
:1019D00004222B622B6A9343C0E7FFF7F9FB1D4BF0
:1019E000801B984200D90CE72B6A3B42F5D0009B44
:1019F000012B00D0B8E6EB69174A1340EB61B3E660
:101A0000FFF7E6FBC01B022800D8C0E6F9E6053266
:101A100003D16A6B9A436A63BDE66A6B022613437D
:101A200001226B636B6B93436B63FFF7D1FB070082
:101A30006B6B334200D1B5E6FFF7CAFBC01B02282F
:101A4000F6D9DEE600100240FFFFFEFFFFFFFBFFBE
:101A50000070004088130000FFFFFFEF0C20354AA4
:101A6000516815000140082947D0334A022B32D172
:101A70002B68802613402B60FFF7AAFB0700B604F3
:101A80002B68334221D10F22EB6A9343E26A13435E
:101A9000EB62616AA36A6A680B43284980240A40A2
:101AA00013436B6080232A685B0413432B60FFF7AA
:101AB0008FFB0600A4042B68234200D076E6FFF7D4
:101AC00087FB801B0228F6D99BE6FFF781FBC01B32
:101AD0000228D5D995E62B68802413402B60FFF7A8
:101AE00077FB0600A4042B68234200D15EE6FFF7D3
:101AF0006FFB801B0228F6D983E61800012B00D16A
:101B000022E680215368656A4902D26A19400120A1
:101B1000A94200D018E60F210A40E16A8A4200D0AB
:101B200012E6F02080030340A06A1B1A581E83416E
:101B3000D8B209E600100240FFFFFFFEFFFFC2FF20
:101B400070B5144C88B010222100684603F0BCFC2C
:101B5000210004AD10221031280003F0B5FC0C2246
:101B60000D4E73681A40082A11D10F206A46990C4D
:101B70000140545CF26A0240A95CDB0305D50748CA
:101B8000FEF7DEFA604308B070BD0548FAE7034887
:101B9000F9E7C046345D00080010024000127A00E8
:101BA00000093D00F7B505000F00002801D1012014
:101BB000FEBD0122374C236813408B421CD3296899
:101BC0008B0722D4CB072FD4012322681A409742D7
:101BD00051D32B68304C5B0754D4FFF7B1FF6368D7
:101BE0002E4A1B061B0FD35CD8402D4B18600020DB
:101BF000FFF7AEFA0020DBE7236893430B43236033
:101C0000236813409942D2D1D9E7234A4B0704D520
:101C1000E0235068DB0003435360F02053688343A4
:101C2000A86803435360CDE71B4E6A683368012AF6
:101C300019D19B03BBD5032173688B431343736096
:101C4000FFF7C6FA01900C2372681A406B689B007C
:101C50009A42B9D0FFF7BCFA019BC01A114B9842C7
:101C6000F1D90320A4E7022A02D19B01E3D49EE725
:101C70009B07E0D49BE722689A43226022681A42BD
:101C800095D1A6E76368084A1340EA681343636086
:101C9000A3E7C0460020024000100240C2630008D3
:101CA0000C00002088130000FFF8FFFF044B054ADA
:101CB0005B685B055B0FD35C034A1068D8407047D4
:101CC00000100240D26300080C000020F0B5036849
:101CD00085B00500DB0328D5802200213B4C52054E
:101CE000E3690091134208D1E3691343E361E369B7
:101CF00013400393039B012300938027344E7F00FE
:101D000033683B422FD0C022236A92001340314EE9
:101D10003BD1236A1E406B681E43009B2662012B49
:101D200003D1E3692C4A1340E3612A68D30706D53F
:101D3000032026490B6B8343A86803430B63930678
:101D400006D5102021490B6B8343E86803430B63DE
:101D50000020530517D540211C4A136B8B4329697A
:101D60000B4313630FE033683B433360FFF730FAF4
:101D7000019033683B42C6D1FFF72AFA019BC01A93
:101D80006428F6D9032005B0F0BD69680A40934283
:101D9000BFD08023226A206A11005B0203432362C2
:101DA000236A0E483140034023622162D307B0D535
:101DB000FFF70EFA07000222236A1342A9D1FFF7A8
:101DC00007FA074BC01B9842F5D9DBE70010024029
:101DD00000700040FFFCFFFFFFFFFFEFFFFFFEFF73
:101DE00088130000E021036810B55A688A435A60DE
:101DF00082224168520091420CD1802182680902FE
:101E00008A4203D08021C9008A4203D140211A6846
:101E10008A431A608021826A89018A4206D1196840
:101E2000074C2140196019680A431A600300012217
:101E30005D331A7000235C300370032010BDC04670
:101E4000FFDFFFFFF8B504000D00170080262368B0
:101E50009868304009D06A1CFAD0FFF7B9F9C01B66
:101E60008542F4D82000FFF7BDFFF8BDF7B5C027C5
:101E700005000C0016000193FF002B6898682040B5
:101E80000DD0BC4200D11A7B721CF7D0FFF7A0F92D
:101E9000019BC01A8642F0D82800FFF7A3FFFEBDC1
:101EA00070B513000D0016000A00C021490104009E
:101EB000FFF7DCFF002805D02023226E0320134308
:101EC00023660FE0320029002000FFF7BBFF002847
:101ED000F2D1C02133002A00C9002000FFF7C6FF5D
:101EE0000028E9D170BD0000F8B504000120002CE5
:101EF0004BD000232500A3625D352B78DBB2002B8D
:101F000005D122005C321370200003F0BBF90223DC
:101F1000402221682B700B68002093430B60E02364
:101F2000E268DB009A4231D9F0263601B24233D161
:101F30000600206B002803D19A422FD90223236385
:101F4000A7686368A0693B4327693B4367693B43D4
:101F5000E7693B43276A3B43A76A3B438027BF00AF
:101F600007403B430B60636A000C1A43636B1A43E0
:101F700004231840104306434E60CB69084A0020F2
:101F80001340CB61012320662B70F8BD80267601BB
:101F90009A42CED0A062CCE70600FBE70123CEE751
:101FA000FFF7FFFFF0B587B0019303005C330393A5
:101FB0001B7804000D0017000226012B00D17CE0E5
:101FC0000123039A1370FFF703F9220002905D3298
:101FD0001378DBB2012B6AD11E00002D67D0002FD1
:101FE00065D0023313700023A21D23662364A5630A
:101FF000A787E78702329387D3872365E36480232B
:10200000A2681B029A4205D180232268DB01116875
:102010000B431360402223681968114202D11968EA
:102020000A431A60E021E068C9006268884247D923
:10203000002A01D0012F07D12A880235DA60E38F08
:10204000A563013B9BB2E3870225E38F002B16D1EA
:10205000029A01992000FFF723FF002800D06DE0CD
:10206000A368002B06D105932368DA6805929B6864
:102070000593059B266E731E9E41F6B217E02268FB
:1020800093682B4209D0A36B19880233D160A363F4
:10209000E38F013B9BB2E387D7E7FFF799F8029BF9
:1020A000C01A019B9842D0D30133CED0032601231E
:1020B0005D3423700023039A1370300007B0F0BD25
:1020C000002A01D0012F0AD1E28F012A1CD92A88C7
:1020D0000235DA60E38FA563023B9BB2E3870225FA
:1020E000E38F002BB4D0226893682B421CD0E18F81
:1020F000A36B012910D919880233D160A363E38F40
:10210000023B9BB2E387EBE72A781A73A36B013398
:10211000A363E38F013BE0E71B781373A36B0133E9
:10212000A363E38F013BECE7FFF752F8029BC01A71
:10213000019B8342D4D80133D2D0B7E72023236652
:102140008EE70000F7B51E00030001925C331A7899
:1021500004000F000225012A00D1ACE001221A7010
:10216000FFF736F8230000905D331B786168DBB21F
:10217000012B0BD082225200914200D094E0A26841
:10218000002A00D090E0042B00D08DE00125002F24
:1021900000D189E0019B002B00D185E0002E00D109
:1021A00082E023005D331A78042A01D005221A70D8
:1021B000019A00232264220008322366D687A21DDA
:1021C000D687E022E068E3642365A763E687A687F5
:1021D000D2002368904201D8012E31D95A68714D3E
:1021E0002A405A60402223681D68154202D11D68AA
:1021F0002A431A60E022D20090425ED9002901D021
:10220000012E07D13A880237DA60E38FA763013BDA
:102210009BB2E387012502272E00E38F002B14D108
:1022200023000833DB8F002B0FD1009A0899200080
:10223000FFF736FE051E37D020230125236633E045
:1022400080225D6852012A43CBE7226893683B42B3
:102250000ED0E38F002B0BD0012D09D10025A36BED
:1022600019880233D160A363E38F013B9BB2E387FC
:10227000936833420ED021000831CB8F002B09D058
:102280003500236CD2681A8002332364CB8F013B64
:102290009BB2CB87FEF79CFF009BC01A089B834232
:1022A000BBD80133B9D00325230001225D331A7056
:1022B00000235C3423702800FEBD002901D0012ECC
:1022C0000AD1E28F012A51D93A880237DA60E38FC6
:1022D000A763023B9BB2E387012502272E00E38F11
:1022E000002B05D123000833DB8F002B00D19CE7A6
:1022F000226893683B4211D0E38F002B0ED0012D52
:102300000CD1E18FA36B012938D919880233D16030
:10231000A363E38F023B00259BB2E38721688B68B0
:10232000334219D023000833DA8F002A14D0D88F13
:10233000226C01282AD9C868350010800232226434
:10234000DA8F023A92B2DA87DB8F012B04D880232E
:102350004A685B0113434B60FEF73AFF009BC01ACB
:10236000089B8342BBD80133B9D09CE73A781A73F3
:10237000A36B0133A363E38F013BABE71B781373BC
:10238000A36B0133A363E38F013BC4E7097B3500F3
:102390001170226C01322264DA8F013A92B2DA872C
:1023A000DAE7C046FFEFFFFF5D300078C0B270474C
:1023B00070B504002569A36802682B436569C1698B
:1023C0002B431068434D0B4328400343136053686D
:1023D0004148256A0340E06803435360A36990685D
:1023E0002B433E4D28400343936080233C481B020F
:1023F000824210D103203B4A126B02403A48805C73
:10240000994213D0082828D8FDF790FE4127462787
:10241000572727275A003548824256D1994236D14C
:10242000FFF744FC636840005B080BE008281ED8F7
:10243000FDF772FEF61D051D151D1D1D18006368B4
:1024400058082B4BC0186168FDF77AFE83B2002054
:102450001A002849103A8A420CD9012013E0FFF7EC
:102460006FFBDFE76368580880235B02EAE701201F
:102470000023EDE70F22190091430A001B07216892
:102480005B0F1343CB6000232366636670BDFFF7C9
:102490000DFC63685B0802E063685808164BC018BF
:1024A0006168FDF74DFE83B200201A001149103A11
:1024B0008A42D2D82268D360E5E7FFF741FBE8E71C
:1024C0006368580880231B02E9E79942CFD00120B6
:1024D0000023EAE7F369FFFFFFCFFFFFFFF4FFFFF1
:1024E0000038014000100240945D000800440040A4
:1024F0000024F400EFFF000000127A00436A30B5B8
:10250000DA0706D50168284C4A682240846A2243CB
:102510004A609A0706D50168244C4A682240C46A7A
:1025200022434A605A0706D50168214C4A68224076
:10253000046B22434A601A0706D501681D4C4A689D
:102540002240446B22434A60DA0606D501681A4CE1
:102550008A682240846B22438A609A0606D5016805
:10256000164C8A682240C46B22438A605A0610D5F2
:102570000168134D4A68046C2A4022434A60802255
:102580005203944205D14A680E4C2240446C2243C7
:102590004A601B0606D502680B4953680B40816CE4
:1025A0000B43536030BDC046FFFFFDFFFFFFFEFF42
:1025B000FFFFFBFFFF7FFFFFFFEFFFFFFFDFFFFFDF
:1025C000FFFFEFFFFFFF9FFFFFFFF7FFF7B580273C
:1025D00004000E00150001933F012268D3693340C7
:1025E0009B1B59424B41AB4201D000201CE0089B91
:1025F0000133F3D0FEF7ECFD019B089AC01A236863
:10260000824201D3002A10D11A6813490A401A6085
:102610009A68A331FF318A439A6020236367A367D6
:102620000023032070342370FEBD04211A680A427F
:10263000D3D0DA693A42D0D01F621A6806490A40FC
:102640001A609A68A331FF318A439A602023636736
:10265000A367E367E4E7C0465FFEFFFFF0B587B01E
:102660000593436F04000D0017000220202B49D171
:102670000138002946D0002A44D08023A2685B019B
:102680009A4204D12369002B01D101423AD123009F
:1026900070331A780220012A34D0012200261A70E1
:1026A0002123E6676367FEF793FD230050331F8005
:1026B000023303931F808023A26804905B019A4237
:1026C00004D12369B34201D12E001D0023005233EF
:1026D0001A88059B92B20093049B002A0AD14021DC
:1026E0002000FFF773FF00280BD1202370346360B4
:1026F000207007E0002280212000FFF767FF0028FC
:1027000002D0032007B0F0BD2268002D0BD1338822
:102710000236DB05DB0D1385039B039A1B88013B07
:102720009BB21380D2E72B7801351385F4E70000C4
:1027300073B500260400C667FEF74AFD236805004E
:102740001B681B0715D423681B685B070AD580210B
:102750000E4B00220093C9032B002000FFF736FF29
:10276000002811D1202300206367A36770342070F4
:102770000BE08021054B3200009389030300200009
:10278000FFF724FF0028DED0032076BDFFFFFF0106
:1027900010B5041E01D1012010BD436F002B04D1E0
:1027A00002007032137002F09FFD24230121226881
:1027B0006367136820008B431360FFF7F9FD01285E
:1027C000E9D0636A002B02D02000FFF797FE236850
:1027D00007495A6820000A402A215A609A688A43A9
:1027E0009A60012219680A431A60FFF7A1FFD3E734
:1027F000FFB7FFFF054B10B51A1880001B18117AA0
:102800005B6808005B68984710BDC046C4020020A2
:10281000084B0200195C002010B5814208D101214B
:102820009954991892009B185B68087A1B6898471E
:1028300010BDC046C402002070B5054C25188000AC
:1028400024182E7A606884683000A04770BDC046A6
:10285000C402002070B5054C2518800024182E7A7B
:102860006068C4683000A04770BDC046C402002044
:10287000054B70B51C1880001B18257A5B68280072
:102880001B69984770BDC046C4020020002310B5E4
:102890009A4200D110BDCC5CC4540133F8E78218D1
:1028A000904200D1704701700130F9E7F0B5002483
:1028B00080252200164B6D011F68002F1BD0465942
:1028C000B74219D1134F5E68C759BE4214D11E8951
:1028D000B446114E875BBC450ED11020002915D19E
:1028E0000C235A430A4B9A1850890138FF38424248
:1028F000424110010AE0012401320C33022ADBD1EB
:102900000020844202D1022900D01220F0BDC0462E
:10291000A800002008100000061000008023F0B579
:10292000234C5B01C65822000023224D2768B74282
:102930000AD16768BC464759BC4505D12789BC46C2
:102940001D4FC75BBC4526D001330C34022BEDD1A3
:102950001368002B04D00024D368A34219D10123AB
:102960000C245C43134D1651455914196560124DE2
:10297000405B208100206081814215D10C215943A8
:1029800051184989013189B20C20584312185181DC
:102990005C1C2000F0BD0029F0D00C21002459431C
:1029A00051184989A142F4D180214900ECE7C04681
:1029B000A80000200810000006100000411E10B5FD
:1029C0000220012911D80C231A004A43074CA218EF
:1029D0005089074A024001D0013882B200204B439F
:1029E000E1184A81824200D1E05010BDA8000020C9
:1029F000FFFEFFFF030070B50C4A08009C58243A04
:102A00009D580B4B0434E95AFDF79AFB094BE95CDE
:102A1000FDF796FB02002068002806D0824202D310
:102A2000121A0834F7E76068101870BD241000000F
:102A30000A10000002100000010000230B315A08A8
:102A4000DB011343027801309B18DBB28842F6D1D8
:102A5000180070470268131E03D1012040420EE0A7
:102A6000013319781F2909D93A29F9D1511C8B4210
:102A7000F3D11278302AF0D101330360002070477F
:102A800010B5002815D0802252018358002B10D099
:102A90009A5C002A0DD0084A995A084A825A9142F3
:102AA00007D1074A985CFFF7A5FE01230340181ED3
:102AB00000D0092010BDC046061000000410000020
:102AC00001100000CA7E10B50400887E1202104377
:102AD000032C05D14A7D0B7D120213431B041843BE
:102AE00010BD0000F7B50400134B144EC55821006B
:102AF0000123805D2A00FFF7ADFE01960123002827
:102B000009D10F4B0F4EE0541C33E358A259EB1A76
:102B1000934202D300231800FEBD0B4BE75C012F4C
:102B2000F8D9A3592100ED18019B2A00E05C01238C
:102B3000FFF790FE013FF2E72C10000001100000AB
:102B400004100000181000000310000010B5054B21
:102B5000C25C00239A4202D0FFF7C4FF03001800B2
:102B600010BDC04604100000F8B50400FFF7EEFFEA
:102B7000051E5DD180235B01E35C032B4FD12D4EFD
:102B8000A75D012F4BD12C4B0100E25A2000FFF72B
:102B900086FEFF235522F22072215B00E254274B70
:102BA0009218E254AE3BFF3B23706370693A0F33D7
:102BB0004000A370E2702154E620FF3021547531AB
:102BC000FF316254E822FF32A3541D4B0132E35817
:102BD000A354EA22190AFF32A154190C0132A1545C
:102BE000EC221B0EFF32A354164B0132E358A354C0
:102BF000EE22190AFF32A154190C0132A154F0221D
:102C00001B0EFF32A354104B2100E2580F4B013230
:102C1000E2500F4BE05C3B00FFF71CFEA555002285
:102C20000B4B1100E05CFFF723FE431E9841C0B23E
:102C3000F8BDC046051000000A100000FF010000AA
:102C4000101000000C1000001C1000002C100000E0
:102C500001100000F8B50D4F0400C2590E00002508
:102C60008A4210D0FFF772FF051E0CD1084B3200CC
:102C7000E05C21000123FFF7DFFD002802D00126E0
:102C800001357642E6512800F8BDC0462C10000000
:102C9000011000000022184B10B5C254174B013A26
:102CA000C2500400FFF7D6FF0323002821D1FF22E2
:102CB000134B5200E35CA25C1B021A43114912B28F
:102CC00002238A4215D1228FE38E12041A430E4941
:102CD0001202120A03008A420BD052346388208801
:102CE0001B0403431B02094A1B0A9B18581E8341FD
:102CF000DBB2180010BDC046041000002C1000000C
:102D0000FF01000055AAFFFF46415400BABEABFFC9
:102D10000023F0B503608BB0060008001700FFF732
:102D200099FE0B23051E17DBAD4B8200D4580C23F4
:102D3000002C11D0802334605B01E35CA94E002B92
:102D40000DD0A05DFFF756FD0123034007D1002FF2
:102D500002D0420700D50A2318000BB0F0BD802333
:102D600000225B01E8B2E254A055FFF751FD0323B6
:102D7000C207F1D4002F01D04307ECD49A4BA05DD9
:102D8000E2180221FFF774FD061E01D00123E3E7DC
:102D9000954D964A635B9B18E0229BB212019342C9
:102DA000F4D801002000FFF775FF01282BD1230084
:102DB000C733FF331A1F11780022914209D0597886
:102DC0001A78090211439A7812041143DA7812062C
:102DD0000A4306A9725004361033102EEAD1002699
:102DE000022706AB9B5938000093002B05D0190031
:102DF0002000FFF74FFF00280CD00436102EF0D132
:102E0000032804D1C2E70328C0D0002801D00D2335
:102E1000A2E70090237BE27A1B021A430492635BD1
:102E20009342F4D1E27DA37D1202134300D1C2E0AC
:102E30000293029A6E4BE250267C6E4BE654731E50
:102E4000012BE4D8657B6C4BE554002DDFD06B1E65
:102E50001D42DCD1A37C627C1B021A4301926A46AC
:102E6000664B92880198E252049B5F093900FDF796
:102E7000EDF989B20029CAD1207DE37C0002034329
:102E8000039301D1236A0393E37BA27B1B021A43C2
:102E90000592BCD0029B390001985E43FDF750F9C2
:102EA000059B87B2FF18039BBF19BB42AFD3D81B4A
:102EB0002900FDF745F90028A9D0514B012598427A
:102EC00004D9504B83429B415D4202354E4B023048
:102ED000E050009A4D4B9446E2508122059B5201EE
:102EE0006344A3506246D719494AA750032D64D1C1
:102EF000019B002B8BD1474BE26A8000E250049B80
:102F00000499013B1818FDF71BF9029B834200D27C
:102F10007DE70123404E414A5B42414FA351A350FC
:102F20008133E355032D2FD1230031331A78013B30
:102F30001B7812021343012B26D100992000013186
:102F4000FFF788FE00281FD1364BE055E25C013BBD
:102F5000E35C12021343344A1BB2934214D1334B45
:102F600022689A4210D1F2225200314BA2589A4262
:102F70000AD1F4235B00E358A351F6235B00E35826
:102F80000093009A254BE25080232A4A5B01E554C6
:102F9000138801339BB21380274AA352274A136830
:102FA0009C4201D100231360D16800238C4200D0E1
:102FB000D2E6D360D0E6636A3AE7019A002A00D1EC
:102FC00025E7F618134BE650022D01D1400096E795
:102FD00003230122434310405B0818188FE7C046C3
:102FE000A4000020011000000A10000000FEFFFFF6
:102FF000181000000310000002100000081000006C
:10300000F50F0000F5FF0000141000001C10000078
:103010002810000024100000101000000C10000008
:1030200005100000FF01000055AAFFFF5252614148
:1030300072724161C000002006100000A80000204C
:10304000074A023982580300023A0020914205D211
:10305000044A985C044A4143985808187047C0468F
:10306000141000000210000028100000F7B5012520
:1030700004000E00A9421FD9404BC35899421BD2ED
:1030800080235B01C35C022B3ED0032B55D0AB42A7
:1030900012D13B4B4F087F18C15A3800FDF750F84A
:1030A00081235B01E358C11820000093FFF7D2FD94
:1030B000002803D001256D422800FEBD7B1C009333
:1030C0002F4B3800E35A19000193FDF7BFF8009821
:1030D000675C0199FDF734F881235B01E1584118E1
:1030E0002000FFF7B7FD0028E4D1254B0098E15AF6
:1030F000FDF7ACF8635C1B021F432E4201D03D0973
:10310000DAE73F053D0DD7E71D4D415B300049082B
:10311000FDF716F881235B01E15841182000FFF705
:1031200099FD0028C6D1615B7000FDF78FF8631828
:103130005D78635C2D021D43BEE7114D415B30009D
:103140008908FCF7FDFF81235B01E158411820004D
:10315000FFF780FD0028ADD1615BB000FDF776F888
:103160006318DD789A782D06120415435B78625C4B
:103170001B0215431D432D012D099DE7141000006E
:103180000A100000F7B505003048314B2C580E00EE
:10319000E952012C01D10220FEBD802252012D49AD
:1031A000AB5801915F58BC42F5D2002C28D19A5CF3
:1031B000032A03D1284A9958002922D11A5A964243
:1031C000E9D2254A9F58254BEC50002FE3D00C3B09
:1031D000EB5830000093009A214BD45A6409210027
:1031E000FCF7AEFF1F4BC719EF5021003000FDF771
:1031F0002DF8009B49015918019B0020E950CBE7AD
:10320000210080270C00164A17489A5A1B5C520965
:1032100053437F010093009B2100E8599E4203D253
:10322000FFF70EFF0700CEE7FFF720FF0400431C67
:1032300009D00128AFD9EB59019A9B589842AAD2DC
:10324000009BF61AE7E70120A6E7C0460810000039
:103250000610000014100000241000000C100000E4
:103260000A1000001010000002100000F0B585B038
:1032700004000D0001920226012955D94F4BC35875
:10328000994251D280235B01C35C0293B34256D072
:10329000032B00D171E0012B46D1494B4F087F1819
:1032A000C15A3800FCF74CFF81235B01E1584118FB
:1032B0002000FFF7CFFC424B061E039334D17B1C4A
:1032C00003933F4B3800E65A3100FCF7BFFF6B46D3
:1032D000029F1B792F4009D00F22FF20635C000161
:1032E0001340019A120102401343DBB263540123DD
:1032F000344D310063550398FCF722FF81235B01B5
:10330000E15841182000FFF7A5FC061E0CD12C4BFC
:103310000398E15AFCF79AFF002F08D0019B1B0984
:10332000DBB2635401236355300005B0F0BD0F20BC
:10333000019A635C120A834302401343F1E7204F72
:10334000C15B28004908FCF7FBFE81235B01E158C3
:1033500041182000FFF77EFC061EE5D1E15B680006
:10336000FCF774FF6B461B796354019B61181B0AC1
:103370004B700122134BE254D6E7114FC15B28007A
:103380008908FCF7DDFE81235B01E158411820002C
:10339000FFF760FC061EC7D1E15BA800FCF756FFF3
:1033A0006218D37801981B091B0703436354190A59
:1033B0005170190C1B0E9170D370DAE714100000D5
:1033C0000A10000004100000F8B505000F1E09D116
:1033D000294BC658002E03D0284BC3589E4211D308
:1033E00001260FE0FFF742FE0400012842D9431CEA
:1033F00003D1012464422000F8BD204B3E00EB586D
:103400009842F8D334001D4B0134EB589C4204D34E
:10341000012E01D80024EEE7022421002800FFF746
:1034200025FE002806D0431CE3D0012822D0B44258
:10343000E9D1EFE7124A21002800FFF717FF002823
:1034400016D1002F0DD10C4B0E4AEC50AB58591C25
:10345000D1D0013BAB5001230B4AA95C0B43AB54C9
:10346000C9E7220039002800FFF700FF0028EAD052
:103470000128BED00124BEE70C100000141000008B
:10348000FFFFFF0F1010000005100000F0B5554BB6
:1034900089B00491C25A0700013200926A4612882C
:1034A0000593002A02D1042009B0F0BD4E4E855983
:1034B000002DF8D080235B01C3584C4A02939C5ADC
:1034C000009864092100FCF7C1FE484B06930029CF
:1034D0000CD1474B0135BD51FE580393002E18D136
:1034E000029A444BD35A009A9A42DCD26A46059B10
:1034F00012880098FA5280235B01FC58069BE15A1F
:103500004909FCF7A3FE3C4B49016418FC5000201C
:10351000CAE7029B394A210000989D5CFCF710FE27
:10352000013D364B284001900793DFD131000298CE
:10353000FFF79CFD0400012801D80220B4E7431CDA
:1035400001D10120B0E780235B01F8582A4BC35812
:103550009C422DD3049B002BA5D0039BF958FFF769
:1035600033FF04000720002C9ED0012CE5D0631C03
:10357000E7D080256D017859FFF7E8FA011EE0D108
:103580007B591A4A18009A5AFFF789F97B5921008A
:1035900018000293FFF754FD194E029B9851785979
:1035A000079B019AC35C9A420DD383599D1A85519A
:1035B000039B2100FC5080235B01F858FFF740FD7E
:1035C000094BF85092E701220E4BC254FFF78AFADA
:1035D0000028B6D17A59935901339351019B013395
:1035E0000193DCE706100000101000000A10000034
:1035F0000C10000008100000141000000210000061
:103600002C10000004100000FF210123F0B505007C
:103610000C004D4A89B05B4283520391049205939A
:103620004A4BE958103BE858FFF714FB071E00D03F
:1036300084E0474BEE583378002B00D181E0E52B36
:1036400006D03F22F17A0A40090706D50F2A06D094
:103650006A46049B928AEA524EE00F2A58D1812290
:103660005201AA580292002A47D04022134241D068
:1036700093431C00374B717BEB5A049A0391AB5276
:10368000737B039A934237D140220D2733789343BB
:10369000013B00225F43012301922F4A0199895C7B
:1036A00072185278705C12021043002B2CD001F07B
:1036B00067F80790FE2F1FD87B1C0693029B7F00A4
:1036C000F85A01F05DF8079A0300824214D1069F70
:1036D000019A013201920D2ADFD13278520606D5C5
:1036E000002B04D0029A7B009B5A002B04D1013C92
:1036F000E4B202E0A342C3D0FF2400212800FFF778
:10370000C5FE071E8CD019E0144A9042E0D0F3E7C2
:10371000002C05D13000FFF78FF9039B98420DD0A4
:1037200001210F4BEA58D37A0B4091D1581CF15C20
:10373000D35C99428CD103000B28F7D1380009B033
:10374000F0BD0427FAE7C046241000001010000066
:103750001410000006100000185E0008FFFF0000B3
:1037600018100000F0B50B7889B0060001912F2BDE
:1037700001D05C2B02D1019B0133019300249D4BAE
:10378000019AF450127807931F2A0AD821003000BA
:10379000FFF7F8FC984BF45009B0F0BD019B0133E2
:1037A0000193019B1B782F2BF8D05C2BF6D0812343
:1037B00000245B01F3580593019B2700185D651CED
:1037C0001F281BD92F2819D05C2817D0FF2C0ED00A
:1037D000012100F0B7FF002809D07F2809D8002375
:1037E0008649CA5C002A04D001338242F9D10620FE
:1037F000D2E7059B640018532C00DDE7019B0024F1
:103800005B1901931F2383426441A400002FEED073
:10381000059A7B00D3189A1E1288202A02D02E2ADD
:1038200000D085E0013FF1E7013305995A008A5A3B
:10383000202AF9D02E2AF7D0002B02D003221443DD
:10384000E4B27A000599023A8A5A2E2A02D0013F40
:10385000002FF6D1082202920022150004925A1C71
:103860000392059A5B00985A002877D0202804D04C
:103870002E2807D1039BBB4264D003231C43E4B230
:10388000039BECE7049B029A93425FD2039BBB42EB
:1038900014D1029B0B2B09D15BE0039BBB4205D0EB
:1038A00003231C43039BE4B2BB4257D80B23AD0058
:1038B0000293EDB20397033B0493E1E77F280FD90E
:1038C000002100F03FFF0023984203D04C4B181812
:1038D0008038037898B202231C43E4B2002807D052
:1038E00000234849CA5C002A76D001338242F9D1CC
:1038F00003235F201C43E4B2434B049AF35806931E
:10390000985413000133D7E702231D43F4E75B0704
:1039100000D541E7384BF158CB7ADB065AD58023E6
:103920005B01F258D05CFFF7CDF8079BF05038E709
:1039300000251D80344B0B22F0582021FEF7AFFFED
:103940002B0072E7049B029A9342A2D3029B0B2B9B
:10395000A3D103231C430833E4B202932A4BF35848
:103960001A78E52A01D1E03A1A70029B082B01D19E
:10397000AD00EDB20C232B400C2B02D0EA43920792
:1039800002D102221443E4B2A2070BD40322154051
:10399000012D02D10D321443E4B2042B02D10433C1
:1039A0001C43E4B2184B0021F3583000DC72029340
:1039B000FFF7E8FB002802D13000FFF725FE124B8D
:1039C000F358DB7A0028A2D0042800D0E4E60342B2
:1039D00000D0E1E60520DFE60300413B192B93D937
:1039E0000300613B192B87D8012320381D4380B287
:1039F00082E7C0460810000014100000255E000891
:103A0000985D00082E5E000818100000F0B58124B3
:103A10009B4D8DB043596401019309AE03590C22AB
:103A20000700019930000293FEF730FF0123F27A7C
:103A300003951A4200D17AE000221D000199CA7252
:103A40003A510B2209A90198FEF720FF2B00052D02
:103A500046D807220F2607A91C003440200030302A
:103A6000392800D90730013A8C1860701B09F3D14E
:103A70007E2088549A4238D00198C05C202832D1E8
:103A800020242000072A01D8885C0132019EF054CE
:103A90000133072BF5D900213800FFF773FB041E13
:103AA0003BD13800FFF7B0FD041E36D10135642D3F
:103AB000C7D1072420000DB0F0BD1020023101262F
:103AC0005B001640F318802676025208334200D07D
:103AD000634001380028F2D10A88002AEDD1B8E706
:103AE0000299684CF8E70133C4E71300C8E70130D6
:103AF000029A4300D35A002BF9D119300D21FCF75B
:103B00001FFB050019E0060001213800FFF7BEFC8D
:103B1000041E19D0042CCCD0CCE7042CCAD109AB9C
:103B2000DB7A019AD3728123029A5B01FA5009ABC6
:103B3000DB7A012500209B07DAD400213800FFF74B
:103B400021FB041EE6D106004F4BF958103BF858F4
:103B5000FFF780F84C4B041E0493DBD14B4ABB5853
:103B600001921B78E52B01D0002BCCD10136B54258
:103B7000CAD1013D002D5ED0454B3800F95A491B92
:103B8000FFF700FB041E00D094E7039BF858FEF7F4
:103B900053FF0590049BF95880235B01F858FFF709
:103BA00059F8041E00D085E78123EAB294466A469C
:103BB0005B01FB58127D0293019B0D21FB585A7348
:103BC0000F22DA72EAB2013A4A430100187398767A
:103BD000D876304CA04203D0029C5000005B0132EA
:103BE0002D4C0C5D18551C192600040A7470002811
:103BF00000D1284801310D29EBD12649884204D053
:103C000002995200525A002A03D1614640221143C0
:103C10008C46624680211A700122490179581F4B57
:103C20003800CA540021FFF731FC041E00D041E7E0
:103C3000013D002DAED18025049B6D01F9587859C6
:103C4000FFF708F8041E00D034E7019B2022F85843
:103C50002100FEF724FE039B0B22F958019BF85824
:103C6000FEF714FE1821019BFA58039BFB58DB7AE0
:103C70000B4013737A59094B1739D1541AE7C046D0
:103C80001810000021100100101000001410000096
:103C900006100000FFFF0000185E0008041000007E
:103CA000F8B504000D00012901D80220F8BD144E1A
:103CB00083599942F9D2A3599D4205D22900200087
:103CC000FFF7D4F9071E01D10020EFE70128ECD05F
:103CD000431C13D0002229002000FFF7C7FA002858
:103CE000E4D1084AA358591C06D001210133A3503E
:103CF000054AA35C0B43A3543D00DCE70120D5E754
:103D00001410000010100000051000007FB5019095
:103D100003A8140000910391FEF79CFE0B220028DB
:103D200024DB144D80004359002B0DD0124A11683A
:103D30008B4201D100211160D6680021B34200D12D
:103D4000D160802252019954019B002B03D0802224
:103D50000021520199542B501A1E07D00022012C29
:103D600004D1694601A8FEF7D3FF0200100004B099
:103D700070BDC046A4000020A80000200923F0B5B3
:103D80007A4C1500A544009005910193002800D1BC
:103D900089E0802300225B01C250754804AB1E32CB
:103DA000C0182A4005A9FEF7B3FF0AAE0190031E12
:103DB00079D11F336E4F2B40029307ABF351812310
:103DC0006C4A5B0105993000F250FFF7CBFC6A4B5F
:103DD0000497F4581F0000280AD10630002C07D0A1
:103DE00001230299300099434B1E9941FEF75EFD75
:103DF0001C231D425BD000284DD0042849D15F4BC5
:103E00001A68002A03D0DB680E30002B41D10AACBF
:103E10002000FFF7FBFD00283BD10823029AE4595C
:103E20001A430292029B1B074AD500F0C9FC0025E9
:103E30008027030AA073E373030C000E23746074DD
:103E4000E57225776577A577E5777F010AAEF359A7
:103E50002100D85DFEF736FE0122A576E5762575B0
:103E600065750390464BF059C254039BAB4227D073
:103E7000444B0399C558FFF713FF002809D1F059A7
:103E8000039F414B013FC7502900FEF7E3FE002886
:103E900016D0019007E01123E27A1A4263D16B0732
:103EA000C0D5082301930198384B9D44F0BD0028EC
:103EB000EFD1E37ADA0654D4AA0701D5DB0752D44E
:103EC000029B1B0703D52023029A1A430292182251
:103ED000802504AB9B186D015B5900990393039AED
:103EE000284B0AA8D2582A4BCA500433CC5001237D
:103EF000029999434B1E9941FEF710FD254B009AFC
:103F0000D05002230028CDD069460026009B224ACB
:103F1000097A9954214B009A2100D654182204ABF7
:103F20009B185F59785DFEF7CDFD1D4B009A0099F7
:103F3000D050627F237F12021A43A37F1B041A43CF
:103F4000E37F1B061343104A8B50164B049ACE5046
:103F5000154B8E50CE50104B4F51FA5A084BCA5247
:103F6000A1E704239EE707239CE7C046ACEFFFFFD1
:103F700018100000C200002014100000A80000204B
:103F8000041000002C1000000C1000005410000061
:103F90001C10000028100000061000000710000090
:103FA000101000000810000024100000F0B58BB0C5
:103FB000089300231500089A040013600E00FEF712
:103FC0005FFD029000281AD1704AA35C0992002B71
:103FD0003BD16F4BE25C0693D30700D4D3E06D4B2B
:103FE0006D4AE158A2580793521A0192AA4200D989
:103FF0000195802705967F01019B002B02D1029835
:104000000BB0F0BD079B654AE558E35928000393C0
:104010009B5A19000493FCF719F9002900D09DE080
:10402000039B5F4A049928009E5CFCF789F8013ED7
:104030000640F6B2002E1FD1002D08D1594BE05892
:10404000012813D80223099AA3540293D7E7564BA9
:10405000E358002B04D029002000FEF7CBFCEFE74B
:10406000524B0398E158FFF701F8E9E7431C01D1EF
:104070000123E8E74D4BE050E35903934B4B039882
:10408000E158FEF7DDFF0028DCD083190493434A92
:10409000039B0198995AFCF753F8051E3AD0404A01
:1040A000039B9B5C32189A4200D99D1B404B039A9C
:1040B0000599D05C2B00049AFEF7BEFB0028D7D1EF
:1040C0004022069BE35C13420ED03A4BE058049B1F
:1040D000C01A854208D9E359304A21009A5A059BF3
:1040E00050431818FEF7D2FBE3592C4A9B5A5D4304
:1040F000059B079A5B190593079BE3585B19A3502F
:10410000089B089A1B6803935B191360019B5B1B58
:10411000019371E7274E049BA25993421CD0402182
:10412000069B234DE35C0B420DD0039B2100585DA1
:104130000123FEF78FFB00289AD14022069BE35C07
:104140009343069AA354E359049A585D210001232E
:10415000FEF772FB00288BD1049BA351E3590F4A51
:104160009D5A079B2900E35818000393FCF76EF84B
:104170006B1A019D9D4200D91D0061182A00059807
:10418000FEF784FBB4E707235FE7C0460710000093
:1041900006100000081000000C1000000A100000BB
:1041A0000210000010100000241000001410000085
:1041B0000110000018100000F0B58BB00893002328
:1041C0000292089A040013600D00FEF759FC039058
:1041D000002856D1834AA35C0992002B38D1824B28
:1041E000E25C0193930700D4FAE0804A0299A35855
:1041F0000492C9188B4237D8802706957F01029B0D
:10420000002B31D0049B7A4AE558E35928000593E6
:104210009B5A19000793FCF719F8002900D0C2E057
:10422000059B744A079928009E5CFBF789FF013EB5
:104230000640F3B20793002B37D1002D0AD16E4B05
:10424000E058011E22D0012824D10223099AA35448
:10425000039316E0694BE358002B15D0290020008A
:10426000FEF7C8FB0028EED1049BE258644BE158EE
:104270008A4200D9B2E0019BE25C20231343019AF9
:10428000A35403980BB0F0BD5E4BE1580598FFF7BF
:104290009BF8E7E7431C01D10123D7E7594BE050D6
:1042A000554BE258002A00D1E0504022019BE35CCC
:1042B000134210D0544BE2592100D05C534A0123E1
:1042C000A258FEF7C7FA0028E6D14022019BE35C22
:1042D0009343019AA354E35905934A4B0598E15837
:1042E000FEF7AEFE0028B0D0079B414AC518059BDB
:1042F0000298995AFBF724FF061E3CD03D4A059BC5
:104300009B5C079A12189A4201D9079A9E1A3E4B53
:10431000059A0699D05C33002A00FEF79BFA002824
:10432000BAD13A4BE058451BAE420ED9E359304A58
:1043300020009A5A069B55435919FEF7A7FA4022C6
:10434000019BE35C9343019AA354E359284A9B5A87
:104350005E43069B049A9B190693049BE3589B19A2
:10436000A350089B089A1B6805939B191360029B36
:104370009B1B029343E7254EA3599D4212D0049BF9
:10438000E35807931E4B079AE3589A420AD21E4BF2
:10439000059A2100D05C01232A00FEF74DFA00287F
:1043A00000D079E7A551E359114A9D5A049B290091
:1043B000E35818000593FBF749FF029E6D1AAE42C1
:1043C00000D92E00601832000699FEF75FFA4022ED
:1043D000019BE35C1343019AA354BAE7E2504AE716
:1043E000072335E707100000061000000810000042
:1043F0000A1000000210000010100000241000003D
:104400000C10000014100000011000001810000033
:1044100073B504000E000A2902D10D21FFF7F8FF41
:104420006368002B14DB5D1CE3181E733C2D0BDD51
:10443000210001AB2A000C312068FFF7BDFE019B73
:104440005D1B6B1E9D416D42A36865600133A360D7
:1044500073BD0000F8B50400FEF712FB061E53D131
:104460002A4FE35D9A064FD540252B4210D080237A
:104470005B01E258264B2100D05C264A0123A2585A
:10448000FEF7E8F9013600283ED1E35DAB43E35582
:10449000214BE1581C3BE058FEF7DCFB061E33D1F4
:1044A000812320225B01E558EB7A1343EB721B4B0F
:1044B000E25C2A77E258120A6A77E258120CAA776D
:1044C000E3581B0EEB77164BE3581A0AAB761B0C1E
:1044D0002B751B0AEA766B7500F072F92022030A2D
:1044E000A875EB75030C000EAE74EE742B7668762F
:1044F000E35D9343E35580235B01E058094B1F3A8A
:10450000C254FEF731FB06003000F8BD0610000073
:1045100001100000181000001C1000000C1000001A
:10452000101000000410000010B50400FFF792FF07
:1045300000280DD12000FEF7A3FA002808D1054B72
:10454000E058FEF73BFA002802D180235B01E050DF
:1045500010BDC04628100000F0B5140087B00590CB
:104560000291002205A92000FEF7D2FB051E0CD106
:104570002468364F364AE159A35800910239039214
:1045800004978B4204D8029A1360280007B0F0BD4C
:1045900080235B01E35C0193012B1CD10226070001
:1045A00031002000FEF762FD431C48D0012848D0AE
:1045B00043425841049B0136E3583F1800939E4202
:1045C000EED3039B234AE7500123A15C0B43A35482
:1045D000029B1F60D9E781235B01E15807000300BC
:1045E000002809D120004E1CFEF734FB00282AD1F8
:1045F00023003100184AA05A019A022A0ED15E788F
:104600001A7836023243564272410233BF180238DA
:10461000009A013A0092002AE2D1D2E75E781A7835
:10462000360216439A78043812041643DA780433B3
:1046300012063243120156427241BF18E8E70125C3
:10464000BFE70225BDE70500BBE7C0461410000028
:1046500010100000051000000A100000F0B5060060
:1046600017000500002485B00191019B013B9C428D
:1046700012DA03AB012202A93800FFF797FC039B73
:10468000012B09D102AB1B780D2BEED06A1C2B70CD
:10469000013415000A2BE8D100232B70631E9C41C6
:1046A00064422640300005B0F0BD002310B5040080
:1046B00096B00391049305932178002906D1049ABA
:1046C000002A08DA0120404216B010BD03A80134C8
:1046D000FFF79EFEF0E702AB06A90398FFF76CFD1B
:1046E0000028EFD1049B029A01939342EAD10598E6
:1046F000EAE7000030B501240E4B5D7AA54216D8DA
:1047000000245D7AEDB25C555D7AAD005D1968609C
:10471000587A181802725A7AD2B2501CC0B2587223
:104720003A2330324B700B3B0A708B70CC702000F8
:1047300030BDC046C402002010B50022FFF7DAFFEA
:1047400010BD000010B57F2807D9002906D0FF282A
:1047500011D88038094B4000C05A10BD074A4C00A0
:10476000A45A8BB2844203D001318029F7D10B00C7
:104770008033D8B2F1E70020EFE7C046365E00088C
:10478000002310B5054C5A00115B002903D081426B
:1047900002D1034BD05A10BD0133F4E7365F000855
:1047A0001661000810B503490348FFF7C5FF034B26
:1047B000187010BDE402002010000020E802002064
:1047C0000020704737B56B46DD1D2870064C200071
:1047D000FDF7EAFD02000128F8D1FA2329009B0029
:1047E0002000FDF7DFFB37BD100E002010B50022C2
:1047F00001210248FCF79CFF10BDC04600040048A0
:10480000012210B511000248FCF792FF10BDC0460E
:10481000000400487FB50E26FF236E440F2433703A
:1048200000236C442370094D2800FDF7BDFD0300F3
:104830000128F8D1FA2292000092310022002800CB
:10484000FDF780FC207804B070BDC046100E00203B
:1048500013B5FFF7D5FF0A24FF20013CFFF7B2FF95
:10486000002CF9D1FFF7C2FF6A464023137095234D
:1048700054709470D470147153716B46185D013488
:10488000FFF7A0FF062CF8D18024A401FFF7C2FF98
:10489000012802D0013C002CF8D1FFF7B1FFFF2026
:1048A000FFF790FF0122014B1A7013BDD1020020C7
:1048B000322310B5054C2370FFF7ACFFFFF7AAFFBA
:1048C000FF2802D02378002BF8D110BD5011002012
:1048D00070B505000E00FFF7EBFF03000020FF2B73
:1048E0002CD13000FFF76EFFFD2E21D080239B00DE
:1048F0002C00ED182078FFF765FF60780234FFF791
:1049000061FFAC42F6D1FFF785FF4125FFF782FF3B
:104910001F26FFF77FFF030004003340052B03D061
:10492000013DEDB2002DF4D1FFF774FF0028FBD05C
:104930001F200440053C60426041C0B270BD70B5AC
:1049400005000C00FFF7B4FF0300FF20834226D1CF
:104950002800FFF737FF200EFFF734FF200CC0B20E
:10496000FFF730FF200AC0B2FFF72CFFE0B2FFF7DD
:1049700029FF9520402D03D00020482D00D18730FD
:10498000FFF720FF4C2D01D1FFF744FF0A24FFF76A
:1049900041FF030603D5013CE4B2002CF7D170BD02
:1049A0000A2370B504000D000F4E3370FFF732FF7D
:1049B0000300FF2804D13078C0B20028F6D170BDC2
:1049C0000020FE2BFBD12600FFF724FF3070FFF7FD
:1049D00021FF70700236731BA342F5D1FFF71AFF57
:1049E000FFF718FF0120EAE751110020F7B5012376
:1049F000002806D10226464D2C78344003D02B786F
:104A0000DBB21800FEBDFFF723FFFFF7EFFE21002A
:104A10004020FFF794FF01286DD1D52164233D4F3D
:104A2000490047303B70FFF78AFF012840D1FFF76C
:104A3000F1FE01AEA0550134042CF8D1B378012B5E
:104A400059D1F378AA2B56D18024E4050021772090
:104A5000FFF775FF012824D93B78002BF6D13B786E
:104A6000002B48D000217A20FFF769FF002842D1AF
:104A70000400FFF7CFFE30550134042CF9D1337810
:104A800006265B0600D4043E234B1E70FFF7B8FEDB
:104A9000FFF7C0FE002E37D001222B7893432B70F6
:104AA000ADE721006920FFF74AFF0028D4D1D6E7FF
:104AB00021007720FFF743FF012805D82100692056
:104AC000FFF73DFF012800D9012600214120022ED9
:104AD00015D17720FFF733FF01280ED93B78002B43
:104AE000F3D13B78002B06D0802150208900FFF7BE
:104AF00026FF0028C8D00026C6E700216920FFF75E
:104B00001EFF0028EAD1ECE7044B1E7077E7C04691
:104B10000800002051110020D0020020D102002006
:104B20000123002802D1024B1B78DBB2180070472A
:104B300008000020F8B507000D0016001C00042036
:104B4000002F23D1002B21D01D4B01381B78DB0710
:104B50001CD41C4B1B785B0700D45602FFF746FEA3
:104B60003100012C13D15120FFF7E9FE002806D1B6
:104B7000802128008900FFF713FF44424441FFF7DA
:104B80003FFEFFF747FE601E8441E0B2F8BD5220B1
:104B9000FFF7D5FE0028F2D18026B60031002800AC
:104BA000FFF7FEFE002805D08023013C9B00ED1896
:104BB000002CF3D100214C20FFF7C1FEDFE7C046F7
:104BC00008000020D0020020F8B507000D001600F4
:104BD0001C000420002F27D1002B25D0254B0138A5
:104BE0001A78D20720D41A78042301381A421BD12C
:104BF000214F3A781A4200D17602FFF7F7FD012CD7
:104C000013D131005820FFF79AFE002830D1FE2141
:104C10002800FFF75DFE44424441FFF7F1FDFFF736
:104C2000F9FD601E8441E0B2F8BD3B789B0707D5D3
:104C300000217720FFF783FE21005720FFF77FFE3A
:104C400031005920FFF77BFE0028E6D1FC21280027
:104C5000FFF73EFE002805D08023013C9B00ED18A5
:104C6000002CF3D1FD210020FFF732FE0028D4D123
:104C70000124D2E708000020D0020020F0B5060091
:104C800085B00F0015000424002808D1052918D18B
:104C90001378012B0DD0002B04D0022B0DD0200057
:104CA00005B0F0BD464A1C0011780029F7D01370FA
:104CB000F5E7FFF7CDFD3400F1E7414B1B7853706A
:104CC000F9E7404B03241B78DB07E8D4FFF78EFDA0
:104CD0000D2F6BD83800FBF729FA4B074669696935
:104CE000696969696953606300214920FFF727FEFC
:104CF000041E05D00124FFF783FDFFF78BFDCEE7EF
:104D000010216846FFF74CFE0028F3D06B46197857
:104D10005A7A89091B7A012906D101321B02D3185C
:104D20009BB29B022B60E6E76946C9799B09890023
:104D30005B186946C020897900018902014001336E
:104D40005B1869460F204979520001406846807A15
:104D50009BB2C00909180620023102408A18D2B25B
:104D6000093A9340DEE780239B002B800024C2E7B2
:104D7000FFF79EFDFF380400601E8441E4B2BAE7ED
:104D800000214920FFF7DBFD0028B3D110212800C6
:104D9000FFF706FE44424441F0E700214A20F1E7D4
:104DA00000217A20FFF7CBFD002801D00424A2E7E0
:104DB0002C1DFFF72FFD28700135A542F9D1F5E72D
:104DC000D10200200800002010B50400FBF79CF978
:104DD000FA23C2B2DB0021000148FDF73FFC10BD01
:104DE0008409002000238022180010B5034CD20053
:104DF0001919013308709342FAD110BD040A00203A
:104E000030B5102597B0302200210AA800F065FBCC
:104E10002A00002101A800F060FB1422002105A84F
:104E200000F05BFB11230A9380235B021393802322
:104E3000012410955B030E3D0AA8129514930B9460
:104E40000F94FCF77BFC072302950025210001A8A5
:104E5000019303950495FCF7A5FE05A80594079515
:104E6000FCF734FF17B030BDF0B58BB0FCF794F908
:104E7000FFF7C6FF1422002105A800F02EFB8021B9
:104E8000A14DC9036A69C4270A436A616B69BF00FF
:104E90000B4080210193019B6A6909030A436A61FF
:104EA0006B699A480B4080210293029B6A698902D0
:104EB0000A436A616B6900240B4080210393039BC2
:104EC0006A69C9020A436A616B6900220B40049354
:104ED0003900049BFCF72CFC9020012605A9C00595
:104EE000059606940794FCF773FB05A98748059778
:104EF000069607940894FCF76BFB6B69220033431A
:104F00006B616B692100334000930920009BFCF723
:104F10008DFA0920FCF7BAFA0C22210005A800F04E
:104F2000DCFA7B4D7B4B04272B60C223FF33EB6104
:104F300028006B1DDC776C60AC60EC602E612C7619
:104F40006C76AE76EC762C62AE626F61FCF746F959
:104F500080235B010693802305A95B052800059645
:104F60000793FCF7E3F9022305A928000593FCF752
:104F7000DDF9032305A928000593FCF7D7F905A956
:104F800028000597FCF7D2F9052305A92800059309
:104F9000FCF7CCF9062305A9280005930636FCF793
:104FA000C5F905A928000596FCF7C0F9082305A94D
:104FB00028000593FCF7BAF9092305A928000593F1
:104FC000FCF7B4F90A2305A928000593FCF7AEF90C
:104FD0005148524B84600360E1235B0243600C2321
:104FE000C460046143618461C46104624462FDF78A
:104FF000CFFB4B484B4B44600360E023DB00C360B6
:1050000080239B0083618460046144610462446284
:105010008462C66204634463FCF766FFFFF7C2FB69
:10502000414E220031004148FEF770FE404C207096
:10503000002867D03F48FFF7C7FE3F4D3F4F2A008B
:1050400039003000FFF788FA85232A683C499B0025
:10505000D358505C023B5843FBF7E6FE0022394B25
:10506000FBF718F9FBF7F8F8374E384B02001860D9
:105070003749300000F03AFA3000FFF7A5FEFFF79D
:10508000B1FE2B682E4A38689B5C5843FBF7CCFE78
:1050900000222C4BFBF7FEF8FBF7DEF82D4B02004D
:1050A00018602D49300000F021FA3000FFF78CFE27
:1050B0002A4D2B4F132239002800FEF75FFE2900EE
:1050C00020702848FFF7F1FA20702800FFF72CFA2B
:1050D00020702548FFF778FE012239002800FEF7EE
:1050E0004DFE83239B002A00E95820703000FFF713
:1050F000B5FA3000FFF768FE2800FFF715FAFFF752
:1051000071FEFEE7194896E70010024000080048CB
:10511000BC0E00200024014084090020003801401A
:10512000100E002000300140956300084C0700205D
:105130000C0E0020F6620008080E00204807002030
:10514000020200000000E03F040A0020740E00206C
:1051500035630008800900204F630008FC0E002022
:10516000696300087363000896630008146300080D
:105170007047000001200A4B82B099690143996190
:1051800080219A69490502400092009ADA690A432F
:10519000DA61DB690B400193019B02B07047C046A6
:1051A00000100240F0B505008BB01422002105A8C4
:1051B00000F093F92D4B2A689A4254D18026802022
:1051C0002B4BB6009A69000332439A619A69032413
:1051D00032400192019A59690027014359615A6985
:1051E000024080200292029A59698002014359616B
:1051F00080215A69C90202400392039A5A691D48E4
:105200000A435A615B6906940B400493049B012393
:1052100005A90593FCF7DCF99020FE2305A9C0053C
:10522000059306940797FCF7D3F9134805A905944D
:1052300006940797FCF7CCF9104C114B2000236023
:105240008023E36080231B01636120236760A760E4
:105250002661A361E761FCF73FF9B84201D0FFF78F
:1052600087FF2C6365620BB0F0BDC046002401408F
:10527000001002400008004800040048780E00209A
:105280000800024010B5040088B01422002103A8D1
:1052900000F023F9114B22689A421CD18020104B58
:1052A000400199690143996180219A69C9020240CC
:1052B0000192019A5A690B480A435A615B690B4093
:1052C0000293029B38230393363B049303A90133D3
:1052D0000693FCF77DF908B010BDC04600300140D0
:1052E000001002400004004810B5040088B01422E9
:1052F000002103A800F0F1F8134B22689A4220D154
:105300008020124BC00199690143996180219A69FB
:10531000890202400192019A5A6990200A435A6117
:105320005B69C0050B400293029BC023DB00039323
:10533000022304930133069303A9023B0793FCF76E
:1053400047F908B010BDC0460038014000100240C7
:10535000084A1378002B03D01378013BDBB213709B
:10536000054A1378002B03D01378013BDBB213708E
:105370007047C04651110020501100207047FEE7D1
:105380007047704710B5074A13780133DBB21370CA
:105390001378092B03D900231370FFF7D9FFFBF70C
:1053A0000BFF10BDD202002010B50248FCF7C6F872
:1053B00010BDC046780E00200A4B10B519680200D7
:1053C000002901D1084919606946186882188A4283
:1053D00006D900F04FF80C2303600120404210BDB5
:1053E0001A60FCE7D402002058110020704710B565
:1053F000FFF7FCFAC0B210BD10B5FFF791FBC0B2C9
:1054000010BD10B5FFF796FBC0B210BD10B5FFF789
:10541000DBFBC0B210BD10B5FFF730FCC0B210BD51
:105420000D4885460D480E490E4A002302E0D45827
:10543000C4500433C4188C42F9D30B4A0B4C0023DC
:1054400001E013600432A242FBD3FFF7CFFF00F06C
:1054500017F8FFF709FDFEE70020002000000020FC
:1054600088000020186400088800002058110020DF
:10547000FEE70000014B18687047C046240000207A
:1054800070B500260C4D0D4C641BA410A64209D12A
:10549000002600F043FC0A4D0A4C641BA410A642EF
:1054A00005D170BDB300EB5898470136EEE7B30065
:1054B000EB5898470136F2E71064000810640008C2
:1054C0001064000814640008002310B59A4200D14B
:1054D00010BDCC5CC4540133F8E70300821893423A
:1054E00000D1704719700133F9E700000EB410B510
:1054F0009DB002A9029008610B488224886048612F
:10550000012040421FABC881084804CBA4000068BA
:1055100001938C8100F06EF80023029A13701DB085
:1055200010BC08BC03B01847FFFFFF7F2400002019
:10553000F0B58E6885B007000C00039201939E427F
:1055400039D890238A89DB001A4234D003250969AF
:1055500023685B1A0293636902985D43EB0F5D1940
:10556000019B6D1001331B18AB4200D91D00530580
:1055700032D52900380000F031FB061E09D10C237A
:105580003B6040230120A28940421343A38105B020
:10559000F0BD029A2169FFF797FFA389144A1A40C8
:1055A00080231343A381029B2661F6182660656160
:1055B000019EED1AA560019BB34200D21E0032008D
:1055C0000399206800F0ADFAA36800209B1BA3603C
:1055D00023689E192660DAE72A00380000F05CFB99
:1055E000061EE0D12169380000F0AEFAC7E7C046D8
:1055F0007FFBFFFFF0B59FB0029005938B890F00F2
:1056000016001B0611D50B69002B0ED1402100F0AE
:10561000E5FA38603861002805D10C23029A013878
:1056200013601FB0F0BD40237B61002306AD6B61AA
:1056300020336B761033AB7634002378002B47D1C0
:10564000A31B04930DD0A31B320039000298FFF76F
:105650006FFF431C00D1B5E06A69049B9446634424
:105660006B612378002B00D1ACE001220023524271
:105670006A6002A95432521801342B60EB60AB60AF
:105680001370AB65584E05222178300000F03EFAC9
:10569000621C002820D12968CB0604D5532302AE12
:1056A00020309B1918700B0704D553232B2002AE12
:1056B0009B19187023782A2B16D000200A21099BE9
:1056C0002278303A092A55D9002815D0099313E0D9
:1056D000252BB5D00134B0E70123801B8340296816
:1056E00014000B432B60CDE7059B181D1B6805902C
:1056F000002B39DB0993140023782E2B0BD1637810
:10570000621C2A2B3ED1059B02341A1D1B68059290
:10571000002B34DB0793354E21780322300000F054
:10572000F5F9002806D04023801B83402A68013405
:1057300013432B60217806222D48661C297600F041
:10574000E5F9002846D02B4B002B2FD12968059B6B
:105750000722C90528D59B189343083305936B6925
:10576000039A9B186B6167E75B42EB6002230B4374
:105770002B60C0E74B4301349B180120A0E70123B5
:105780005B42C7E7002314000A201A006B602178EF
:105790003039092903D9002BBDD00792BBE742431A
:1057A000013452180123F2E70733D5E705AB009324
:1057B0003A00114B2900029800E000BF0390039BC0
:1057C0000133CCD1BB890B985B0600D429E70120BB
:1057D000404226E705AB00933A00074B29000298A8
:1057E00000F07AF8EAE7C046DA630008E0630008F0
:1057F000E46300080000000031550008F7B515000B
:1058000001938A680B6900900C00934200DA130040
:1058100022002B6043321278002A01D001332B6022
:1058200023689B0602D52B6802332B60062723686A
:105830001F4027D0230043331B785A1E9341226810
:10584000920630D42200019943320098089EB04756
:10585000431C25D0062320682A68E1680340002500
:10586000042B03D18D1AEB43DB171D40A36822697B
:10587000934201DD9B1AED180027BD4220D1002084
:1058800010E00137E3682A689B1A9F42D2DA2200AF
:105890000123193201990098089EB047431CF0D1AA
:1058A00001204042FEBD3020E11843310870210044
:1058B0005A1C45310978A218433202331170C1E7EE
:1058C000220001231A3201990098089EB047431C18
:1058D000E6D00137D1E70000F0B58BB006920A00A0
:1058E00043320793059004920A7E0C00109B6E2AA7
:1058F00000D18FE017D8632A2CD008D8002A00D115
:1059000099E0582A54D026004236327029E0642AA1
:1059100001D0692AF7D121681A68080623D5111D1C
:105920001960156825E0732A00D188E008D86F2A2D
:1059300029D0702AE7D1202209680A43226003E0B7
:10594000752A20D0782ADED12200782145321170C4
:105950006C4A30E00E001A684236111D1960136857
:105960003370012379E04906D9D5111D1960002350
:10597000D55E002D03DA2D23049A6D421370624B1D
:105980000A2703932FE020681968050603D5081D30
:1059900018600D6805E04006F9D50D68081D18600F
:1059A000ADB2594B082703936F2A18D00A2716E087
:1059B00045310A70544A03921A682168101D186014
:1059C0001568080622D5CB0702D52023194321608C
:1059D0001027002D03D1202322689A432260230040
:1059E000002243331A706368A360002B5CDB04223F
:1059F000216891432160002D58D1049E002B64D072
:105A00002600039B42361B7833705EE04806DAD5E9
:105A1000ADB2D8E709681A68080605D5111D1960E6
:105A2000136862691A6006E04906F7D5111D19600E
:105A30001368A28A1A800023049E236154E01A6826
:105A4000111D1960166800216268300000F05EF8D0
:105A5000002801D0801B6060636823610023049AE2
:105A6000137041E02369320006990598079DA84705
:105A7000431C43D0236800259B070FD4099BE06893
:105A800098423DDA18003BE02200012319320699C2
:105A90000598079EB047431C30D00135E368099A4A
:105AA0009B1A9D42F0DBE9E7002DA9D0049E280057
:105AB0003900FAF7CBFB039B013E5B5C2800337097
:105AC0003900FAF73DFB051EF1D1082F09D12368F3
:105AD000DB0706D563682269934202DC3023013E6E
