:020000040800F2
:1000000000200020B51D0008311D0008331D000828
:1000100000000000000000000000000000000000E0
:10002000000000000000000000000000351D000876
:100030000000000000000000371D0008391D000806
:10004000051E0008051E0008051E0008051E000804
:10005000051E0008051E0008051E0008051E0008F4
:10006000051E0008411D0008051E0008051E0008A9
:10007000051E0008051E0008051E0008051E0008D4
:10008000051E0008051E000800000000051E0008EF
:10009000051E0008051E0008051E0008051E0008B4
:1000A000051E0008051E0008051E0008051E0008A4
:1000B000051E000800000000051E000800000000EA
:1000C00010B5064C2378002B07D1054B002B02D02E
:1000D000044800E000BF0123237010BD8800002009
:1000E00000000000C4260008044B10B5002B03D00C
:1000F0000349044800E000BF10BDC04600000000F6
:100100008C000020C42600080023C25C0133002AB2
:10011000FBD1581E7047000002B4714649084900DF
:10012000095649008E4402BC7047C04602B471466D
:1001300049084900095C49008E4402BC7047C0462A
:10014000002243088B4274D303098B425FD3030A16
:100150008B4244D3030B8B4228D3030C8B420DD329
:10016000FF22090212BA030C8B4202D312120902B7
:1001700065D0030B8B4219D300E0090AC30B8B42F5
:1001800001D3CB03C01A5241830B8B4201D38B03A3
:10019000C01A5241430B8B4201D34B03C01A524148
:1001A000030B8B4201D30B03C01A5241C30A8B428B
:1001B00001D3CB02C01A5241830A8B4201D38B0276
:1001C000C01A5241430A8B4201D34B02C01A52411A
:1001D000030A8B4201D30B02C01A5241CDD2C3098C
:1001E0008B4201D3CB01C01A524183098B4201D308
:1001F0008B01C01A524143098B4201D34B01C01AF3
:10020000524103098B4201D30B01C01A5241C3086A
:100210008B4201D3CB00C01A524183088B4201D3D9
:100220008B00C01A524143088B4201D34B00C01AC5
:100230005241411A00D20146524110467047FFE731
:1002400001B5002000F006F802BDC0460029F7D035
:1002500076E770477047C04670B50500FA200D4B31
:1002600080001978FFF76CFF0B4B01001868FFF74F
:1002700067FF00F03FFB04000120002C09D1032D93
:1002800007D802382200290000F0F8FA2000034BBA
:100290001D6070BD00000020080000200400002048
:1002A0001023064A10B5116800200B431360FFF7B6
:1002B000D3FF01F04FFC002010BDC04600200240DB
:1002C000034A044B11681B785B1813607047C046E3
:1002D000BC00002000000020014B18687047C04699
:1002E000BC00002070B50400FFF7F6FF0500631C9A
:1002F00002D0044B1B78E418FFF7EEFF401B84424A
:10030000FAD870BD000000200321036870B59A6818
:1003100004000A40012A01D0002070BD1968114272
:1003200002D1DA681204F7D505229D681540012D27
:100330001AD1022299680A439A6003221A60FFF7D1
:10034000CBFF060023689B682B42E5D0FFF7C4FF74
:10035000801B0228F6D91023A26B01201343A3634C
:10036000E36B1D43E563D8E710230120A26B134321
:10037000A363E36B0343E363CFE70000002373B59C
:1003800003210193036804009A680A40012A07D1F7
:100390001968114201D0002076BDDA681204FAD43F
:1003A0009968194A114208D010230120A26B134307
:1003B000A363E36B0343E363EEE7012299680A4317
:1003C0009A60124B12491868FFF7BAFE0190019B20
:1003D000002B15D1FFF780FF0125060023681B685D
:1003E0002B42D8D1FFF778FF801B0228F6D91023C3
:1003F000A26B01201343A363E36B2B43E363CBE7BF
:10040000019B013B0193E2E71700008008000020F8
:1004100040420F000422036870B59968040011423D
:1004200001D1002070BD9968114206D09A689207E8
:1004300003D4102299680A439A60FFF74DFF042500
:10044000060023689B682B42EBD0FFF745FF801B1B
:100450000228F6D910230120A26B1343A363E36B98
:100460000343E363DEE70000F8B504000120002C3D
:1004700073D0A36B002B06D122003432E36320003B
:10048000137001F07FFBA36BDB0600D57AE004223A
:1004900023689868104000D074E0A26B4349114073
:1004A00002220A430321A2639A680A40012A00D06B
:1004B0006EE01968114202D1DA68120468D5DA6870
:1004C0003B490A40DA60257E627EAD03D2031543C4
:1004D000A26AA17E013A561EB2411603E2684F039A
:1004E000154322692F43022A00D10420621DD27FC6
:1004F00052003A4332430243E07E012804D10029EE
:100500002CD1802149020A43C220E169FF30814297
:1005100002D0206A01430A438020D9684005114374
:10052000D960E16A814202D0481E062807D8072513
:1005300058692940A8435861586901435961DB68EB
:100540001C490B409A4211D100200322E063A36BA7
:1005500093431A0001231343A363F8BD2021A56B25
:100560002943A163E16B0843E063CDE71222A36B4B
:10057000012093431A0010231343A363E36B034347
:10058000E363EAE71023A26B01201343A363E4E7CC
:100590001821DA688A43A1680A43DA601969626837
:1005A000890089081143196189E7C046FDFEFFFFF4
:1005B0001902FEFFE7FF3F83036870B59B680400E4
:1005C00002205B071AD4250034352B78012B15D077
:1005D00001232B70637E012B11D1A36B0B4A0020EA
:1005E0001A4080235B0013431C22A3632368E0634B
:1005F00028701A609968183A0A439A6070BD200002
:10060000FFF7BCFE0028F9D1E7E7C046FEF0FFFF88
:1006100070B506003436337804000220012B12D066
:10062000012520003570FFF7F5FE002809D12000D4
:10063000FFF76AFE002804D1A36B034A13401D4351
:10064000A5630023337070BDFEFEFFFFF7B503689E
:1006500004009B680F00019202205B0730D4260043
:1006600034363378012B2BD001233370637E012B7A
:1006700027D1A36B164A00251A4080235B00134341
:10068000A363206B134BE56335708362124B2168C3
:10069000C362124B03631C230B604A680C3B134379
:1006A0004B600123CA681343CB603A004031019B81
:1006B00000F06CF904232800226891680B439360D2
:1006C000FEBD2000FFF75AFE0028F9D1D1E7C04651
:1006D000FEF0FFFFE5060008570700086307000863
:1006E000704700005022436A10B5996B11422AD11D
:1006F000996BB132FF320A43C0219A631A6809012B
:10070000D068084212D1997E00290FD111680907DB
:100710000CD5916849070DD40C2051688143516074
:100720009A6B0B49114001220A439A631800FFF7A4
:10073000D7FF10BD2022996B0A439A630122D96B1F
:100740000A43DA63F2E71B6B1B6B9847F1E7C0467D
:10075000FEFEFFFF704710B5406AFFF7FBFF10BDBC
:1007600070474023406A10B5826B134383630423B0
:10077000C26B1343C363FFF7F3FF10BDF7B500234C
:10078000040001933434237805000220012B2BD080
:1007900001232A68EE6A9068237040075AD43048D3
:1007A0004F680D6887423FD0AB4018008023976A9E
:1007B0005B05384390629E420FD0013E062E0CD955
:1007C0008B68072150690840834206D050690B406E
:1007D000884350615069034353612B00103B022B47
:1007E00003D9002000232370FEBD1E4A8023116818
:1007F000102D15D0112D15D05B040B431360102D57
:10080000EFD1194B19491868FFF79AFC0A2358438E
:100810000190019B002BE4D0019B013B0193F8E781
:100820001B04EAE7DB03E8E7AB40916A99432B003E
:10083000103B9162022BD4D80A4B1A68102D05D0B8
:10084000112D05D00A490A401A60CAE70949FAE79A
:100850000949F8E72022A96B18000A43AA63C1E7F7
:1008600001100000082701400800002040420F004E
:10087000FFFFFFFEFFFF7FFFFFFFBFFF70B5890196
:10088000002812DB8308134A03249B009B18FF22D5
:100890002040A0401400C025844011408140AD009C
:1008A0005E59A6433143595170BD03240F23C0B292
:1008B00003402040A040FC34250021408540814079
:1008C000083B054A9B089B009B18DA69AA43114321
:1008D000D961E9E700E100E000ED00E0002805DB78
:1008E0001F2318401E3B8340014A13607047C046D7
:1008F00000E100E0094A431E012093420DD8C021C7
:10090000074A08485360036A09061B021B0A0B4387
:10091000036200200723906013607047FFFFFF0011
:1009200010E000E000ED00E070B504000120002CB4
:1009300024D002232068A51CEB770268104BA16825
:100940001A4063680B43E1680B4321690B436169FB
:100950000B43A1690B43E1690B4313430360094B4C
:100960001421C018FFF7ECFB074B80002064E36301
:1009700000200123A063E418EB77E07770BDC04648
:100980000FC0FFFFF8FFFDBF00000240F0B5461C9E
:10099000F57F0224012D26D00125F5770519AC46F7
:1009A000ED7F0027EDB2012D29D16646F47704686A
:1009B00087632668076CAE43BD402660C66B7560D2
:1009C000636043680568102B0FD1A260E160C36AC1
:1009D0002268002B0CD00E23134323600123002434
:1009E0002A6813432B602000F0BDA160E260EEE7AF
:1009F0000A2313430422236023689343EDE7F77728
:100A0000F1E7F8B504273E00016CC26B8E40156813
:100A100003681C682E420DD03C420BD01968890631
:100A200002D41968B9431960C36A5660002B19D003
:100A3000984717E002273E008E402E4213D03C42DA
:100A400011D01968890606D40A241968A1431960CF
:100A50000121C319D97756600022431CDA77836AD3
:100A60009342E5D1F8BD082637008F403D42F9D0CA
:100A70003442F7D00E251C68AC431C6001231C00D7
:100A80008C405460821C8363D3770022C318DA77CA
:100A9000036BE5E7F0B50B6887B002930023019183
:100AA000029ADA4001D107B0F0BD01229A400392C8
:100AB0000399029A0A40009200D18CE0019A102119
:100AC000526816008E43022E0ED107251D40AD0040
:100AD0000139A940DC08A4000419276A8F43019951
:100AE0000969A9400F43276203245F00BC40E44327
:100AF0000568013E2540AC4603251540BD406146D2
:100B00000D430560012E0FD801998668CD682640F7
:100B1000BD40354385604668039915098E43012120
:100B20000D409D4035434560C56801992C408D6856
:100B30008021BD4049052C43C4600A424BD00121AD
:100B4000264C0326A5691E400D43A561A4699D0896
:100B50000C400594059C0F242149AD00B6006D188A
:100B6000B4409021AF68C905A743002488420CD047
:100B70001C490134884208D01B490134884204D002
:100B80001A490334884200D1023CB44000993C43E6
:100B90000E00AC60164CCD4327683E43D10301D410
:100BA0003E002E4026606768009E3E43910301D4BC
:100BB0003E002E406660A768009E3E43D10201D4ED
:100BC0003E002E40A660E668009F3743920201D4A3
:100BD0002E403700E760013362E7C0460010024054
:100BE000000001400004004800080048000C0048D4
:100BF0000004014000690840411E8841C0B27047AE
:100C0000002A01D0816170478162FCE74369194283
:100C100000D0090481617047F0B5040085B0002858
:100C200002D1012005B0F0BD0368DB072ED4236894
:100C30009B077ED423681B0700D5BAE023685B07B7
:100C400000D5DDE02368DB061AD56269B44D0423C4
:100C5000012A00D049E1696B02260B436B636B6B81
:100C60001A436A63FFF738FB07006B6B334200D10E
:100C700034E1F8216A6BA3698A43DB0013436B6399
:100C8000236A002B00D057E10020CBE70C21A44DB4
:100C90006A680A40042A06D06B680B40082B09D109
:100CA0006B68DB0306D52B689B03C0D56368002BFC
:100CB000BDD1B6E76368012B13D180232A685B029C
:100CC00013432B60FFF708FB80260700B6022B6852
:100CD0003342ACD1FFF700FBC01B6428F7D90320D7
:100CE000A0E7002B15D12B688E4A802613402B607D
:100CF0002B688D4AB60213402B60FFF7EDFA070010
:100D00002B68334293D0FFF7E7FAC01B6428F7D96A
:100D1000E5E7052B05D180232A68DB0213432B600E
:100D2000CBE72B687F4A13402B602B687E4A134029
:100D3000C7E70C227A4D6B68134206D06B681340EC
:100D4000082B11D16B68DB030ED42B689B0703D5EE
:100D5000E368012B00D064E7F8212A6823698A43FD
:100D6000DB0013432B6065E7E2680123002A0FD004
:100D70002A68022613432B60FFF7AEFA07002B68A0
:100D80003342E9D1FFF7A8FAC01B0228F7D9A6E73A
:100D90002A6802269A432A60FFF79EFA07002B680A
:100DA000334200D146E7FFF797FAC01B0228F6D975
:100DB00095E7E26901235A4D002A10D06A6A02269B
:100DC00013436B62FFF788FA07006B6A334200D067
:100DD00034E7FFF781FAC01B0228F6D97FE76A6A79
:100DE00002269A436A62FFF777FA07006B6A33427A
:100DF00000D123E7FFF770FAC01B0228F6D96EE78F
:100E000080220021464D5205EB690091134208D122
:100E1000EB691343EB61EB6913400393039B0123DD
:100E200000938027414E7F0033683B4206D0A36881
:100E3000012B13D12A6A13432B6230E033683B4302
:100E40003360FFF749FA019033683B42EFD1FFF777
:100E500043FA019BC01A6428F6D940E70122002B0F
:100E600014D12B6A022793432B622B6A03329343DC
:100E70002B62FFF731FA06002B6A3B4225D0FFF7C1
:100E80002BFA2B4B801B9842F6D928E7052B0BD168
:100E9000296A013B0B432B622B6A1A432A62FFF734
:100EA0001BFA022706000DE02B6A934304222B62F3
:100EB0002B6A9343C0E7FFF70FFA1D4B801B984244
:100EC00000D90CE72B6A3B42F5D0009B012B00D0E8
:100ED000B8E6EB69174A1340EB61B3E6FFF7FCF99C
:100EE000C01B022800D8C0E6F9E6053203D16A6BC0
:100EF0009A436A63BDE66A6B0226134301226B6361
:100F00006B6B93436B63FFF7E7F907006B6B33423F
:100F100000D1B5E6FFF7E0F9C01B0228F6D9DEE6FE
:100F200000100240FFFFFEFFFFFFFBFF00700040CC
:100F300088130000FFFFFFEF0C20354A51681500B1
:100F40000140082947D0334A022B32D12B68802632
:100F500013402B60FFF7C0F90700B6042B6833423B
:100F600021D10F22EB6A9343E26A1343EB62616A79
:100F7000A36A6A680B43284980240A4013436B60C4
:100F800080232A685B0413432B60FFF7A5F9060052
:100F9000A4042B68234200D076E6FFF79DF9801B5E
:100FA0000228F6D99BE6FFF797F9C01B0228D5D98E
:100FB00095E62B68802413402B60FFF78DF906001F
:100FC000A4042B68234200D15EE6FFF785F9801B5D
:100FD0000228F6D983E61800012B00D122E68021F1
:100FE0005368656A4902D26A19400120A94200D0BB
:100FF00018E60F210A40E16A8A4200D012E6F0208A
:1010000080030340A06A1B1A581E8341D8B209E628
:1010100000100240FFFFFFFEFFFFC2FF70B5144C3F
:1010200088B010222100684600F022FF210004ADA4
:1010300010221031280000F01BFF0C220D4E7368A7
:101040001A40082A11D10F206A46990C0140545CBD
:10105000F26A0240A95CDB0305D50748FFF770F888
:10106000604308B070BD0548FAE70348F9E7C04699
:10107000DC2600080010024000127A0000093D0042
:10108000F7B505000F00002801D10120FEBD0122A7
:10109000374C236813408B421CD329688B0722D41A
:1010A000CB072FD4012322681A40974251D32B68D3
:1010B000304C5B0754D4FFF7B1FF63682E4A1B0620
:1010C0001B0FD35CD8402D4B18600020FFF7C4F8ED
:1010D0000020DBE7236893430B432360236813401E
:1010E0009942D2D1D9E7234A4B0704D5E02350686F
:1010F000DB0003435360F02053688343A868034335
:101100005360CDE71B4E6A683368012A19D19B03EF
:10111000BBD5032173688B4313437360FFF7DCF87F
:1011200001900C2372681A406B689B009A42B9D0F8
:10113000FFF7D2F8019BC01A114B9842F1D9032056
:10114000A4E7022A02D19B01E3D49EE79B07E0D4E7
:101150009BE722689A43226022681A4295D1A6E74B
:101160006368084A1340EA6813436360A3E7C04614
:1011700000200240001002407F27000808000020E5
:1011800088130000FFF8FFFF044B054A5B685B050E
:101190005B0FD35C034A1068D840704700100240D0
:1011A0008F27000808000020F0B5036885B005000F
:1011B000DB0328D5802200213B4C5205E3690091D6
:1011C000134208D1E3691343E361E36913400393D6
:1011D000039B012300938027344E7F0033683B42FA
:1011E0002FD0C022236A92001340314E3BD1236A94
:1011F0001E406B681E43009B2662012B03D1E369EE
:101200002C4A1340E3612A68D30706D503202649F8
:101210000B6B8343A86803430B63930606D510202A
:1012200021490B6B8343E86803430B63002053059C
:1012300017D540211C4A136B8B4329690B43136359
:101240000FE033683B433360FFF746F801903368A3
:101250003B42C6D1FFF740F8019BC01A6428F6D97B
:10126000032005B0F0BD69680A409342BFD08023D7
:10127000226A206A11005B0203432362236A0E483C
:101280003140034023622162D307B0D5FFF724F831
:1012900007000222236A1342A9D1FFF71DF8074B6A
:1012A000C01B9842F5D9DBE70010024000700040F7
:1012B000FFFCFFFFFFFFFFEFFFFFFEFF88130000B3
:1012C000F8B504000120002C4BD000232500A362B8
:1012D0005D352B78DBB2002B05D122005C32137018
:1012E000200000F0BFFC0223402221682B700B6815
:1012F000002093430B60E023E268DB009A4231D97F
:10130000F0263601B24233D10600206B002803D10B
:101310009A422FD902232363A7686368A0693B43DD
:1013200027693B4367693B43E7693B43276A3B4384
:10133000A76A3B438027BF0007403B430B60636ABB
:10134000000C1A43636B1A430423184010430643EE
:101350004E60CB69084A00201340CB610123206610
:101360002B70F8BD802676019A42CED0A062CCE7E1
:101370000600FBE70123CEE7FFF7FFFF70B504008F
:101380002569A36802682B436569C1692B4310680E
:10139000434D0B4328400343136053684148256A7B
:1013A0000340E06803435360A36990682B433E4DBC
:1013B00028400343936080233C481B02824210D1A3
:1013C00003203B4A126B02403A48805C994213D09A
:1013D000082828D8FEF7AAFE41274627572727279F
:1013E0005A003548824256D1994236D1FFF7CCFE99
:1013F000636840005B080BE008281ED8FEF78CFEEF
:10140000F61D051D151D1D1D1800636858082B4B82
:10141000C0186168FEF794FE83B200201A002849C4
:10142000103A8A420CD9012013E0FFF7F7FDDFE7FD
:101430006368580880235B02EAE701200023EDE798
:101440000F22190091430A001B0721685B0F134309
:10145000CB6000232366636670BDFFF795FE63686B
:101460005B0802E063685808164BC0186168FEF715
:1014700067FE83B200201A001149103A8A42D2D87E
:101480002268D360E5E7FFF7C9FDE8E7636858081D
:1014900080231B02E9E79942CFD001200023EAE72D
:1014A000F369FFFFFFCFFFFFFFF4FFFF00380140AC
:1014B00000100240FC260008004400400024F40014
:1014C000EFFF000000127A00436A30B5DA0706D554
:1014D0000168284C4A682240846A22434A609A077D
:1014E00006D50168244C4A682240C46A22434A60F7
:1014F0005A0706D50168214C4A682240046B2243F2
:101500004A601A0706D501681D4C4A682240446BA0
:1015100022434A60DA0606D501681A4C8A682240DE
:10152000846B22438A609A0606D50168164C8A6845
:101530002240C46B22438A605A0610D50168134DBD
:101540004A68046C2A4022434A6080225203944233
:1015500005D14A680E4C2240446C22434A601B0667
:1015600006D502680B4953680B40816C0B435360EE
:1015700030BDC046FFFFFDFFFFFFFEFFFFFFFBFF8B
:10158000FF7FFFFFFFEFFFFFFFDFFFFFFFFFEFFF2B
:10159000FFFF9FFFFFFFF7FFF7B5802704000E0056
:1015A000150001933F012268D36933409B1B5942C8
:1015B0004B41AB4201D000201CE0089B0133F3D02B
:1015C000FEF78AFE019B089AC01A2368824201D363
:1015D000002A10D11A6813490A401A609A68A33188
:1015E000FF318A439A6020236367A36700230320A7
:1015F00070342370FEBD04211A680A42D3D0DA6920
:101600003A42D0D01F621A6806490A401A609A68A6
:10161000A331FF318A439A6020236367A367E3679E
:10162000E4E7C0465FFEFFFFF0B587B00593436F68
:1016300004000D0017000220202B49D10138002999
:1016400046D0002A44D08023A2685B019A4204D18C
:101650002369002B01D101423AD1230070331A785B
:101660000220012A34D0012200261A702123E667C5
:101670006367FEF731FE230050331F80023303936C
:101680001F808023A26804905B019A4204D12369E1
:10169000B34201D12E001D00230052331A88059B4E
:1016A00092B20093049B002A0AD140212000FFF748
:1016B00073FF00280BD1202370346360207007E093
:1016C000002280212000FFF767FF002802D00320BE
:1016D00007B0F0BD2268002D0BD133880236DB0540
:1016E000DB0D1385039B039A1B88013B9BB2138080
:1016F000D2E72B7801351385F4E7000073B5002697
:101700000400C667FEF7E8FD236805001B681B0799
:1017100015D423681B685B070AD580210E4B002275
:101720000093C9032B002000FFF736FF002811D1DA
:10173000202300206367A367703420700BE08021B2
:10174000054B32000093890303002000FFF724FFBC
:101750000028DED0032076BDFFFFFF0110B5041E78
:1017600001D1012010BD436F002B04D10200703263
:10177000137000F0A9FA242301212268636713681B
:1017800020008B431360FFF7F9FD0128E9D0636A5D
:10179000002B02D02000FFF797FE236807495A6804
:1017A00020000A402A215A609A688A439A600122DE
:1017B00019680A431A60FFF7A1FFD3E7FFB7FFFFDD
:1017C00030B501240E4B5D7AA54216D800245D7A0F
:1017D000EDB25C555D7AAD005D196860587A1818F5
:1017E00002725A7AD2B2501CC0B258723A233032C6
:1017F0004B700B3B0A708B70CC70200030BDC04624
:10180000A400002010B50022FFF7DAFF10BD000091
:1018100010B503490348FFF7F5FF034B187010BDDF
:10182000C000002010000020C400002030B51025AA
:1018300097B0302200210AA800F023FB2A000021E3
:1018400001A800F01EFB1422002105A800F019FBDE
:1018500011230A9380235B021393802301241095A4
:101860005B030E3D0AA8129514930B940F94FFF797
:10187000D3F9072302950025210001A801930395C0
:101880000495FFF7FDFB05A805940795FFF78CFC71
:1018900017B030BDF0B593B0FEF702FDFFF7C6FFFD
:1018A000142200210DA800F0ECFA80219B4DC90301
:1018B0006A69C4270A436A616B69BF000B408021D3
:1018C0000993099B6A6909030A436A616B69944831
:1018D0000B4080210A930A9B6A6989020A436A6164
:1018E0006B6900240B4080210B930B9B6A69C90232
:1018F0000A436A616B6900220B400C9339000C9B10
:10190000FFF77EF9902001260DA9C0050D960E94D3
:101910000F94FFF7BFF80DA981480D970E960F940D
:101920001094FFF7B7F86B69220033436B616B6962
:101930002100334008930920089BFEF79FFF0920F0
:10194000FEF7CCFF0C2221000DA800F09AFA754D8D
:10195000754B04272B60C223FF33EB6128006B1DFE
:10196000DC776C60AC60EC602E616F612C766C761D
:10197000AE76EC762C62AE62FEF776FD80235B01DC
:101980000E9380230DA95B0528000D960F93FEF79B
:10199000F5FE02230DA928000D93FEF7EFFE0323A9
:1019A0000DA928000D93FEF7E9FE0DA928000D975B
:1019B000FEF7E4FE05230DA928000D93FEF7DEFED9
:1019C00006230DA928000D93FEF7D8FE07230DA9C5
:1019D00028000D93FEF7D2FE08230DA928000D93D1
:1019E000FEF7CCFE09230DA928000D930637FEF75C
:1019F000C5FE0DA928000D97FEF7C0FE4B4E4C4BBF
:101A000030003360E1235B0273600C23B460F46048
:101A100034617361B461F46134627462FFF79EFEF5
:101A20004448454B44600360E023DB00C3608023EF
:101A30009B008361FA3BFF3BC362846004614461A5
:101A400004624462846204634463FFF739FCFFF775
:101A5000DFFE3B00222239493000FFF7E5FD3B0065
:101A6000332237493000FFF7DFFD0134FF34210016
:101A70002B48FFF7CBF890200121C005FFF7BAF8FB
:101A8000012846D180270624BF0039002448FFF7EB
:101A9000BDF8013C6420FEF725FC002CF5D1294C53
:101AA0000A2221002800FEF7D1FD312000F0D6F9EE
:101AB0000700636A24490793236A38000693E369A1
:101AC0000593A36904936369039323690293E3680D
:101AD0000193A36800936368226800F095FA3800C8
:101AE000FEF712FB390082B20A233000FFF79CFD9B
:101AF0000A23022215493000FFF796FD2800FEF761
:101B000087FD2800FEF758FDFA208000FEF7EAFB6B
:101B1000CFE76420FEF7E6FBA9E7C04600100240CD
:101B2000000800484C12002000240140241100202D
:101B300000380140A41100200030014000270008B7
:101B4000232700088C12002057270008542700087C
:101B50007047000001200A4B82B0996901439961E6
:101B600080219A69490502400092009ADA690A4385
:101B7000DA61DB690B400193019B02B07047C046FC
:101B800000100240F0B505008BB01422002105A81A
:101B900000F077F92D4B2A689A4254D18026802094
:101BA0002B4BB6009A69000332439A619A69032469
:101BB00032400192019A59690027014359615A69DB
:101BC000024080200292029A5969800201435961C1
:101BD00080215A69C90202400392039A5A691D483A
:101BE0000A435A615B6906940B400493049B0123EA
:101BF00005A90593FEF74EFF9020FE2305A9C00519
:101C0000059306940797FEF745FF134805A9059429
:101C100006940797FEF73EFF104C114B20002360FF
:101C20008023E36080231B01636120236760A7603A
:101C30002661A361E761FEF777FEB84201D0FFF7A6
:101C400087FF2C6365620BB0F0BDC04600240140E5
:101C5000001002400008004800040048081200205C
:101C60000800024010B5040088B01422002103A827
:101C700000F007F9114B22689A421CD18020104BCA
:101C8000400199690143996180219A69C902024022
:101C90000192019A5A690B480A435A615B690B40E9
:101CA0000293029B38230393363B049303A9013329
:101CB0000693FEF7EFFE08B010BDC04600300140AD
:101CC000001002400004004810B5040088B014223F
:101CD000002103A800F0D5F8134B22689A4220D1C6
:101CE0008020124BC00199690143996180219A6952
:101CF000890202400192019A5A6990200A435A616E
:101D00005B69C0050B400293029BC023DB00039379
:101D1000022304930133069303A9023B0793FEF7C2
:101D2000B9FE08B010BDC0460038014000100240A6
:101D30007047FEE77047704710B5FEF7C1FA10BD57
:101D400010B50248FEF75DFE10BDC0460812002027
:101D50000A4B10B519680200002901D10849196021
:101D60006946186882188A4206D900F04DF80C239B
:101D700003600120404210BD1A60FCE7B000002063
:101D8000B8120020704700000122024B1A70187828
:101D9000C0B270470C00002000207047012070473F
:101DA000002070470122024B1A701878C0B27047A9
:101DB0000C0000200D4885460D480E490E4A0023B0
:101DC00002E0D458C4500433C4188C42F9D30B4AEF
:101DD0000B4C002301E013600432A242FBD3FFF757
:101DE000D1FF00F017F8FFF755FDFEE700200020B7
:101DF0000000002088000020D42700088800002070
:101E0000B8120020FEE70000014B18687047C0467A
:101E10002400002070B500260C4D0D4C641BA4104E
:101E2000A64209D1002600F04DFC0A4D0A4C641B65
:101E3000A410A64205D170BDB300EB5898470136F7
:101E4000EEE7B300EB5898470136F2E7CC270008DD
:101E5000CC270008CC270008D027000810B5034B7A
:101E60000100186800F060F810BDC0462400002092
:101E7000002310B59A4200D110BDCC5CC45401338C
:101E8000F8E703008218934200D1704719700133BC
:101E9000F9E7000070B50500002910D00C1F236879
:101EA000002B00DAE418280000F0D0F81D4A13686F
:101EB000002B05D163601460280000F0C8F870BDE5
:101EC000A34209D9216860188342F3D118685B687E
:101ED00041182160EEE713005A68002A01D0A2429F
:101EE000F9D919685818A0420BD120680918581858
:101EF00019608242E0D110685268411819605A6036
:101F0000DAE7A04202D90C232B60D5E721686018DC
:101F1000824203D1106852684118216062605C609F
:101F2000CAE7C046B4000020032370B5CD1C9D4312
:101F3000083506000C2D1ED20C25A9421DD83000F4
:101F400000F084F8254A14682100002919D1244C96
:101F50002368002B03D1300000F044F820602900F2
:101F6000300000F03FF8431C2CD10C2330003360CC
:101F700000F06DF803E0002DDFDA0C233360002061
:101F800070BD0B685B1B1AD40B2B03D90B60CC18EC
:101F9000256003E08C420ED163681360300000F0CE
:101FA00056F8200007220B30231D9043C31AE7D0B8
:101FB0005A42E250E4E74B6863600C00EEE70C0025
:101FC0004968C2E70323C41C9C43A042E0D0211A05
:101FD000300000F007F8431CDAD1C6E7B400002057
:101FE000B8000020002370B5064C050008002360EF
:101FF000FFF7AEFE431C03D12368002B00D02B60FB
:1020000070BDC046B41200200EB410B59DB002A938
:10201000029008610B488224886048610120404298
:102020001FABC881084804CBA400006801938C81D1
:1020300000F070F80023029A13701DB010BC08BCA9
:1020400003B01847FFFFFF7F240000207047704750
:10205000F0B58E6885B007000C00039201939E4294
:1020600039D890238A89DB001A4234D003250969C4
:1020700023685B1A0293636902985D43EB0F5D1955
:10208000019B6D1001331B18AB4200D91D00530595
:1020900032D529003800FFF747FF061E09D10C236F
:1020A0003B6040230120A28940421343A38105B035
:1020B000F0BD029A2169FFF7DBFEA389144A1A409A
:1020C00080231343A381029B2661F6182660656175
:1020D000019EED1AA560019BB34200D21E003200A2
:1020E0000399206800F0ADFAA36800209B1BA36051
:1020F00023689E192660DAE72A00380000F0B3FA58
:10210000061EE0D121693800FFF7C4FEC7E7C046CC
:102110007FFBFFFFF0B59FB0029005938B890F0006
:1021200016001B0611D50B69002B0ED14021FFF7BD
:10213000FBFE38603861002805D10C23029A013873
:1021400013601FB0F0BD40237B61002306AD6B61BF
:1021500020336B761033AB7634002378002B47D1D5
:10216000A31B04930DD0A31B320039000298FFF784
:102170006FFF431C00D1B5E06A69049B9446634439
:102180006B612378002B00D1ACE001220023524286
:102190006A6002A95432521801342B60EB60AB60C4
:1021A0001370AB65584E05222178300000F03EFADE
:1021B000621C002820D12968CB0604D5532302AE27
:1021C00020309B1918700B0704D553232B2002AE27
:1021D0009B19187023782A2B16D000200A21099BFE
:1021E0002278303A092A55D9002815D0099313E0EE
:1021F000252BB5D00134B0E70123801B834029682B
:1022000014000B432B60CDE7059B181D1B68059040
:10221000002B39DB0993140023782E2B0BD1637824
:10222000621C2A2B3ED1059B02341A1D1B680592A5
:10223000002B34DB0793354E21780322300000F069
:10224000F5F9002806D04023801B83402A6801341A
:1022500013432B60217806222D48661C297600F056
:10226000E5F9002846D02B4B002B2FD12968059B80
:102270000722C90528D59B189343083305936B693A
:10228000039A9B186B6167E75B42EB6002230B4389
:102290002B60C0E74B4301349B180120A0E70123CA
:1022A0005B42C7E7002314000A201A006B60217804
:1022B0003039092903D9002BBDD00792BBE742432F
:1022C000013452180123F2E70733D5E705AB009339
:1022D0003A00114B2900029800E000BF0390039BD5
:1022E0000133CCD1BB890B985B0600D429E70120D0
:1022F000404226E705AB00933A00074B29000298BD
:1023000000F07AF8EAE7C046972700089D27000802
:10231000A12700080000000051200008F7B51500B3
:1023200001938A680B6900900C00934200DA130055
:1023300022002B6043321278002A01D001332B6037
:1023400023689B0602D52B6802332B60062723687F
:102350001F4027D0230043331B785A1E9341226825
:10236000920630D42200019943320098089EB0476B
:10237000431C25D0062320682A68E1680340002515
:10238000042B03D18D1AEB43DB171D40A368226990
:10239000934201DD9B1AED180027BD4220D1002099
:1023A00010E00137E3682A689B1A9F42D2DA2200C4
:1023B0000123193201990098089EB047431CF0D1BF
:1023C00001204042FEBD3020E11843310870210059
:1023D0005A1C45310978A218433202331170C1E703
:1023E000220001231A3201990098089EB047431C2D
:1023F000E6D00137D1E70000F0B58BB006920A00B5
:1024000043320793059004920A7E0C00109B6E2ABB
:1024100000D18FE017D8632A2CD008D8002A00D129
:1024200099E0582A54D026004236327029E0642AB6
:1024300001D0692AF7D121681A68080623D5111D31
:102440001960156825E0732A00D188E008D86F2A42
:1024500029D0702AE7D1202209680A43226003E0CC
:10246000752A20D0782ADED12200782145321170D9
:102470006C4A30E00E001A684236111D196013686C
:102480003370012379E04906D9D5111D1960002365
:10249000D55E002D03DA2D23049A6D421370624B32
:1024A0000A2703932FE020681968050603D5081D45
:1024B00018600D6805E04006F9D50D68081D186024
:1024C000ADB2594B082703936F2A18D00A2716E09C
:1024D00045310A70544A03921A682168101D186029
:1024E0001568080622D5CB0702D5202319432160A1
:1024F0001027002D03D1202322689A432260230055
:10250000002243331A706368A360002B5CDB042253
:10251000216891432160002D58D1049E002B64D086
:102520002600039B42361B7833705EE04806DAD5FE
:10253000ADB2D8E709681A68080605D5111D1960FB
:10254000136862691A6006E04906F7D5111D196023
:102550001368A28A1A800023049E236154E01A683B
:10256000111D1960166800216268300000F05EF8E5
:10257000002801D0801B6060636823610023049AF7
:10258000137041E02369320006990598079DA8471A
:10259000431C43D0236800259B070FD4099BE068A8
:1025A00098423DDA18003BE02200012319320699D7
:1025B0000598079EB047431C30D00135E368099A5F
:1025C0009B1A9D42F0DBE9E7002DA9D0049E28006C
:1025D0003900FDF73BFE039B013E5B5C2800337036
:1025E0003900FDF7ADFD051EF1D1082F09D1236893
:1025F000DB0706D563682269934202DC3023013E83
:102600003370049B9B1B2361079B09AA0093210045
:10261000069B0598FFF782FE431CB3D10120404280
:102620000BB0F0BDB9270008A8270008C9B282186E
:10263000904201D10020704703788B42FBD00130DB
:10264000F6E710B5884202D98B18984208D30023C8
:102650009A4207D0CC5CC4540133F9E78B5C8354B5
:10266000013AFBD210BDF8B507000D001600002995
:1026700005D11100FFF758FC04002000F8BD002A26
:1026800003D1FFF707FC3400F7E700F012F82C0045
:102690008642F2D931003800FFF746FC041EECD028
:1026A00029003200FFF7E4FB29003800FFF7F2FBB6
:1026B000E3E70B1F1B68181F002B01DA0B58C0182B
:1026C00070470000F8B5C046F8BC08BC9E4670478D
:0C26D000F8B5C046F8BC08BC9E46704738
:1026DC0002030405060708090A0B0C0D0E0F101057
:1026EC000102030405060708090A0B0C0D0E0F1056
:1026FC0000040802426567696E2041444320313072
:10270C00204368616E6E656C20772F204C45442009
:10271C00546573740D0A00414443302041444331E5
:10272C00204144433220414443332041444334202C
:10273C0041444335204144433620414443372041F2
:10274C0044433820414443390D0A00253464202584
:10275C0034642025346420253464202534642025F9
:10276C0034642025346420253464202534642025E9
:10277C0034640000000000000000000102030406A5
:10278C000708090000000001020304232D302B2050
:10279C0000686C4C00656667454647003031323343
:1027AC0034353637383941424344454600303132AE
:1027BC00333435363738396162636465660000003E
:0427CC00E900000818
:0427D000C10000083C
:1027D400010000000400000000127A000100000063
:1027E400A51D0008891D0008A11D0008991D0008E9
:1027F4009D1D0008280000200000000000000000CB
:1028040000000000000000000000000000000000C4
:1028140000000000000000000000000000000000B4
:1028240000000000000000000000000000000000A4
:102834000000000000000000000000000000000094
:102844000000000000000000000000000000000084
:0828540000000000000000007C
:0400000508001DB51D
:00000001FF
