:020000040800F2
:10000000002000204D5D0008915C0008935C000812
:1000100000000000000000000000000000000000E0
:10002000000000000000000000000000955C0008D7
:100030000000000000000000975C0008995C0008C8
:100040009D5D00089D5D00089D5D00089D5D0008A8
:100050009D5D0008BD5C00089D5D00089D5D000879
:100060009D5D0008D55C00089D5D00089D5D000851
:100070009D5D00089D5D00089D5D00089D5D000878
:100080009D5D00089D5D0008000000009D5D00086A
:100090009D5D00089D5D00089D5D00089D5D000858
:1000A0009D5D00089D5D00089D5D00089D5D000848
:1000B0009D5D0008000000009D5D0008000000003C
:1000C00010B5064C2378002B07D1054B002B02D02E
:1000D000044800E000BF0123237010BD8800002009
:1000E0000000000048660008044B10B5002B03D048
:1000F0000349044800E000BF10BDC04600000000F6
:100100008C000020486600080023C25C0133002AEE
:10011000FBD1581E7047000002B4714649084900DF
:10012000095649008E4402BC7047C04602B471466D
:1001300049084900095C49008E4402BC7047C0462A
:10014000002243088B4274D303098B425FD3030A16
:100150008B4244D3030B8B4228D3030C8B420DD329
:10016000FF22090212BA030C8B4202D312120902B7
:1001700065D0030B8B4219D300E0090AC30B8B42F5
:1001800001D3CB03C01A5241830B8B4201D38B03A3
:10019000C01A5241430B8B4201D34B03C01A524148
:1001A000030B8B4201D30B03C01A5241C30A8B428B
:1001B00001D3CB02C01A5241830A8B4201D38B0276
:1001C000C01A5241430A8B4201D34B02C01A52411A
:1001D000030A8B4201D30B02C01A5241CDD2C3098C
:1001E0008B4201D3CB01C01A524183098B4201D308
:1001F0008B01C01A524143098B4201D34B01C01AF3
:10020000524103098B4201D30B01C01A5241C3086A
:100210008B4201D3CB00C01A524183088B4201D3D9
:100220008B00C01A524143088B4201D34B00C01AC5
:100230005241411A00D20146524110467047FFE731
:1002400001B5002000F006F802BDC0460029F7D035
:1002500076E770477047C04670B500220C4B04002B
:100260000D0000F04DFE002804D12000290000F010
:10027000A7FD70BD064B00222000290000F08AFA7D
:1002800000F09EFD80231B069C466044F1E7C046BB
:100290000000E041F0B557464546DE464E46E0B523
:1002A0000C0398464E00230B87B0070092469B46EE
:1002B000760DCD0F002E6BD06D4B9E4235D0802435
:1002C0005B46420F2404DB0014431C43C3009946E1
:1002D000684BA3469C46002300276644029343468E
:1002E0001C035A00DB0F5046240B520D984600D1D8
:1002F00076E05F4B9A426DD08023410F1B040B4385
:100300005C49E4008C461C43C30000206244414623
:10031000B6186940721C0191944607430F2F00D90B
:10032000B0E0554ABF00D25997465B460343994611
:1003300000D087E000239B46023308270293CEE7D4
:1003400042460192022867D0032800D10EE201281C
:1003500000D062E100230024002299460199014067
:10036000CDB2002112030B0D120B1B051343434AA0
:10037000240513401C436400ED0764082C434846E1
:10038000210007B03CBC90469946A246AB46F0BD62
:10039000034399464FD05B46002B00D189E1584674
:1003A00000F0B8FD03000B3B1C2B00DD7AE11D22A1
:1003B000D31A3A0001005C46DA4008398C40130039
:1003C0008F4023439B46B94600232D4E0027361A03
:1003D000029384E7534623432AD10024022096E760
:1003E0005346234320D0002C00D157E1200000F0D9
:1003F00091FD03000B3B1C2B00DD49E11D21CB1AB5
:1004000051460200D9405346083A944093400C4369
:100410001B4A121A00207AE70125019B144C1D404B
:100420000023002299469CE70024002201206EE769
:10043000534603206BE700239B4601330427002625
:1004400002934CE7032381460C27029347E780225F
:100450000023002512039946054C82E75C464B4673
:1004600002986FE75C464B46019502986AE7C046E2
:10047000FF07000001FCFFFF80660008FFFF0F8000
:100480000DFCFFFF4A464946170C1A0C1B041B0CB7
:1004900008041900000C41431500884619007D43EB
:1004A0007943039589462900150045434D4402953B
:1004B00045462D0CAA46029D5544A94506D98A46B3
:1004C000802149028946CA4451460391290C04916E
:1004D000414609042D04090C88462900250C2404F2
:1004E0004144240C05912100414388462100794371
:1004F0008A466843414650448146080C48446F434D
:10050000824503D98021490289464F44010C89461E
:1005100039004944029141460F0404993F0C884632
:100520000004C01980444146049159460F0C090447
:10053000090C884659438A46390051438946414649
:100540004A435146090C8B467B43D2185A44934286
:1005500003D980235B029B46D94451460904090C08
:100560008A46414661437C43130C12044B44524477
:10057000A1468A463C0041466C434D4351464D449A
:100580000F0C7D19A94503D98021490288464444AE
:10059000049F0399B84641448B46834580414142BC
:1005A0008846514608042F04000C3F18584602990B
:1005B00010188946904292414F44BA465242994699
:1005C0009346C244D144CB448F42BF41C245894186
:1005D00099459B41934592417F4249422D0C52429D
:1005E0000F435B4213437F19FF185B463C19DB0D39
:1005F000059A64021C43430213435D1EAB415A46F5
:10060000C00D034352021343E20156D501205A089C
:1006100003401343E207134364085A486044002828
:100620004DDD5A0709D00F221A40042A05D01A1DA1
:100630009A429B415B42E4181300E20104D58020FA
:10064000514AC00014406044504A904200DDE3E645
:100650000125DB0862071A436402019B9146220BC5
:100660004405640D1D407CE6802259461203114268
:1006700008D0144206D122431203120B4546994674
:10068000434C6EE65B461A431203120B404C68E67D
:1006900003005446283B9C400023B9E600F03AFC96
:1006A0002030A6E60300283B9F400023BB46994626
:1006B0008AE600F02FFC203074E6B446ADE7012551
:1006C0002A1A382A06DD019B00241D40002300223F
:1006D000994646E61F2A21DC20252000AD1A1E007F
:1006E000AB40A840D6405D1EAB4130431843D440D8
:1006F000430709D00F230340042B05D00300181D26
:1007000098429B415B42E418230221D50125019BBD
:1007100001241D4000230022994622E61F252100C6
:100720006D42281AC1400800202A1DD05F35AA1A40
:10073000944023435C1EA341072503431D40002230
:10074000002D09D00F2200241A401800042AD6D107
:10075000030065076402220BDB082B430125994641
:10076000019B00241D40FCE50024E2E780220125D6
:100770001203224301991203120B0D409946044CB7
:10078000EFE5C046FF030000FFFFFFFEFE0700008D
:10079000FF070000F0B54646D6464F460C03C0B5ED
:1007A000CD0F4E00610A440F0C43C1005800400DAC
:1007B00084468A460F001903500F490A0143C64870
:1007C000760DA846DB0FD200844500D1D8E0012089
:1007D0004340AB4200D1A6E06046351A002D00DC54
:1007E00005E1002810D10B00134300D1D7E06B1EA8
:1007F000002B00D04BE153469F1ABA458041641A42
:100800004042241A01261EE0B34B9E4248D080236A
:100810001B041943382D00DD19E11F2D00DD4CE1CB
:1008200020230F005B1B10009A409F40E840531E9E
:100830009A41E940074317435346DF1B611ABA4503
:10084000A44164420C1B230200D4C5E06402650A83
:10085000002D00D1F6E0280000F05CFB0300083B0F
:100860001F2B00DDE9E020223C00D21A9D40D4403D
:100870009F4025439E4200DDDBE09E1B731C1F2B27
:1008800000DD0AE120223800D21A290097402C000E
:100890009140D8407A1E9741DC40002601430F4327
:1008A0007B0709D00F233B40042B05D03B1DBB42E7
:1008B000BF417F42E4191F00230225D5864B013634
:1008C0009E4200D1AFE0854B01251C4043466207A4
:1008D000FF08640276051743240B760D1D400021A6
:1008E0002403230B0C0D7E4A24051C4314403305BE
:1008F00023435B00ED075B082B43380019001CBC49
:1009000090469946A246F0BD012543466207FF087E
:100910001743E4081D40704B9E4236D024037605F1
:10092000240B760DDBE76346F31A002B00DC94E022
:100930006046002835D068488642B1D080273F0401
:100940003943382B00DCFDE00A43170000217A1EF2
:100950009741574457458041091944420C192302D5
:100960003AD55D4B01369E4200D14BE101225B4BF3
:100970001C407B0817401F43E207174364088FE7BA
:100980000800104300D024E721E723003B4300D1B7
:10099000B9E18022120314432403240B9FE72E00A5
:1009A0007EE70800104300D1CAE0581E84460028A4
:1009B00000D0E7E052445245804164184042241878
:1009C00017000126230207D50226CFE764462C43F1
:1009D00000D1B3E12C0067467B0700D062E76307D4
:1009E000FF081F4301254346E4081D4093E7002DFF
:1009F00078D1751C6D056D0D012D00DCF2E05046BF
:100A0000801A8245BF41651A7F42ED1B8446280249
:100A100000D48CE05046171ABA4292410C1B554242
:100A2000651B984614E70125434600241D40002716
:100A300055E72A4CF61A2C4032E73D00283885400D
:100A4000002717E7380000F065FA203006E70A4370
:100A5000170000217A1E9741EEE6002B00D0E5E05A
:100A6000731C9C465B055B0D012B00DC9FE01A4B61
:100A70009C4500D1C5E05244524580416418404233
:100A80002418E707520817436408664608E7124827
:100A9000854200D185E01D00BCE629001F3EF140E3
:100AA000202B00D17FE04022D31A9D402F437D1E92
:100AB000AF4100240F4300268EE72B000F00203BA0
:100AC000DF40202D71D040235D1BA9400A43511EF9
:100AD0008A4100211743AFE6FF070000FFFF7FFFB9
:100AE000FFFF0F80002E3ED0B34EB44545D0802688
:100AF00036046D423443382D00DDA8E01F2D00DDA3
:100B00001FE1202627005046761BB740E8400743E8
:100B10005046B040461EB041EC403843171ABA4226
:100B200092410C1B5242A41A664698468BE66446D4
:100B300067462C4300D08BE6002500260027EAE616
:100B40001E00ADE61F2B60DC2027F81A0F0084463C
:100B500087401000D840074360468240501E8241C3
:100B6000D9401743F5E626005046064305D0ED432D
:100B7000002DD3D0904EB445BDD10C001700664671
:100B800098468DE68C4883420BD06346D9E6002D0B
:100B900000D096E00800104300D1E2E00C001700FE
:100BA0009846854E7CE6002580E700218EE72300ED
:100BB00050460343002E00D0A8E0002B00D1DEE019
:100BC0000B00134300D16BE6524452458041641838
:100BD000404224181700230200D4FDE6774B6646F6
:100BE0001C405DE6250050460543002ECFD1002D68
:100BF0004FD10C00144300D1A0E00C001700984620
:100C00004EE666460024002785E61F000800203FC8
:100C1000F8400700202B00D18EE04020C31A9940F5
:100C20000A43511E8A410021174392E6002E14D137
:100C300026005046064362D0DB43002B5CD1871868
:100C40009742924164185242A418664687E650467D
:100C50002043441EA041002460E7574EB4454ED0C7
:100C6000802636045B423443382B00DD7FE01F2BA7
:100C700000DD8BE0202627005046F61AB740D8400A
:100C800007435046B040461EB0410743DC40BF1802
:100C9000D6E70D00154300D102E65046801A824582
:100CA000BF41651A7F42ED1B8446280200D48DE6C1
:100CB0005046171ABA4292410C1B5242A41A984647
:100CC000EEE50D00154300D16BE750466707C008FD
:100CD00007438020E4080003044207D0CD08054202
:100CE00004D12C009846D70849070F437B0FE40036
:100CF0001C43FF00304ED3E52F4EB445B4D10C0059
:100D000017006646CCE500270024E8E5002B39D023
:100D10000B00134300D144E7C00867070743802056
:100D2000E40800030442E1D0CB080342DED1D70837
:100D300049070F431C00D9E7002171E70025002770
:100D4000E9E52E002700203EF740202D2FD0402639
:100D5000751BAC4050462043441EA041002438433C
:100D6000DCE6802400252403134E0027D3E55046FB
:100D700020430700781E87410024BF1860E70C005D
:100D800017008DE50C0017000B4E89E51E002700AB
:100D9000203EF740202B0CD04026F31A9C405046B2
:100DA0002043441EA04107430024BF1848E7002405
:100DB000D0E70024F3E7C046FF070000FFFF7FFFF6
:100DC00030B5134D0A034B00120B5B0DC90F002405
:100DD000AB4210DD0F4CA3420FDC80240E4D6403A8
:100DE0002243ED1A1F2D0BDD0C48C31ADA40544282
:100DF000002900D11400200030BD094BCC18FAE7BF
:100E0000084CE840A44663449A400243EFE7C046DA
:100E1000FE0300001D040000330400001304000062
:100E2000FFFFFF7FEDFBFFFF10B5041E28D000F091
:100E300071F8154B154A1B1AD21A1F2A15DD144AD0
:100E4000D21A9440002224035B05240B5B0D002181
:100E5000100024030A0D240B120522430D4C1B0520
:100E6000224013435B00590810BD210091400A0045
:100E70000B21081AC4405B052403240B5B0DE6E735
:100E8000002300240022E2E71E04000033040000D7
:100E900013040000FFFF0F808446101C62468C463E
:100EA000191C634600E0C0461FB500F0EFF80028AB
:100EB00001D40021C8421FBD10B500F049F84042DE
:100EC000013010BD10B500F0E1F8002801DB002072
:100ED00010BD012010BDC04610B500F0D7F80028A5
:100EE00001DD002010BD012010BDC04610B500F08E
:100EF00069F8002801DC002010BD012010BDC046AB
:100F000010B500F05FF8002801DA002010BD0120C4
:100F100010BDC0461C2101231B04984201D3000CC4
:100F200010391B0A984201D3000A08391B0998425C
:100F300001D30009043902A2105C40187047C04672
:100F40000403020201010101000000000000000092
:100F5000F0B54F464646D6465C00C0B51F03DB0FD2
:100F60009A46174B0E034D0084468046360B6D0D96
:100F7000C90F91463F0B640D01209D4208D09C4251
:100F800001D0A5420BD01CBC90469946A246F0BDAC
:100F900063463343F7D1AC42F5D13A43F3D1012054
:100FA000BE42F0D1C845EED1514507D0002DEAD15F
:100FB00063461E433000461EB041E4E70020E2E7EE
:100FC000FF070000F0B54546DE4657464E46E0B501
:100FD0001F033D0B2C4F0E034C00AB465D008446B7
:100FE000360B640DC90F90466D0DDB0FBC422AD045
:100FF000254FBD422DD0002C0FD130430700814634
:1010000078427841C0B2002D17D15F463A4314D1DF
:101010004B460020002B0AD006E0002D02D1584696
:10102000024301D0994218D04842012108433CBCF8
:1010300090469946A246AB46F0BD0028F2D001206A
:10104000013B1843F3E737000743D1D00220404269
:10105000EDE75F461743CED0F8E7AC42E4DC03DAB5
:10106000481E01210843E2E75E45DDD806D0002096
:101070005E45DCD20123481E1843D8E7C445D3D8C7
:101080000020C445F6D3D2E7FF070000F0B54E4676
:101090004546DE4657465C00E0B51F03DB0F994628
:1010A0002A4B0E034D00C90F8446360B6D0D8B463F
:1010B00090463F0B640D9D4220D0244B9C4222D091
:1010C000002D12D1304343424341DBB2002C1FD0EC
:1010D000002B0CD04B460120013B034318003CBCC5
:1010E00090469946A246AB46F0BD002C16D0CB45A3
:1010F00017D05B46594201230B43EFE7310002232F
:101100000143EBD1D9E7390002231143E6D1D7E7F8
:101110003A43DDD100230028E0D0EAE73A43E6D1A4
:10112000E7E7A542E5DC05DBBE42E2D807D00023B5
:10113000BE42D3D25946012301390B43CEE7C44501
:10114000D7D80023C445F5D3C8E7C046FF07000041
:1011500070B50500FA200D4B80001978FEF7F0FFFE
:101160000B4B01001868FEF7EBFF00F03FFB04009B
:101170000120002C09D1032D07D8023822002900B4
:1011800000F0F8FA2000034B1D6070BD0000002045
:101190000C000020040000201023064A10B511683E
:1011A00000200B431360FFF7D3FF04F093FC0020F3
:1011B00010BDC04600200240034A044B11681B7852
:1011C0005B1813607047C046E80200200000002052
:1011D000014B18687047C046E802002070B5040053
:1011E000FFF7F6FF0500631C02D0044B1B78E418E0
:1011F000FFF7EEFF401B8442FAD870BD00000020CC
:101200000321036870B59A6804000A40012A01D0DE
:10121000002070BD1968114202D1DA681204F7D5B6
:1012200005229D681540012D1AD1022299680A43B2
:101230009A6003221A60FFF7CBFF060023689B68C1
:101240002B42E5D0FFF7C4FF801B0228F6D91023FC
:10125000A26B01201343A363E36B1D43E563D8E74F
:1012600010230120A26B1343A363E36B0343E363E7
:10127000CFE70000002373B5032101930368040046
:101280009A680A40012A07D11968114201D000204A
:1012900076BDDA681204FAD49968194A114208D066
:1012A00010230120A26B1343A363E36B0343E363A7
:1012B000EEE7012299680A439A60124B12491868B6
:1012C000FEF73EFF0190019B002B15D1FFF780FF39
:1012D0000125060023681B682B42D8D1FFF778FF51
:1012E000801B0228F6D91023A26B01201343A363AD
:1012F000E36B2B43E363CBE7019B013B0193E2E705
:10130000170000800C00002040420F0004220368F8
:1013100070B599680400114201D1002070BD996830
:10132000114206D09A68920703D4102299680A43A2
:101330009A60FFF74DFF0425060023689B682B4247
:10134000EBD0FFF745FF801B0228F6D910230120C0
:10135000A26B1343A363E36B0343E363DEE7000085
:10136000F8B504000120002C73D0A36B002B06D12C
:1013700022003432E3632000137004F0C3FBA36B3C
:10138000DB0600D57AE0042223689868104000D07C
:1013900074E0A26B4349114002220A430321A26375
:1013A0009A680A40012A00D06EE01968114202D101
:1013B000DA68120468D5DA683B490A40DA60257EAB
:1013C000627EAD03D2031543A26AA17E013A561E86
:1013D000B2411603E2684F03154322692F43022AE4
:1013E00000D10420621DD27F52003A4332430243AF
:1013F000E07E012804D100292CD1802149020A4332
:10140000C220E169FF30814202D0206A01430A43D1
:101410008020D96840051143D960E16A814202D039
:10142000481E062807D8072558692940A84358614F
:10143000586901435961DB681C490B409A4211D13C
:1014400000200322E063A36B93431A00012313439C
:10145000A363F8BD2021A56B2943A163E16B084379
:10146000E063CDE71222A36B012093431A001023FF
:101470001343A363E36B0343E363EAE71023A26B25
:1014800001201343A363E4E71821DA688A43A168C3
:101490000A43DA6019696268890089081143196191
:1014A00089E7C046FDFEFFFF1902FEFFE7FF3F830D
:1014B000036870B59B68040002205B071AD42500FE
:1014C00034352B78012B15D001232B70637E012B33
:1014D00011D1A36B0B4A00201A4080235B001343F9
:1014E0001C22A3632368E06328701A609968183A85
:1014F0000A439A6070BD2000FFF7BCFE0028F9D1B6
:10150000E7E7C046FEF0FFFF70B5060034363378DB
:1015100004000220012B12D0012520003570FFF7B6
:10152000F5FE002809D12000FFF76AFE002804D14B
:10153000A36B034A13401D43A5630023337070BDA2
:10154000FEFEFFFFF7B5036804009B680F000192E1
:1015500002205B0730D4260034363378012B2BD0A1
:1015600001233370637E012B27D1A36B164A00251C
:101570001A4080235B001343A363206B134BE56386
:1015800035708362124B2168C362124B03631C23C4
:101590000B604A680C3B13434B600123CA6813433A
:1015A000CB603A004031019B00F06CF90423280025
:1015B000226891680B439360FEBD2000FFF75AFE3E
:1015C0000028F9D1D1E7C046FEF0FFFFDD15000885
:1015D0004F1600085B160008704700005022436A4F
:1015E00010B5996B11422AD1996BB132FF320A437F
:1015F000C0219A631A680901D068084212D1997E05
:1016000000290FD1116809070CD5916849070DD43D
:101610000C205168814351609A6B0B4911400122A3
:101620000A439A631800FFF7D7FF10BD2022996B79
:101630000A439A630122D96B0A43DA63F2E71B6B10
:101640001B6B9847F1E7C046FEFEFFFF704710B5E1
:10165000406AFFF7FBFF10BD70474023406A10B59A
:10166000826B134383630423C26B1343C363FFF78B
:10167000F3FF10BDF7B50023040001933434237841
:1016800005000220012B2BD001232A68EE6A906806
:10169000237040075AD430484F680D6887423FD0C6
:1016A000AB4018008023976A5B05384390629E42E6
:1016B0000FD0013E062E0CD98B68072150690840D7
:1016C000834206D050690B40884350615069034300
:1016D00053612B00103B022B03D900200023237001
:1016E000FEBD1E4A80231168102D15D0112D15D076
:1016F0005B040B431360102DEFD1194B1949186887
:10170000FEF71EFD0A2358430190019B002BE4D0F5
:10171000019B013B0193F8E71B04EAE7DB03E8E7E1
:10172000AB40916A99432B00103B9162022BD4D8B5
:101730000A4B1A68102D05D0112D05D00A490A4010
:101740001A60CAE70949FAE70949F8E72022A96BB4
:1017500018000A43AA63C1E70110000008270140EE
:101760000C00002040420F00FFFFFFFEFFFF7FFF45
:10177000FFFFBFFF70B58901002812DB8308134A01
:1017800003249B009B18FF222040A0401400C0258A
:10179000844011408140AD005E59A6433143595108
:1017A00070BD03240F23C0B203402040A040FC348E
:1017B0002500214085408140083B054A9B089B004D
:1017C0009B18DA69AA431143D961E9E700E100E017
:1017D00000ED00E0002805DB1F2318401E3B83407E
:1017E000014A13607047C04600E100E0094A431E09
:1017F000012093420DD8C021074A08485360036A6C
:1018000009061B021B0A0B4303620020072390609A
:1018100013607047FFFFFF0010E000E000ED00E004
:1018200070B504000120002C24D002232068A51CE0
:10183000EB770268104BA1681A4063680B43E168BC
:101840000B4321690B4361690B43A1690B43E169B8
:101850000B4313430360094B1421C018FEF770FCBF
:10186000074B80002064E36300200123A063E41899
:10187000EB77E07770BDC0460FC0FFFFF8FFFDBFFC
:1018800000000240F0B5461CF57F0224012D26D051
:101890000125F5770519AC46ED7F0027EDB2012D46
:1018A00029D16646F477046887632668076CAE43DF
:1018B000BD402660C66B7560636043680568102B89
:1018C0000FD1A260E160C36A2268002B0CD00E2306
:1018D00013432360012300242A6813432B60200054
:1018E000F0BDA160E260EEE70A2313430422236007
:1018F00023689343EDE7F777F1E7F8B504273E0057
:10190000016CC26B8E40156803681C682E420DD0B6
:101910003C420BD01968890602D41968B943196092
:10192000C36A5660002B19D0984717E002273E0083
:101930008E402E4213D03C4211D01968890606D43D
:101940000A241968A14319600121C319D977566087
:101950000022431CDA77836A9342E5D1F8BD08265A
:1019600037008F403D42F9D03442F7D00E251C6835
:10197000AC431C6001231C008C405460821C8363B8
:10198000D3770022C318DA77036BE5E7F0B50B686D
:1019900087B0029300230191029ADA4001D107B087
:1019A000F0BD01229A4003920399029A0A400092E4
:1019B00000D18CE0019A1021526816008E43022E4D
:1019C0000ED107251D40AD000139A940DC08A40057
:1019D0000419276A8F4301990969A9400F432762B7
:1019E00003245F00BC40E4430568013E2540AC464B
:1019F00003251540BD4061460D430560012E0FD8FB
:101A000001998668CD682640BD40354385604668AB
:101A1000039915098E4301210D409D4035434560D2
:101A2000C56801992C408D688021BD4049052C4333
:101A3000C4600A424BD00121264C0326A5691E40F2
:101A40000D43A561A4699D080C400594059C0F24D5
:101A50002149AD00B6006D18B4409021AF68C905AA
:101A6000A743002488420CD01C490134884208D086
:101A70001B490134884204D01A490334884200D1FA
:101A8000023CB44000993C430E00AC60164CCD4380
:101A900027683E43D10301D43E002E40266067688C
:101AA000009E3E43910301D43E002E406660A7682D
:101AB000009E3E43D10201D43E002E40A660E6685F
:101AC000009F3743920201D42E403700E760013374
:101AD00062E7C046001002400000014000040048D8
:101AE00000080048000C004800040140002A01D012
:101AF000816170478162FCE74369194200D00904A3
:101B00008161704770470000044B10B55A6910425C
:101B100002D05861FFF7F6FF10BDC0460004014037
:101B2000F0B5040085B0002802D1012005B0F0BD59
:101B30000368DB072ED423689B077ED423681B072A
:101B400000D5BAE023685B0700D5DDE02368DB063B
:101B50001AD56269B44D0423012A00D049E1696BAA
:101B600002260B436B636B6B1A436A63FFF730FB10
:101B700007006B6B334200D134E1F8216A6BA36933
:101B80008A43DB0013436B63236A002B00D057E1C9
:101B90000020CBE70C21A44D6A680A40042A06D035
:101BA0006B680B40082B09D16B68DB0306D52B68EB
:101BB0009B03C0D56368002BBDD1B6E76368012BDA
:101BC00013D180232A685B0213432B60FFF700FBCD
:101BD00080260700B6022B683342ACD1FFF7F8FA33
:101BE000C01B6428F7D90320A0E7002B15D12B6870
:101BF0008E4A802613402B602B688D4AB602134014
:101C00002B60FFF7E5FA07002B68334293D0FFF70C
:101C1000DFFAC01B6428F7D9E5E7052B05D180233F
:101C20002A68DB0213432B60CBE72B687F4A134003
:101C30002B602B687E4A1340C7E70C227A4D6B68F5
:101C4000134206D06B681340082B11D16B68DB037D
:101C50000ED42B689B0703D5E368012B00D064E703
:101C6000F8212A6823698A43DB0013432B6065E768
:101C7000E2680123002A0FD02A68022613432B6052
:101C8000FFF7A6FA07002B683342E9D1FFF7A0FA65
:101C9000C01B0228F7D9A6E72A6802269A432A60C1
:101CA000FFF796FA07002B68334200D146E7FFF7AB
:101CB0008FFAC01B0228F6D995E7E26901235A4D35
:101CC000002A10D06A6A022613436B62FFF780FA7B
:101CD00007006B6A334200D034E7FFF779FAC01B84
:101CE0000228F6D97FE76A6A02269A436A62FFF7FA
:101CF0006FFA07006B6A334200D123E7FFF768FAF7
:101D0000C01B0228F6D96EE780220021464D5205FD
:101D1000EB690091134208D1EB691343EB61EB6966
:101D200013400393039B012300938027414E7F00C0
:101D300033683B4206D0A368012B13D12A6A1343B0
:101D40002B6230E033683B433360FFF741FA019088
:101D500033683B42EFD1FFF73BFA019BC01A64287E
:101D6000F6D940E70122002B14D12B6A02279343B6
:101D70002B622B6A033293432B62FFF729FA06008A
:101D80002B6A3B4225D0FFF723FA2B4B801B98424E
:101D9000F6D928E7052B0BD1296A013B0B432B62AF
:101DA0002B6A1A432A62FFF713FA022706000DE096
:101DB0002B6A934304222B622B6A9343C0E7FFF7FD
:101DC00007FA1D4B801B984200D90CE72B6A3B4257
:101DD000F5D0009B012B00D0B8E6EB69174A134001
:101DE000EB61B3E6FFF7F4F9C01B022800D8C0E6A8
:101DF000F9E6053203D16A6B9A436A63BDE66A6B02
:101E00000226134301226B636B6B93436B63FFF7F3
:101E1000DFF907006B6B334200D1B5E6FFF7D8F965
:101E2000C01B0228F6D9DEE600100240FFFFFEFFCD
:101E3000FFFFFBFF0070004088130000FFFFFFEF73
:101E40000C20354A516815000140082947D0334A13
:101E5000022B32D12B68802613402B60FFF7B8F994
:101E60000700B6042B68334221D10F22EB6A93435B
:101E7000E26A1343EB62616AA36A6A680B4328490A
:101E800080240A4013436B6080232A685B04134359
:101E90002B60FFF79DF90600A4042B68234200D0B5
:101EA00076E6FFF795F9801B0228F6D99BE6FFF747
:101EB0008FF9C01B0228D5D995E62B6880241340E2
:101EC0002B60FFF785F90600A4042B68234200D19C
:101ED0005EE6FFF77DF9801B0228F6D983E618003D
:101EE000012B00D122E680215368656A4902D26A3B
:101EF00019400120A94200D018E60F210A40E16AEA
:101F00008A4200D012E6F02080030340A06A1B1A28
:101F1000581E8341D8B209E600100240FFFFFFFEC1
:101F2000FFFFC2FF70B5144C88B010222100684634
:101F300003F060FF210004AD10221031280003F0EF
:101F400059FF0C220D4E73681A40082A11D10F2038
:101F50006A46990C0140545CF26A0240A95CDB03BA
:101F600005D50748FEF7ECF8604308B070BD05489A
:101F7000FAE70348F9E7C04660660008001002402F
:101F800000127A0000093D00F7B505000F00002897
:101F900001D10120FEBD0122374C236813408B4242
:101FA0001CD329688B0722D4CB072FD401232268A6
:101FB0001A40974251D32B68304C5B0754D4FFF73B
:101FC000B1FF63682E4A1B061B0FD35CD8402D4B14
:101FD00018600020FFF7BCF80020DBE7236893437C
:101FE0000B432360236813409942D2D1D9E7234A97
:101FF0004B0704D5E0235068DB0003435360F02017
:1020000053688343A86803435360CDE71B4E6A6857
:102010003368012A19D19B03BBD5032173688B4315
:1020200013437360FFF7D4F801900C2372681A40D1
:102030006B689B009A42B9D0FFF7CAF8019BC01A9F
:10204000114B9842F1D90320A4E7022A02D19B0147
:10205000E3D49EE79B07E0D49BE722689A43226083
:1020600022681A4295D1A6E76368084A1340EA68D5
:1020700013436360A3E7C046002002400010024003
:102080008B6D00080C00002088130000FFF8FFFF94
:10209000044B054A5B685B055B0FD35C034A106821
:1020A000D8407047001002409B6D00080C000020D3
:1020B000F0B5036885B00500DB0328D58022002138
:1020C0003B4C5205E3690091134208D1E369134385
:1020D000E361E36913400393039B0123009380278B
:1020E000344E7F0033683B422FD0C022236A9200D7
:1020F0001340314E3BD1236A1E406B681E43009B48
:102100002662012B03D1E3692C4A1340E3612A685C
:10211000D30706D5032026490B6B8343A8680343E6
:102120000B63930606D5102021490B6B8343E868A7
:1021300003430B630020530517D540211C4A136B42
:102140008B4329690B4313630FE033683B433360D0
:10215000FFF73EF8019033683B42C6D1FFF738F8ED
:10216000019BC01A6428F6D9032005B0F0BD696848
:102170000A409342BFD08023226A206A11005B028A
:1021800003432362236A0E483140034023622162E5
:10219000D307B0D5FFF71CF807000222236A1342C9
:1021A000A9D1FFF715F8074BC01B9842F5D9DBE71B
:1021B0000010024000700040FFFCFFFFFFFFFFEF38
:1021C000FFFFFEFF88130000E021036810B55A6886
:1021D0008A435A6082224168520091420CD1802188
:1021E000826809028A4203D08021C9008A4203D151
:1021F00040211A688A431A608021826A89018A42D2
:1022000006D11968074C2140196019680A431A6001
:10221000030001225D331A7000235C300370032039
:1022200010BDC046FFDFFFFFF8B504000D0017002A
:10223000802623689868304009D06A1CFAD0FEF7DF
:10224000C7FFC01B8542F4D82000FFF7BDFFF8BDD3
:10225000F7B5C02705000C0016000193FF002B689E
:10226000986820400DD0BC4200D11A7B721CF7D078
:10227000FEF7AEFF019BC01A8642F0D82800FFF798
:10228000A3FFFEBD70B513000D0016000A00C021AB
:1022900049010400FFF7DCFF002805D02023226E4F
:1022A0000320134323660FE0320029002000FFF7CC
:1022B000BBFF0028F2D1C02133002A00C900200052
:1022C000FFF7C6FF0028E9D170BD0000F8B5040093
:1022D0000120002C4BD000232500A3625D352B7814
:1022E000DBB2002B05D122005C321370200003F01A
:1022F00053FC0223402221682B700B68002093437B
:102300000B60E023E268DB009A4231D9F026360107
:10231000B24233D10600206B002803D19A422FD954
:1023200002232363A7686368A0693B4327693B4393
:1023300067693B43E7693B43276A3B43A76A3B43E3
:102340008027BF0007403B430B60636A000C1A43C1
:10235000636B1A4304231840104306434E60CB6955
:10236000084A00201340CB61012320662B70F8BD82
:10237000802676019A42CED0A062CCE70600FBE729
:102380000123CEE7FFF7FFFFF0B587B0019303000D
:102390005C3303931B7804000D0017000226012B09
:1023A00000D17CE00123039A1370FEF711FF220095
:1023B00002905D321378DBB2012B6AD11E00002D32
:1023C00067D0002F65D0023313700023A21D23664F
:1023D0002364A563A787E78702329387D3872365A2
:1023E000E3648023A2681B029A4205D180232268FD
:1023F000DB0111680B431360402223681968114206
:1024000002D119680A431A60E021E068C9006268D5
:10241000884247D9002A01D0012F07D12A880235E6
:10242000DA60E38FA563013B9BB2E3870225E38F6C
:10243000002B16D1029A01992000FFF723FF0028F4
:1024400000D06DE0A368002B06D105932368DA68FD
:1024500005929B680593059B266E731E9E41F6B2FE
:1024600017E0226893682B4209D0A36B19880233C6
:10247000D160A363E38F013B9BB2E387D7E7FEF70D
:10248000A7FE029BC01A019B9842D0D30133CED045
:10249000032601235D3423700023039A1370300058
:1024A00007B0F0BD002A01D0012F0AD1E28F012A26
:1024B0001CD92A880235DA60E38FA563023B9BB200
:1024C000E3870225E38F002BB4D0226893682B4268
:1024D0001CD0E18FA36B012910D919880233D16078
:1024E000A363E38F023B9BB2E387EBE72A781A737F
:1024F000A36B0133A363E38F013BE0E71B78137306
:10250000A36B0133A363E38F013BECE7FEF760FEAF
:10251000029BC01A019B8342D4D80133D2D0B7E7C3
:10252000202323668EE70000F7B51E00030001920A
:102530005C331A7804000F000225012A00D1ACE0B8
:1025400001221A70FEF744FE230000905D331B78D1
:102550006168DBB2012B0BD082225200914200D085
:1025600094E0A268002A00D090E0042B00D08DE017
:102570000125002F00D189E0019B002B00D185E0CF
:10258000002E00D182E023005D331A78042A01D0A6
:1025900005221A70019A0023226422000832236661
:1025A000D687A21DD687E022E068E3642365A7638F
:1025B000E687A687D2002368904201D8012E31D940
:1025C0005A68714D2A405A60402223681D6815429E
:1025D00002D11D682A431A60E022D20090425ED9DF
:1025E000002901D0012E07D13A880237DA60E38F43
:1025F000A763013B9BB2E387012502272E00E38FEF
:10260000002B14D123000833DB8F002B0FD1009A4D
:1026100008992000FFF736FE051E37D0202301253C
:10262000236633E080225D6852012A43CBE72268AB
:1026300093683B420ED0E38F002B0BD0012D09D1C4
:102640000025A36B19880233D160A363E38F013B9C
:102650009BB2E387936833420ED021000831CB8FC1
:10266000002B09D03500236CD2681A800233236412
:10267000CB8F013B9BB2CB87FEF7AAFD009BC01A14
:10268000089B8342BBD80133B9D003252300012224
:102690005D331A7000235C3423702800FEBD0029CE
:1026A00001D0012E0AD1E28F012A51D93A8802378E
:1026B000DA60E38FA763023B9BB2E3870125022721
:1026C0002E00E38F002B05D123000833DB8F002B76
:1026D00000D19CE7226893683B4211D0E38F002B26
:1026E0000ED0012D0CD1E18FA36B012938D91988A7
:1026F0000233D160A363E38F023B00259BB2E387E3
:1027000021688B68334219D023000833DA8F002AFE
:1027100014D0D88F226C01282AD9C86835001080BF
:1027200002322264DA8F023A92B2DA87DB8F012B0F
:1027300004D880234A685B0113434B60FEF748FDD1
:10274000009BC01A089B8342BBD80133B9D09CE7D9
:102750003A781A73A36B0133A363E38F013BABE7B2
:102760001B781373A36B0133A363E38F013BC4E7AF
:10277000097B35001170226C01322264DA8F013A34
:1027800092B2DA87DAE7C046FFEFFFFF5D300078EC
:10279000C0B2704770B504002569A36802682B4376
:1027A0006569C1692B431068434D0B4328400343BF
:1027B000136053684148256A0340E068034353604F
:1027C000A36990682B433E4D2840034393608023C8
:1027D0003C481B02824210D103203B4A126B02404C
:1027E0003A48805C994213D0082828D8FDF79EFC0F
:1027F00041274627572727275A003548824256D176
:10280000994236D1FFF744FC636840005B080BE057
:1028100008281ED8FDF780FCF61D051D151D1D1D81
:102820001800636858082B4BC0186168FDF788FCD6
:1028300083B200201A002849103A8A420CD901209C
:1028400013E0FFF76FFBDFE76368580880235B0244
:10285000EAE701200023EDE70F22190091430A0067
:102860001B0721685B0F1343CB600023236663665D
:1028700070BDFFF70DFC63685B0802E063685808F1
:10288000164BC0186168FDF75BFC83B200201A008C
:102890001149103A8A42D2D82268D360E5E7FFF79F
:1028A00041FBE8E76368580880231B02E9E7994287
:1028B000CFD001200023EAE7F369FFFFFFCFFFFF3E
:1028C000FFF4FFFF0038014000100240C06600081E
:1028D000004400400024F400EFFF000000127A00E2
:1028E000436A30B5DA0706D50168284C4A682240A9
:1028F000846A22434A609A0706D50168244C4A68D4
:102900002240C46A22434A605A0706D50168214C16
:102910004A682240046B22434A601A0706D50168C0
:102920001D4C4A682240446B22434A60DA0606D5B1
:1029300001681A4C8A682240846B22438A609A0696
:1029400006D50168164C8A682240C46B22438A600F
:102950005A0610D50168134D4A68046C2A40224378
:102960004A6080225203944205D14A680E4C2240AC
:10297000446C22434A601B0606D502680B49536823
:102980000B40816C0B43536030BDC046FFFFFDFF21
:10299000FFFFFEFFFFFFFBFFFF7FFFFFFFEFFFFFDC
:1029A000FFDFFFFFFFFFEFFFFFFF9FFFFFFFF7FFCF
:1029B000F7B5802704000E00150001933F0122683F
:1029C000D36933409B1B59424B41AB4201D000209D
:1029D0001CE0089B0133F3D0FEF7FAFB019B089A39
:1029E000C01A2368824201D3002A10D11A68134901
:1029F0000A401A609A68A331FF318A439A60202303
:102A00006367A3670023032070342370FEBD042195
:102A10001A680A42D3D0DA693A42D0D01F621A68E3
:102A200006490A401A609A68A331FF318A439A60C6
:102A300020236367A367E367E4E7C0465FFEFFFF09
:102A4000F0B587B00593436F04000D001700022016
:102A5000202B49D10138002946D0002A44D08023B8
:102A6000A2685B019A4204D12369002B01D1014283
:102A70003AD1230070331A780220012A34D001227F
:102A800000261A702123E6676367FEF7A1FB230087
:102A900050331F80023303931F808023A268049069
:102AA0005B019A4204D12369B34201D12E001D007B
:102AB000230052331A88059B92B20093049B002A8C
:102AC0000AD140212000FFF773FF00280BD12023FB
:102AD00070346360207007E0002280212000FFF73F
:102AE00067FF002802D0032007B0F0BD2268002D48
:102AF0000BD133880236DB05DB0D1385039B039A6C
:102B00001B88013B9BB21380D2E72B7801351385DC
:102B1000F4E7000073B500260400C667FEF758FB13
:102B2000236805001B681B0715D423681B685B0717
:102B30000AD580210E4B00220093C9032B002000F0
:102B4000FFF736FF002811D1202300206367A36719
:102B5000703420700BE08021054B32000093890314
:102B600003002000FFF724FF0028DED0032076BDFD
:102B7000FFFFFF0110B5041E01D1012010BD436FFE
:102B8000002B04D102007032137003F037F82423B5
:102B9000012122686367136820008B431360FFF7ED
:102BA000F9FD0128E9D0636A002B02D02000FFF76D
:102BB00097FE236807495A6820000A402A215A6074
:102BC0009A688A439A60012219680A431A60FFF7DB
:102BD000A1FFD3E7FFB7FFFF054B10B51A18800020
:102BE0001B18117A5B6808005B68984710BDC046E7
:102BF000C4020020084B0200195C002010B581427D
:102C000008D101219954991892009B185B68087AA1
:102C10001B68984710BDC046C402002070B5054C23
:102C20002518800024182E7A606884683000A04738
:102C300070BDC046C402002070B5054C2518800048
:102C400024182E7A6068C4683000A04770BDC04662
:102C5000C4020020054B70B51C1880001B18257A93
:102C60005B6828001B69984770BDC046C4020020FD
:102C7000002310B59A4200D110BDCC5CC45401337E
:102C8000F8E78218904200D1704701700130F9E7EF
:102C9000F0B5002480252200164BED001F68002FA0
:102CA0001CD04659B7421AD18127FF005E68C75928
:102CB000BE4214D11E89B4460F4E875BBC450ED16F
:102CC0001020002915D10C235A430A4B9A18508919
:102CD0000138FF384242424110010AE0012401322A
:102CE0000C33022ADAD10020844202D1022900D01A
:102CF0001220F0BDA8000020060400008023F0B5DB
:102D0000244CDB008125C65822000023ED002768F3
:102D1000B7420AD16768BC464759BC4505D12789E7
:102D2000BC461D4FC75BBC4527D001330C34022B7A
:102D3000EDD11368002B04D00024D368A3421AD12C
:102D400001230C2481255C43ED00455916511419CB
:102D50006560114D405B208100206081814215D16A
:102D60000C21594351184989013189B20C2058432B
:102D7000121851815C1C2000F0BD0029F0D00C21FC
:102D80000024594351184989A142F4D180214900B6
:102D9000ECE7C046A800002006040000411E10B564
:102DA0000220012911D80C231A004A43074CA2180B
:102DB0005089074A024001D0013882B200204B43BB
:102DC000E1184A81824200D1E05010BDA8000020E5
:102DD000FFFEFFFF030070B50C4A08009C58243A20
:102DE0009D580B4B0434E95AFDF7AAF9094BE95CED
:102DF000FDF7A6F902002068002806D0824202D31F
:102E0000121A0834F7E76068101870BD2404000037
:102E10000A04000002040000010000230B315A08DC
:102E2000DB011343027801309B18DBB28842F6D1F4
:102E3000180070470268131E03D1012040420EE0C3
:102E4000013319781F2909D93A29F9D1511C8B422C
:102E5000F3D11278302AF0D101330360002070479B
:102E600010B5002815D08022D2008358002B10D036
:102E70009A5C002A0DD0084A995A084A825A91420F
:102E800007D1074A985CFFF7A7FE01230340181EED
:102E900000D0092010BDC046060400000404000054
:102EA00001040000F8B58223DB00C3580C0009318F
:102EB000002B38D00022334BC358551C9A5C202A73
:102EC00017D0052A59D0092D02D12E270F700131B4
:102ED0001700413F192F0AD81F7BBC461027082D29
:102EE00000D8083F66463E4201D02032D2B20A7076
:102EF00001312A000B2DE0D1DA7A22725D7F1A7F30
:102F00002D0215439A7F12041543DA7F12062A43D5
:102F100022605D7E1A7E2D022A43A280DA7D9B7D8F
:102F200012021343E38000250D70A669AE4207D05C
:102F30008223DB00C358AB4203D100230022F254AA
:102F4000F8BDE369002BF8D00F4BC25A0F4B9A42E1
:102F5000F3D08423DB00C7586A00B85A2B0000283E
:102F6000ECD0002101F0FAFF0028E6D0E369013B34
:102F70009D42E2D270550135EEE7E522092DB6D12A
:102F8000A3E7C0461404000024040000FFFF000073
:102F9000CA7E10B50400887E12021043032C05D1AE
:102FA0004A7D0B7D120213431B04184310BD000021
:102FB000F7B50400134B144EC55821000123805D62
:102FC0002A00FFF739FE01960123002809D10F4B93
:102FD0001736E0541C33E358A259EB1A934202D33C
:102FE00000231800FEBD0A4BE75C012FF8D9A35956
:102FF0002100ED18019B2A00E05C0123FFF71CFE75
:10300000013FF2E72C04000001040000040400006A
:103010000304000010B5054BC25C00239A4202D0A5
:10302000FFF7C6FF0300180010BDC04604040000EF
:10303000F8B50400FFF7EEFF051E5ED18023DB002C
:10304000E35C032B50D12D4EA75D012F4CD12C4BAF
:103050000100E25A2000FFF714FEFF235522F22060
:1030600072215B00E254274B9218E254AE3BFF3BC7
:1030700023706370693A0F334000A370E2702154EB
:10308000E620FF3021547531FF316254E822FF32CF
:10309000A3548223DB00E3580132A354EA22190A25
:1030A000FF32A154190C0132A154EC221B0EFF3245
:1030B000A354154B0132E358A354EE22190AFF32F0
:1030C000A154190C0132A154F0221B0EFF32A3545B
:1030D0000E4B2100E2580E4B0132E2500D4BE05CEA
:1030E0003B00FFF7A9FDA55500220A4B1100E05C4B
:1030F000FFF7B0FD431E9841C0B2F8BD05040000C3
:103100000A040000FF0100000C0400001C04000081
:103110002C04000001040000F8B50D4F0400C25952
:103120000E0000258A4210D0FFF774FF051E0CD157
:10313000084B3200E05C21000123FFF76FFD0028FF
:1031400002D0012601357642E6512800F8BDC0467E
:103150002C040000010400000022184B10B5C254DA
:10316000174B013AC2500400FFF7D6FF0323002893
:1031700021D1FF22134B5200E35CA25C1B021A43D5
:10318000114912B202238A4215D1228FE38E120412
:103190001A430E491202120A03008A420BD052341B
:1031A000638820881B0403431B02094A1B0A9B18DF
:1031B000581E8341DBB2180010BDC0460404000055
:1031C0002C040000FF01000055AAFFFF46415400F7
:1031D000BABEABFF0023F0B503608BB00600080059
:1031E0001700FFF727FE0B23051E17DBAF4B8200EE
:1031F000D4580C23002C11D080233460DB00E35C16
:10320000AB4E002B0DD0A05DFFF7E6FC0123034081
:1032100007D1002F02D0420700D50A2318000BB0B7
:10322000F0BD80230022DB00E8B2E254A055FFF796
:10323000E1FC0323C207F1D4002F01D04307ECD4F3
:103240009C4BA05DE2180221FFF704FD061E01D091
:103250000123E3E7974D984A635B9B1880229BB25A
:1032600092009342F4D801002000FFF775FF012877
:103270002BD12300C733FF331A1F1178002291424C
:1032800009D059781A78090211439A781204114327
:10329000DA7812060A4306A9725004361033102E4B
:1032A000EAD10026022706AB9B5938000093002B79
:1032B00005D019002000FFF74FFF00280CD004367E
:1032C000102EF0D1032804D1C2E70328C0D0002873
:1032D00001D00D23A2E70090237BE27A1B021A4360
:1032E0000492635B9342F4D1E27DA37D1202134307
:1032F00000D1C6E002938323029ADB00E250267CD1
:103300006E4BE654731E012BE3D8657B6C4BE55482
:10331000002DDED06B1E1D42DBD1A37C627C1B0224
:103320001A4301926A4681239288DB00E252049B91
:1033300001985F093900FCF789FF89B20029C8D1DB
:10334000207DE37C00020343039301D1236A0393AE
:10335000E37BA27B1B021A430592BAD0029B390081
:1033600001985E43FCF7ECFE059B87B2FF18039BB8
:10337000BF19BB42ADD3D81B2900FCF7E1FE0028E2
:10338000A7D0504B0125984204D94F4B83429B4113
:103390005D4202354D4B0230E050009A4C4B944652
:1033A000E2508422059BD2006344A3506246D719A1
:1033B0008522D200A750032D65D1019B002B88D117
:1033C000444BE26A8000E250049B0499013B1818C8
:1033D000FCF7B6FE029B834200D27AE782260123E5
:1033E0003D4A5B42F6003D4FA351A3508133E35564
:1033F000032D2FD1230031331A78013B1B781202A1
:103400001343012B26D1009920000131FFF784FEE0
:1034100000281FD1324BE055E25C013BE35C120215
:103420001343304A1BB2934214D12F4B22689A4265
:1034300010D1F22252002D4BA2589A420AD1F42305
:103440005B00E358A351F6235B00E3580093009A16
:10345000214BE2508023264ADB00E55413880133D8
:103460009BB21380234AA352234A13689C4201D182
:1034700000231360D16800238C4200D0CEE6D360D5
:10348000CCE6636A36E7019A002A00D121E7F618F4
:10349000104BE650022D01D1400095E70323012295
:1034A000434310405B0818188EE7C046A400002074
:1034B000010400000A04000000FEFFFF03040000F6
:1034C00002040000F50F0000F5FF000014040000E6
:1034D0001C040000240400000C040000050400008B
:1034E000FF01000055AAFFFF525261417272416113
:1034F000C000002006040000A8000020074A02398E
:1035000082580300023A0020914205D2044A985C96
:1035100026324143985808187047C04614040000EA
:1035200002040000F7B5012504000E00A9421FD9CE
:10353000404BC35899421BD28023DB00C35C022B53
:103540003ED0032B55D0AB4212D13B4B4F087F18D6
:10355000C15A3800FCF7F4FD8423DB00E358C1189E
:1035600020000093FFF7D8FD002803D001256D420D
:103570002800FEBD7B1C00932F4B3800E35A190036
:103580000193FCF763FE0098675C0199FCF7D8FD96
:103590008423DB00E15841182000FFF7BDFD00281F
:1035A000E4D1254B0098E15AFCF750FE635C1B0206
:1035B0001F432E4201D03D09DAE73F053D0DD7E715
:1035C0001D4D415B30004908FCF7BAFD8423DB0048
:1035D000E15841182000FFF79FFD0028C6D1615B2C
:1035E0007000FCF733FE63185D78635C2D021D43A9
:1035F000BEE7114D415B30008908FCF7A1FD842333
:10360000DB00E15841182000FFF786FD0028ADD10E
:10361000615BB000FCF71AFE6318DD789A782D061E
:10362000120415435B78625C1B0215431D432D0198
:103630002D099DE7140400000A040000F7B50500F9
:10364000314B0E00E9520233C458012C01D1022043
:10365000FEBD8022D2002D498358019158588442E2
:10366000F5D2002C2BD19A5C032A03D1284A9A5810
:10367000002A25D18122D2009A5A9642E7D2244AC2
:103680009F58244BEC50002FE1D00C3BEB583000FE
:103690000093009A204BD45A64092100FCF750FD96
:1036A0008223C719DB00EF5021003000FCF7CEFD6C
:1036B000009B49015918019B0020E950C8E72200EE
:1036C0008027140014491548595A1B5C49094B437B
:1036D000FF000093009B2100E8599E4203D2FFF7B0
:1036E0000DFF0700CDE7FFF71DFF0400431C09D0C5
:1036F0000128ACD9EB59019A9B589842A7D2009B5C
:10370000F61AE7E70120A3E706040000140400000E
:10371000240400000C0400000A040000020400005D
:10372000F0B585B004000D0001920226012955D99B
:103730004F4BC358994251D28023DB00C35C0293A4
:10374000B34256D0032B00D171E0012B46D1494B37
:103750004F087F18C15A3800FCF7F2FC8423DB00C5
:10376000E15841182000FFF7D7FC424B061E039397
:1037700034D17B1C03933F4B3800E65A3100FCF7F1
:1037800065FD6B46029F1B792F4009D00F22FF2059
:10379000635C00011340019A120102401343DBB243
:1037A00063540123344D310063550398FCF7C8FC82
:1037B0008423DB00E15841182000FFF7ADFC061E12
:1037C0000CD12C4B0398E15AFCF740FD002F08D098
:1037D000019B1B09DBB2635401236355300005B024
:1037E000F0BD0F20019A635C120A83430240134329
:1037F000F1E7204FC15B28004908FCF7A1FC8423B6
:10380000DB00E15841182000FFF786FC061EE5D1D9
:10381000E15B6800FCF71AFD6B461B796354019B62
:1038200061181B0A4B700122134BE254D6E7114F6B
:10383000C15B28008908FCF783FC8423DB00E15886
:1038400041182000FFF768FC061EC7D1E15BA80005
:10385000FCF7FCFC6218D37801981B091B07034393
:103860006354190A5170190C1B0E9170D370DAE76A
:10387000140400000A04000004040000F8B5050068
:103880000F1E09D12A4BC658002E03D0294BC3580E
:103890009E4211D301260FE0FFF744FE04000128E9
:1038A00043D9431C03D1012464422000F8BD214BBD
:1038B0003E00EB589842F8D334001E4B0134EB58CD
:1038C0009C4204D3012E01D80024EEE702242100FB
:1038D0002800FFF727FE002806D0431CE3D001286C
:1038E00023D0B442E9D1EFE7134A21002800FFF7C3
:1038F00017FF002817D1002F0ED182220C4BD200C7
:10390000EC50AB58591CD0D0013BAB5001230B4AB3
:10391000A95C0B43AB54C8E7220039002800FFF72D
:10392000FFFE0028E9D00128BDD00124BDE7C04634
:103930000C04000014040000FFFFFF0F050400004A
:10394000F0B5554B89B00591C25A0400013200927E
:103950006A4612880693002A02D1042009B0F0BDFD
:103960008226F6008559002DF7D08023DB00C3584E
:103970004A4F0293DB5B00985B0919000193FCF747
:1039800065FC039700290CD1454B0135E758A5513B
:103990000493002F18D1029A043BD35A009A9A42FA
:1039A000DBD26A46069B12880098E2528023DB0035
:1039B000E558039BE95A4909FCF748FC394B490192
:1039C0006D18E5500020C9E7374E029B0199009819
:1039D0009D5DFCF7B5FB013D284001900796E0D1C5
:1039E00039000298FFF79EFD0600012801D8022049
:1039F000B4E7431C01D10120B0E78023DB00E0588D
:103A0000284BC3589E422CD3059B002BA5D0049B6A
:103A1000E158FFF733FF06000720002E9ED0012E4D
:103A2000E5D0731CE7D08025ED006059FFF7F2FA6E
:103A3000011EE0D16359039A18009A5AFFF721F941
:103A4000675931003800FFF759FD184BF8501F0037
:103A50006059079B019AC35C9A420ED3C3599D1AC1
:103A6000C551049B3100E6508023DB00E058FFF78E
:103A700045FD8223DB00E05093E701220C4BC2544A
:103A8000FFF796FA0028B6D16259D3590133D351C2
:103A9000019B01330193DBE7060400000A040000E8
:103AA0000C04000014040000020400002C040000B8
:103AB000040400000122504B5242F0B5C2520132C0
:103AC000FF320500140087B0029203938223DB00CB
:103AD000E958103BE858FFF71FFB071E00D085E0B0
:103AE000464BEE583378002B00D182E0E52B06D010
:103AF0003F22F17A0A40090706D50F2A06D0012392
:103B0000039A5B42AB524EE00F2A58D18422D20076
:103B1000AA580192002A47D04022134241D0934331
:103B20001C00374B717BEB5A039A0291AB52737BAB
:103B3000029A934237D140220D2733789343013BB9
:103B400000225F43012300922E4A0099895C72187B
:103B50005278705C12021043002B2CD001F01CFA3A
:103B60000590FE2F1FD87B1C0493019B7F00F85A01
:103B700001F012FA059A0300824214D1049F009AC0
:103B8000013200920D2ADFD13278520606D5002B81
:103B900004D0019A7B009B5A002B04D1013CE4B273
:103BA00002E0A342C3D0FF2400212800FFF7C8FE93
:103BB000071E8BD01AE0144A9042E0D0F3E7002CA5
:103BC00005D13000FFF728F9029B98420ED08323DD
:103BD0000121DB00EA58D37A0B4090D1581CF15CEC
:103BE000D35C99428BD103000B28F7D1380007B082
:103BF000F0BD0427FAE7C0462404000014040000C6
:103C00000604000044670008FFFF0000F0B50B78D1
:103C100087B0060001912F2B01D05C2B02D1019BB4
:103C20000133019381230024DB00F450019B1B78B6
:103C30001F2B0AD821003000FFF700FD984BF450ED
:103C400007B0F0BD019B01330193019B1B782F2B23
:103C5000F8D05C2BF6D084230024DB00F3580593C6
:103C6000019B2700185D651C1F281BD92F2819D020
:103C70005C2817D0FF2C0ED0012101F06FF900282D
:103C800009D07F2809D800238649CA5C002A04D0BD
:103C900001338242F9D10620D2E7059B6400185314
:103CA0002C00DDE7019B00245B1901931F23834255
:103CB0006441A400002FEED0059A7B00D3189A1E11
:103CC0001288202A02D02E2A00D086E0013FF1E798
:103CD000013305995A008A5A202AF9D02E2AF7D0A2
:103CE000002B02D003221443E4B27A000599023A71
:103CF0008A5A2E2A02D0013F002FF6D108220292C2
:103D00000022150004925A1C0392059A5B00985AEF
:103D1000002879D0202804D02E2807D1039BBB424D
:103D200066D003231C43E4B2039BECE7049B029A96
:103D3000934261D2039BBB4214D1029B0B2B09D14E
:103D40005DE0039BBB4205D003231C43039BE4B20D
:103D5000BB4259D80B23AD000293EDB20397033B4E
:103D60000493E1E77F280FD9002101F0F7F8002341
:103D7000984203D04C4B18188038037898B202232D
:103D80001C43E4B2002807D000234849CA5C002A3B
:103D900078D001338242F9D103235F201C43E4B27F
:103DA0008323DB00F358049A985413000133D7E7B8
:103DB00002231D43F4E75B0700D541E7384BF15878
:103DC000CB7ADB065CD58023DB00F258D05CFFF7B2
:103DD000DFF88123DB00F05037E700251D808323C7
:103DE000DB00F0580B222021FEF74BFF2B0070E781
:103DF000049B029A9342A0D3029B0B2BA1D10323D5
:103E00001C430833E4B202938323DB00F3581A788F
:103E1000E52A01D1E03A1A70029B082B01D1AD00CE
:103E2000EDB20C232B400C2B02D0EA43920702D1B7
:103E300002221443E4B2A2070BD403221540012D41
:103E400002D10D321443E4B2042B02D104331C43DB
:103E5000E4B28325ED0073590021DC723000FFF7D6
:103E6000EDFB002802D13000FFF724FE7359DB7A06
:103E70000028A0D0042800D0E2E6034200D0DFE60C
:103E80000520DDE60300413B192B91D90300613B7E
:103E9000192B85D8012320381D4380B280E7C04606
:103EA0001404000051670008C46600085A6700083F
:103EB0008323F0B58424DB00C6588BB0E40003599B
:103EC00007AD07000C22280031000193FEF7D0FE59
:103ED000EB7A01252B4200D177E00023F3723B51AE
:103EE0000B2207A93000FEF7C3FE2B00052D47D893
:103EF0000F2107228C4605A964461C402000303063
:103F0000392800D90730013A8C1860701B09F3D1A9
:103F10007E2088549A4237D0F05C202832D1202469
:103F20002000072A01D8885C0132F0540133072BA6
:103F3000F6D900213800FFF781FB041E3CD1380080
:103F4000FFF7B8FD041E37D10135642DC8D1072411
:103F500020000BB0F0BD1020023101241440A44613
:103F600080245B00634464025208234201D06B4CFE
:103F7000634001380028F0D10A88002AEBD1B7E766
:103F80000199F9E70133C5E71300C8E70130019A49
:103F90004300D35A002BF9D119300D21FCF7D0F88A
:103FA000050018E0060001213800FFF7C9FC041ED7
:103FB00018D0042CCBD0CBE7042CC9D107ABDB7ACB
:103FC000019AF3728423DB00FA5007ABDB7A0125F8
:103FD00000209B07DBD400213800FFF72FFB041ED5
:103FE000E7D106008223DB00F958103BF858FFF7B1
:103FF00093F8041EDDD14A4ABB5801921B78E52B89
:1040000001D0002BCED10136B542CCD1013D002DDF
:104010005FD0444B3800F95A491BFFF70FFB041ED1
:1040200000D095E78323DB00F858FEF7F5FE0390F8
:104030008223DB00F958103BF858FFF76DF8041E97
:1040400000D085E78423EAB294466A46DB00FB5839
:10405000127B0293019B0D21FB585A730F22DA72D7
:10406000EAB2013A4A43010018739876D8762E4C8A
:10407000A04203D0029C5000005B01322B4C0C5D2F
:1040800018551C192600040A7470002800D126480F
:1040900001310D29EBD12449884204D00299520004
:1040A000525A002A03D16146402211438C4662468F
:1040B00080211A700122C90079581D4B3800CA545A
:1040C0000021FFF73DFC041E00D041E7013D002D1B
:1040D000AED180258223ED00DB00F9587859FFF737
:1040E0001BF8041E00D033E78326019B2022F858DA
:1040F0002100FEF7C6FD019BF6000B22B959F858C6
:10410000FEF7B6FD1821019BFA58BB59DB7A0B402C
:1041100013737A59064B1739D15419E7211001004E
:104120001404000006040000FFFF000044670008BC
:1041300004040000F7B504000D00012901D8022095
:10414000FEBD164BC25801939142F8D28227FF0060
:10415000019BE35800939D4205D229002000FFF700
:10416000E1F9061E01D10020EAE70128E7D0431C4F
:1041700012D0002229002000FFF7D2FA0028DFD158
:10418000E3595A1C06D001210133054AE351A35CCF
:104190000B43A3543500DBE70120D1E714040000F2
:1041A000050400007FB5019003A81400009103915D
:1041B000FEF740FE0B22002824DB144D80004359FB
:1041C000002B0DD0124A11688B4201D100211160E1
:1041D000D6680021B34200D1D1608022D200995428
:1041E000019B002B03D080220021D20099542B5038
:1041F0001A1E07D00022012C04D1694601A8FEF73F
:10420000E9FF0200100004B070BDC046A400002009
:10421000A80000200923F0B57A4C1500A5440190B0
:1042200005910293002800D186E080230022DB0064
:10423000C2501E32FFA82A4005A92C30FEF7CAFF43
:104240000AAE0290031E77D11F332B4003938323C2
:1042500007AADB00F2506C4A083305993000F2508F
:10426000FFF7D4FC694FF45900280AD10630002C1E
:1042700007D001230399300099434B1E9941FEF763
:1042800007FD1C231D425BD000284DD0042849D1D6
:104290005F4B1A68002A03D0DB680E30002B41D137
:1042A0000AAC2000FFF704FE00283BD10823039A44
:1042B000E4591A430392039B1B074AD500F08CFE76
:1042C00000258027030AA073E373030C000E2374F8
:1042D0006074E57225776577A577E577FF000AAE0C
:1042E000F3592100D85DFEF753FE0122A576E5764D
:1042F000257565750490474BF059C254049BAB4239
:1043000027D0454B0499C558FFF714FF002809D161
:10431000049BF059414A013B83502900FEF7FCFE03
:10432000002816D0029007E01123E27A1A4266D1E3
:104330006B07C0D5082302930298394B9D44F0BD0A
:104340000028EFD1E37ADA0657D4AA0701D5DB07B4
:1043500055D4039B1B0703D52023039A1A430392CA
:104360001822802504AB9B18ED005B59019904933A
:10437000049A294B0AA8D2582A4BCA500433CC506D
:104380000123039999434B1E9941FEF7B7FC8523FE
:10439000019ADB00D05002230028CCD069460026C9
:1043A000019B214A097B9954204B019A2100D65444
:1043B000182204AB9B185F59785DFEF7E9FD822354
:1043C000019ADB00D050627F237F12021A43A37F41
:1043D00001991B041A43E37F1B0613430F4A8B50BA
:1043E0008123DB00CE501033CE50114BCE500E4BFC
:1043F0004F51FA5A074BCA529EE704239BE7072303
:1044000099E7C046ACFBFFFFC20000201404000087
:10441000A8000020040400002C0400000C0400008C
:10442000540400001C0400000604000007040000FF
:1044300024040000F0B589B0069300231500069A05
:10444000040013600E00FEF70BFD0190002819D147
:10445000734AA35C0792002B3CD1724BE25C05933C
:10446000D30700D4D9E0704BE258043BE358D31A89
:104470000093AB4200D9009580270496FF00009B73
:10448000002B02D1019809B0F0BD8123DB00E55873
:10449000E359664A02939B5A280019000393FBF7DD
:1044A000D5FE002900D0A2E0029B614A03992800B2
:1044B0009E5CFBF745FE013E0640F6B2002E20D181
:1044C000002D09D18223DB00E058012813D80223F4
:1044D000079AA3540193D5E7564BE358002B04D019
:1044E00029002000FEF776FCEFE7534B0298E158D5
:1044F000FFF718F8E9E7431C01D10123E8E74E4B29
:10450000E050E35902934C4B0298E158FEF7F6FF56
:104510000028DCD083190393444A029B0098995ADF
:10452000FBF70EFE051E3CD0414A029B9B5C3218F5
:104530009A4200D99D1B414B029A0499D05C2B00F2
:10454000039AFEF76BFB0028D7D1059BE35C5B0663
:104550000FD58323DB00E058039BC01A854208D99E
:10456000E359324A21009A5A049B50431818FEF727
:104570007FFBE3592D4A9B5A5D43049B81225B19C3
:1045800004938123DB00E358D2005B19A350069B00
:10459000069A1B6802935B191360009B5B1B0093D8
:1045A0006DE78323DB00E258039B93421BD0402638
:1045B000059B224DE35C33420CD0029B2100585DE9
:1045C0000123FEF739FB002897D1059B059AE35C90
:1045D000B343A354E359039A585D21000123FEF726
:1045E0001DFB002889D18323039ADB00E250E359A5
:1045F0000E4A9D5A8123DB00E358290018000293DC
:10460000FBF724FE6B1A009D9D4200D91D00611826
:104610002A000498FEF72CFBAFE707235AE7C046B1
:1046200007040000060400000C0400000A04000057
:10463000020400002404000014040000010400002F
:10464000F0B58BB0089300230292089A040013601F
:104650000D00FEF705FC0390002859D1874AA35CA2
:104660000992002B3AD1864BE25C0193930700D468
:1046700001E18123DB00E258029989188A4239D886
:10468000802705950693FF00029B002B32D0069BE6
:104690007C4AE558E359280004939B5A1900079374
:1046A000FBF7D4FD002900D0C8E0049B764A0799A7
:1046B00028009E5CFBF744FD013E0640F3B20793E1
:1046C000002B39D1002D0BD18223DB00E058011ED5
:1046D00023D0012825D10223099AA354039317E07C
:1046E0006A4BE358002B16D029002000FEF772FB1E
:1046F0000028EED18123DB00E258654BE1588A4265
:1047000000D9B6E0019BE25C20231343019AA35435
:1047100003980BB0F0BD5F4BE1580498FFF7AEF87B
:10472000E6E7431C01D10123D6E75A4BE050043B96
:10473000E258002A00D1E0504025019BE35C2B4267
:1047400010D0554BE2592100D05C8322D2000123C6
:10475000A258FEF771FA0028E5D1019B019AE35CAB
:10476000AB43A354E35904934A4B0498E158FEF732
:10477000C5FE0028AFD0079B424AC518049B02988B
:10478000995AFBF7DDFC061E3DD03F4A049B9B5C1B
:10479000079A12189A4201D9079A9E1A3E4B049A18
:1047A0000599D05C33002A00FEF746FA0028BAD1FA
:1047B0008323DB00E058451BAE420ED9E359314A52
:1047C00020009A5A059B55435919FEF751FA402289
:1047D000019BE35C9343019AA354E359294A9B5AF2
:1047E0005E43059B069A9B190593069BE3589B190C
:1047F000A350089B089A1B6804939B191360029BA3
:104800009B1B029340E78323DB00E3589D4212D0B9
:10481000069BE35807931E4B079AE3589A420AD225
:104820001D4B049A2100D05C01232A00FEF7F6F903
:10483000002800D077E78323DB00E550E359114AD5
:104840009D5A069B2900E35818000493FBF7FEFCD1
:10485000029E6D1AAE4200D92E00601832000599F2
:10486000FEF706FA019BE25C40231343019AA3542E
:10487000B7E7E25046E7072330E7C04607040000E9
:10488000060400000A0400000204000024040000E2
:104890000C040000140400000104000073B50400BF
:1048A0000E000A2902D10D21FFF7F8FF6368002BE3
:1048B00014DB5D1CE3181E733C2D0BDD210001ABE6
:1048C0002A000C312068FFF7BBFE019B5D1B6B1EAD
:1048D0009D416D42A36865600133A36073BD000014
:1048E000F8B50400FEF7BCFA061E55D12B4FE35D68
:1048F0009A0651D540252B4211D08023DB00E25887
:10490000274B2100D05C8322D2000123A258FEF75E
:1049100093F9013600283FD1E35DAB43E355214BCA
:10492000E1581C3BE058FEF7F7FB061E34D1842308
:104930002022DB00E558EB7A1343EB721A4BE25C62
:104940002A77E258120A6A77E258120CAA77E358DB
:104950001B0EEB778223DB00E3581A0AAB761B0CA5
:104960002B751B0AEA766B7500F036FB2022030AD2
:10497000A875EB75030C000EAE74EE742B7668769A
:10498000E35D9343E3558023DB00E058074B1F3A78
:10499000C254FEF74DFB06003000F8BD06040000CF
:1049A000010400001C0400000C04000004040000CA
:1049B00010B50400FFF794FF00280ED12000FEF789
:1049C0004FFA002809D18523DB00E058FEF7E6F90D
:1049D000002802D18023DB00E05010BDF0B589B083
:1049E00006000F00FEF73CFA029000284DD1C04AA5
:1049F000B35C0592002B21D1BE4AB3580692002B1E
:104A000000D19AE07A1C43D11D1D1B680224049337
:104A10008223DB00F758002F2ED000230197039349
:104A2000039B0199013303938023DB00F058FEF7C9
:104A300079FD012806D80223059AB354029324E095
:104A40000700EAE7431C01D10123F5E7019B019030
:104A500001339842E4D0049B0234A34203D3039B66
:104A60006F602B6008358023DB00F3580193019AB7
:104A7000A14BD3589842E3D3069BF3581C60049B88
:104A80009C4200D931E100232B60029809B0F0BDAF
:104A90009A4BF458BC4200D93C008123DB00F4500F
:104AA000002CF2D0631E190030000393FEF792F938
:104AB000914B0100F050143BF35818000193FEF79E
:104AC0001DFD051EB7D08E4B019A2000D75A390024
:104AD000FBF7BCFB0029D8D08A4B019A3900039818
:104AE000D45CFBF72DFB8323013CDB000440F25830
:104AF00065199542C9D04021834C844F335D0B42E8
:104B00000BD0019B3100D85D0123FEF795F80028FA
:104B10009AD14022335D934333558023DB00F35811
:104B20002A00D85D31000123FEF778F8002800D074
:104B30008AE78323DB00F550A7E7704AB358049255
:104B40009F4204D9704AB25C920700D41F008124AE
:104B50000023E400355933519F4246D18123049A02
:104B6000DB00B258F3580192934200D88DE7049AC3
:104B7000B3502023644AB15C0B43B35485E700244F
:104B80008023DB00F358069A0193995A8123DB00B6
:104B9000F058FBF75BFB0029E0D08323DB00F258E1
:104BA0009442DBD04021584D584F735D0B420CD0DE
:104BB000019B3100D85D0123FEF73EF8002800D0AC
:104BC00042E74022735D934373558023DB00F35823
:104BD0002200D85D31000123FEF720F8002800D024
:104BE00032E78323DB00F450B8E78023DB00F3587F
:104BF0000393039A434B0399D25C414BC95A0693E2
:104C000051430191002D37D0781EFBF799FA013DF1
:104C1000079001992800FBF793FA079B83422BD357
:104C2000019B5B421D40344B3551F4587F1B002CD7
:104C3000A5D08025ED00019B9F4231D88122D20072
:104C4000B3583800DB19B3508023DB00F358069AC1
:104C500001939D5A2900FBF7F9FA00298FD0210012
:104C60000198FEF74BFC041E00D1E4E62900380051
:104C7000FBF766FA041983E78225ED007459002CCE
:104C80000BD121000398FEF7F9FD0400012800D1A3
:104C9000D1E6431C00D1D7E67051174BF450C6E75C
:104CA0000222194B2100F35C7059134205D0FEF724
:104CB000E5FD041E04D1019FC0E7FEF733FC0400AC
:104CC000631C00D1C0E6012C00D8B4E60A4B72592F
:104CD000D258944200D3AEE68122D200F45001991A
:104CE000B3587F1A5B18B350A5E71123A6E6C04658
:104CF0000704000024040000140400000C04000059
:104D00000A04000002040000060400000104000080
:104D100070B5154C0E00A5440190FFA8002201A912
:104D20001C30FEF757FA06AD041E16D1832303AAE2
:104D3000DB00EA500D4A083301992800EA50FEF7DB
:104D400065FF041E09D10A4BEB58002B0AD0002E38
:104D500003D031002800FEF7A5F820008823DB00EF
:104D60009D4470BD0624F8E7C0FBFFFFC200002091
:104D700014040000F0B5140087B0059003910022E0
:104D800005A92000FEF726FA051E0CD1822324680F
:104D9000354FDB00E259E3580192023A04979342FF
:104DA00004D8039A1360280007B0F0BD8023DB000D
:104DB000E35C0293012B1DD1022607003100200085
:104DC000FEF7B0FB431C49D0012849D0434258416B
:104DD000049B0136E3583F1801939E42EED3822391
:104DE000DB00E7500123214AA15C0B43A354039B42
:104DF0001F60D8E78423DB00E15807000300002888
:104E000009D120004E1CFEF787F900282AD1230083
:104E10003100174AA05A029A022A0ED15E781A78F7
:104E200036023243564272410233BF180238019AA9
:104E3000013A0192002AE2D1D1E75E781A7836026F
:104E400016439A78043812041643DA7804331206AB
:104E50003243120156427241BF18E8E70125BEE70E
:104E60000225BCE70500BAE71404000005040000B1
:104E70000A040000F0B5060017000500002485B004
:104E80000191019B013B9C4212DA03AB012202A972
:104E90003800FFF7CFFA039B012B09D102AB1B7837
:104EA0000D2BEED06A1C2B70013415000A2BE8D1B3
:104EB00000232B70631E9C4164422640300005B0E5
:104EC000F0BD002310B5040096B003910493059340
:104ED0002178002906D1049A002A08DA01204042EC
:104EE00016B010BD03A80134FFF7D8FCF0E702AB01
:104EF00006A90398FFF7A4FB0028EFD1049B029AB0
:104F000001939342EAD10598EAE7000030B5012405
:104F10000E4B5D7AA54216D800245D7AEDB25C5541
:104F20005D7AAD005D196860587A181802725A7A75
:104F3000D2B2501CC0B258723A2330324B700B3B85
:104F40000A708B70CC70200030BDC046C4020020B7
:104F500010B50022FFF7DAFF10BD000010B57F2862
:104F600007D9002906D0FF2811D88038094B400006
:104F7000C05A10BD074A4C00A45A8BB2844203D0D9
:104F800001318029F7D10B008033D8B2F1E700203E
:104F9000EFE7C04662670008002310B5054C5A00D1
:104FA000115B002903D0814202D1034BD05A10BDBE
:104FB0000133F4E762680008426A000810B503494B
:104FC0000348FFF7C5FF034B187010BDEC0200202B
:104FD00010000020F00200200020704737B56B461B
:104FE000DD1D2870064C2000FDF7D0FB02000128D3
:104FF000F8D1FA2329009B002000FDF7C5F937BD41
:105000001814002010B5002240210248FCF76EFD64
:1050100010BDC0460004004810B5012240210248DE
:10502000FCF764FD10BDC046000400487FB50E26A5
:10503000FF236E440F24337000236C442370094D0A
:105040002800FDF7A3FB03000128F8D1FA22920003
:105050000092310022002800FDF766FA207804B0A3
:1050600070BDC0461814002013B5FFF7D5FF0A2401
:10507000FF20013CFFF7B2FF002CF9D1FFF7C2FF80
:105080006A4640231370952354709470D470147141
:1050900053716B46185D0134FFF7A0FF062CF8D161
:1050A0008024A401FFF7C2FF012802D0013C002C9C
:1050B000F8D1FFF7B1FFFF20FFF790FF0122014B6E
:1050C0001A7013BDD1020020322310B5054C237095
:1050D000FFF7ACFFFFF7AAFFFF2802D02378002BD1
:1050E000F8D110BD8419002070B505000E00FFF73F
:1050F000EBFF03000020FF2B2CD13000FFF76EFFE9
:10510000FD2E21D080239B002C00ED182078FFF786
:1051100065FF60780234FFF761FFAC42F6D1FFF71C
:1051200085FF4125FFF782FF1F26FFF77FFF030062
:1051300004003340052B03D0013DEDB2002DF4D126
:10514000FFF774FF0028FBD01F200440053C60429D
:105150006041C0B270BD70B505000C00FFF7B4FF30
:105160000300FF20834226D12800FFF737FF200EDF
:10517000FFF734FF200CC0B2FFF730FF200AC0B2A7
:10518000FFF72CFFE0B2FFF729FF9520402D03D059
:105190000020482D00D18730FFF720FF4C2D01D192
:1051A000FFF744FF0A24FFF741FF030603D5013C44
:1051B000E4B2002CF7D170BD0A2370B504000D00D5
:1051C0000F4E3370FFF732FF0300FF2804D1307811
:1051D000C0B20028F6D170BD0020FE2BFBD1260006
:1051E000FFF724FF3070FFF721FF70700236731B4A
:1051F000A342F5D1FFF71AFFFFF718FF0120EAE7F6
:1052000085190020F7B50123002806D10226464D56
:105210002C78344003D02B78DBB21800FEBDFFF7AA
:1052200023FFFFF7EFFE21004020FFF794FF012846
:105230006DD1D52164233D4F490047303B70FFF7C6
:105240008AFF012840D1FFF7F1FE01AEA0550134DD
:10525000042CF8D1B378012B59D1F378AA2B56D16D
:105260008024E40500217720FFF775FF012824D969
:105270003B78002BF6D13B78002B48D000217A20D8
:10528000FFF769FF002842D10400FFF7CFFE305539
:105290000134042CF9D1337806265B0600D4043E91
:1052A000234B1E70FFF7B8FEFFF7C0FE002E37D06D
:1052B00001222B7893432B70ADE721006920FFF783
:1052C0004AFF0028D4D1D6E721007720FFF743FF1B
:1052D000012805D821006920FFF73DFF012800D9EA
:1052E000012600214120022E15D17720FFF733FF40
:1052F00001280ED93B78002BF3D13B78002B06D048
:10530000802150208900FFF726FF0028C8D0002602
:10531000C6E700216920FFF71EFF0028EAD1ECE76D
:10532000044B1E7077E7C046080000208519002056
:10533000D0020020D10200200123002802D1024B1C
:105340001B78DBB21800704708000020F8B5070092
:105350000D0016001C000420002F23D1002B21D0AB
:105360001D4B01381B78DB071CD41C4B1B785B07DB
:1053700000D45602FFF746FE3100012C13D1512014
:10538000FFF7E9FE002806D1802128008900FFF7F9
:1053900013FF44424441FFF73FFEFFF747FE601E04
:1053A0008441E0B2F8BD5220FFF7D5FE0028F2D1CB
:1053B0008026B60031002800FFF7FEFE002805D049
:1053C0008023013C9B00ED18002CF3D100214C20E0
:1053D000FFF7C1FEDFE7C04608000020D002002032
:1053E000F8B507000D0016001C000420002F27D17F
:1053F000002B25D0254B01381A78D20720D41A78F3
:10540000042301381A421BD1214F3A781A4200D1A5
:105410007602FFF7F7FD012C13D131005820FFF77A
:105420009AFE002830D1FE212800FFF75DFE44429D
:105430004441FFF7F1FDFFF7F9FD601E8441E0B242
:10544000F8BD3B789B0707D500217720FFF783FE47
:1054500021005720FFF77FFE31005920FFF77BFE28
:105460000028E6D1FC212800FFF73EFE002805D0E9
:105470008023013C9B00ED18002CF3D1FD2100207E
:10548000FFF732FE0028D4D10124D2E70800002023
:10549000D0020020F0B5060085B00F0015000424EE
:1054A000002808D1052918D11378012B0DD0002B25
:1054B00004D0022B0DD0200005B0F0BD464A1C00E0
:1054C00011780029F7D01370F5E7FFF7CDFD340010
:1054D000F1E7414B1B785370F9E7404B03241B78ED
:1054E000DB07E8D4FFF78EFD0D2F6BD83800FAF7F5
:1054F0001DFE4B074669696969696969695360639B
:1055000000214920FFF727FE041E05D00124FFF7E4
:1055100083FDFFF78BFDCEE710216846FFF74CFEB9
:105520000028F3D06B4619785A7A89091B7A012929
:1055300006D101321B02D3189BB29B022B60E6E717
:105540006946C9799B0989005B186946C020897939
:1055500000018902014001335B1869460F20497937
:10556000520001406846807A9BB2C00909180620A3
:10557000023102408A18D2B2093A9340DEE7802312
:105580009B002B800024C2E7FFF79EFDFF3804003C
:10559000601E8441E4B2BAE700214920FFF7DBFD39
:1055A0000028B3D110212800FFF706FE44424441F1
:1055B000F0E700214A20F1E700217A20FFF7CBFD38
:1055C000002801D00424A2E72C1DFFF72FFD28702E
:1055D0000135A542F9D1F5E7D102002008000020ED
:1055E00010B50400FAF790FDFA23C2B2DB002100E7
:1055F0000148FDF725FA10BD8C0F00200023802202
:10560000180010B5034CD2001919013308709342E9
:10561000FAD110BD0C10002030B5102497B0302204
:1056200000210AA800F0EFFB2200002101A800F0F1
:10563000EAFB1422002105A800F0E5FB12230A93DF
:10564000802301250E9410945B030E3C0AA812944B
:1056500014930D950F95FCF763FA02940024072329
:10566000210001A8019303940494FCF78DFC05A884
:1056700005950794FCF71CFD17B030BDF0B591B04F
:10568000FBF78AFDFFF7C8FF142200210BA800F0EA
:10569000BAFB8021E94D89026A69C0270A436A6121
:1056A0006B6900240B4080210893089B6A69C9023A
:1056B0000A436A616B6901260B4080210993099BAB
:1056C0006A6909030A436A616B69BF000B400A9368
:1056D00039000022DA480A9BFCF708FA0022402130
:1056E000D848FCF703FAD84B0BA9D6480C930B9675
:1056F0000D94FCF74BF90BA9D1480B970C960D9420
:105700000E94FCF743F940230BA9CE480B930C965B
:105710000D940E94FCF73AF9220021000520FCF7C5
:1057200029F80520FCF756F86B69220033436B61BA
:105730006B692100334007930920079BFCF71AF897
:105740000920FCF747F8C148C14B846003608223FD
:105750005B004360E023DB00C36080239B00836128
:10576000F13BFF3BC361093BC3629B194363046187
:1057700044610462446284620463FCF7A7FDB54897
:10578000B54B0C250360E1235B02436045618460F7
:10579000C46004618461C46104624462FDF7EAF993
:1057A000FFF70CFC2A0021000BA800F02CFBAB4DEE
:1057B000AB4B04272B60C223FF33EB6128006B1D2A
:1057C0006F61DC776C60AC60EC602E612C766C767F
:1057D000AC76EC762C62AE62FBF7C2FD80235B01F7
:1057E0000C9380230BA95B0528000D930B94FBF70A
:1057F00041FF0BA928000B96FBF73CFF02230BA9E6
:1058000028000B93FBF736FF03230BA928000B930B
:10581000FBF730FF0BA928000B97FBF72BFF0523A5
:105820000BA928000B93FBF725FF06230BA92800E3
:105830000B93FBF71FFF07230BA928000B93FBF724
:1058400019FF8848FFF7CCFE874F320039008748A0
:10585000FEF7A8FC864B1870A04200D1B1E0854845
:10586000FFF7BEFE844C854E220031003800FFF762
:1058700081FA2268824B834FD358D05D023B584354
:10588000FBF7D2FA0022804BFAF704FDFAF7E4FCAA
:105890007E4B020018607E497E4800F0BDFA7D48CC
:1058A000FFF79EFEFFF7AAFE23683068DB5D002449
:1058B0005843FBF7B9FA0022734BFAF7EBFCFAF7FF
:1058C000CBFC754B020018607449724800F0A4FAD2
:1058D0007048FFF785FE724E002231000BA800F0E1
:1058E0009BFA00210BA8FFF713FA00286BD06D4E2E
:1058F00013220BA93000FEF78DFC5D4C31002070A7
:105900006948FFF7DEFA20703000FFF751F8207089
:105910000BA8FFF765FE80266448FFF761FE76005E
:10592000634B1B68002B55D080270626BF0039002B
:105930004348FCF7E1F8013E6420FBF74FFC002EE2
:10594000F5D108225B492800FBF7FCFD584B1B688A
:10595000012B47DC574A584FD3695849059393693F
:10596000380004935369039313690293D368019336
:10597000936800935368126800F04EFA3800FFF7FE
:105980002FFE484E12220BA93000FEF743FC4C4B71
:105990002070F1583000FFF721F8310020703800F6
:1059A000FFF78FFA20703000FFF702F82800FBF7AE
:1059B000ABFD2800FBF77CFDFA208000FBF70EFC16
:1059C000C4E740484CE70134220031000BA800F046
:1059D00023FA86E731001A48FCF78EF86420FBF7BB
:1059E000FDFB9DE73848FFF7FBFD2E4D01220BA97B
:1059F0002800FEF70FFC81262070F600304BE95896
:105A0000AB598B4212D12800FEF7D2FFFFF7F6FD0B
:105A1000012215490020FEF7C5FB2070002802D1A5
:105A20002A48FFF7DDFD002011B0F0BD2A0019481B
:105A3000FFF720FA1748FFF7D3FDDFE70010024019
:105A4000000800480004004800001110181400204D
:105A5000003001408C0F002000380140F814002075
:105A600000240140226C0008676D0008540B0020E0
:105A700014140020406C000810140020500B00206B
:105A800014040000020400000000E03FB0140020F5
:105A90007F6C00080C100020880F0020996C000813
:105AA000B36C000838150020BB6C0008E46C0008DB
:105AB000D4020020641900207C140020066D000828
:105AC0000C0400005E6C0008276D0008686D00087B
:105AD0007047000001200A4B82B099690143996127
