:020000040800F2
:100000000020002009550008314E0008334E00083A
:1000100000000000000000000000000000000000E0
:10002000000000000000000000000000354E000845
:100030000000000000000000374E0008394E0008A4
:1000400059550008595500085955000859550008D8
:1000500059550008595500085955000859550008C8
:10006000595500085D4E00085955000859550008BB
:1000700059550008595500085955000859550008A8
:10008000595500085955000800000000595500084E
:100090005955000859550008595500085955000888
:1000A0005955000859550008595500086D4E00086B
:1000B00059550008000000005955000800000000D4
:1000C00010B5064C2378002B07D1054B002B02D02E
:1000D000044800E000BF0123237010BD8800002009
:1000E00000000000045E0008044B10B5002B03D094
:1000F0000349044800E000BF10BDC04600000000F6
:100100008C000020045E00080023C25C0133002A3A
:10011000FBD1581E7047000002B4714649084900DF
:10012000095649008E4402BC7047C04602B471466D
:1001300049084900095C49008E4402BC7047C0462A
:10014000002243088B4274D303098B425FD3030A16
:100150008B4244D3030B8B4228D3030C8B420DD329
:10016000FF22090212BA030C8B4202D312120902B7
:1001700065D0030B8B4219D300E0090AC30B8B42F5
:1001800001D3CB03C01A5241830B8B4201D38B03A3
:10019000C01A5241430B8B4201D34B03C01A524148
:1001A000030B8B4201D30B03C01A5241C30A8B428B
:1001B00001D3CB02C01A5241830A8B4201D38B0276
:1001C000C01A5241430A8B4201D34B02C01A52411A
:1001D000030A8B4201D30B02C01A5241CDD2C3098C
:1001E0008B4201D3CB01C01A524183098B4201D308
:1001F0008B01C01A524143098B4201D34B01C01AF3
:10020000524103098B4201D30B01C01A5241C3086A
:100210008B4201D3CB00C01A524183088B4201D3D9
:100220008B00C01A524143088B4201D34B00C01AC5
:100230005241411A00D20146524110467047FFE731
:1002400001B5002000F0F0F802BDC0460029F7D04B
:1002500076E7704703460B437FD4002243088B4266
:1002600074D303098B425FD3030A8B4244D3030B3D
:100270008B4228D3030C8B420DD3FF22090212BA02
:10028000030C8B4202D31212090265D0030B8B427E
:1002900019D300E0090AC30B8B4201D3CB03C01A68
:1002A0005241830B8B4201D38B03C01A5241430B43
:1002B0008B4201D34B03C01A5241030B8B4201D333
:1002C0000B03C01A5241C30A8B4201D3CB02C01A9E
:1002D0005241830A8B4201D38B02C01A5241430A16
:1002E0008B4201D34B02C01A5241030A8B4201D305
:1002F0000B02C01A5241CDD2C3098B4201D3CB01AC
:10030000C01A524183098B4201D38B01C01A52415A
:1003100043098B4201D34B01C01A524103098B425E
:1003200001D30B01C01A5241C3088B4201D3CB0049
:10033000C01A524183088B4201D38B00C01A52412C
:1003400043088B4201D34B00C01A5241411A00D2DC
:1003500001465241104670475DE0CA0F00D0494245
:10036000031000D34042534000229C4603098B42B5
:100370002DD3030A8B4212D3FC22890112BA030A3D
:100380008B420CD3890192118B4208D389019211BF
:100390008B4204D389013AD0921100E08909C30944
:1003A0008B4201D3CB01C01A524183098B4201D346
:1003B0008B01C01A524143098B4201D34B01C01A31
:1003C000524103098B4201D30B01C01A5241C308A9
:1003D0008B4201D3CB00C01A524183088B4201D318
:1003E0008B00C01A5241D9D243088B4201D34B0033
:1003F000C01A5241411A00D20146634652415B1075
:10040000104601D34042002B00D549427047634655
:100410005B1000D3404201B5002000F005F802BD9A
:100420000029F8D016E770477047C04670B5050040
:10043000FA200D4B80001978FFF782FE0B4B01006C
:100440001868FFF77DFE00F07FFB04000120002C00
:1004500009D1032D07D802382200290000F038FB0B
:100460002000034B1D6070BD00000020080000202C
:10047000040000201023064A10B5116800200B4329
:100480001360FFF7D3FF04F0C3FB002010BDC0468C
:1004900000200240034A044B11681B785B1813606C
:1004A0007047C0460003002000000020014B186880
:1004B0007047C0460003002070B50400FFF7F6FF48
:1004C0000500631C02D0044B1B78E418FFF7EEFF15
:1004D000401B8442FAD870BD00000020032103684D
:1004E00070B59A6804000A40012A01D0002070BD4E
:1004F0001968114202D1DA681204F7D505229D6805
:100500001540012D1AD1022299680A439A600322EC
:100510001A60FFF7CBFF060023689B682B42E5D0EB
:10052000FFF7C4FF801B0228F6D91023A26B01201D
:100530001343A363E36B1D43E563D8E71023012056
:10054000A26B1343A363E36B0343E363CFE70000B2
:10055000002373B503210193036804009A680A40DD
:10056000012A07D11968114201D0002076BDDA684E
:100570001204FAD49968194A114208D010230120B4
:10058000A26B1343A363E36B0343E363EEE7012230
:1005900099680A439A60124B12491868FFF7D0FD18
:1005A0000190019B002B15D1FFF780FF012506006C
:1005B00023681B682B42D8D1FFF778FF801B0228E5
:1005C000F6D91023A26B01201343A363E36B2B43E3
:1005D000E363CBE7019B013B0193E2E71700008057
:1005E0000800002040420F000422036870B599689B
:1005F0000400114201D1002070BD9968114206D05B
:100600009A68920703D4102299680A439A60FFF708
:100610004DFF0425060023689B682B42EBD0FFF7B3
:1006200045FF801B0228F6D910230120A26B13433B
:10063000A363E36B0343E363DEE70000F8B5040064
:100640000120002C73D0A36B002B06D12200343282
:10065000E3632000137004F0F3FAA36BDB0600D50C
:100660007AE0042223689868104000D074E0A26BFE
:100670004349114002220A430321A2639A680A40B7
:10068000012A00D06EE01968114202D1DA68120422
:1006900068D5DA683B490A40DA60257E627EAD03A0
:1006A000D2031543A26AA17E013A561EB241160337
:1006B000E2684F03154322692F43022A00D1042028
:1006C000621DD27F52003A4332430243E07E01284A
:1006D00004D100292CD1802149020A43C220E169BA
:1006E000FF30814202D0206A01430A438020D9684A
:1006F00040051143D960E16A814202D0481E0628B4
:1007000007D8072558692940A8435861586901430B
:100710005961DB681C490B409A4211D10020032229
:10072000E063A36B93431A0001231343A363F8BD53
:100730002021A56B2943A163E16B0843E063CDE76A
:100740001222A36B012093431A0010231343A363C7
:10075000E36B0343E363EAE71023A26B0120134337
:10076000A363E4E71821DA688A43A1680A43DA60E0
:1007700019696268890089081143196189E7C046CF
:10078000FDFEFFFF1902FEFFE7FF3F83F7B5036899
:1007900004009B680F00019202205B0730D4260002
:1007A00034363378012B2BD001233370637E012B39
:1007B00027D1A36B164A00251A4080235B00134300
:1007C000A363206B134BE56335708362124B216882
:1007D000C362124B03631C230B604A680C3B134338
:1007E0004B600123CA681343CB603A004031019B40
:1007F00000F0F6F904232800226891680B43936007
:10080000FEBD2000FFF7A4FE0028F9D1D1E7C046C5
:10081000FEF0FFFF91080008030900080F09000817
:10082000F8B506003436337804000225012B20D0B9
:1008300001273770FFF7D8FE051E18D12268206BFC
:10084000D368BB43D36000F006FA051E03D04023F3
:10085000A26B1343A3631021226853688B43536038
:10086000002808D12000FFF739FE051E07D000231D
:1008700033702800F8BD2000FFF730FEF7E7A36BC8
:10088000024A1A4001231343A363F0E7FEFEFFFF71
:100890005022436A10B5996B11422AD1996BB1323B
:1008A000FF320A43C0219A631A680901D0680842DE
:1008B00012D1997E00290FD1116809070CD59168D2
:1008C00049070DD40C205168814351609A6B0B4944
:1008D000114001220A439A63180004F0D1F810BDB8
:1008E0002022996B0A439A630122D96B0A43DA6387
:1008F000F2E71B6B1B6B9847F1E7C046FEFEFFFF5C
:10090000704710B5406AFFF7FBFF10BD70474023EA
:10091000406A10B5826B134383630423C26B134395
:10092000C363FFF7F3FF10BDF7B500230400019385
:100930003434237805000220012B2BD001232A68B0
:10094000EE6A9068237040075AD430484F680D68AB
:1009500087423FD0AB4018008023976A5B0538433D
:1009600090629E420FD0013E062E0CD98B68072163
:1009700050690840834206D050690B40884350615B
:100980005069034353612B00103B022B03D9002015
:1009900000232370FEBD1E4A80231168102D15D040
:1009A000112D15D05B040B431360102DEFD1194BA3
:1009B00019491868FFF7C4FB0A2358430190019BAB
:1009C000002BE4D0019B013B0193F8E71B04EAE70D
:1009D000DB03E8E7AB40916A99432B00103B91623F
:1009E000022BD4D80A4B1A68102D05D0112D05D032
:1009F0000A490A401A60CAE70949FAE70949F8E7CB
:100A00002022A96B18000A43AA63C1E70110000065
:100A1000082701400800002040420F00FFFFFFFEB2
:100A2000FFFF7FFFFFFFBFFFF8B5060034363378C6
:100A300004000220012B42D00123032133702368DC
:100A40009A680A40012A05D11968114238D1DA683A
:100A5000120435D4A26B1D49114002220A4303211E
:100A6000A263DD68DA688A43DA6080229968120638
:100A70000A439A60FFF71AFD070023689A68002A64
:100A80000EDB0322D96815400D43DD60A36B002007
:100A900093431A0001231343A363002333700EE032
:100AA000FFF704FDC01B0228E7D91222A36B012027
:100AB00093431A0010231343A36300233370F8BD3C
:100AC0002023A26B01201343A363E6E7FDFEFFFF93
:100AD00070B58901002812DB8308134A03249B00A8
:100AE0009B18FF222040A0401400C02584401140E4
:100AF0008140AD005E59A6433143595170BD032476
:100B00000F23C0B203402040A040FC342500214008
:100B100085408140083B054A9B089B009B18DA6989
:100B2000AA431143D961E9E700E100E000ED00E0EC
:100B3000002805DB1F2318401E3B8340014A136039
:100B40007047C04600E100E0094A431E012093427D
:100B50000DD8C021074A08485360036A09061B02E2
:100B60001B0A0B4303620020072390601360704749
:100B7000FFFFFF0010E000E000ED00E070B50400B2
:100B80000120002C24D002232068A51CEB770268EA
:100B9000104BA1681A4063680B43E1680B4321695D
:100BA0000B4361690B43A1690B43E1690B43134399
:100BB0000360094B1421C018FFF7C2FA074B8000ED
:100BC0002064E36300200123A063E418EB77E0775F
:100BD00070BDC0460FC0FFFFF8FFFDBF0000024020
:100BE000F0B5461CF57F0224012D26D00125F577AE
:100BF0000519AC46ED7F0027EDB2012D29D16646DF
:100C0000F477046887632668076CAE43BD402660AE
:100C1000C66B7560636043680568102B0FD1A260D6
:100C2000E160C36A2268002B0CD00E2313432360BB
:100C3000012300242A6813432B602000F0BDA1602B
:100C4000E260EEE70A231343042223602368934300
:100C5000EDE7F777F1E730B5851CEB7F441C022BFD
:100C600005D00423836300230120E37730BD0E21E8
:100C700003681A688A431A6001221968914319604F
:100C8000016CC36B1000884058600020EA77E07761
:100C9000ECE770B5841CE37F022B04D0042383634C
:100CA000033B180070BD0E210368056C1A688A4367
:100CB0001A6001221968914319601100A940C36BA1
:100CC0005960E27700248318426BDC771300A2425C
:100CD000E7D090472300E4E7F8B504273E00016C15
:100CE000C26B8E40156803681C682E420DD03C42D2
:100CF0000BD01968890602D41968B9431960C36A10
:100D00005660002B19D0984717E002273E008E400E
:100D10002E4213D03C4211D01968890606D40A2409
:100D20001968A14319600121C319D97756600022BF
:100D3000431CDA77836A9342E5D1F8BD0826370071
:100D40008F403D42F9D03442F7D00E251C68AC43A9
:100D50001C6001231C008C405460821C8363D37789
:100D60000022C318DA77036BE5E70000F0B50B68E3
:100D700087B002930023029ADA4001D107B0F0BD98
:100D800001249C40029A2240019200D193E04A68DB
:100D900017009446102297437A1E012A12D8032680
:100DA0005D00AE408268B243CE68AE40324382609E
:100DB00042680125A2431400624612092A409A4063
:100DC0002243426003255E00B5408A68ED43B2408D
:100DD000C4682C402243C260022F0FD1DA0892006F
:100DE00007248218176A03920F221C40A400A24015
:100DF00097430A69A2401743039A176202680324C3
:100E0000154062462240B240802415436246640584
:100E1000056022424FD001250F27284A94692C43B0
:100E2000946192699C082A4002351D40AD00AF4094
:100E30000592059A224AA400A418A6680022BE437F
:100E40009027FF05B8420CD01E4F0132B84208D09F
:100E50001D4F0132B84204D01C4F0332B84200D1BA
:100E6000023AAA4067463243A260194A019C1668BA
:100E7000019DE4433543FF0301D435002540674617
:100E800015605668019D3543BF0301D435002540E8
:100E9000674655609668019D3543FF0201D43500D1
:100EA000254067469560D568019E2E43BF0201D458
:100EB00025402E00D66001335DE7C0460010024099
:100EC000000001400004004800080048000C0048F1
:100ED00000040140002A01D0816170478162FCE773
:100EE0000B00426913401B04914319438161704711
:100EF000F0B5040085B0002802D1012005B0F0BD96
:100F00000368DB072ED423689B077ED423681B0766
:100F100000D5BAE023685B0700D5DDE02368DB0677
:100F20001AD56269B44D0423012A00D049E1696BE6
:100F300002260B436B636B6B1A436A63FFF7B6FAC7
:100F400007006B6B334200D134E1F8216A6BA3696F
:100F50008A43DB0013436B63236A002B00D057E105
:100F60000020CBE70C21A44D6A680A40042A06D071
:100F70006B680B40082B09D16B68DB0306D52B6827
:100F80009B03C0D56368002BBDD1B6E76368012B16
:100F900013D180232A685B0213432B60FFF786FA84
:100FA00080260700B6022B683342ACD1FFF77EFAE9
:100FB000C01B6428F7D90320A0E7002B15D12B68AC
:100FC0008E4A802613402B602B688D4AB602134050
:100FD0002B60FFF76BFA07002B68334293D0FFF7C3
:100FE00065FAC01B6428F7D9E5E7052B05D18023F6
:100FF0002A68DB0213432B60CBE72B687F4A134040
:101000002B602B687E4A1340C7E70C227A4D6B6831
:10101000134206D06B681340082B11D16B68DB03B9
:101020000ED42B689B0703D5E368012B00D064E73F
:10103000F8212A6823698A43DB0013432B6065E7A4
:10104000E2680123002A0FD02A68022613432B608E
:10105000FFF72CFA07002B683342E9D1FFF726FA95
:10106000C01B0228F7D9A6E72A6802269A432A60FD
:10107000FFF71CFA07002B68334200D146E7FFF761
:1010800015FAC01B0228F6D995E7E26901235A4DEB
:10109000002A10D06A6A022613436B62FFF706FA31
:1010A00007006B6A334200D034E7FFF7FFF9C01B3B
:1010B0000228F6D97FE76A6A02269A436A62FFF736
:1010C000F5F907006B6A334200D123E7FFF7EEF929
:1010D000C01B0228F6D96EE780220021464D52053A
:1010E000EB690091134208D1EB691343EB61EB69A3
:1010F00013400393039B012300938027414E7F00FD
:1011000033683B4206D0A368012B13D12A6A1343EC
:101110002B6230E033683B433360FFF7C7F901903F
:1011200033683B42EFD1FFF7C1F9019BC01A642835
:10113000F6D940E70122002B14D12B6A02279343F2
:101140002B622B6A033293432B62FFF7AFF9060041
:101150002B6A3B4225D0FFF7A9F92B4B801B984205
:10116000F6D928E7052B0BD1296A013B0B432B62EB
:101170002B6A1A432A62FFF799F9022706000DE04D
:101180002B6A934304222B622B6A9343C0E7FFF739
:101190008DF91D4B801B984200D90CE72B6A3B420E
:1011A000F5D0009B012B00D0B8E6EB69174A13403D
:1011B000EB61B3E6FFF77AF9C01B022800D8C0E65E
:1011C000F9E6053203D16A6B9A436A63BDE66A6B3E
:1011D0000226134301226B636B6B93436B63FFF730
:1011E00065F907006B6B334200D1B5E6FFF75EF996
:1011F000C01B0228F6D9DEE600100240FFFFFEFF0A
:10120000FFFFFBFF0070004088130000FFFFFFEFAF
:101210000C20354A516815000140082947D0334A4F
:10122000022B32D12B68802613402B60FFF73EF94A
:101230000700B6042B68334221D10F22EB6A934397
:10124000E26A1343EB62616AA36A6A680B43284946
:1012500080240A4013436B6080232A685B04134395
:101260002B60FFF723F90600A4042B68234200D06B
:1012700076E6FFF71BF9801B0228F6D99BE6FFF7FD
:1012800015F9C01B0228D5D995E62B688024134098
:101290002B60FFF70BF90600A4042B68234200D152
:1012A0005EE6FFF703F9801B0228F6D983E61800F3
:1012B000012B00D122E680215368656A4902D26A77
:1012C00019400120A94200D018E60F210A40E16A26
:1012D0008A4200D012E6F02080030340A06A1B1A65
:1012E000581E8341D8B209E600100240FFFFFFFEFE
:1012F000FFFFC2FF70B5144C88B010222100684671
:1013000004F056F9210004AD10221031280004F039
:101310004FF90C220D4E73681A40082A11D10F2084
:101320006A46990C0140545CF26A0240A95CDB03F6
:1013300005D50748FEF704FF604308B070BD0548B7
:10134000FAE70348F9E7C0461C5E000800100240B7
:1013500000127A0000093D00F7B505000F000028D3
:1013600001D10120FEBD0122374C236813408B427E
:101370001CD329688B0722D4CB072FD401232268E2
:101380001A40974251D32B68304C5B0754D4FFF777
:10139000B1FF63682E4A1B061B0FD35CD8402D4B50
:1013A00018600020FFF742F80020DBE72368934332
:1013B0000B432360236813409942D2D1D9E7234AD3
:1013C0004B0704D5E0235068DB0003435360F02053
:1013D00053688343A86803435360CDE71B4E6A6894
:1013E0003368012A19D19B03BBD5032173688B4352
:1013F00013437360FFF75AF801900C2372681A4088
:101400006B689B009A42B9D0FFF750F8019BC01A55
:10141000114B9842F1D90320A4E7022A02D19B0183
:10142000E3D49EE79B07E0D49BE722689A432260BF
:1014300022681A4295D1A6E76368084A1340EA6811
:1014400013436360A3E7C04600200240001002403F
:10145000F96400080800002088130000FFF8FFFF6F
:10146000044B054A5B685B055B0FD35C034A10685D
:10147000D8407047001002400965000808000020AD
:10148000F0B5036885B00500DB0328D58022002174
:101490003B4C5205E3690091134208D1E3691343C1
:1014A000E361E36913400393039B012300938027C7
:1014B000344E7F0033683B422FD0C022236A920013
:1014C0001340314E3BD1236A1E406B681E43009B84
:1014D0002662012B03D1E3692C4A1340E3612A6899
:1014E000D30706D5032026490B6B8343A868034323
:1014F0000B63930606D5102021490B6B8343E868E4
:1015000003430B630020530517D540211C4A136B7E
:101510008B4329690B4313630FE033683B4333600C
:10152000FEF7C4FF019033683B42C6D1FEF7BEFF11
:10153000019BC01A6428F6D9032005B0F0BD696884
:101540000A409342BFD08023226A206A11005B02C6
:1015500003432362236A0E48314003402362216221
:10156000D307B0D5FEF7A2FF07000222236A134279
:10157000A9D1FEF79BFF074BC01B9842F5D9DBE7CB
:101580000010024000700040FFFCFFFFFFFFFFEF74
:10159000FFFFFEFF88130000E021036810B55A68C2
:1015A0008A435A6082224168520091420CD18021C4
:1015B000826809028A4203D08021C9008A4203D18D
:1015C00040211A688A431A608021826A89018A420E
:1015D00006D11968074C2140196019680A431A603E
:1015E000030001225D331A7000235C300370032076
:1015F00010BDC046FFDFFFFFF8B504000D00170067
:10160000802623689868304009D06A1CFAD0FEF71B
:101610004DFFC01B8542F4D82000FFF7BDFFF8BD89
:10162000F7B5C02705000C0016000193FF002B68DA
:10163000986820400DD0BC4200D11A7B721CF7D0B4
:10164000FEF734FF019BC01A8642F0D82800FFF74E
:10165000A3FFFEBD70B513000D0016000A00C021E7
:1016600049010400FFF7DCFF002805D02023226E8B
:101670000320134323660FE0320029002000FFF708
:10168000BBFF0028F2D1C02133002A00C90020008E
:10169000FFF7C6FF0028E9D170BD0000F8B50400CF
:1016A0000120002C4BD000232500A3625D352B7850
:1016B000DBB2002B05D122005C321370200003F056
:1016C0001DFB0223402221682B700B6800209343EE
:1016D0000B60E023E268DB009A4231D9F026360144
:1016E000B24233D10600206B002803D19A422FD991
:1016F00002232363A7686368A0693B4327693B43D0
:1017000067693B43E7693B43276A3B43A76A3B431F
:101710008027BF0007403B430B60636A000C1A43FD
:10172000636B1A4304231840104306434E60CB6991
:10173000084A00201340CB61012320662B70F8BDBE
:10174000802676019A42CED0A062CCE70600FBE765
:101750000123CEE7FFF7FFFFF7B51E00030001925C
:101760005C331A7804000F000225012A00D1ACE096
:1017700001221A70FEF79AFE230000905D331B7859
:101780006168DBB2012B0BD082225200914200D063
:1017900094E0A268002A00D090E0042B00D08DE0F5
:1017A0000125002F00D189E0019B002B00D185E0AD
:1017B000002E00D182E023005D331A78042A01D084
:1017C00005221A70019A002322642200083223663F
:1017D000D687A21DD687E022E068E3642365A7636D
:1017E000E687A687D2002368904201D8012E31D91E
:1017F0005A68714D2A405A60402223681D6815427C
:1018000002D11D682A431A60E022D20090425ED9BC
:10181000002901D0012E07D13A880237DA60E38F20
:10182000A763013B9BB2E387012502272E00E38FCC
:10183000002B14D123000833DB8F002B0FD1009A2B
:1018400008992000FFF706FF051E37D02023012549
:10185000236633E080225D6852012A43CBE7226889
:1018600093683B420ED0E38F002B0BD0012D09D1A2
:101870000025A36B19880233D160A363E38F013B7A
:101880009BB2E387936833420ED021000831CB8F9F
:10189000002B09D03500236CD2681A8002332364F0
:1018A000CB8F013B9BB2CB87FEF700FE009BC01A9B
:1018B000089B8342BBD80133B9D003252300012202
:1018C0005D331A7000235C3423702800FEBD0029AC
:1018D00001D0012E0AD1E28F012A51D93A8802376C
:1018E000DA60E38FA763023B9BB2E38701250227FF
:1018F0002E00E38F002B05D123000833DB8F002B54
:1019000000D19CE7226893683B4211D0E38F002B03
:101910000ED0012D0CD1E18FA36B012938D9198884
:101920000233D160A363E38F023B00259BB2E387C0
:1019300021688B68334219D023000833DA8F002ADC
:1019400014D0D88F226C01282AD9C868350010809D
:1019500002322264DA8F023A92B2DA87DB8F012BED
:1019600004D880234A685B0113434B60FEF79EFD59
:10197000009BC01A089B8342BBD80133B9D09CE7B7
:101980003A781A73A36B0133A363E38F013BABE790
:101990001B781373A36B0133A363E38F013BC4E78D
:1019A000097B35001170226C01322264DA8F013A12
:1019B00092B2DA87DAE7C046FFEFFFFF0122036A3F
:1019C00070B593430362036A446885697232954334
:1019D0000A681543022293438A681343144A9042CB
:1019E00008D0144EB04205D0134EB04202D0134E70
:1019F000B04216D10826B343CE6833430426B3431E
:101A0000904208D00B4A904205D00B4A904202D037
:101A10000A4A904205D10A4A8E6922404C693443F1
:101A200014434A68446085614263036270BDC046E6
:101A3000002C0140004001400044014000480140AA
:101A4000FFFCFFFF70B57325036A174A134003625A
:101A5000036A4268C469AC430D682C43134D2B40A4
:101A60008D682D022B43124DA8420ED1114D1D4001
:101A7000CB681B022B43104D2B40104D4E69154077
:101A80008A69324312012A4308E00D4DA842F4D07E
:101A90000C4DA842F1D00C4DA842EED042604A68ED
:101AA000C461C263036270BDFFFEFFFFFFFDFFFF65
:101AB000002C0140FFF7FFFFFFFBFFFFFFCFFFFF01
:101AC000004001400044014000480140036A144ABC
:101AD00030B513400362026A124C4368C569254061
:101AE0000C6824022543104C22408C6824032243B6
:101AF0000E4CA04208D00E4CA04205D00D4CA04286
:101B000002D00D4CA04204D10C4C23404C69A401DE
:101B1000234343604B68C5610364026230BDC04625
:101B2000FFEFFFFFFF8CFFFFFFDFFFFF002C0140F7
:101B3000004001400044014000480140FFBFFFFF5A
:101B4000012203680720D9681143D96099680140D0
:101B5000062902D019680A431A6000207047000065
:101B600001210368DA688A43DA60186A054A10427C
:101B700006D1186A044A104202D11A688A431A60D0
:101B8000002070471111000044040000704700005D
:101B9000204A10B50368904206D08024E405A04294
:101BA00002D01D4CA0420CD17024A3434C682343A7
:101BB000904212D08024E405A0420ED0164CA042E0
:101BC0000BD0164CA04208D0154CA04205D0154CA5
:101BD000A04202D0144CA04203D1144C2340CC6844
:101BE00023438024A3434C69234303608B68C3626F
:101BF0000B688362904208D0094B984205D0094B8C
:101C0000984202D0084B984201D10B69036301232B
:101C1000436110BD002C0140000400400020004042
:101C2000004001400044014000480140FFFCFFFF2C
:101C300070B504000120002C14D025003D352B7810
:101C4000DBB2002B05D122003C321370200003F0E0
:101C500087F8022320682B70211DFFF799FF0123CD
:101C600000202B7070BD70B504000120002C14D032
:101C700025003D352B78DBB2002B05D122003C320C
:101C800013702000FFF782FF022320682B70211DB4
:101C9000FFF77EFF012300202B7070BD1022036A26
:101CA00070B593430362026A164D436884692C4001
:101CB0000D682D022C432025AA438D682D012A434F
:101CC000114DA8420FD18025AA431500CA68120100
:101CD0002A434025AA430D4D4E691D408B6933436D
:101CE0009B002B4308E00A4DA842F4D0094DA842BE
:101CF000F1D0094DA842EED043604B688461836304
:101D0000026270BDFF8CFFFF002C0140FFF3FFFF5C
:101D100000400140004401400048014070B504000B
:101D200002263C34257803003000012D17D01D0019
:101D300001383D3520702E700C2A0CD81000FEF7AB
:101D4000F5F9070A0A0A0F0A0A0A130A0A0A17000B
:101D50001868FFF733FE012300202B70207070BD40
:101D60001868FFF79BFFF6E71868FFF76BFEF2E7CE
:101D70001868FFF7ABFEEEE730B58468034D0A4301
:101D80001B022C4013432343836030BDFF00FFFF41
:101D9000F8B5050002233C352A7804001800012A12
:101DA00016D02600012720683D362F7033708368D7
:101DB000404A134083600B68402B65D014D8102B29
:101DC0000BD006D8002B08D00123002033702870D8
:101DD000F8BD202B01D0302BF6D1702281689143C1
:101DE000693A13430B431AE0602B35D019D8502BB6
:101DF000EAD14A68CB68016A046A1B01BC43F02738
:101E000004628469BC4323430A24A1430A438361D7
:101E100002627022836893431A005723134383603E
:101E2000D2E7702B0DD0802292019342CCD1CB68A7
:101E30004A688968FFF7A0FF80232268DB01916868
:101E400007E0CB684A688968FFF796FF7723226826
:101E500091680B439360B7E710244B68CA68016A26
:101E6000154FA1430162846912033C402243A02420
:101E7000016A82617022A1431B010B4303628368E4
:101E800093431A006723C9E74A68CB68016A046A6A
:101E90001B01BC43F02704628469BC4323430A242A
:101EA000A1430A43836102627022836893431A004C
:101EB0004723B3E78800FFFFFF0FFFFF70B5040063
:101EC00002223C34257803001000012D22D01D0091
:101ED00070261B6801383D3520702A7058689A6852
:101EE000B0430E68304358600B48834209D08020CD
:101EF000C005834205D00948834202D00848834286
:101F000004D18020496882430A439A60012300205B
:101F10002B70207070BDC046002C014000040040B2
:101F20000040014010B504003C3423780200022038
:101F3000012B1CD0C8680E4B12680340886803430D
:101F40000C480340486803430B48034008680343B8
:101F50000A48034008690343094803404869C969BE
:101F600003430848034000200B435364207010BD16
:101F7000FFFCFFFFFFFBFFFFFFF7FFFFFFEFFFFF90
:101F8000FFDFFFFFFFBFFFFF036807491A680A4032
:101F90001A609A682331FF318A439A60202383674D
:101FA000002303667047C046DFFEFFFF70B5846FF5
:101FB00003000220202C41D1013800293ED0002A04
:101FC0003CD080259C686D01AC4204D11D69002D78
:101FD00001D1014232D11D0070352E780220012E30
:101FE0002CD0013828705965190058310A804A8070
:101FF000802000211A00196640015C32844220D101
:10200000196900291BD11349118000220121DA67C7
:1020100022329A671A6890680143916080214901D1
:102020008C4215D11969002912D10B4919669023E8
:10203000002011685B000B432870136070BDFF2106
:10204000E2E7002CE0D119690029F8D07F21DBE715
:102050000249EBE7FF010000C520000865200008E9
:1020600070470000826F10B50368222A23D1020056
:102070005C329B8C12881340426D13700200436DDA
:102080005A32013343651388013B9BB21380138896
:102090009BB2002B0ED10268094C116821401160DF
:1020A00091682334FF34A143916020220366826744
:1020B00002F066FD10BD082299690A439A61F9E7AA
:1020C000DFFEFFFF826F10B50368222A21D10100D5
:1020D0005C319C8C0988426D2140118001000232E4
:1020E00042655A310A88013A92B20A800A8892B24D
:1020F000002A0DD11968094C2140196099682334D0
:10210000FF34A143996020230266836702F038FD03
:1021100010BD082299690A439A61F9E7DFFEFFFFC3
:1021200070470000F8B503680400DA695048196880
:102130009E6802420BD12020024200D176E001428B
:1021400000D173E0236E2000002B65D165E00120F3
:102150003500054003D190277F00394266D0024206
:1021600005D0CE0503D51862E66F3043E067022044
:10217000024206D0002D04D01862E66F00183043EA
:10218000E0670420024206D0002D04D01862E66FFA
:1021900002383043E067100708D5880601D4002DC7
:1021A00004D008201862E56F2843E0678020000112
:1021B000024206D04D0104D518622023E06F03438C
:1021C000E367E36F002B28D020231A4206D0194280
:1021D00004D0236E002B01D0200098472368E56FC0
:1021E0009B6820005B0602D428231D401AD0FFF70D
:1021F000CBFE402123689A680A420FD09A68E06EAD
:102200008A439A60002809D01A4B4363FEF741FDC8
:10221000002802D0E06E436B9847F8BD2000FFF71E
:102220007FFFFAE7FFF77CFFE567F6E780204003D2
:10223000024206D0750204D51862200000F04AFA66
:10224000EBE78020024203D0014201D0636E7AE7BF
:1022500040200242E1D00142DFD01A6882431A6076
:1022600020236367002320006366FFF7F9FED4E7AD
:102270000F08000079220008406A0023020010B510
:102280005A321380083A1380FFF74AFF10BD00004E
:1022900070B504002569A36802682B436569C169AC
:1022A0002B431068434D0B4328400343136053688E
:1022B0004148256A0340E06803435360A36990687E
:1022C0002B433E4D28400343936080233C481B0230
:1022D000824210D103203B4A126B02403A48805C94
:1022E000994213D0082828D8FDF720FF4127462718
:1022F000572727275A003548824256D1994236D16E
:10230000FFF7AEF8636840005B080BE008281ED8B2
:10231000FDF702FFF61D051D151D1D1D1800636844
:1023200058082B4BC0186168FDF70AFF83B20020E4
:102330001A002849103A8A420CD9012013E0FEF70E
:10234000D9FFDFE76368580880235B02EAE70120D2
:102350000023EDE70F22190091430A001B072168B3
:102360005B0F1343CB6000232366636670BDFFF7EA
:1023700077F863685B0802E063685808164BC0187A
:102380006168FDF7DDFE83B200201A001149103AA2
:102390008A42D2D82268D360E5E7FEF7ABFFE8E7D0
:1023A0006368580880231B02E9E79942CFD00120D7
:1023B0000023EAE7F369FFFFFFCFFFFFFFF4FFFF12
:1023C00000380140001002403C5E0008004400401C
:1023D0000024F400EFFF000000127A00436A30B5D9
:1023E000DA0706D50168284C4A682240846A2243ED
:1023F0004A609A0706D50168244C4A682240C46A9C
:1024000022434A605A0706D50168214C4A68224097
:10241000046B22434A601A0706D501681D4C4A68BE
:102420002240446B22434A60DA0606D501681A4C02
:102430008A682240846B22438A609A0606D5016826
:10244000164C8A682240C46B22438A605A0610D513
:102450000168134D4A68046C2A4022434A60802276
:102460005203944205D14A680E4C2240446C2243E8
:102470004A601B0606D502680B4953680B40816C05
:102480000B43536030BDC046FFFFFDFFFFFFFEFF63
:10249000FFFFFBFFFF7FFFFFFFEFFFFFFFDFFFFF00
:1024A000FFFFEFFFFFFF9FFFFFFFF7FFF7B580275D
:1024B00004000E00150001933F012268D3693340E8
:1024C0009B1B59424B41AB4201D000201CE0089BB2
:1024D0000133F3D0FDF7EAFF019B089AC01A236885
:1024E000824201D3002A10D11A6813490A401A60A7
:1024F0009A68A331FF318A439A6020236367A367F8
:102500000023032070342370FEBD04211A680A42A0
:10251000D3D0DA693A42D0D01F621A6806490A401D
:102520001A609A68A331FF318A439A602023636757
:10253000A367E367E4E7C0465FFEFFFFF0B587B03F
:102540000593436F04000D0017000220202B49D192
:102550000138002946D0002A44D08023A2685B01BC
:102560009A4204D12369002B01D101423AD12300C0
:1025700070331A780220012A34D0012200261A7002
:102580002123E6676367FDF791FF230050331F8027
:10259000023303931F808023A26804905B019A4258
:1025A00004D12369B34201D12E001D002300523310
:1025B0001A88059B92B20093049B002A0AD14021FD
:1025C0002000FFF773FF00280BD1202370346360D5
:1025D000207007E0002280212000FFF767FF00281D
:1025E00002D0032007B0F0BD2268002D0BD1338844
:1025F0000236DB05DB0D1385039B039A1B88013B29
:102600009BB21380D2E72B7801351385F4E70000E5
:1026100073B500260400C667FDF748FF2368050070
:102620001B681B0715D423681B685B070AD580212C
:102630000E4B00220093C9032B002000FFF736FF4A
:10264000002811D1202300206367A3677034207015
:102650000BE08021054B320000938903030020002A
:10266000FFF724FF0028DED0032076BDFFFFFF0127
:1026700010B5041E01D1012010BD436F002B04D101
:1026800002007032137002F081FB242301212268C2
:102690006367136820008B431360FFF7F9FD01287F
:1026A000E9D0636A002B02D02000FFF797FE236871
:1026B00007495A6820000A402A215A609A688A43CA
:1026C0009A60012219680A431A60FFF7A1FFD3E755
:1026D000FFB7FFFF70470000054B10B51A188000C8
:1026E0001B18117A5B6808005B68984710BDC046EC
:1026F000C4020020084B0200195C002010B5814282
:1027000008D101219954991892009B185B68087AA6
:102710001B68984710BDC046C402002070B5054C28
:102720002518800024182E7A606884683000A0473D
:1027300070BDC046C402002070B5054C251880004D
:1027400024182E7A6068C4683000A04770BDC04667
:10275000C4020020054B70B51C1880001B18257A98
:102760005B6828001B69984770BDC046C402002002
:10277000002310B59A4200D110BDCC5CC454013383
:10278000F8E78218904200D1704701700130F9E7F4
:10279000F0B5002480252200164BAD001F68002FE5
:1027A0001CD04659B7421AD18227BF005E68C7596C
:1027B000BE4214D11E89B4460F4E875BBC450ED174
:1027C0001020002915D10C235A430A4B9A1850891E
:1027D0000138FF384242424110010AE0012401322F
:1027E0000C33022ADAD10020844202D1022900D01F
:1027F0001220F0BDA8000020060200008023F0B5E2
:10280000244C9B008225C65822000023AD00276877
:10281000B7420AD16768BC464759BC4505D12789EC
:10282000BC461D4FC75BBC4527D001330C34022B7F
:10283000EDD11368002B04D00024D368A3421AD131
:1028400001230C2482255C43AD004559165114190F
:102850006560114D405B208100206081814215D16F
:102860000C21594351184989013189B20C20584330
:10287000121851815C1C2000F0BD0029F0D00C2101
:102880000024594351184989A142F4D180214900BB
:10289000ECE7C046A800002006020000411E10B56B
:1028A0000220012911D80C231A004A43074CA21810
:1028B0005089074A024001D0013882B200204B43C0
:1028C000E1184A81824200D1E05010BDA8000020EA
:1028D000FFFEFFFF8922030010B592008458243ABE
:1028E0009A58094B480AD15CFDF72AFC02000434CF
:1028F0002068002806D0824202D3121A0834F7E773
:102900006068101810BDC0460202000001000023DC
:102910000B315A08DB011343027801309B18DBB2FC
:102920008842F6D1180070470268131E03D10120B7
:1029300040420EE0013319781F2909D93A29F9D10B
:10294000511C8B42F3D11278302AF0D1013303604D
:102950000020704710B5002815D0802292008358BF
:10296000002B10D09A5C002A0DD0084A995A023ADE
:10297000825A914207D1064A985CFFF7ADFE0123C7
:102980000340181E00D0092010BDC04606020000FA
:1029900001020000F8B584239B00C3580C000931E4
:1029A000002B39D0852300229B00C358551C9A5C0C
:1029B000202A17D0052A5AD0092D02D12E270F70B0
:1029C00001311700413F192F0AD81F7BBC46102741
:1029D000082D00D8083F66463E4201D02032D2B2D0
:1029E0000A7001312A000B2DE0D1DA7A22725D7F64
:1029F0001A7F2D0215439A7F12041543DA7F1206BF
:102A00002A4322605D7E1A7E2D022A43A280DA7D4F
:102A10009B7D12021343E38000250D70A669AE4230
:102A200007D084239B00C358AB4203D1002300226C
:102A3000F254F8BDE369002BF8D089239B00C25AF9
:102A40000D4B9A42F2D088239B00C7586A00B85AAF
:102A50002B000028EBD0002101F0EAFC0028E5D093
:102A6000E369013B9D42E1D270550135EEE7E52275
:102A7000092DB5D1A2E7C046FFFF0000CA7E10B500
:102A80000400887E12021043032C05D14A7D0B7D81
:102A9000120213431B04184310BD00008B23F7B52B
:102AA00004009B00C558134E0123805D2A002100BD
:102AB000FFF742FE0196012300280AD181239B00E3
:102AC000E05417361C33E358A259EB1A934202D351
:102AD00000231800FEBD084BE75C012FF8D9A3596D
:102AE0002100ED18019B2A00E05C0123FFF724FE82
:102AF000013FF2E70102000003020000812310B54C
:102B00009B00C25C00239A4202D0FFF7C7FF03007C
:102B1000180010BDF8B50400FFF7F0FF051E5ED1E8
:102B200080229200A35C032B50D12D4EA75D012F74
:102B30004CD101002000FFF724FEFF235522F22094
:102B400072215B00E254274B9218E254AE3BFF3BEC
:102B500023706370693A0F334000A370E270215410
:102B6000E620FF3021547531FF316254E822FF32F4
:102B7000A354B033FF33E3580132A354EA22190AB5
:102B8000FF32A154190C0132A154EC221B0EFF326A
:102B9000A35483239B00E3580132A354EE22190A65
:102BA000FF32A154190C0132A154F0221B0EFF3246
:102BB000A35487239B00E25810330132E2500A4BA2
:102BC0002100E05C3B00FFF7B7FDA5550022064B56
:102BD0001100E05CFFF7BEFD431E9841C0B2F8BD96
:102BE00005020000FF010000010200008B239B0092
:102BF000C35870B504000E0000258B4212D0FFF7B9
:102C00007DFF051E0ED1084B3200E05C2100012340
:102C1000FFF784FD002802D00126013576428B2380
:102C20009B00E650280070BD0102000081230022B5
:102C30009B0010B5C2542833013AC2500400FFF77C
:102C4000D5FF0323002821D1FF22114B5200E35C62
:102C5000A25C1B021A430F4912B202238A4215D109
:102C6000228FE38E12041A430B491202120A030048
:102C70008A420BD05234638820881B0403431B0212
:102C8000064A1B0A9B18581E8341DBB2180010BD70
:102C9000FF01000055AAFFFF46415400BABEABFF3A
:102CA0000023F0B5036089B0070008001600FFF7A5
:102CB0003BFE0B23051E17DB9D4B8200D4580C23D3
:102CC000002C11D0F5333C60FF33E35C994F002BAF
:102CD0000DD0E05DFFF700FD0123034007D1002E7A
:102CE00002D0420700D50A23180009B0F0BD8023A6
:102CF00000229B00E8B2E254E055FFF7FBFC0323FF
:102D0000C207F1D4002E01D04307ECD400212000EB
:102D1000FFF78CFF01282DD123000020C733FF339C
:102D20001A1F11780022914209D059781A780902A5
:102D300011439A7812041143DA7812060A4304A95F
:102D40004250043010331028EAD10025022604AB8B
:102D50005B5930000093002B05D019002000FFF7CD
:102D600065FF00280ED00435102DF0D10123032873
:102D700005D1B9E701230328B6D0002801D00D23DF
:102D8000B2E70090227BE37A1202134380221BB247
:102D900092009342F3D1E37DA77D1B021F4300D134
:102DA000676A86239B00E750237C634AA3545A1E1C
:102DB000012AE4D8617B614AA1540029DFD04A1E70
:102DC0001142DCD1A57C627C2D0215438222920047
:102DD000A5522A07D3D1207DE27C0002104300D106
:102DE000206AE67BA27B36021643C8D07B4303935E
:102DF000039A2B099B199B1802939842BFD3C01AC0
:102E0000FDF79EF90028BAD001224D4B019298425D
:102E100005D94C4B83429B415B420233019385238E
:102E2000009A9B000230E0500833E2508823961944
:102E300094468A229B00E650029B92006344A35072
:102E4000019B032B5FD1002D99D18923E26A9B005E
:102E5000E25080003C4BC018400A87428FD3842642
:102E6000012383255B42B600AD00384FA351635167
:102E70008133E355019B032B2CD1230031331A7886
:102E8000013B1B7812021343012B23D10099200030
:102E90000131FFF7ABFE00281CD12B4BE055E25C63
:102EA000013BE35C12021343294A1BB2934211D146
:102EB000284B22689A420DD1F2225200264BA2588A
:102EC0009A4207D1F4235B00E358A351F6235B0039
:102ED000E35863516A46802312799B00E2541F4AEB
:102EE000138801339BB213801D4AA3521D4A1368F5
:102EF0009C4201D100231360D16800238C4200D092
:102F0000F2E6D360F0E6002D00D138E7039B9E196E
:102F100089239B00E650019B022B01D1400099E7D9
:102F200003230122434310405B08181892E7C04670
:102F3000A4000020010200000302000002020000C1
:102F4000F50F0000F5FF0000FF0100000502000082
:102F500055AAFFFF5252614172724161C0000020C8
:102F600006020000A8000020852292008258023943
:102F7000023A03000020914205D2034A985C2632AF
:102F8000414398580818704702020000F7B5012421
:102F900006000D00A1421BD985239B00C35899420E
:102FA00016D280239B00C35C022B2FD0032B40D072
:102FB000A3420DD188234F089B00C3587F18790A7C
:102FC000C9180193FFF712FE002803D001246442C0
:102FD0002000FEBD7B1C590A019388239B00F358F7
:102FE000FF05FF0DC9183000F75DFFF7FFFD002852
:102FF000ECD1019BDB05DB0DF35C1B021F4325427B
:1030000001D03C09E4E73F053C0DE1E7882292004E
:103010000B0A81585918FFF7E9FD0028D6D1FF2384
:103020006D005B001D4073195C78735D24021C43C6
:10303000CEE788229200CB0981585918FFF7D6FDB8
:103040000028C3D1FE23AD005B001D407319DC785E
:103050009A782406120414435B78725D1B021443B1
:103060001C4324012409B3E7F7B506002D4B0D00DE
:10307000F1520233C458012C01D10220FEBD80223E
:10308000852192008358890059588C42F5D2002C32
:1030900025D19A5C032A04D1892292009A58002AE9
:1030A0001ED1822292009A5A9542E6D2892292003B
:1030B000985883239B00F4500028DED02B09181861
:1030C00084239B00F0500F231D40F233FF33F3584D
:1030D0006D015D1985239B00F5500020CEE722008D
:1030E000802714001049BF005B5C1B010193019B0A
:1030F0002100F0599D4202D2FFF736FFD9E7FFF7D2
:1031000045FF0400431C0AD00128B6D98522F35993
:1031100092009B589842B0D2019BED1AE7E701203C
:10312000ACE7C0460602000002020000F7B5050049
:103130000C0016000220012965D985239B00EB585D
:10314000994260D280239B00EF5C874246D0032FD8
:103150005AD0012F57D14B085B18590A0093882386
:103160009B00EB582800C918FFF740FD00284AD102
:10317000009B3C4001330193009BF2B2DB05DB0D69
:10318000002C08D00F21FF20EA5C00010A40310129
:1031900001400A43D2B2EA54812301229B00EA543F
:1031A0008822019B9200A9585B0A59182800FFF752
:1031B0001DFD002827D1019BDA05D20D002C06D079
:1031C0003609F6B2AE54812301229B001AE00F218A
:1031D000AB5C360A8B430E401E43F3E78822920015
:1031E0000B0AA95828005918FFF700FD00280AD13A
:1031F000FF2301225B0064001C402E552C19360A67
:1032000066700633EA54FEBD88229200CB09A958A5
:1032100028005918FFF7EAFC0028F4D1FE23A40087
:103220005B001C402A19D3781B091B071E43330A75
:103230002E555370330C360E9370D670C3E70000D2
:10324000F7B505000F1E0AD183239B00C658002E38
:1032500003D00833C3589E4212D3012610E0FFF773
:1032600095FE0400012847D9431C03D10124644280
:103270002000FEBD85239B00EB583E009842F7D30B
:10328000340085239B00EB58013401939C4204D306
:10329000012E01D80024EBE7022421002800FFF7CB
:1032A00075FE002806D0431CE0D0012824D0B4428B
:1032B000E7D1EFE7114A21002800FFF737FF002888
:1032C00018D1002F0FD1832384229B009200EC5051
:1032D000AB58591CCCD0013BAB500123084AA95C28
:1032E0000B43AB54C4E7220039002800FFF71EFF50
:1032F0000028E8D00128B9D00124B9E7FFFFFF0F6B
:1033000005020000F0B54F4B87B00391C25A04008C
:10331000013201926A4692880493002A02D1042065
:1033200007B0F0BD842292008358002BF7D00F2104
:103330000198084002900FD183278026BF00E159F1
:103340000133A350B600002915D18223A2599B0056
:10335000D35A019A9A42E2D26A46049B928800208C
:10336000E2528022029B9200A2585B01D318852270
:103370009200A350D4E7344AA059019D835C2D09E3
:10338000013B1D4000950592E6D1FFF7FFFD0500CA
:10339000012801D80220C3E7431C01D10120BFE767
:1033A0008523A0599B00C3589D422ED3039B002B1D
:1033B000B5D0E159FFF744FF05000720002DAFD03D
:1033C000012DE7D06B1CE9D08026B600A059FFF78D
:1033D00095FB011EE2D13200A059FFF7D2F9A7599F
:1033E00029003800FFF7C0FD8B239B00F850812790
:1033F000BF00A059059B009AC35C9A4211D38B224F
:103400009200835800995B1A835083239B00E550F8
:103410000C3BE0582900FFF7A7FD84239B00E050F8
:103420009AE70123C355FFF739FB0028B6D18B2259
:10343000A15992008B5801338B50009B01330093AC
:10344000D7E7C046060200000202000001228923DD
:1034500052429B00F0B5C252263BFF3B05001C00C8
:1034600087B0039384239B00E958103BE858FFF78B
:10347000BDFB071E00D087E085239B00EE58337804
:10348000002B00D183E0E52B06D03F22F17A0A40E1
:10349000090707D50F2A07D00122892352429B0032
:1034A000EA524EE00F2A58D188229200AA5802927E
:1034B000002A47D04022134241D093431C00354B91
:1034C000717BEA5A1E330391EA52737B039A93424B
:1034D00037D140220D2733789343013B00225F43CD
:1034E000012301922C4A0199895C72185278705C10
:1034F00012021043002B2CD000F0B8FF0590FE2FD5
:103500001FD87B1C0493029B7F00F85A00F0AEFF8B
:10351000059A0300824214D1049F019A013201925C
:103520000D2ADFD13278520606D5002B04D0029A3C
:103530007B009B5A002B04D1013CE4B202E0A34281
:10354000C3D0FF2400212800FFF7DCFE071E89D02E
:103550001AE0124A9042E0D0F3E7002C05D1300087
:10356000FFF7D4F9039B98420ED0862301219B00DC
:10357000EA58D37A0B408FD1581CF15CD35C994246
:103580008AD103000B28F7D1380007B0F0BD04271B
:10359000FAE7C04606020000C05E0008FFFF000018
:1035A000F0B50B7887B0060001912F2B01D05C2B72
:1035B00002D1019B01330193822300249B00F4502C
:1035C000019B1B781F2B0BD821003000FFF74CFD0F
:1035D00085239B00F45007B0F0BD019B013301939C
:1035E000019B1B782F2BF8D05C2BF6D0882300246E
:1035F0009B00F3580593019B2700185D651C1F284D
:103600001BD92F2819D05C2817D0FF2C0ED00121F0
:1036100000F00EFF002809D07F2809D80023864932
:10362000CA5C002A04D001338242F9D10620D2E7D5
:10363000059B640018532C00DDE7019B00245B19F7
:1036400001931F2383426441A400002FEED0059A0A
:103650007B00D3189A1E1288202A02D02E2A00D06E
:1036600087E0013FF1E7013305995A008A5A202A81
:10367000F9D02E2AF7D0002B02D003221443E4B253
:103680007A000599023A8A5A2E2A02D0013F002F69
:10369000F6D1082202920022150004925A1C0392CD
:1036A000059A5B00985A00287AD0202804D02E284A
:1036B00007D1039BBB4267D003231C43E4B2039BA7
:1036C000ECE7049B029A934262D2039BBB4214D163
:1036D000029B0B2B09D15EE0039BBB4205D0032369
:1036E0001C43039BE4B2BB425AD80B23AD000293A8
:1036F000EDB20397033B0493E1E77F280FD9002144
:1037000000F096FE0023984203D04C4B18188038E6
:10371000037898B202231C43E4B2002807D00023A8
:103720004749CA5C002A79D001338242F9D1032388
:103730005F201C43E4B286239B00F358049A9854FC
:1037400013000133D7E702231D43F4E75B0700D5DD
:1037500041E785239B00F158CB7ADB065CD58023BB
:103760009B00F258D05CFFF789F982239B00F05050
:1037700036E700251D8086239B00F0580B22202170
:10378000FEF7FFFF2B006FE7049B029A93429FD343
:10379000029B0B2BA0D103231C430833E4B20293FA
:1037A00086239B00F3581A78E52A01D1E03A1A7073
:1037B000029B082B01D1AD00EDB20C232B400C2B4A
:1037C00002D0EA43920702D102221443E4B2A207D4
:1037D0000BD403221540012D02D10D321443E4B263
:1037E000042B02D104331C43E4B28625AD00735987
:1037F0000021DC723000FFF737FC002802D13000D6
:10380000FFF724FE7359DB7A00289FD0042800D0EC
:10381000E1E6034200D0DEE60520DCE60300413BA2
:10382000192B90D90300613B192B84D80123203830
:103830001D4380B27FE7C046CD5E0008405E0008B1
:10384000D65E00088623F0B588249B00C65889B050
:10385000A400035905AD07000C2228003100009395
:10386000FEF786FFEB7A01252B4200D177E000239B
:10387000F3723B510B2205A93000FEF779FF2B00B4
:10388000052D47D80F2107228C4603A964461C400A
:1038900020003030392800D90730013A8C18607088
:1038A0001B09F3D17E2088549A4237D0F05C20283F
:1038B00032D120242000072A01D8885C0132F0543C
:1038C0000133072BF6D900213800FFF7CDFB041E8A
:1038D0003CD13800FFF7BAFD041E37D10135642D05
:1038E000C8D10724200009B0F0BD10200231012406
:1038F0001440A44680245B006344640252082342BF
:1039000001D06D4C634001380028F0D10A88002AAC
:10391000EBD1B7E70099F9E70133C5E71300C8E732
:103920000130009A4300D35A002BF9D119300D21F0
:10393000FCF706FC050018E0060001213800FFF73F
:10394000E1FC041E18D0042CCBD0CBE7042CC9D149
:1039500005ABDB7A009AF37288239B00FA5005AB23
:10396000DB7A012500209B07DBD400213800FFF71C
:103970007BFB041EE7D1060084239B00F958103B13
:10398000F858FFF733F9041EDDD185239B00FB585F
:103990001B78E52B01D0002BCED10136B542CCD11E
:1039A000013D002D61D0454B3800F95A491BFFF706
:1039B0005BFB041E00D095E786239B00F858FEF7BA
:1039C000A5FF019084239B00F958103BF858FFF79E
:1039D0000DF9041E00D085E788239B00FB58EAB24E
:1039E0000093852394466A469B00FB5812790D216B
:1039F0005A730F22DA72EAB2013A4A43010018738D
:103A00009876D8762E4CA04203D0009C5000005BE4
:103A100001322C4C0C5D18551C192600040A7470D8
:103A2000002800D1264801310D29EBD124498842D4
:103A300004D000995200525A002A03D16146402214
:103A400011438C46624680211A708123012289002D
:103A500079589B00CA5438000021FFF753FC041E1C
:103A600000D03FE7013D002DACD180268423B60075
:103A70009B00F958B859FFF7B9F8041E00D031E798
:103A80008525AD00202221007859FEF77AFE862395
:103A90009B00F9580B227859FEF76AFE86231821FD
:103AA0009B00FB587A59DB7A0B4013738123BA5978
:103AB00017399B00D15415E72110010006020000C0
:103AC000FFFF0000C05E0008F7B504000D000129EB
:103AD00001D80220FEBD85239B00C2589142F8D236
:103AE00084270093BF00009BE35801939D4205D2B9
:103AF00029002000FFF74AFA061E01D10020E9E75D
:103B00000128E6D0431C12D0002229002000FFF734
:103B10000DFB0028DED1E3595A1C06D00133E351D6
:103B20000123044AA15C0B43A3543500DBE70120C9
:103B3000D0E7C046050200007FB5019003A814003D
:103B400000910391FEF7F0FE0B22002824DB144DB8
:103B500080004359002B0DD0124A11688B4201D1CD
:103B600000211160D6680021B34200D1D1608022CB
:103B700092009954019B002B03D0802200219200D7
:103B800099542B501A1E07D00022012C04D16946EB
:103B900001A8FFF785F80200100004B070BDC04610
:103BA000A4000020A8000020F0B5884C0500A54422
:103BB000039117000926002800D1CDE080230022C0
:103BC0009B00C2501E323A4003A988A8FFF768F84C
:103BD000061E00D0C0E01F233B401820019386231F
:103BE00002A9091805AA9B00CA50794A02A90833FC
:103BF0000918CA5008A80399FFF7D2FC8523182199
:103C000002AA9B005218D45800280AD10630002C72
:103C100007D00123019908A899434B1E9941FEF74B
:103C2000B7FD1C231F426AD0002860D004285CD155
:103C3000684B1A68002A03D0DB680E30002B54D181
:103C400008A8FFF7FFFD00284FD10823019A18218B
:103C50001A438523019202AA9B005218D458019B53
:103C60001B0755D500F022FC002718218022030AEB
:103C7000E373030CA0732374000E02AB9200607414
:103C8000E77227776777A777E7775B189B5821005C
:103C9000985C0293FEF7F2FE8022182102ABA77611
:103CA000E7762775677592005B1802909858812314
:103CB00001229B00C254029BBB4229D08B23029954
:103CC0009B00C758FFF700FF00280ED11821802263
:103CD00002AB5B1892009858029B0C32013B835058
:103CE0003900FEF783FF002812D0060034E01123CC
:103CF000E27A1A4237D17B07B1D508262CE000289A
:103D0000F3D1E37ADA062CD4BA0701D5DB072AD43B
:103D1000019B1B0703D52023019A1A430192182205
:103D2000802702AB9B18BF00DB59019902938B23BC
:103D3000029A9B00D258103BEA500433EC50012306
:103D400099434B1E994108A8FEF758FD8A239B0012
:103D5000E850002809D10226300093239B009D449F
:103D6000F0BD0426F8E70726F6E76A461A4B1279F3
:103D70002100EA540022194BEA54182202AB9B1886
:103D8000DB59D85D0193FEF779FE84239B00E85050
:103D9000627F237F12021A43A37F1B041A43E37F2F
:103DA0001B06134383229200AB50822300229B0008
:103DB000EA501033EA500C33EA50019B064AEB51AB
:103DC0009A5A81239B00EA52C6E7C046B4FDFFFF22
:103DD000C2000020A8000020060200000702000028
:103DE000F0B589B0069300230092069A0400136090
:103DF0000D00FEF7AFFD0190002821D17B4AA35CA6
:103E00000792002B49D17A4FE25D930700D4EAE094
:103E100082239B00E258009989188A4204D80295AF
:103E20000393009B002B0ED182239B00E2580433A6
:103E3000E1588A4200D9D4E02023E25D1343E355E0
:103E4000019809B0F0BD039BE158CB0500D0B2E06A
:103E500080239B00E058674BC25C4B0A013A134039
:103E6000DBB20493002B2AD1002907D184239B00C5
:103E7000E15800290CD1FFF7E3F907E089239B0003
:103E8000E358002B0BD02000FEF724FD011ECBD001
:103E9000012908D10223079AA3540193D0E785236F
:103EA0009B00E158E7E74B1C01D10123F3E7852391
:103EB0009B00E150043BE258002A00D1E15040252C
:103EC000E35D2B4212D080239B00E3582100059331
:103ED000059A494BD05C862292000123A258FEF736
:103EE0002BFC0028E1D1E35DAB43E35580239B002D
:103EF000E358059385239B00E1580598FFF734F8B4
:103F00000028C7D0049BC618009B5D0A37D0394AE9
:103F1000059B9B5C049A52199A4201D9049A9D1AF6
:103F2000354B059A0299D05C2B003200FEF704FC59
:103F30000028BAD186239B00E058861BB5420BD9D6
:103F40008022029B7602991992002000FEF710FC55
:103F50004022E35D9343E3556D02029B039A5B1994
:103F60000293039BE3585B19A350069B069A1B68B8
:103F700004935B191360009B5B1B009351E786233E
:103F80009B00E3589E4213D0039BE3580493832382
:103F90009B00E358049A9A420AD2174B059A2100D3
:103FA000D05C01233200FEF7B9FB002800D07CE78B
:103FB00086239B00E650039B009DE358D80504939D
:103FC0008023C00D9B001B1A9D4200D91D002A00B2
:103FD00020180299FEF7CCFB4023E25D1343E35522
:103FE000BBE7E25028E7072357E7C0460702000077
:103FF00006020000020200000102000073B5040086
:104000000E000A2902D10D21FFF7F8FF6368002B8B
:1040100014DB5D1CE3181E733C2D0BDD210001AB8E
:104020002A000C312068FFF7DBFE019B5D1B6B1E35
:104030009D416D42A36865600133A36073BD0000BC
:10404000F8B50400FEF786FC061E57D12C4FE35D41
:104050009A0653D540252B4211D080239B00E2586D
:10406000284B2100D05C862292000123A258FEF743
:1040700063FB0136002841D1E35DAB43E355872361
:104080009B00E1581C3BE058FEF7B0FD061E35D101
:10409000882320229B00E558EB7A1343EB7283239D
:1040A0009B00E25C2A77E258120A6A77E258120C07
:1040B000AA77E3581B0EEB7784239B00E3581A0A78
:1040C000AB761B0C2B751B0AEA766B7500F0EEF9CC
:1040D0002022030AA875EB75030C000EAE74EE7473
:1040E0002B766876E35D9343E35580239B00E0588D
:1040F0001F3A0433C254FEF70DFD06003000F8BD30
:10410000060200000102000010B50400FFF798FF4E
:1041100000280ED12000FEF71DFC002809D18A23BB
:104120009B00E058FEF7BAFB002802D180239B00D9
:10413000E05010BD30B5194C0D00A544019000228F
:1041400001A986A8FEF7ACFD041E1FD11820862306
:10415000694603AA09189B00CA506946104A091803
:104160000833CA5006A80199FFF71AFA041E0DD1A8
:1041700085236A4618219B005218D358002B0AD079
:10418000002D03D029001000FEF704FC200091232D
:104190009B009D4430BD0624F8E7C046BCFDFFFFF0
:1041A000C20000200EB40022F0B5A0B025AB80CB39
:1041B0000D900E920F9207933978002900D1F7E005
:1041C000252904D001370DA8FFF718FFF4E7797807
:1041D000302935D10126B978FB1C002201920A0052
:1041E000303A1F00092A34D90B00202293434C2B6C
:1041F00003D1483B39781E430137002900D1D7E06D
:104200000A00613A0B00192A01D8203BDBB24F2B80
:104210004CD027D8432B56D0442B5CD0022202929C
:10422000422BD0D1079A700757D5101D07901468FC
:10423000442B5BD1002C59DA082364421E4355E01D
:104240002D2902D0BB1C0026C7E7FB1CB97802262B
:10425000C3E70A20019A4243511830390191197875
:104260000133BCE7552B36D0582B32D0532BAAD173
:10427000079B1D681A1D2B0007925C1B01335A1EF9
:104280001278002AF9D1B30704D4019A230001342B
:1042900093420ED32978002910D1019BA3428BD9D8
:1042A00020210DA8FFF7AAFE0134F6E708220292AA
:1042B000B8E720210DA8FFF7A1FEE6E70DA801351C
:1042C000FFF79CFEE6E7079B19681A1D0792C9B223
:1042D00079E71022EBE70A22E9E7442B03D1131D0B
:1042E00007931468A6E7131D14680793072378291A
:1042F00000D12723DBB2059300230393200002990A
:10430000FBF7A4FF2000CBB20D0002990493FBF74A
:1043100017FF0400092D05D9059A049B94466344B0
:10432000DBB204930C20039B06AA5D1C049B03993B
:10433000303312185354002C03D0102D30D10F23DA
:104340000393330706D50C212D2306AA5218535583
:10435000039D023530230293F30701D420230293F7
:1043600002232C001E400396039B002B04D1019BCB
:10437000661C9C4216D334000C2206AB013D9B18F0
:10438000595D0DA8FFF73AFE002DF5D1019BA34220
:1043900000D811E702990DA8FFF730FE0134F5E7C8
:1043A0000395ABE702990DA8FFF728FE3400DBE781
:1043B0000E9A002A06DA0120404220B0F0BC08BC68
:1043C00003B0184708AB10A90D98FFF709FD0028A6
:1043D000F1D10E9B089A01939342ECD10F98ECE730
:1043E00030B501240E4B5D7AA54216D800245D7AC3
:1043F000EDB25C555D7AAD005D196860587A1818A9
:1044000002725A7AD2B2501CC0B258723A23303279
:104410004B700B3B0A708B70CC70200030BDC046D7
:10442000C402002010B50022FFF7DAFF10BD000023
:1044300010B57F2807D9002906D0FF2811D8803869
:10444000094B4000C05A10BD074A4C00A45A8BB219
:10445000844203D001318029F7D10B008033D8B2D8
:10446000F1E70020EFE7C046DE5E0008002310B54C
:10447000054C5A00115B002903D0814202D1034B45
:10448000D05A10BD0133F4E7DE5F0008BE610008BA
:1044900010B503490348FFF7C5FF034B187010BD63
:1044A000040300200C0000200803002000207047B7
:1044B00030B5102597B0302200210AA801F081F80C
:1044C0002A00002101A801F07CF81422002105A88F
:1044D00001F077F812230A93A02301240E9510957A
:1044E0009B030E3D0AA8129514930D940F94FCF7AC
:1044F000FFFC072302950025210001A801930395E5
:104500000495FCF729FF05A805940795FCF7B8FF6B
:1045100017B030BD10B50400FBF7F6FDFA23C2B2A8
:10452000DB0021000148FEF709F810BDA4090020B6
:1045300010B5012206490748FFF7FEFA064B18702E
:10454000002803D00548FFF7E5FF10BD0448FAE74F
:10455000736400086C070020E40A002074640008FB
:104560009264000870B5204E204C002231002000DB
:1045700001F030F8002500212000FFF7DBFD0028C6
:104580002BD01B4E132221003000FFF70DFB194DDD
:10459000021E287003D01849184801F01BF818496A
:1045A0003000FFF7FFFDC3B22B70002B04D0C2B266
:1045B0001449124801F00EF83000FFF7A5FD021E65
:1045C000287003D010490D4801F004F82000FFF7CF
:1045D000A1FF0E48FFF79EFF70BD01352A00310094
:1045E000200000F0F7FFC6E79E630008080C0020DB
:1045F000140C0020E40A0020A6630008620B0020CF
:10460000B663000849640008E9630008FA6300081B
:1046100010B501220F490020FFF78EFA0E4B1870DB
:10462000002802D10D48FFF775FF0D4C0D4B0E49C8
:104630001A68200000F0CEFF2000FFF76BFF0B4B45
:104640000B491A68200000F0C5FF2000FFF762FF49
:1046500010BDC04673640008E40A0020B36400087B
:10466000620B0020E0020020D6640008E80200206F
:10467000E6640008F8B50D00160000274400A742C4
:1046800000DBF8BD31002800FCF72AFC6420FBF7B2
:1046900013FF0137F3E70000F0B59DB0FBF7EAFE2A
:1046A000FFF706FF1422002114A800F08AFF8021E2
:1046B000D74C09036269D74D0A4362616369D648E2
:1046C0000B4080210493049B626989020A43626162
:1046D00063690B4080210593059B6269C9020A4307
:1046E0006261636900220B4006932900069BFCF778
:1046F000F1FB00224021C948FCF7ECFB0123149593
:10470000002514A9C448159316951795FCF72EFBA0
:10471000402314A91493C1483F3B15931695179550
:10472000FCF724FB01226369290013436361636979
:104730000920134003932A00039BFCF7C9F90920C1
:10474000FCF7F6F9B648B74B0824036082235B00F8
:104750004360E023DB00C36080239B008361F13B67
:10476000FF3BC361093BC3624463856005614561EA
:104770000562456285620563FCF790FFAA4FAB4B6B
:1047800038003B60E1235B027B600C23BD607B61F2
:10479000FD603D61BD61FD613D627D62FDF768FFC9
:1047A000FFF776FE29000C2214A800F00AFFA04EA5
:1047B000A04B012233600123336103337361033B58
:1047C000B3768023DB003362731DDA770123300078
:1047D000B3627560B560F56035767576F576F5612E
:1047E000FBF72CFF80235B011593072314A93000EE
:1047F00016931495FCF798F8012314A9300014932C
:10480000FCF792F8022314A930001493FCF78CF8FB
:10481000032314A930001493FCF786F8042314A989
:1048200030001493FCF780F8052314A9300014938A
:10483000FCF77AF8062314A930001493FCF774F8F7
:10484000072314A930001493FCF76EF814A9300064
:104850001494FCF769F8092314A930001493FCF7A9
:1048600063F81022290009A800F0ABFE22002900FD
:1048700007A800F0A6FE1C2229000DA800F0A1FE4A
:104880002022290014A800F09CFE6B4C6B4B2000EA
:1048900023606B4BA56063600123E3607F33A361FA
:1048A00025616561FDF7C4F9802309A95B0120003A
:1048B0000993FDF76DFA2000FDF7D5F9202307A92C
:1048C000200007930895FDF7F9FA0C220DA92000A6
:1048D0000D950E950F95119512951395FDF71EFAEE
:1048E000802314A99B012000199314951595169502
:1048F000179518951B95FDF715FB012251493800B6
:10490000FDF754FB5048FFF705FE3000FCF78CF82C
:10491000012301934D4D2B78072BFDD81800FBF791
:10492000FBFB040BFB1F22250F5B802252003A4940
:104930000198FFF79FFEEDE74548FFF7EBFDE9E73C
:1049400072B6FFF7F5FDFFF70DFE1222414942480E
:10495000FFF72AF9414B187003232B7062B6D9E791
:1049600080229200E3E703232B70D3E73C4D2F68AE
:10497000002F0CD10A223B493000FBF707FF200033
:10498000FDF7DEF8384B1F60019B2B60C2E7374A0A
:104990001368002BBED000233549136014933C22CA
:1049A00014AB2D48FFF71CFA6A4600902B4B127887
:1049B0003C211A701498FBF74DFC2B4D009B2F687F
:1049C000C7192F60002BA5D02A4D1A002A492800AC
:1049D00000F000FE2800B0E73000FBF721FF2000C8
:1049E000FDF7BEF800221E4B1B481A60FFF78CFB38
:1049F0001A4B021E187003D01F491E4800F0EAFD32
:104A00001E48FFF787FDFFF703FE0023ACE7C04613
:104A1000001002400703000000080048000400489E
:104A2000E80A002000300140A409002000380140BD
:104A3000C80B0020002401409C0A0020002C0140EB
:104A40009F0F00004C0B00201C640008DC020020BB
:104A50003B640008080C0020140C0020E40A00202D
:104A6000D40200204E0B0020E0020020D0020020E3
:104A7000240A0020620B0020446400085B640008E4
:104A8000384A70B51368384C013313602068072822
:104A900011D8FBF74BFB0410222E3A10465200228D
:104AA00001213248FCF716FA002202212F48FCF7B8
:104AB00011FA022323602E4B2E481A682E4C1968D7
:104AC00009318A4245DD1A601A683C2A04DD002259
:104AD0001A602A4B01321A6070BD0122234811006E
:104AE000FCF7F8F9002202212048FCF7F3F9032330
:104AF000E0E701221D481100FCF7ECF90122022138
:104B00001A48FCF7E7F90423D4E7002201211748EB
:104B1000FCF7E0F9002202211448FCF7DBF9062338
:104B2000C8E7012211481100FCF7D4F90022022144
:104B30000E48FCF7CFF90723BCE701220B48110010
:104B4000FCF7C8F9012202210848FCF7C3F9002349
:104B5000B0E719685500511A4900095A013289B263
:104B60002953ACE7E8020020E402002000080048D6
:104B7000D80200204E0B0020240A0020D002002082
:104B8000FA2337B51D4C1E4D9B0001222100280041
:104B9000FDF7D4FC1B48FFF7BDFC012221002800D3
:104BA000FDF704FA184B1A78032A0ED0052A15D0FF
:104BB000002A18D12278642A02D15E3A1A7037BDD1
:104BC0006278682A0FD1673AF8E72278732A01D110
:104BD0006E3AF3E7762A06D1723AEFE72278662A30
:104BE00001D15F3AEAE76B46D91D65230B70FA23C2
:104BF00001229B002800FDF7A1FCE0E74C0B002000
:104C0000A409002072640008DC0200207047000044
:104C100001200A4B82B099690143996180219A6908
:104C2000490502400092009ADA690A43DA61DB69B9
:104C30000B400193019B02B07047C0460010024038
:104C400070B5060088B01422002103A800F0B9FC5A
:104C5000254B32689A4244D18020244B80009969C8
:104C60000324014399619A69002502408020009243
:104C7000009A596980020143596180215A69C90229
:104C800002400192019A5A6990200A435A615B6975
:104C9000C0050B400293029BFF2303A903930494D6
:104CA000FCF764F8124803A9039404940595FCF7F3
:104CB0005DF8104C104B200023608023E360DB186C
:104CC00023618023DB00636120236560A560A3610D
:104CD000E561FBF753FFA84201D0FFF797FF34636C
:104CE000666208B070BDC04600240140001002405A
:104CF00000040048840B00200800024010B50400A6
:104D000088B01422002103A800F05BFC114B22683C
:104D10009A421CD18020104B40019969014399614E
:104D200080219A69C90202400192019A5A690B488E
:104D30000A435A615B690B400293029B3823039339
:104D4000363B049303A901330693FCF70FF808B030
:104D500010BDC04600300140001002400004004871
:104D6000084B026882B09A4209D18020064A0001AD
:104D7000916901439161936903400193019B02B0E2
:104D80007047C046002C01400010024010B50400DE
:104D900088B01422002103A800F013FC174B2268EE
:104DA0009A4228D18020164BC0019969014399612C
:104DB00080219A69890202400192019A5A699020E1
:104DC0000A435A615B69C0050B400293029BC023F2
:104DD000DB000393022304930133069303A9023BF0
:104DE0000793FBF7C3FF00221B201100FBF770FEA7
:104DF0001B20FBF79DFE08B010BDC04600380140E7
:104E000000100240084A1378002B03D01378013BAE
:104E1000DBB21370054A1378002B03D01378013BE3
:104E2000DBB213707047C046410E0020400E0020D8
:104E30007047FEE77047704710B5074A1378013393
:104E4000DBB213701378092B03D900231370FFF71B
:104E5000D9FFFBF71FFB10BDEC02002010B5024884
:104E6000FBF73AFF10BDC046840B002010B5024886
:104E7000FDF758F910BDC046A40900200A4B10B533
:104E800019680200002901D10849196069461868AB
:104E900082188A4206D900F061FB0C2303600120CE
:104EA000404210BD1A60FCE7F0020020500E0020C6
:104EB000704710B500F00CF910BD10B500F09CF96A
:104EC00010BD10B500F0A2F910BD10B500F0E2F968
:104ED00010BD10B500F030FA10BD000010B50F2164
:104EE0001724322386B069446C4408702200009372
:104EF0000348313BFCF730FC207806B010BDC046BB
:104F0000E80A002070B50500FBF7D0FA0600FF2084
:104F1000FFF7E4FF0400FF2804D0FBF7C7FA801B6B
:104F20008542F4D8FF3C6042604170BD10B501225B
:104F300040210348FBF7CEFFFF20FFF7CFFF10BD56
:104F40000004004810B5002240210948FBF7C2FFC9
:104F5000FF20FFF7C3FFFA204000FFF7D3FF041E36
:104F600003D1FFF7E3FF200010BD0124FBE7C0469B
:104F70000004004843B270B504000D00002B07DAAE
:104F800000213720FFF7F6FF012836D87F231C4089
:104F90000C2C2AD140202043FFF7A0FF280EFFF75A
:104FA0009DFF280CC0B2FFF799FF280AC0B2FFF797
:104FB00095FFE8B2FFF792FF9520002C03D0012067
:104FC000082C00D18630FFF789FF0C2C02D1FF207E
:104FD000FFF784FF0A24FF20FFF780FF03060CD5AC
:104FE000013CE4B2002CF6D107E0FFF79FFFFFF78A
:104FF000A9FF0300FF20002BCCD170BD70B50400C9
:10500000FA2040000D00FFF77DFF00281CD028008B
:10501000FFF764FF0120FD2D16D080239B00E518CB
:1050200020780134FFF75AFFAC42F9D1FF20FFF797
:1050300055FFFF20FFF752FFFF20FFF74FFF1F2311
:10504000184005384342584170BD000010B50400B7
:10505000FBF72CFA024B1860024B1C6010BDC046D7
:10506000440E0020480E002010B5FBF71FFA044B39
:105070001B68C01A034B1B6898428041404210BD18
:10508000440E0020480E002070B50400C8200D001A
:10509000FFF7DCFFFF20FFF721FFFF2805D1FFF717
:1050A000E3FF0028F6D1002070BD6519FE28FAD173
:1050B000FF20A54206D1FFF711FFFF20FFF70EFFEB
:1050C0000120F1E7FFF70AFF20700134F0E700004C
:1050D000F7B50123002805D1444D2B789B0703D554
:1050E0002B78DBB21800FEBD80220A24404F3B68BB
:1050F0001A62013CFF20E4B2FFF7F0FE002CF8D169
:1051000021002000FFF736FF0600012864D1FA20B5
:105110008000FFF79BFFD52108204900FFF72AFFF9
:10512000012841D12600FF20FFF7D8FE01AC305501
:105130000136042EF7D1A378012B4DD1E378AA2BA9
:105140004AD18026F605FFF78FFF002825D1FFF70B
:105150008BFF002840D000213A20FFF70BFF0028EA
:105160003AD10600FF20FFF7B9FEA0550136042E04
:10517000F8D123780C245B0600D434001D4B1C703E
:10518000FFF7D4FE0123002C05D008223B681A62E9
:105190002B78073A93432B70A2E73100A920FFF741
:1051A000E9FE0028CFD1D2E72100A920FFF7E2FED7
:1051B0003400012801D80224A926FFF755FF002852
:1051C0000CD1FFF751FF002806D080211020890064
:1051D000FFF7D0FE0028D1D00024CFE70021300017
:1051E000FFF7C8FE0028E8D1EBE7C046200000200A
:1051F000E80A0020F40200200123002802D1024B1B
:105200001B78DBB2180070472000002070B5060044
:105210000D001C0011000420002E1ED1002B1CD0FC
:105220001A4B01381B78DB0717D4194B1B781B0767
:1052300000D45102012C11D11120FFF79BFE002850
:1052400006D1802128008900FFF71EFF4442444117
:10525000601E8441FFF76AFEE0B270BD1220FFF7C6
:1052600089FE0028F4D18026B60031002800FFF71F
:105270000BFF002805D08023013C9B00ED18002C7B
:10528000F3D100210C20FFF775FEE1E7200000209C
:10529000F4020020F8B507000D0016001C000420E1
:1052A000002F22D1002B20D0214B01381A78D207B1
:1052B0001BD41B7801385B0717D41E4B1B781A07C9
:1052C00000D47602012C11D131001820FFF752FED4
:1052D00000282AD1FE212800FFF790FE44424441D5
:1052E000601E8441FFF722FEE0B2F8BD06221342A1
:1052F00003D021009720FFF73DFE31001920FFF772
:1053000039FE0028ECD1FC212800FFF777FE0028A9
:1053100005D08023013C9B00ED18002CF3D1FD212A
:105320000020FFF76BFE0028DAD10124D8E7C04641
:1053300020000020F40200207FB51500042400287E
:105340001CD16E4B013C1B78DB0717D4042900D914
:10535000D2E00800FAF7EAFE0309D04C9B00FFF701
:10536000F1FD44424441E4B206E000210920FFF788
:1053700001FE041E05D00124FFF7D8FD200004B073
:1053800070BD10216846FFF77FFE0028F3D06B4602
:1053900069461878DA7980091B7A497A01280AD196
:1053A000FC201204800302401B02013259185218DB
:1053B00092022A60E0E79B0992009A186B46C0208F
:1053C0009B7900019B020340D3186A460F20527953
:1053D000490002406846807A0133C009121806204D
:1053E000023201405218D2B2093A93402B60C3E70F
:1053F0000423434C217819401BD000218D20FFF756
:10540000B9FD0028B7D1FF30FFF768FD10216846CD
:10541000FFF73AFE0028AED03024013CFF20E4B272
:10542000FFF75CFD002CF8D16B469A7A1023120925
:10543000DBE70920FFF79EFD061E9CD11021684680
:10544000FFF722FE002800D195E702206B466A464E
:1054500024789B7A0440D17A002C0DD07E225B0008
:1054600013406A46527BC9095B1892090133013A1D
:10547000934034002B607FE71820CA00024049099E
:105480005B065218DB0E013201335343AEE70623AD
:105490001B4C22781A4200D16DE76A460B2100208E
:1054A000FFF74AFF002800D065E76B461B789B0991
:1054B00004D16B469B7A5B0600D45CE723782968AD
:1054C0006D681B0701D449026D022020FFF752FDD1
:1054D000002800D04FE729002130FFF74BFD011EC7
:1054E00000D048E72620FFF745FD002800D042E71E
:1054F0000448FFF707FD34E704243DE720000020BF
:10550000F4020020307500000D4885460D480E4914
:105510000E4A002302E0D458C4500433C4188C420D
:10552000F9D30B4A0B4C002301E013600432A24272
:10553000FBD3FFF7BDFC00F017F8FFF7ADF8FEE76F
:105540000020002000000020880000204C6500089A
:1055500088000020500E0020FEE70000014B186874
:105560007047C0462400002070B500260C4D0D4C3D
:10557000641BA410A64209D1002600F043FC0A4D8A
:105580000A4C641BA410A64205D170BDB300EB58B1
:1055900098470136EEE7B300EB5898470136F2E73B
:1055A0004465000844650008446500084865000833
:1055B000002310B59A4200D110BDCC5CC454013315
:1055C000F8E703008218934200D170471970013345
:1055D000F9E700000EB410B59DB002A90290086171
:1055E0000B48822488604861012040421FABC8817B
:1055F000084804CBA400006801938C8100F06EF889
:105600000023029A13701DB010BC08BC03B01847E9
:10561000FFFFFF7F24000020F0B58E6885B00700F3
:105620000C00039201939E4239D890238A89DB00B3
:105630001A4234D00325096923685B1A029363690F
:1056400002985D43EB0F5D19019B6D1001331B1830
:10565000AB4200D91D00530532D52900380000F0B7
:1056600031FB061E09D10C233B6040230120A28997
:1056700040421343A38105B0F0BD029A2169FFF7B0
:1056800097FFA389144A1A4080231343A381029BE6
:105690002661F61826606561019EED1AA560019BE2
:1056A000B34200D21E0032000399206800F0ADFA28
:1056B000A36800209B1BA36023689E192660DAE77D
:1056C0002A00380000F05CFB061EE0D1216938009A
:1056D00000F0AEFAC7E7C0467FFBFFFFF0B59FB012
:1056E000029005938B890F0016001B0611D50B69DC
:1056F000002B0ED1402100F0E5FA38603861002817
:1057000005D10C23029A013813601FB0F0BD40236D
:105710007B61002306AD6B6120336B761033AB7673
:1057200034002378002B47D1A31B04930DD0A31B77
:10573000320039000298FFF76FFF431C00D1B5E03B
:105740006A69049B944663446B612378002B00D103
:10575000ACE00122002352426A6002A9543252187E
:1057600001342B60EB60AB601370AB65584E0522C3
:105770002178300000F03EFA621C002820D1296810
:10578000CB0604D5532302AE20309B1918700B07AB
:1057900004D553232B2002AE9B19187023782A2B93
:1057A00016D000200A21099B2278303A092A55D9BF
:1057B000002815D0099313E0252BB5D00134B0E7AC
:1057C0000123801B8340296814000B432B60CDE725
:1057D000059B181D1B680590002B39DB09931400ED
:1057E00023782E2B0BD16378621C2A2B3ED1059B8C
:1057F00002341A1D1B680592002B34DB0793354ECB
:1058000021780322300000F0F5F9002806D040236B
:10581000801B83402A68013413432B6021780622C1
:105820002D48661C297600F0E5F9002846D02B4B60
:10583000002B2FD12968059B0722C90528D59B1865
:105840009343083305936B69039A9B186B6167E771
:105850005B42EB6002230B432B60C0E74B430134F8
:105860009B180120A0E701235B42C7E70023140037
:105870000A201A006B6021783039092903D9002BDE
:10588000BDD00792BBE74243013452180123F2E72F
:105890000733D5E705AB00933A00114B2900029876
:1058A00000E000BF0390039B0133CCD1BB890B9870
:1058B0005B0600D429E70120404226E705AB0093B0
:1058C0003A00074B2900029800F07AF8EAE7C04650
:1058D00011650008176500081B650008000000003E
:1058E00019560008F7B5150001938A680B690090F6
:1058F0000C00934200DA130022002B60433212782E
:10590000002A01D001332B6023689B0602D52B6847
:1059100002332B60062723681F4027D02300433320
:105920001B785A1E93412268920630D422000199B6
:1059300043320098089EB047431C25D006232068B8
:105940002A68E16803400025042B03D18D1AEB433C
:10595000DB171D40A3682269934201DD9B1AED18F5
:105960000027BD4220D1002010E00137E3682A68FB
:105970009B1A9F42D2DA2200012319320199009822
:10598000089EB047431CF0D101204042FEBD3020AC
:10599000E1184331087021005A1C45310978A218DA
:1059A000433202331170C1E7220001231A320199F8
:1059B0000098089EB047431CE6D00137D1E70000AD
:1059C000F0B58BB006920A0043320793059004921B
:1059D0000A7E0C00109B6E2A00D18FE017D8632A34
:1059E0002CD008D8002A00D199E0582A54D026009B
:1059F0004236327029E0642A01D0692AF7D1216841
:105A00001A68080623D5111D1960156825E0732A48
:105A100000D188E008D86F2A29D0702AE7D1202247
:105A200009680A43226003E0752A20D0782ADED173
:105A300022007821453211706C4A30E00E001A685D
:105A40004236111D196013683370012379E049064D
:105A5000D9D5111D19600023D55E002D03DA2D2341
:105A6000049A6D421370624B0A2703932FE020685B
:105A70001968050603D5081D18600D6805E0400685
:105A8000F9D50D68081D1860ADB2594B082703936E
:105A90006F2A18D00A2716E045310A70544A03923B
:105AA0001A682168101D18601568080622D5CB07F2
:105AB00002D52023194321601027002D03D1202374
:105AC00022689A4322602300002243331A706368DD
:105AD000A360002B5CDB0422216891432160002D30
