:020000040800F2
:1000000000200020FD570008495700084B57000802
:1000100000000000000000000000000000000000E0
:100020000000000000000000000000004D57000824
:1000300000000000000000004F5700085157000862
:100040004D5800084D5800084D5800084D580008FC
:100050004D5800084D5800084D5800084D580008EC
:100060004D580008755700084D5800084D580008B5
:100070004D5800084D5800084D5800084D580008CC
:100080004D5800084D580008000000004D58000869
:100090004D5800084D5800084D5800084D580008AC
:1000A0004D5800084D5800084D5800088557000865
:1000B0004D580008000000004D58000800000000E6
:1000C00010B5064C2378002B07D1054B002B02D02E
:1000D000044800E000BF0123237010BD8800002009
:1000E00000000000F8600008044B10B5002B03D09E
:1000F0000349044800E000BF10BDC04600000000F6
:100100008C000020F86000080023C25C0133002A44
:10011000FBD1581E7047000002B4714649084900DF
:10012000095649008E4402BC7047C04602B471466D
:1001300049084900095C49008E4402BC7047C0462A
:10014000002243088B4274D303098B425FD3030A16
:100150008B4244D3030B8B4228D3030C8B420DD329
:10016000FF22090212BA030C8B4202D312120902B7
:1001700065D0030B8B4219D300E0090AC30B8B42F5
:1001800001D3CB03C01A5241830B8B4201D38B03A3
:10019000C01A5241430B8B4201D34B03C01A524148
:1001A000030B8B4201D30B03C01A5241C30A8B428B
:1001B00001D3CB02C01A5241830A8B4201D38B0276
:1001C000C01A5241430A8B4201D34B02C01A52411A
:1001D000030A8B4201D30B02C01A5241CDD2C3098C
:1001E0008B4201D3CB01C01A524183098B4201D308
:1001F0008B01C01A524143098B4201D34B01C01AF3
:10020000524103098B4201D30B01C01A5241C3086A
:100210008B4201D3CB00C01A524183088B4201D3D9
:100220008B00C01A524143088B4201D34B00C01AC5
:100230005241411A00D20146524110467047FFE731
:1002400001B5002000F0F0F802BDC0460029F7D04B
:1002500076E7704703460B437FD4002243088B4266
:1002600074D303098B425FD3030A8B4244D3030B3D
:100270008B4228D3030C8B420DD3FF22090212BA02
:10028000030C8B4202D31212090265D0030B8B427E
:1002900019D300E0090AC30B8B4201D3CB03C01A68
:1002A0005241830B8B4201D38B03C01A5241430B43
:1002B0008B4201D34B03C01A5241030B8B4201D333
:1002C0000B03C01A5241C30A8B4201D3CB02C01A9E
:1002D0005241830A8B4201D38B02C01A5241430A16
:1002E0008B4201D34B02C01A5241030A8B4201D305
:1002F0000B02C01A5241CDD2C3098B4201D3CB01AC
:10030000C01A524183098B4201D38B01C01A52415A
:1003100043098B4201D34B01C01A524103098B425E
:1003200001D30B01C01A5241C3088B4201D3CB0049
:10033000C01A524183088B4201D38B00C01A52412C
:1003400043088B4201D34B00C01A5241411A00D2DC
:1003500001465241104670475DE0CA0F00D0494245
:10036000031000D34042534000229C4603098B42B5
:100370002DD3030A8B4212D3FC22890112BA030A3D
:100380008B420CD3890192118B4208D389019211BF
:100390008B4204D389013AD0921100E08909C30944
:1003A0008B4201D3CB01C01A524183098B4201D346
:1003B0008B01C01A524143098B4201D34B01C01A31
:1003C000524103098B4201D30B01C01A5241C308A9
:1003D0008B4201D3CB00C01A524183088B4201D318
:1003E0008B00C01A5241D9D243088B4201D34B0033
:1003F000C01A5241411A00D20146634652415B1075
:10040000104601D34042002B00D549427047634655
:100410005B1000D3404201B5002000F005F802BD9A
:100420000029F8D016E770477047C04670B5050040
:10043000FA200D4B80001978FFF782FE0B4B01006C
:100440001868FFF77DFE00F07FFB04000120002C00
:1004500009D1032D07D802382200290000F038FB0B
:100460002000034B1D6070BD000000200C00002028
:10047000040000201023064A10B5116800200B4329
:100480001360FFF7D3FF05F04FF8002010BDC04602
:1004900000200240034A044B11681B785B1813606C
:1004A0007047C046F802002000000020014B186889
:1004B0007047C046F802002070B50400FFF7F6FF51
:1004C0000500631C02D0044B1B78E418FFF7EEFF15
:1004D000401B8442FAD870BD00000020032103684D
:1004E00070B59A6804000A40012A01D0002070BD4E
:1004F0001968114202D1DA681204F7D505229D6805
:100500001540012D1AD1022299680A439A600322EC
:100510001A60FFF7CBFF060023689B682B42E5D0EB
:10052000FFF7C4FF801B0228F6D91023A26B01201D
:100530001343A363E36B1D43E563D8E71023012056
:10054000A26B1343A363E36B0343E363CFE70000B2
:10055000002373B503210193036804009A680A40DD
:10056000012A07D11968114201D0002076BDDA684E
:100570001204FAD49968194A114208D010230120B4
:10058000A26B1343A363E36B0343E363EEE7012230
:1005900099680A439A60124B12491868FFF7D0FD18
:1005A0000190019B002B15D1FFF780FF012506006C
:1005B00023681B682B42D8D1FFF778FF801B0228E5
:1005C000F6D91023A26B01201343A363E36B2B43E3
:1005D000E363CBE7019B013B0193E2E71700008057
:1005E0000C00002040420F000422036870B5996897
:1005F0000400114201D1002070BD9968114206D05B
:100600009A68920703D4102299680A439A60FFF708
:100610004DFF0425060023689B682B42EBD0FFF7B3
:1006200045FF801B0228F6D910230120A26B13433B
:10063000A363E36B0343E363DEE70000F8B5040064
:100640000120002C73D0A36B002B06D12200343282
:10065000E3632000137004F07FFFA36BDB0600D57B
:100660007AE0042223689868104000D074E0A26BFE
:100670004349114002220A430321A2639A680A40B7
:10068000012A00D06EE01968114202D1DA68120422
:1006900068D5DA683B490A40DA60257E627EAD03A0
:1006A000D2031543A26AA17E013A561EB241160337
:1006B000E2684F03154322692F43022A00D1042028
:1006C000621DD27F52003A4332430243E07E01284A
:1006D00004D100292CD1802149020A43C220E169BA
:1006E000FF30814202D0206A01430A438020D9684A
:1006F00040051143D960E16A814202D0481E0628B4
:1007000007D8072558692940A8435861586901430B
:100710005961DB681C490B409A4211D10020032229
:10072000E063A36B93431A0001231343A363F8BD53
:100730002021A56B2943A163E16B0843E063CDE76A
:100740001222A36B012093431A0010231343A363C7
:10075000E36B0343E363EAE71023A26B0120134337
:10076000A363E4E71821DA688A43A1680A43DA60E0
:1007700019696268890089081143196189E7C046CF
:10078000FDFEFFFF1902FEFFE7FF3F83F7B5036899
:1007900004009B680F00019202205B0730D4260002
:1007A00034363378012B2BD001233370637E012B39
:1007B00027D1A36B164A00251A4080235B00134300
:1007C000A363206B134BE56335708362124B216882
:1007D000C362124B03631C230B604A680C3B134338
:1007E0004B600123CA681343CB603A004031019B40
:1007F00000F0F6F904232800226891680B43936007
:10080000FEBD2000FFF7A4FE0028F9D1D1E7C046C5
:10081000FEF0FFFF91080008030900080F09000817
:10082000F8B506003436337804000225012B20D0B9
:1008300001273770FFF7D8FE051E18D12268206BFC
:10084000D368BB43D36000F006FA051E03D04023F3
:10085000A26B1343A3631021226853688B43536038
:10086000002808D12000FFF739FE051E07D000231D
:1008700033702800F8BD2000FFF730FEF7E7A36BC8
:10088000024A1A4001231343A363F0E7FEFEFFFF71
:100890005022436A10B5996B11422AD1996BB1323B
:1008A000FF320A43C0219A631A680901D0680842DE
:1008B00012D1997E00290FD1116809070CD59168D2
:1008C00049070DD40C205168814351609A6B0B4944
:1008D000114001220A439A63180004F05DFD10BD27
:1008E0002022996B0A439A630122D96B0A43DA6387
:1008F000F2E71B6B1B6B9847F1E7C046FEFEFFFF5C
:10090000704710B5406AFFF7FBFF10BD70474023EA
:10091000406A10B5826B134383630423C26B134395
:10092000C363FFF7F3FF10BDF7B500230400019385
:100930003434237805000220012B2BD001232A68B0
:10094000EE6A9068237040075AD430484F680D68AB
:1009500087423FD0AB4018008023976A5B0538433D
:1009600090629E420FD0013E062E0CD98B68072163
:1009700050690840834206D050690B40884350615B
:100980005069034353612B00103B022B03D9002015
:1009900000232370FEBD1E4A80231168102D15D040
:1009A000112D15D05B040B431360102DEFD1194BA3
:1009B00019491868FFF7C4FB0A2358430190019BAB
:1009C000002BE4D0019B013B0193F8E71B04EAE70D
:1009D000DB03E8E7AB40916A99432B00103B91623F
:1009E000022BD4D80A4B1A68102D05D0112D05D032
:1009F0000A490A401A60CAE70949FAE70949F8E7CB
:100A00002022A96B18000A43AA63C1E70110000065
:100A1000082701400C00002040420F00FFFFFFFEAE
:100A2000FFFF7FFFFFFFBFFFF8B5060034363378C6
:100A300004000220012B42D00123032133702368DC
:100A40009A680A40012A05D11968114238D1DA683A
:100A5000120435D4A26B1D49114002220A4303211E
:100A6000A263DD68DA688A43DA6080229968120638
:100A70000A439A60FFF71AFD070023689A68002A64
:100A80000EDB0322D96815400D43DD60A36B002007
:100A900093431A0001231343A363002333700EE032
:100AA000FFF704FDC01B0228E7D91222A36B012027
:100AB00093431A0010231343A36300233370F8BD3C
:100AC0002023A26B01201343A363E6E7FDFEFFFF93
:100AD00070B58901002812DB8308134A03249B00A8
:100AE0009B18FF222040A0401400C02584401140E4
:100AF0008140AD005E59A6433143595170BD032476
:100B00000F23C0B203402040A040FC342500214008
:100B100085408140083B054A9B089B009B18DA6989
:100B2000AA431143D961E9E700E100E000ED00E0EC
:100B3000002805DB1F2318401E3B8340014A136039
:100B40007047C04600E100E0094A431E012093427D
:100B50000DD8C021074A08485360036A09061B02E2
:100B60001B0A0B4303620020072390601360704749
:100B7000FFFFFF0010E000E000ED00E070B50400B2
:100B80000120002C24D002232068A51CEB770268EA
:100B9000104BA1681A4063680B43E1680B4321695D
:100BA0000B4361690B43A1690B43E1690B43134399
:100BB0000360094B1421C018FFF7C2FA074B8000ED
:100BC0002064E36300200123A063E418EB77E0775F
:100BD00070BDC0460FC0FFFFF8FFFDBF0000024020
:100BE000F0B5461CF57F0224012D26D00125F577AE
:100BF0000519AC46ED7F0027EDB2012D29D16646DF
:100C0000F477046887632668076CAE43BD402660AE
:100C1000C66B7560636043680568102B0FD1A260D6
:100C2000E160C36A2268002B0CD00E2313432360BB
:100C3000012300242A6813432B602000F0BDA1602B
:100C4000E260EEE70A231343042223602368934300
:100C5000EDE7F777F1E730B5851CEB7F441C022BFD
:100C600005D00423836300230120E37730BD0E21E8
:100C700003681A688A431A6001221968914319604F
:100C8000016CC36B1000884058600020EA77E07761
:100C9000ECE770B5841CE37F022B04D0042383634C
:100CA000033B180070BD0E210368056C1A688A4367
:100CB0001A6001221968914319601100A940C36BA1
:100CC0005960E27700248318426BDC771300A2425C
:100CD000E7D090472300E4E7F8B504273E00016C15
:100CE000C26B8E40156803681C682E420DD03C42D2
:100CF0000BD01968890602D41968B9431960C36A10
:100D00005660002B19D0984717E002273E008E400E
:100D10002E4213D03C4211D01968890606D40A2409
:100D20001968A14319600121C319D97756600022BF
:100D3000431CDA77836A9342E5D1F8BD0826370071
:100D40008F403D42F9D03442F7D00E251C68AC43A9
:100D50001C6001231C008C405460821C8363D37789
:100D60000022C318DA77036BE5E70000F0B50B68E3
:100D700087B0029300230191029ADA4001D107B0B3
:100D8000F0BD01229A4003920399029A0A40009210
:100D900000D18CE0019A1021526816008E43022E79
:100DA0000ED107251D40AD000139A940DC08A40083
:100DB0000419276A8F4301990969A9400F432762E3
:100DC00003245F00BC40E4430568013E2540AC4677
:100DD00003251540BD4061460D430560012E0FD827
:100DE00001998668CD682640BD40354385604668D8
:100DF000039915098E4301210D409D4035434560FF
:100E0000C56801992C408D688021BD4049052C435F
:100E1000C4600A424BD00121264C0326A5691E401E
:100E20000D43A561A4699D080C400594059C0F2401
:100E30002149AD00B6006D18B4409021AF68C905D6
:100E4000A743002488420CD01C490134884208D0B2
:100E50001B490134884204D01A490334884200D126
:100E6000023CB44000993C430E00AC60164CCD43AC
:100E700027683E43D10301D43E002E4026606768B8
:100E8000009E3E43910301D43E002E406660A76859
:100E9000009E3E43D10201D43E002E40A660E6688B
:100EA000009F3743920201D42E403700E7600133A0
:100EB00062E7C04600100240000001400004004804
:100EC00000080048000C004800040140002A01D03E
:100ED000816170478162FCE74369194200D00904CF
:100EE00081617047F0B5040085B0002802D101206F
:100EF00005B0F0BD0368DB072ED423689B077ED4C2
:100F000023681B0700D5BAE023685B0700D5DDE046
:100F10002368DB061AD56269B44D0423012A00D088
:100F200049E1696B02260B436B636B6B1A436A637F
:100F3000FFF7BCFA07006B6B334200D134E1F821B4
:100F40006A6BA3698A43DB0013436B63236A002B3C
:100F500000D057E10020CBE70C21A44D6A680A407D
:100F6000042A06D06B680B40082B09D16B68DB03A1
:100F700006D52B689B03C0D56368002BBDD1B6E7AF
:100F80006368012B13D180232A685B0213432B6013
:100F9000FFF78CFA80260700B6022B683342ACD1EB
:100FA000FFF784FAC01B6428F7D90320A0E7002BC1
:100FB00015D12B688E4A802613402B602B688D4AF2
:100FC000B60213402B60FFF771FA07002B6833421B
:100FD00093D0FFF76BFAC01B6428F7D9E5E7052B20
:100FE00005D180232A68DB0213432B60CBE72B68F3
:100FF0007F4A13402B602B687E4A1340C7E70C22C0
:101000007A4D6B68134206D06B681340082B11D1E0
:101010006B68DB030ED42B689B0703D5E368012BB9
:1010200000D064E7F8212A6823698A43DB00134370
:101030002B6065E7E2680123002A0FD02A680226A8
:1010400013432B60FFF732FA07002B683342E9D1D4
:10105000FFF72CFAC01B0228F7D9A6E72A68022658
:101060009A432A60FFF722FA07002B68334200D127
:1010700046E7FFF71BFAC01B0228F6D995E7E2699D
:1010800001235A4D002A10D06A6A022613436B626C
:10109000FFF70CFA07006B6A334200D034E7FFF722
:1010A00005FAC01B0228F6D97FE76A6A02269A432E
:1010B0006A62FFF7FBF907006B6A334200D123E74E
:1010C000FFF7F4F9C01B0228F6D96EE78022002151
:1010D000464D5205EB690091134208D1EB69134369
:1010E000EB61EB6913400393039B0123009380277B
:1010F000414E7F0033683B4206D0A368012B13D1D9
:101100002A6A13432B6230E033683B433360FFF7B6
:10111000CDF9019033683B42EFD1FFF7C7F9019B4E
:10112000C01A6428F6D940E70122002B14D12B6A9B
:10113000022793432B622B6A033293432B62FFF700
:10114000B5F906002B6A3B4225D0FFF7AFF92B4BD0
:10115000801B9842F6D928E7052B0BD1296A013B61
:101160000B432B622B6A1A432A62FFF79FF902276F
:1011700006000DE02B6A934304222B622B6A9343F3
:10118000C0E7FFF793F91D4B801B984200D90CE78D
:101190002B6A3B42F5D0009B012B00D0B8E6EB69EF
:1011A000174A1340EB61B3E6FFF780F9C01B022832
:1011B00000D8C0E6F9E6053203D16A6B9A436A6348
:1011C000BDE66A6B0226134301226B636B6B93438C
:1011D0006B63FFF76BF907006B6B334200D1B5E629
:1011E000FFF764F9C01B0228F6D9DEE600100240C2
:1011F000FFFFFEFFFFFFFBFF0070004088130000B1
:10120000FFFFFFEF0C20354A516815000140082907
:1012100047D0334A022B32D12B68802613402B60F3
:10122000FFF744F90700B6042B68334221D10F229F
:10123000EB6A9343E26A1343EB62616AA36A6A68EA
:101240000B43284980240A4013436B6080232A689B
:101250005B0413432B60FFF729F90600A4042B68F5
:10126000234200D076E6FFF721F9801B0228F6D949
:101270009BE6FFF71BF9C01B0228D5D995E62B6822
:10128000802413402B60FFF711F90600A4042B689B
:10129000234200D15EE6FFF709F9801B0228F6D948
:1012A00083E61800012B00D122E680215368656A8D
:1012B0004902D26A19400120A94200D018E60F2144
:1012C0000A40E16A8A4200D012E6F020800303401F
:1012D000A06A1B1A581E8341D8B209E600100240CA
:1012E000FFFFFFFEFFFFC2FF70B5144C88B0102255
:1012F0002100684604F0D6FA210004AD1022103116
:10130000280004F0CFFA0C220D4E73681A40082A08
:1013100011D10F206A46990C0140545CF26A0240D8
:10132000A95CDB0305D50748FEF70AFF604308B058
:1013300070BD0548FAE70348F9E7C04610610008A8
:101340000010024000127A0000093D00F7B50500C8
:101350000F00002801D10120FEBD0122374C236877
:1013600013408B421CD329688B0722D4CB072FD480
:10137000012322681A40974251D32B68304C5B07F7
:1013800054D4FFF7B1FF63682E4A1B061B0FD35CD2
:10139000D8402D4B18600020FFF748F80020DBE70D
:1013A000236893430B432360236813409942D2D1AF
:1013B000D9E7234A4B0704D5E0235068DB000343F9
:1013C0005360F02053688343A86803435360CDE71C
:1013D0001B4E6A683368012A19D19B03BBD50321D0
:1013E00073688B4313437360FFF760F801900C231D
:1013F00072681A406B689B009A42B9D0FFF756F8A2
:10140000019BC01A114B9842F1D90320A4E7022A8C
:1014100002D19B01E3D49EE79B07E0D49BE72268BF
:101420009A43226022681A4295D1A6E76368084A67
:101430001340EA6813436360A3E7C04600200240FC
:1014400000100240DA6700080C000020881300003A
:10145000FFF8FFFF044B054A5B685B055B0FD35C3D
:10146000034A1068D840704700100240EA6700083D
:101470000C000020F0B5036885B00500DB0328D51B
:10148000802200213B4C5205E3690091134208D1B0
:10149000E3691343E361E36913400393039B01236F
:1014A00000938027344E7F0033683B422FD0C02208
:1014B000236A92001340314E3BD1236A1E406B6871
:1014C0001E43009B2662012B03D1E3692C4A134083
:1014D000E3612A68D30706D5032026490B6B8343B3
:1014E000A86803430B63930606D5102021490B6BB4
:1014F0008343E86803430B630020530517D540215D
:101500001C4A136B8B4329690B4313630FE0336849
:101510003B433360FEF7CAFF019033683B42C6D1BC
:10152000FEF7C4FF019BC01A6428F6D9032005B05A
:10153000F0BD69680A409342BFD08023226A206AC6
:1015400011005B0203432362236A0E4831400340CB
:1015500023622162D307B0D5FEF7A8FF070002225D
:10156000236A1342A9D1FEF7A1FF074BC01B984283
:10157000F5D9DBE70010024000700040FFFCFFFFE0
:10158000FFFFFFEFFFFFFEFF88130000E02103686D
:1015900010B55A688A435A608222416852009142CB
:1015A0000CD18021826809028A4203D08021C900BF
:1015B0008A4203D140211A688A431A608021826AD4
:1015C00089018A4206D11968074C214019601968BF
:1015D0000A431A60030001225D331A7000235C3055
:1015E0000370032010BDC046FFDFFFFFF8B5040005
:1015F0000D001700802623689868304009D06A1CC7
:10160000FAD0FEF753FFC01B8542F4D82000FFF745
:10161000BDFFF8BDF7B5C02705000C00160001930B
:10162000FF002B68986820400DD0BC4200D11A7B87
:10163000721CF7D0FEF73AFF019BC01A8642F0D821
:101640002800FFF7A3FFFEBD70B513000D001600C4
:101650000A00C02149010400FFF7DCFF002805D083
:101660002023226E0320134323660FE0320029005B
:101670002000FFF7BBFF0028F2D1C02133002A0071
:10168000C9002000FFF7C6FF0028E9D170BD0000A7
:10169000F8B504000120002C4BD000232500A362E4
:1016A0005D352B78DBB2002B05D122005C32137044
:1016B000200003F0AFFF0223402221682B700B684B
:1016C000002093430B60E023E268DB009A4231D9AB
:1016D000F0263601B24233D10600206B002803D138
:1016E0009A422FD902232363A7686368A0693B430A
:1016F00027693B4367693B43E7693B43276A3B43B1
:10170000A76A3B438027BF0007403B430B60636AE7
:10171000000C1A43636B1A4304231840104306431A
:101720004E60CB69084A00201340CB61012320663C
:101730002B70F8BD802676019A42CED0A062CCE70D
:101740000600FBE70123CEE7FFF7FFFFF0B587B008
:10175000019303005C3303931B7804000D00170012
:101760000226012B00D17CE00123039A1370FEF7BF
:101770009DFE220002905D321378DBB2012B6AD10C
:101780001E00002D67D0002F65D002331370002398
:10179000A21D23662364A563A787E7870232938788
:1017A000D3872365E3648023A2681B029A4205D194
:1017B00080232268DB0111680B43136040222368F9
:1017C0001968114202D119680A431A60E021E068E1
:1017D000C9006268884247D9002A01D0012F07D189
:1017E0002A880235DA60E38FA563013B9BB2E38769
:1017F0000225E38F002B16D1029A01992000FFF7F2
:1018000023FF002800D06DE0A368002B06D10593CC
:101810002368DA6805929B680593059B266E731E04
:101820009E41F6B217E0226893682B4209D0A36B61
:1018300019880233D160A363E38F013B9BB2E38736
:10184000D7E7FEF733FE029BC01A019B9842D0D324
:101850000133CED0032601235D3423700023039A85
:101860001370300007B0F0BD002A01D0012F0AD15B
:10187000E28F012A1CD92A880235DA60E38FA5633A
:10188000023B9BB2E3870225E38F002BB4D0226892
:1018900093682B421CD0E18FA36B012910D91988C2
:1018A0000233D160A363E38F023B9BB2E387EBE794
:1018B0002A781A73A36B0133A363E38F013BE0E73C
:1018C0001B781373A36B0133A363E38F013BECE736
:1018D000FEF7ECFD029BC01A019B8342D4D8013372
:1018E000D2D0B7E7202323668EE70000F7B51E00AD
:1018F000030001925C331A7804000F000225012ACC
:1019000000D1ACE001221A70FEF7D0FD2300009058
:101910005D331B786168DBB2012B0BD08222520051
:10192000914200D094E0A268002A00D090E0042BFD
:1019300000D08DE00125002F00D189E0019B002B14
:1019400000D185E0002E00D182E023005D331A78BB
:10195000042A01D005221A70019A00232264220071
:1019600008322366D687A21DD687E022E068E364AA
:101970002365A763E687A687D2002368904201D833
:10198000012E31D95A68714D2A405A60402223688D
:101990001D68154202D11D682A431A60E022D20058
:1019A00090425ED9002901D0012E07D13A88023732
:1019B000DA60E38FA763013B9BB2E387012502272F
:1019C0002E00E38F002B14D123000833DB8F002B74
:1019D0000FD1009A08992000FFF736FE051E37D078
:1019E00020230125236633E080225D6852012A43CB
:1019F000CBE7226893683B420ED0E38F002B0BD0DD
:101A0000012D09D10025A36B19880233D160A3638E
:101A1000E38F013B9BB2E387936833420ED02100F2
:101A20000831CB8F002B09D03500236CD2681A8087
:101A300002332364CB8F013B9BB2CB87FEF736FD8D
:101A4000009BC01A089B8342BBD80133B9D0032541
:101A5000230001225D331A7000235C3423702800B8
:101A6000FEBD002901D0012E0AD1E28F012A51D9F1
:101A70003A880237DA60E38FA763023B9BB2E387C1
:101A8000012502272E00E38F002B05D12300083308
:101A9000DB8F002B00D19CE7226893683B4211D07A
:101AA000E38F002B0ED0012D0CD1E18FA36B012908
:101AB00038D919880233D160A363E38F023B002534
:101AC0009BB2E38721688B68334219D02300083327
:101AD000DA8F002A14D0D88F226C01282AD9C8683E
:101AE0003500108002322264DA8F023A92B2DA872D
:101AF000DB8F012B04D880234A685B0113434B60C2
:101B0000FEF7D4FC009BC01A089B8342BBD801336C
:101B1000B9D09CE73A781A73A36B0133A363E38FC0
:101B2000013BABE71B781373A36B0133A363E38F14
:101B3000013BC4E7097B35001170226C013222643D
:101B4000DA8F013A92B2DA87DAE7C046FFEFFFFF99
:101B50005D300078C0B270470122036A70B59343CC
:101B60000362036A44688569723295430A681543C3
:101B7000022293438A681343144A904208D0144EB9
:101B8000B04205D0134EB04202D0134EB04216D12F
:101B90000826B343CE6833430426B343904208D0AB
:101BA0000B4A904205D00B4A904202D00A4A90421A
:101BB00005D10A4A8E6922404C69344314434A686D
:101BC000446085614263036270BDC046002C0140E1
:101BD000004001400044014000480140FFFCFFFF7D
:101BE00070B57325036A174A13400362036A42689B
:101BF000C469AC430D682C43134D2B408D682D02F6
:101C00002B43124DA8420ED1114D1D40CB681B0233
:101C10002B43104D2B40104D4E6915408A693243BD
:101C200012012A4308E00D4DA842F4D00C4DA84201
:101C3000F1D00C4DA842EED042604A68C461C26344
:101C4000036270BDFFFEFFFFFFFDFFFF002C0140A0
:101C5000FFF7FFFFFFFBFFFFFFCFFFFF004001404B
:101C60000044014000480140036A144A30B5134063
:101C70000362026A124C4368C56925400C6824025D
:101C80002543104C22408C68240322430E4CA04272
:101C900008D00E4CA04205D00D4CA04202D00D4CF5
:101CA000A04204D10C4C23404C69A401234343605F
:101CB0004B68C5610364026230BDC046FFEFFFFFA1
:101CC000FF8CFFFFFFDFFFFF002C014000400140C1
:101CD0000044014000480140FFBFFFFF01220368AC
:101CE0000720D9681143D96099680140062902D0BC
:101CF00019680A431A600020704700000121036838
:101D0000DA688A43DA60186A054A104206D1186A0E
:101D1000044A104202D11A688A431A6000207047B0
:101D2000111100004404000070470000204A10B563
:101D30000368904206D08024E405A04202D01D4CE6
:101D4000A0420CD17024A3434C682343904212D08C
:101D50008024E405A0420ED0164CA0420BD0164CB5
:101D6000A04208D0154CA04205D0154CA04202D08C
:101D7000144CA04203D1144C2340CC68234380244C
:101D8000A3434C69234303608B68C3620B6883627F
:101D9000904208D0094B984205D0094B984202D096
:101DA000084B984201D10B6903630123436110BDC5
:101DB000002C014000040040002000400040014091
:101DC0000044014000480140FFFCFFFF70B50400E3
:101DD0000120002C14D025003D352B78DBB2002BE0
:101DE00005D122003C321370200003F045FC022391
:101DF00020682B70211DFFF799FF012300202B7015
:101E000070BD70B504000120002C14D025003D35B4
:101E10002B78DBB2002B05D122003C32137020005E
:101E2000FFF782FF022320682B70211DFFF77EFF42
:101E3000012300202B7070BD1022036A70B59343FC
:101E40000362026A164D436884692C400D682D02B6
:101E50002C432025AA438D682D012A43114DA84209
:101E60000FD18025AA431500CA6812012A434025D4
:101E7000AA430D4D4E691D408B6933439B002B4394
:101E800008E00A4DA842F4D0094DA842F1D0094D0E
:101E9000A842EED043604B6884618363026270BDE8
:101EA000FF8CFFFF002C0140FFF3FFFF00400140CB
:101EB000004401400048014070B5040002263C3453
:101EC000257803003000012D17D01D0001383D3565
:101ED00020702E700C2A0CD81000FEF727F9070A84
:101EE0000A0A0F0A0A0A130A0A0A17001868FFF7F3
:101EF00033FE012300202B70207070BD1868FFF79F
:101F00009BFFF6E71868FFF76BFEF2E71868FFF72C
:101F1000ABFEEEE730B58468034D0A431B022C404C
:101F200013432343836030BDFF00FFFFF8B5050076
:101F300002233C352A7804001800012A16D0260016
:101F4000012720683D362F7033708368404A134064
:101F500083600B68402B65D014D8102B0BD006D8AB
:101F6000002B08D00123002033702870F8BD202BEF
:101F700001D0302BF6D1702281689143693A134326
:101F80000B431AE0602B35D019D8502BEAD14A68A0
:101F9000CB68016A046A1B01BC43F02704628469B0
:101FA000BC4323430A24A1430A4383610262702293
:101FB000836893431A00572313438360D2E7702B3F
:101FC0000DD0802292019342CCD1CB684A688968B7
:101FD000FFF7A0FF80232268DB01916807E0CB6850
:101FE0004A688968FFF796FF7723226891680B4358
:101FF0009360B7E710244B68CA68016A154FA14384
:102000000162846912033C402243A024016A826178
:102010007022A1431B010B430362836893431A00A0
:102020006723C9E74A68CB68016A046A1B01BC439D
:10203000F02704628469BC4323430A24A1430A4372
:10204000836102627022836893431A004723B3E7D7
:102050008800FFFFFF0FFFFF70B5040002223C3431
:10206000257803001000012D22D01D0070261B686A
:1020700001383D3520702A7058689A68B0430E6860
:10208000304358600B48834209D08020C00583420A
:1020900005D00948834202D00848834204D18020F9
:1020A000496882430A439A60012300202B70207004
:1020B00070BDC046002C01400004004000400140BB
:1020C00010B504003C34237802000220012B1CD000
:1020D000C8680E4B12680340886803430C480340ED
:1020E000486803430B480340086803430A48034019
:1020F00008690343094803404869C969034308481C
:10210000034000200B435364207010BDFFFCFFFF11
:10211000FFFBFFFFFFF7FFFFFFEFFFFFFFDFFFFF0B
:10212000FFBFFFFF036807491A680A401A609A68F0
:102130002331FF318A439A6020238367002303669B
:102140007047C046DFFEFFFF70B5846F03000220BA
:10215000202C41D1013800293ED0002A3CD08025D6
:102160009C686D01AC4204D11D69002D01D1014272
:1021700032D11D0070352E780220012E2CD001386E
:1021800028705965190058310A804A808020002142
:102190001A00196640015C32844220D11969002975
:1021A0001BD11349118000220121DA6722329A677C
:1021B0001A68906801439160802149018C4215D1D1
:1021C0001969002912D10B49196690230020116862
:1021D0005B000B432870136070BDFF21E2E7002C09
:1021E000E0D119690029F8D07F21DBE70249EBE74C
:1021F000FF01000061220008012200087047000072
:10220000826F10B50368222A23D102005C329B8CB6
:1022100012881340426D13700200436D5A3201332D
:1022200043651388013B9BB2138013889BB2002B3C
:102230000ED10268094C1168214011609168233465
:10224000FF34A143916020220366826703F024F9E2
:1022500010BD082299690A439A61F9E7DFFEFFFF82
:10226000826F10B50368222A21D101005C319C8C59
:102270000988426D214011800100023242655A31C5
:102280000A88013A92B20A800A8892B2002A0DD1D5
:102290001968094C2140196099682334FF34A1431F
:1022A000996020230266836703F0F6F810BD0822C8
:1022B00099690A439A61F9E7DFFEFFFF7047000062
:1022C000F8B503680400DA69504819689E6802424C
:1022D0000BD12020024200D176E0014200D173E010
:1022E000236E2000002B65D165E0012035000540FC
:1022F00003D190277F00394266D0024205D0CE0537
:1023000003D51862E66F3043E0670220024206D030
:10231000002D04D01862E66F00183043E0670420F7
:10232000024206D0002D04D01862E66F0238304316
:10233000E067100708D5880601D4002D04D00820D6
:102340001862E56F2843E06780200001024206D052
:102350004D0104D518622023E06F0343E367E36F68
:10236000002B28D020231A4206D0194204D0236E15
:10237000002B01D0200098472368E56F9B68200060
:102380005B0602D428231D401AD0FFF7CBFE402164
:1023900023689A680A420FD09A68E06E8A439A606E
:1023A000002809D01A4B4363FEF773FC002802D0C3
:1023B000E06E436B9847F8BD2000FFF77FFFFAE718
:1023C000FFF77CFFE567F6E780204003024206D076
:1023D000750204D51862200000F04AFAEBE780206D
:1023E000024203D0014201D0636E7AE740200242EC
:1023F000E1D00142DFD01A6882431A60202363676C
:10240000002320006366FFF7F9FED4E70F08000001
:1024100015240008406A0023020010B55A321380C8
:10242000083A1380FFF74AFF10BD000070B50400A2
:102430002569A36802682B436569C1692B4310684D
:10244000434D0B4328400343136053684148256ABA
:102450000340E06803435360A36990682B433E4DFB
:1024600028400343936080233C481B02824210D1E2
:1024700003203B4A126B02403A48805C994213D0D9
:10248000082828D8FDF752FE412746275727272737
:102490005A003548824256D1994236D1FEF7DAFFCA
:1024A000636840005B080BE008281ED8FDF734FE87
:1024B000F61D051D151D1D1D1800636858082B4BC2
:1024C000C0186168FDF73CFE83B200201A0028495D
:1024D000103A8A420CD9012013E0FEF705FFDFE72E
:1024E0006368580880235B02EAE701200023EDE7D8
:1024F0000F22190091430A001B0721685B0F134349
:10250000CB6000232366636670BDFEF7A3FF63689C
:102510005B0802E063685808164BC0186168FDF755
:102520000FFE83B200201A001149103A8A42D2D815
:102530002268D360E5E7FEF7D7FEE8E7636858084E
:1025400080231B02E9E79942CFD001200023EAE76C
:10255000F369FFFFFFCFFFFFFFF4FFFF00380140EB
:102560000010024030610008004400400024F400E4
:10257000EFFF000000127A00436A30B5DA0706D593
:102580000168284C4A682240846A22434A609A07BC
:1025900006D50168244C4A682240C46A22434A6036
:1025A0005A0706D50168214C4A682240046B224331
:1025B0004A601A0706D501681D4C4A682240446BE0
:1025C00022434A60DA0606D501681A4C8A6822401E
:1025D000846B22438A609A0606D50168164C8A6885
:1025E0002240C46B22438A605A0610D50168134DFD
:1025F0004A68046C2A4022434A6080225203944273
:1026000005D14A680E4C2240446C22434A601B06A6
:1026100006D502680B4953680B40816C0B4353602D
:1026200030BDC046FFFFFDFFFFFFFEFFFFFFFBFFCA
:10263000FF7FFFFFFFEFFFFFFFDFFFFFFFFFEFFF6A
:10264000FFFF9FFFFFFFF7FFF7B5802704000E0095
:10265000150001933F012268D36933409B1B594207
:102660004B41AB4201D000201CE0089B0133F3D06A
:10267000FDF71CFF019B089AC01A2368824201D310
:10268000002A10D11A6813490A401A609A68A331C7
:10269000FF318A439A6020236367A36700230320E6
:1026A00070342370FEBD04211A680A42D3D0DA695F
:1026B0003A42D0D01F621A6806490A401A609A68E6
:1026C000A331FF318A439A6020236367A367E367DE
:1026D000E4E7C0465FFEFFFFF0B587B00593436FA8
:1026E00004000D0017000220202B49D101380029D9
:1026F00046D0002A44D08023A2685B019A4204D1CC
:102700002369002B01D101423AD1230070331A789A
:102710000220012A34D0012200261A702123E66704
:102720006367FDF7C3FE230050331F80023303931A
:102730001F808023A26804905B019A4204D1236920
:10274000B34201D12E001D00230052331A88059B8D
:1027500092B20093049B002A0AD140212000FFF787
:1027600073FF00280BD1202370346360207007E0D2
:10277000002280212000FFF767FF002802D00320FD
:1027800007B0F0BD2268002D0BD133880236DB057F
:10279000DB0D1385039B039A1B88013B9BB21380BF
:1027A000D2E72B7801351385F4E7000073B50026D6
:1027B0000400C667FDF77AFE236805001B681B0747
:1027C00015D423681B685B070AD580210E4B0022B5
:1027D0000093C9032B002000FFF736FF002811D11A
:1027E000202300206367A367703420700BE08021F2
:1027F000054B32000093890303002000FFF724FFFC
:102800000028DED0032076BDFFFFFF0110B5041EB7
:1028100001D1012010BD436F002B04D102007032A2
:10282000137002F03FFF24230121226863671368BD
:1028300020008B431360FFF7F9FD0128E9D0636A9C
:10284000002B02D02000FFF797FE236807495A6843
:1028500020000A402A215A609A688A439A6001221D
:1028600019680A431A60FFF7A1FFD3E7FFB7FFFF1C
:1028700070470000054B10B51A1880001B18117A1C
:102880005B6808005B68984710BDC046C402002022
:10289000084B0200195C002010B5814208D10121CB
:1028A0009954991892009B185B68087A1B6898479E
:1028B00010BDC046C402002070B5054C251880002C
:1028C00024182E7A606884683000A04770BDC04626
:1028D000C402002070B5054C2518800024182E7AFB
:1028E0006068C4683000A04770BDC046C4020020C4
:1028F000054B70B51C1880001B18257A5B682800F2
:102900001B69984770BDC046C4020020002310B563
:102910009A4200D110BDCC5CC4540133F8E7821850
:10292000904200D1704701700130F9E7F0B5002402
:1029300080252200164BED001F68002F1CD0465941
:10294000B7421AD18127FF005E68C759BE4214D131
:102950001E89B4460F4E875BBC450ED1102000295E
:1029600015D10C235A430A4B9A1850890138FF3865
:102970004242424110010AE0012401320C33022A92
:10298000DAD10020844202D1022900D01220F0BD09
:10299000A8000020060400008023F0B5244CDB00D2
:1029A0008125C65822000023ED002768B7420AD1CE
:1029B0006768BC464759BC4505D12789BC461D4FB1
:1029C000C75BBC4527D001330C34022BEDD1136813
:1029D000002B04D00024D368A3421AD101230C2475
:1029E00081255C43ED004559165114196560114D60
:1029F000405B208100206081814215D10C21594328
:102A000051184989013189B20C205843121851815B
:102A10005C1C2000F0BD0029F0D00C21002459439B
:102A200051184989A142F4D180214900ECE7C04600
:102A3000A800002006040000411E10B50220012954
:102A400011D80C231A004A43074CA2185089074A90
:102A5000024001D0013882B200204B43E1184A8184
:102A6000824200D1E05010BDA8000020FFFEFFFF11
:102A7000030070B50C4A08009C58243A9D580B4B33
:102A80000434E95AFDF75CFB094BE95CFDF758FBA0
:102A900002002068002806D0824202D3121A0834AD
:102AA000F7E76068101870BD240400000A040000F5
:102AB00002040000010000230B315A08DB0113431C
:102AC000027801309B18DBB28842F6D118007047BB
:102AD0000268131E03D1012040420EE00133197831
:102AE0001F2909D93A29F9D1511C8B42F3D1127807
:102AF000302AF0D1013303600020704710B5002860
:102B000015D08022D2008358002B10D09A5C002A66
:102B10000DD0084A995A084A825A914207D1074A69
:102B2000985CFFF7A7FE01230340181E00D0092080
:102B300010BDC046060400000404000001040000AB
:102B4000F8B58223DB00C3580C000931002B38D0C4
:102B50000022334BC358551C9A5C202A17D0052AF3
:102B600059D0092D02D12E270F7001311700413F96
:102B7000192F0AD81F7BBC461027082D00D8083F04
:102B800066463E4201D02032D2B20A7001312A009C
:102B90000B2DE0D1DA7A22725D7F1A7F2D02154368
:102BA0009A7F12041543DA7F12062A4322605D7E63
:102BB0001A7E2D022A43A280DA7D9B7D12021343E6
:102BC000E38000250D70A669AE4207D08223DB00AA
:102BD000C358AB4203D100230022F254F8BDE3698D
:102BE000002BF8D00F4BC25A0F4B9A42F3D08423DC
:102BF000DB00C7586A00B85A2B000028ECD000212F
:102C000001F0ACFD0028E6D0E369013B9D42E2D231
:102C100070550135EEE7E522092DB6D1A3E7C04690
:102C20001404000024040000FFFF0000CA7E10B559
:102C30000400887E12021043032C05D14A7D0B7DCF
:102C4000120213431B04184310BD0000F7B5040023
:102C5000134B144EC55821000123805D2A00FFF755
:102C600039FE01960123002809D10F4B1736E05495
:102C70001C33E358A259EB1A934202D300231800E5
:102C8000FEBD0A4BE75C012FF8D9A3592100ED18CE
:102C9000019B2A00E05C0123FFF71CFE013FF2E7E5
:102CA0002C040000010400000404000003040000E0
:102CB00010B5054BC25C00239A4202D0FFF7C6FF55
:102CC0000300180010BDC04604040000F8B504005D
:102CD000FFF7EEFF051E5ED18023DB00E35C032BD4
:102CE00050D12D4EA75D012F4CD12C4B0100E25A43
:102CF0002000FFF714FEFF235522F22072215B0013
:102D0000E254274B9218E254AE3BFF3B23706370B2
:102D1000693A0F334000A370E2702154E620FF307F
:102D200021547531FF316254E822FF32A3548223CB
:102D3000DB00E3580132A354EA22190AFF32A154FE
:102D4000190C0132A154EC221B0EFF32A354154B77
:102D50000132E358A354EE22190AFF32A154190C90
:102D60000132A154F0221B0EFF32A3540E4B21005E
:102D7000E2580E4B0132E2500D4BE05C3B00FFF796
:102D8000A9FDA55500220A4B1100E05CFFF7B0FD3C
:102D9000431E9841C0B2F8BD050400000A040000BB
:102DA000FF0100000C0400001C0400002C040000C3
:102DB00001040000F8B50D4F0400C2590E000025B3
:102DC0008A4210D0FFF774FF051E0CD1084B320069
:102DD000E05C21000123FFF76FFD002802D00126EF
:102DE00001357642E6512800F8BDC0462C040000AB
:102DF000010400000022184B10B5C254174B013AD1
:102E0000C2500400FFF7D6FF0323002821D1FF2280
:102E1000134B5200E35CA25C1B021A43114912B22D
:102E200002238A4215D1228FE38E12041A430E49DF
:102E30001202120A03008A420BD05234638820889F
:102E40001B0403431B02094A1B0A9B18581E83419B
:102E5000DBB2180010BDC046040400002C040000C2
:102E6000FF01000055AAFFFF46415400BABEABFF68
:102E70000023F0B503608BB0060008001700FFF7D1
:102E800027FE0B23051E17DBAF4B8200D4580C2303
:102E9000002C11D080233460DB00E35CAB4E002BB0
:102EA0000DD0A05DFFF7E6FC0123034007D1002F02
:102EB00002D0420700D50A2318000BB0F0BD8023D2
:102EC0000022DB00E8B2E254A055FFF7E1FC032347
:102ED000C207F1D4002F01D04307ECD49C4BA05D76
:102EE000E2180221FFF704FD061E01D00123E3E7EB
:102EF000974D984A635B9B1880229BB29200934245
:102F0000F4D801002000FFF775FF01282BD1230022
:102F1000C733FF331A1F11780022914209D0597824
:102F20001A78090211439A7812041143DA781206CA
:102F30000A4306A9725004361033102EEAD1002637
:102F4000022706AB9B5938000093002B05D01900CF
:102F50002000FFF74FFF00280CD00436102EF0D1D0
:102F6000032804D1C2E70328C0D0002801D00D23D4
:102F7000A2E70090237BE27A1B021A430492635B70
:102F80009342F4D1E27DA37D1202134300D1C6E047
:102F900002938323029ADB00E250267C6E4BE654B8
:102FA000731E012BE3D8657B6C4BE554002DDED0FE
:102FB0006B1E1D42DBD1A37C627C1B021A43019273
:102FC0006A4681239288DB00E252049B01985F09E4
:102FD0003900FDF73BF989B20029C8D1207DE37C97
:102FE00000020343039301D1236A0393E37BA27B93
:102FF0001B021A430592BAD0029B390001985E4326
:10300000FDF79EF8059B87B2FF18039BBF19BB42D3
:10301000ADD3D81B2900FDF793F80028A7D0504B5B
:103020000125984204D94F4B83429B415D420235B2
:103030004D4B0230E050009A4C4B9446E2508422B3
:10304000059BD2006344A3506246D7198522D20063
:10305000A750032D65D1019B002B88D1444BE26A18
:103060008000E250049B0499013B1818FDF768F8B2
:10307000029B834200D27AE7822601233D4A5B42CB
:10308000F6003D4FA351A3508133E355032D2FD1BB
:10309000230031331A78013B1B7812021343012BB2
:1030A00026D1009920000131FFF784FE00281FD1AE
:1030B000324BE055E25C013BE35C12021343304AC1
:1030C0001BB2934214D12F4B22689A4210D1F222A4
:1030D00052002D4BA2589A420AD1F4235B00E358C8
:1030E000A351F6235B00E3580093009A214BE25072
:1030F0008023264ADB00E554138801339BB21380FA
:10310000234AA352234A13689C4201D1002313602F
:10311000D16800238C4200D0CEE6D360CCE6636A4F
:1031200036E7019A002A00D121E7F618104BE65045
:10313000022D01D1400095E70323012243431040B3
:103140005B0818188EE7C046A400002001040000A8
:103150000A04000000FEFFFF030400000204000058
:10316000F50F0000F5FF0000140400001C0400002F
:10317000240400000C04000005040000FF0100000E
:1031800055AAFFFF5252614172724161C000002096
:1031900006040000A8000020074A023982580300F4
:1031A000023A0020914205D2044A985C26324143FB
:1031B000985808187047C046140400000204000024
:1031C000F7B5012504000E00A9421FD9404BC35892
:1031D00099421BD28023DB00C35C022B3ED0032B21
:1031E00055D0AB4212D13B4B4F087F18C15A380023
:1031F000FCF7A6FF8423DB00E358C11820000093EE
:10320000FFF7D8FD002803D001256D422800FEBD40
:103210007B1C00932F4B3800E35A19000193FDF7F4
:1032200015F80098675C0199FCF78AFF8423DB009E
:10323000E15841182000FFF7BDFD0028E4D1254BDF
:103240000098E15AFDF702F8635C1B021F432E420F
:1032500001D03D09DAE73F053D0DD7E71D4D415B44
:1032600030004908FCF76CFF8423DB00E15841186B
:103270002000FFF79FFD0028C6D1615B7000FCF7BE
:10328000E5FF63185D78635C2D021D43BEE7114DB9
:10329000415B30008908FCF753FF8423DB00E158D1
:1032A00041182000FFF786FD0028ADD1615BB0001A
:1032B000FCF7CCFF6318DD789A782D0612041543CD
:1032C0005B78625C1B0215431D432D012D099DE7B0
:1032D000140400000A040000F7B50500314B0E008D
:1032E000E9520233C458012C01D10220FEBD8022D4
:1032F000D2002D498358019158588442F5D2002CB0
:103300002BD19A5C032A03D1284A9A58002A25D146
:103310008122D2009A5A9642E7D2244A9F58244BDF
:10332000EC50002FE1D00C3BEB5830000093009A9A
:10333000204BD45A64092100FCF702FF8223C719ED
:10334000DB00EF5021003000FCF780FF009B4901BB
:103350005918019B0020E950C8E72200802714007B
:1033600014491548595A1B5C49094B43FF00009307
:10337000009B2100E8599E4203D2FFF70DFF070092
:10338000CDE7FFF71DFF0400431C09D00128ACD98D
:10339000EB59019A9B589842A7D2009BF61AE7E78F
:1033A0000120A3E706040000140400002404000028
:1033B0000C0400000A04000002040000F0B585B00F
:1033C00004000D0001920226012955D94F4BC35824
:1033D000994251D28023DB00C35C0293B34256D0A2
:1033E000032B00D171E0012B46D1494B4F087F18C8
:1033F000C15A3800FCF7A4FE8423DB00E1584118D1
:103400002000FFF7D7FC424B061E039334D17B1CF0
:1034100003933F4B3800E65A3100FCF717FF6B4629
:10342000029F1B792F4009D00F22FF20635C00010F
:103430001340019A120102401343DBB2635401238B
:10344000344D310063550398FCF77AFE8423DB008A
:10345000E15841182000FFF7ADFC061E0CD12C4BA3
:103460000398E15AFCF7F2FE002F08D0019B1B09DC
:10347000DBB2635401236355300005B0F0BD0F206B
:10348000019A635C120A834302401343F1E7204F21
:10349000C15B28004908FCF753FE8423DB00E15898
:1034A00041182000FFF786FC061EE5D1E15B6800AD
:1034B000FCF7CCFE6B461B796354019B61181B0A19
:1034C0004B700122134BE254D6E7114FC15B280029
:1034D0008908FCF735FE8423DB00E1584118200001
:1034E000FFF768FC061EC7D1E15BA800FCF7AEFE43
:1034F0006218D37801981B091B0703436354190A08
:103500005170190C1B0E9170D370DAE7140400008F
:103510000A04000004040000F8B505000F1E09D1DC
:103520002A4BC658002E03D0294BC3589E4211D3B4
:1035300001260FE0FFF744FE0400012843D9431C95
:1035400003D1012464422000F8BD214B3E00EB581A
:103550009842F8D334001E4B0134EB589C4204D3FC
:10356000012E01D80024EEE7022421002800FFF7F5
:1035700027FE002806D0431CE3D0012823D0B44204
:10358000E9D1EFE7134A21002800FFF717FF0028D1
:1035900017D1002F0ED182220C4BD200EC50AB5829
:1035A000591CD0D0013BAB5001230B4AA95C0B4303
:1035B000AB54C8E7220039002800FFF7FFFE0028BF
:1035C000E9D00128BDD00124BDE7C0460C040000AD
:1035D00014040000FFFFFF0F05040000F0B5554B79
:1035E00089B00591C25A0400013200926A461288DD
:1035F0000693002A02D1042009B0F0BD8226F6000D
:103600008559002DF7D08023DB00C3584A4F029321
:10361000DB5B00985B0919000193FCF717FE039729
:1036200000290CD1454B0135E758A5510493002FD3
:1036300018D1029A043BD35A009A9A42DBD26A46C6
:10364000069B12880098E2528023DB00E558039B1A
:10365000E95A4909FCF7FAFD394B49016D18E55063
:103660000020C9E7374E029B019900989D5DFCF749
:1036700067FD013D284001900796E0D1390002988E
:10368000FFF79EFD0600012801D80220B4E7431C85
:1036900001D10120B0E78023DB00E058284BC3585C
:1036A0009E422CD3059B002BA5D0049BE158FFF72D
:1036B00033FF06000720002E9ED0012EE5D0731C9C
:1036C000E7D08025ED006059FFF7F2FA011EE0D146
:1036D0006359039A18009A5AFFF721F96759310084
:1036E0003800FFF759FD184BF8501F006059079B31
:1036F000019AC35C9A420ED3C3599D1AC551049BCB
:103700003100E6508023DB00E058FFF745FD8223BF
:10371000DB00E05093E701220C4BC254FFF796FA0E
:103720000028B6D16259D3590133D351019B0133DB
:103730000193DBE7060400000A0400000C0400000B
:1037400014040000020400002C0400000404000023
:103750000122504B5242F0B5C2520132FF320500F5
:10376000140087B0029203938223DB00E958103BD8
:10377000E858FFF71FFB071E00D085E0464BEE58C8
:103780003378002B00D182E0E52B06D03F22F17A7E
:103790000A40090706D50F2A06D00123039A5B4287
:1037A000AB524EE00F2A58D18422D200AA5801927F
:1037B000002A47D04022134241D093431C00374B8C
:1037C000717BEB5A039A0291AB52737B029A93423C
:1037D00037D140220D2733789343013B00225F43CA
:1037E000012300922E4A0099895C72185278705C0D
:1037F00012021043002B2CD000F0CEFF0590FE2FBC
:103800001FD87B1C0493019B7F00F85A00F0C4FF73
:10381000059A0300824214D1049F009A013200925B
:103820000D2ADFD13278520606D5002B04D0019A3A
:103830007B009B5A002B04D1013CE4B202E0A3427E
:10384000C3D0FF2400212800FFF7C8FE071E8BD03D
:103850001AE0144A9042E0D0F3E7002C05D1300082
:10386000FFF728F9029B98420ED083230121DB0049
:10387000EA58D37A0B4090D1581CF15CD35C994242
:103880008BD103000B28F7D1380007B0F0BD042717
:10389000FAE7C046240400001404000006040000F7
:1038A000B4610008FFFF0000F0B50B7887B0060098
:1038B00001912F2B01D05C2B02D1019B013301938D
:1038C00081230024DB00F450019B1B781F2B0AD8B6
:1038D00021003000FFF700FD984BF45007B0F0BD19
:1038E000019B01330193019B1B782F2BF8D05C2B9C
:1038F000F6D084230024DB00F3580593019B2700B6
:10390000185D651C1F281BD92F2819D05C2817D0DB
:10391000FF2C0ED0012100F021FF002809D07F28C4
:1039200009D800238649CA5C002A04D001338242A8
:10393000F9D10620D2E7059B640018532C00DDE77F
:10394000019B00245B1901931F2383426441A4005F
:10395000002FEED0059A7B00D3189A1E1288202AD9
:1039600002D02E2A00D086E0013FF1E7013305990D
:103970005A008A5A202AF9D02E2AF7D0002B02D0DA
:1039800003221443E4B27A000599023A8A5A2E2A95
:1039900002D0013F002FF6D108220292002215002A
:1039A00004925A1C0392059A5B00985A002879D019
:1039B000202804D02E2807D1039BBB4266D00323C6
:1039C0001C43E4B2039BECE7049B029A934261D24E
:1039D000039BBB4214D1029B0B2B09D15DE0039BDF
:1039E000BB4205D003231C43039BE4B2BB4259D81E
:1039F0000B23AD000293EDB20397033B0493E1E781
:103A00007F280FD9002100F0A9FE0023984203D09F
:103A10004C4B18188038037898B202231C43E4B248
:103A2000002807D000234849CA5C002A78D0013317
:103A30008242F9D103235F201C43E4B28323DB00DD
:103A4000F358049A985413000133D7E702231D4317
:103A5000F4E75B0700D541E7384BF158CB7ADB063A
:103A60005CD58023DB00F258D05CFFF7DFF88123C0
:103A7000DB00F05037E700251D808323DB00F05882
:103A80000B222021FEF74BFF2B0070E7049B029ACC
:103A90009342A0D3029B0B2BA1D103231C430833D9
:103AA000E4B202938323DB00F3581A78E52A01D1AC
:103AB000E03A1A70029B082B01D1AD00EDB20C2345
:103AC0002B400C2B02D0EA43920702D1022214436E
:103AD000E4B2A2070BD403221540012D02D10D320E
:103AE0001443E4B2042B02D104331C43E4B2832513
:103AF000ED0073590021DC723000FFF7EDFB002868
:103B000002D13000FFF724FE7359DB7A0028A0D0E1
:103B1000042800D0E2E6034200D0DFE60520DDE61F
:103B20000300413B192B91D90300613B192B85D828
:103B3000012320381D4380B280E7C04614040000F2
:103B4000C161000834610008CA6100088323F0B530
:103B50008424DB00C6588BB0E400035907AD07008E
:103B60000C22280031000193FEF7D0FEEB7A0125EC
:103B70002B4200D177E00023F3723B510B2207A9BF
:103B80003000FEF7C3FE2B00052D47D80F2107227A
:103B90008C4605A964461C4020003030392800D9E5
:103BA0000730013A8C1860701B09F3D17E208854CD
:103BB0009A4237D0F05C202832D120242000072AF6
:103BC00001D8885C0132F0540133072BF6D900216B
:103BD0003800FFF781FB041E3CD13800FFF7B8FD29
:103BE000041E37D10135642DC8D1072420000BB045
:103BF000F0BD1020023101241440A44680245B0053
:103C0000634464025208234201D06B4C6340013884
:103C10000028F0D10A88002AEBD1B7E70199F9E72B
:103C20000133C5E71300C8E70130019A4300D35AB6
:103C3000002BF9D119300D21FCF782FA050018E0AC
:103C4000060001213800FFF7C9FC041E18D0042C1F
:103C5000CBD0CBE7042CC9D107ABDB7A019AF37246
:103C60008423DB00FA5007ABDB7A012500209B0799
:103C7000DBD400213800FFF72FFB041EE7D106003C
:103C80008223DB00F958103BF858FFF793F8041E25
:103C9000DDD14A4ABB5801921B78E52B01D0002B9D
:103CA000CED10136B542CCD1013D002D5FD0444B81
:103CB0003800F95A491BFFF70FFB041E00D095E7A7
:103CC0008323DB00F858FEF7F5FE03908223DB0028
:103CD000F958103BF858FFF76DF8041E00D085E73F
:103CE0008423EAB294466A46DB00FB58127B0293B7
:103CF000019B0D21FB585A730F22DA72EAB2013A86
:103D00004A43010018739876D8762E4CA04203D00F
:103D1000029C5000005B01322B4C0C5D18551C19A5
:103D20002600040A7470002800D1264801310D29AC
:103D3000EBD12449884204D002995200525A002AF9
:103D400003D16146402211438C46624680211A709D
:103D50000122C90079581D4B3800CA540021FFF7D1
:103D60003DFC041E00D041E7013D002DAED1802571
:103D70008223ED00DB00F9587859FFF71BF8041E89
:103D800000D033E78326019B2022F8582100FEF75C
:103D9000C6FD019BF6000B22B959F858FEF7B6FD97
:103DA0001821019BFA58BB59DB7A0B4013737A59DF
:103DB000064B1739D15419E72110010014040000F3
:103DC00006040000FFFF0000B461000804040000C6
:103DD000F7B504000D00012901D80220FEBD164BE5
:103DE000C25801939142F8D28227FF00019BE35809
:103DF00000939D4205D229002000FFF7E1F9061E3D
:103E000001D10020EAE70128E7D0431C12D00022AC
:103E100029002000FFF7D2FA0028DFD1E3595A1C0D
:103E200006D001210133054AE351A35C0B43A3549F
:103E30003500DBE70120D1E7140400000504000091
:103E40007FB5019003A8140000910391FEF740FE96
:103E50000B22002824DB144D80004359002B0DD089
:103E6000124A11688B4201D100211160D6680021ED
:103E7000B34200D1D1608022D2009954019B002B23
:103E800003D080220021D20099542B501A1E07D053
:103E90000022012C04D1694601A8FEF7E9FF0200C7
:103EA000100004B070BDC046A4000020A80000208F
:103EB0000923F0B57A4C1500A544019005910293B1
:103EC000002800D186E080230022DB00C2501E3291
:103ED000FFA82A4005A92C30FEF7CAFF0AAE0290BF
:103EE000031E77D11F332B400393832307AADB00E4
:103EF000F2506C4A083305993000F250FFF7D4FCB9
:103F0000694FF45900280AD10630002C07D001234C
:103F10000399300099434B1E9941FEF707FD1C237E
:103F20001D425BD000284DD0042849D15F4B1A6850
:103F3000002A03D0DB680E30002B41D10AAC2000F0
:103F4000FFF704FE00283BD10823039AE4591A43E3
:103F50000392039B1B074AD500F03EFC00258027F7
:103F6000030AA073E373030C000E23746074E572FC
:103F700025776577A577E577FF000AAEF35921002D
:103F8000D85DFEF753FE0122A576E57625756575A9
:103F90000490474BF059C254049BAB4227D0454B89
:103FA0000499C558FFF714FF002809D1049BF05964
:103FB000414A013B83502900FEF7FCFE002816D041
:103FC000029007E01123E27A1A4266D16B07C0D54E
:103FD000082302930298394B9D44F0BD0028EFD18D
:103FE000E37ADA0657D4AA0701D5DB0755D4039B39
:103FF0001B0703D52023039A1A4303921822802516
:1040000004AB9B18ED005B5901990493049A294B6A
:104010000AA8D2582A4BCA500433CC500123039922
:1040200099434B1E9941FEF7B7FC8523019ADB00AB
:10403000D05002230028CCD069460026019B214A9B
:10404000097B9954204B019A2100D654182204ABC5
:104050009B185F59785DFEF7E9FD8223019ADB002A
:10406000D050627F237F12021A43A37F01991B0461
:104070001A43E37F1B0613430F4A8B508123DB0057
:10408000CE501033CE50114BCE500E4B4F51FA5AEA
:10409000074BCA529EE704239BE7072399E7C046D4
:1040A000ACFBFFFFC200002014040000A8000020A9
:1040B000040400002C0400000C0400005404000060
:1040C0001C04000006040000070400002404000093
:1040D000F0B58BB0089300230292089A0400136095
:1040E0000D00FEF70BFD0390002859D1874AA35C11
:1040F0000992002B3AD1864BE25C0193930700D4DE
:1041000001E18123DB00E258029989188A4239D8FB
:10411000802705950693FF00029B002B32D0069B5B
:104120007C4AE558E359280004939B5A19000793E9
:10413000FCF78CF8002900D0C8E0049B764A079968
:1041400028009E5CFBF7FCFF013E0640F3B207939C
:10415000002B39D1002D0BD18223DB00E058011E4A
:1041600023D0012825D10223099AA354039317E0F1
:104170006A4BE358002B16D029002000FEF778FC8C
:104180000028EED18123DB00E258654BE1588A42DA
:1041900000D9B6E0019BE25C20231343019AA354AB
:1041A00003980BB0F0BD5F4BE1580498FFF7B4F9EA
:1041B000E6E7431C01D10123D6E75A4BE050043B0C
:1041C000E258002A00D1E0504025019BE35C2B42DD
:1041D00010D0554BE2592100D05C8322D20001233C
:1041E000A258FEF777FB0028E5D1019B019AE35C1A
:1041F000AB43A354E35904934A4B0498E158FEF7A8
:10420000CBFF0028AFD0079B424AC518049B0298F9
:10421000995AFBF795FF061E3DD03F4A049B9B5CD5
:10422000079A12189A4201D9079A9E1A3E4B049A8D
:104230000599D05C33002A00FEF74CFB0028BAD168
:104240008323DB00E058451BAE420ED9E359314AC7
:1042500020009A5A059B55435919FEF757FB4022F7
:10426000019BE35C9343019AA354E359294A9B5A67
:104270005E43059B069A9B190593069BE3589B1981
:10428000A350089B089A1B6804939B191360029B18
:104290009B1B029340E78323DB00E3589D4212D02F
:1042A000069BE35807931E4B079AE3589A420AD29B
:1042B0001D4B049A2100D05C01232A00FEF7FCFA72
:1042C000002800D077E78323DB00E550E359114A4B
:1042D0009D5A069B2900E35818000493FBF7B6FF8C
:1042E000029E6D1AAE4200D92E0060183200059968
:1042F000FEF70CFB019BE25C40231343019AA3549D
:10430000B7E7E25046E7072330E7C046070400005E
:10431000060400000A040000020400002404000057
:104320000C040000140400000104000073B5040034
:104330000E000A2902D10D21FFF7F8FF6368002B58
:1043400014DB5D1CE3181E733C2D0BDD210001AB5B
:104350002A000C312068FFF7BBFE019B5D1B6B1E22
:104360009D416D42A36865600133A36073BD000089
:10437000F8B50400FEF7C2FB061E55D12B4FE35DD6
:104380009A0651D540252B4211D08023DB00E258FC
:10439000274B2100D05C8322D2000123A258FEF7D4
:1043A00099FA013600283FD1E35DAB43E355214B39
:1043B000E1581C3BE058FEF7FDFC061E34D1842377
:1043C0002022DB00E558EB7A1343EB721A4BE25CD8
:1043D0002A77E258120A6A77E258120CAA77E35851
:1043E0001B0EEB778223DB00E3581A0AAB761B0C1B
:1043F0002B751B0AEA766B7500F0EEF92022030A92
:10440000A875EB75030C000EAE74EE742B7668760F
:10441000E35D9343E3558023DB00E058074B1F3AED
:10442000C254FEF753FC06003000F8BD060400003D
:10443000010400001C0400000C040000040400003F
:1044400010B50400FFF794FF00280ED12000FEF7FE
:1044500055FB002809D18523DB00E058FEF7ECFA74
:10446000002802D18023DB00E05010BD70B5154C50
:104470000E00A5440190FFA8002201A91C30FEF700
:10448000F7FC06AD041E16D1832303AADB00EA5015
:104490000D4A083301992800EA50FFF705FA041E77
:1044A00009D10A4BEB58002B0AD0002E03D0310063
:1044B0002800FEF745FB20008823DB009D4470BDEB
:1044C0000624F8E7C0FBFFFFC20000201404000030
:1044D0000EB40022F0B5A0B025AB80CB0D900E92AB
:1044E0000F9207933978002900D1F7E0252904D0ED
:1044F00001370DA8FFF71AFFF4E77978302935D195
:104500000126B978FB1C002201920A00303A1F00F4
:10451000092A34D90B00202293434C2B03D1483B6A
:1045200039781E430137002900D1D7E00A00613AEB
:104530000B00192A01D8203BDBB24F2B4CD027D8D7
:10454000432B56D0442B5CD002220292422BD0D176
:10455000079A700757D5101D07901468442B5BD13C
:10456000002C59DA082364421E4355E02D2902D05D
:10457000BB1C0026C7E7FB1CB9780226C3E70A204C
:10458000019A424351183039019119780133BCE73F
:10459000552B36D0582B32D0532BAAD1079B1D68F0
:1045A0001A1D2B0007925C1B01335A1E1278002A39
:1045B000F9D1B30704D4019A2300013493420ED3F6
:1045C0002978002910D1019BA3428BD920210DA865
:1045D000FFF7ACFE0134F6E708220292B8E720218B
:1045E0000DA8FFF7A3FEE6E70DA80135FFF79EFE35
:1045F000E6E7079B19681A1D0792C9B279E71022EE
:10460000EBE70A22E9E7442B03D1131D0793146853
:10461000A6E7131D146807930723782900D12723E1
:10462000DBB205930023039320000299FBF70EFEF3
:104630002000CBB20D0002990493FBF781FD04002A
:10464000092D05D9059A049B94466344DBB2049373
:104650000C20039B06AA5D1C049B0399303312189F
:104660005354002C03D0102D30D10F230393330764
:1046700006D50C212D2306AA52185355039D023549
:1046800030230293F30701D42023029302232C004A
:104690001E400396039B002B04D1019B661C9C4289
:1046A00016D334000C2206AB013D9B18595D0DA8B2
:1046B000FFF73CFE002DF5D1019BA34200D811E786
:1046C00002990DA8FFF732FE0134F5E70395ABE739
:1046D00002990DA8FFF72AFE3400DBE70E9A002AA4
:1046E00006DA0120404220B0F0BC08BC03B01847F5
:1046F00008AB10A90D98FFF7EBFC0028F1D10E9B39
:10470000089A01939342ECD10F98ECE730B501245D
:104710000E4B5D7AA54216D800245D7AEDB25C5549
:104720005D7AAD005D196860587A181802725A7A7D
:10473000D2B2501CC0B258723A2330324B700B3B8D
:104740000A708B70CC70200030BDC046C4020020BF
:1047500010B50022FFF7DAFF10BD000010B57F286A
:1047600007D9002906D0FF2811D88038094B40000E
:10477000C05A10BD074A4C00A45A8BB2844203D0E1
:1047800001318029F7D10B008033D8B2F1E7002046
:10479000EFE7C046D2610008002310B5054C5A006F
:1047A000115B002903D0814202D1034BD05A10BDC6
:1047B0000133F4E7D2620008B264000810B503497F
:1047C0000348FFF7C5FF034B187010BDFC02002023
:1047D00010000020000300200020704737B56B4612
:1047E000DD1D2870064C2000FDF7B2F902000128FB
:1047F000F8D1FA2329009B002000FCF7A7FF37BD62
:10480000E010002010B5002240210248FCF75EFBBA
:1048100010BDC0460004004810B5012240210248E6
:10482000FCF754FB10BDC046000400487FB50E26BF
:10483000FF236E440F24337000236C442370094D12
:104840002800FDF785F903000128F8D1FA2292002B
:104850000092310022002800FDF748F8207804B0CB
:1048600070BDC046E010002013B5FFF7D5FF0A2445
:10487000FF20013CFFF7B2FF002CF9D1FFF7C2FF88
:104880006A4640231370952354709470D470147149
:1048900053716B46185D0134FFF7A0FF062CF8D169
:1048A0008024A401FFF7C2FF012802D0013C002CA4
:1048B000F8D1FFF7B1FFFF20FFF790FF0122014B76
:1048C0001A7013BDD1020020322310B5054C23709D
:1048D000FFF7ACFFFFF7AAFFFF2802D02378002BD9
:1048E000F8D110BD3816002070B505000E00FFF796
:1048F000EBFF03000020FF2B2CD13000FFF76EFFF1
:10490000FD2E21D080239B002C00ED182078FFF78E
:1049100065FF60780234FFF761FFAC42F6D1FFF724
:1049200085FF4125FFF782FF1F26FFF77FFF03006A
:1049300004003340052B03D0013DEDB2002DF4D12E
:10494000FFF774FF0028FBD01F200440053C6042A5
:104950006041C0B270BD70B505000C00FFF7B4FF38
:104960000300FF20834226D12800FFF737FF200EE7
:10497000FFF734FF200CC0B2FFF730FF200AC0B2AF
:10498000FFF72CFFE0B2FFF729FF9520402D03D061
:104990000020482D00D18730FFF720FF4C2D01D19A
:1049A000FFF744FF0A24FFF741FF030603D5013C4C
:1049B000E4B2002CF7D170BD0A2370B504000D00DD
:1049C0000F4E3370FFF732FF0300FF2804D1307819
:1049D000C0B20028F6D170BD0020FE2BFBD126000E
:1049E000FFF724FF3070FFF721FF70700236731B52
:1049F000A342F5D1FFF71AFFFFF718FF0120EAE7FE
:104A000039160020F7B50123002806D10226464DAD
:104A10002C78344003D02B78DBB21800FEBDFFF7B2
:104A200023FFFFF7EFFE21004020FFF794FF01284E
:104A30006DD1D52164233D4F490047303B70FFF7CE
:104A40008AFF012840D1FFF7F1FE01AEA0550134E5
:104A5000042CF8D1B378012B59D1F378AA2B56D175
:104A60008024E40500217720FFF775FF012824D971
:104A70003B78002BF6D13B78002B48D000217A20E0
:104A8000FFF769FF002842D10400FFF7CFFE305541
:104A90000134042CF9D1337806265B0600D4043E99
:104AA000234B1E70FFF7B8FEFFF7C0FE002E37D075
:104AB00001222B7893432B70ADE721006920FFF78B
:104AC0004AFF0028D4D1D6E721007720FFF743FF23
:104AD000012805D821006920FFF73DFF012800D9F2
:104AE000012600214120022E15D17720FFF733FF48
:104AF00001280ED93B78002BF3D13B78002B06D050
:104B0000802150208900FFF726FF0028C8D000260A
:104B1000C6E700216920FFF71EFF0028EAD1ECE775
:104B2000044B1E7077E7C0460800002039160020AD
:104B3000D0020020D10200200123002802D1024B24
:104B40001B78DBB21800704708000020F8B507009A
:104B50000D0016001C000420002F23D1002B21D0B3
:104B60001D4B01381B78DB071CD41C4B1B785B07E3
:104B700000D45602FFF746FE3100012C13D151201C
:104B8000FFF7E9FE002806D1802128008900FFF701
:104B900013FF44424441FFF73FFEFFF747FE601E0C
:104BA0008441E0B2F8BD5220FFF7D5FE0028F2D1D3
:104BB0008026B60031002800FFF7FEFE002805D051
:104BC0008023013C9B00ED18002CF3D100214C20E8
:104BD000FFF7C1FEDFE7C04608000020D00200203A
:104BE000F8B507000D0016001C000420002F27D187
:104BF000002B25D0254B01381A78D20720D41A78FB
:104C0000042301381A421BD1214F3A781A4200D1AD
:104C10007602FFF7F7FD012C13D131005820FFF782
:104C20009AFE002830D1FE212800FFF75DFE4442A5
:104C30004441FFF7F1FDFFF7F9FD601E8441E0B24A
:104C4000F8BD3B789B0707D500217720FFF783FE4F
:104C500021005720FFF77FFE31005920FFF77BFE30
:104C60000028E6D1FC212800FFF73EFE002805D0F1
:104C70008023013C9B00ED18002CF3D1FD21002086
:104C8000FFF732FE0028D4D10124D2E7080000202B
:104C9000D0020020F0B5060085B00F0015000424F6
:104CA000002808D1052918D11378012B0DD0002B2D
:104CB00004D0022B0DD0200005B0F0BD464A1C00E8
:104CC00011780029F7D01370F5E7FFF7CDFD340018
:104CD000F1E7414B1B785370F9E7404B03241B78F5
:104CE000DB07E8D4FFF78EFD0D2F6BD83800FBF7FC
:104CF0001DFA4B07466969696969696969536063A7
:104D000000214920FFF727FE041E05D00124FFF7EC
:104D100083FDFFF78BFDCEE710216846FFF74CFEC1
:104D20000028F3D06B4619785A7A89091B7A012931
:104D300006D101321B02D3189BB29B022B60E6E71F
:104D40006946C9799B0989005B186946C020897941
:104D500000018902014001335B1869460F2049793F
:104D6000520001406846807A9BB2C00909180620AB
:104D7000023102408A18D2B2093A9340DEE780231A
:104D80009B002B800024C2E7FFF79EFDFF38040044
:104D9000601E8441E4B2BAE700214920FFF7DBFD41
:104DA0000028B3D110212800FFF706FE44424441F9
:104DB000F0E700214A20F1E700217A20FFF7CBFD40
:104DC000002801D00424A2E72C1DFFF72FFD287036
:104DD0000135A542F9D1F5E7D102002008000020F5
:104DE00030B5102597B0302200210AA800F063FDED
:104DF0002A00002101A800F05EFD1422002105A870
:104E000000F059FD12230A93A02301240E9510955A
:104E10009B030E3D0AA8129514930D940F94FCF772
:104E200061F8072302950025210001A8019303954D
:104E30000495FCF78BFA05A805940795FCF71AFB77
:104E400017B030BD10B50400FBF75EF9FA23C2B20B
:104E5000DB0021000148FDF73FFC10BD9C0F002046
:104E600010B5012206490748FEF7EAFF064B187005
:104E7000002803D00548FFF7E5FF10BD0448FAE716
:104E800067670008640B0020DC10002068670008DA
:104E90008667000870B5204E204C002231002000AB
:104EA00000F012FD002500212000FFF7DFFA0028A6
:104EB0002BD01B4E132221003000FEF7F9FF194DB5
:104EC000021E287003D01849184800F0FDFC18494C
:104ED0003000FFF7FDFAC3B22B70002B04D0C2B232
:104EE0001449124800F0F0FC3000FFF7A9FA021E46
:104EF000287003D010490D4800F0E6FC2000FFF7B1
:104F0000A1FF0E48FFF79EFF70BD01352A0031005A
:104F1000200000F0D9FCC6E79266000800120020CD
:104F20000C120020DC1000209A6600085A110020A4
:104F3000AA6600083D670008DD660008EE66000806
:104F400010B501220A490020FEF77AFF094B1870BC
:104F5000002802D10848FFF775FF084C084B0949A3
:104F60001A68200000F0B0FC2000FFF76BFF10BDB6
:104F700067670008DC100020A76700085A110020AE
:104F8000E0020020CA670008F8B50D0016000027EF
:104F90004400A74200DBF8BD31002800FBF79CFF6E
:104FA0006420FBF789FA0137F3E70000F0B59DB004
:104FB000FBF760FAFFF714FF1422002114A800F099
:104FC0007AFC8021D84C09036269D84D0A4362619A
:104FD0006369D7480B4080210493049B626989026E
:104FE0000A43626163690B4080210593059B6269F6
:104FF000C9020A436261636900220B4006932900DB
:10500000069BFBF763FF00224021CA48FBF75EFFC7
:1050100001231495002514A9C548159316951795D5
:10502000FBF7A4FE402314A91493C2483F3B1593F9
:1050300016951795FBF79AFE012263692900134321
:10504000636163690920134003932A00039BFBF704
:105050003FFD0920FBF76CFDB748B84B08240360FF
:1050600082235B004360E023DB00C36080239B005E
:105070008361F13BFF3BC361093B8560056145618D
:10508000056245628562C36205634463FCF700FB09
:10509000AB4FAC4B38003B60E1235B027B600C23E1
:1050A000BD607B61FD603D61BD61FD613D627D6212
:1050B000FDF7ACFBFFF782FB29000C2214A800F0DF
:1050C000FAFBA14EA14B012233600123336103336C
:1050D0007361033BB3768023DB003362731DDA77A1
:1050E000012330007560B560F56035767576F5762C
:1050F000F561B362FBF7A2FA80235B0115930723E6
:1051000014A9300014951693FBF70EFC012314A983
:1051100030001493FBF708FC022314A93000149309
:10512000FBF702FC032314A930001493FBF7FCFBEC
:10513000042314A930001493FBF7F6FB052314A9EC
:1051400030001493FBF7F0FB062314A930001493EE
:10515000FBF7EAFB072314A930001493FBF7E4FBE9
:1051600014A930001494FBF7DFFB092314A93000C5
:105170001493FBF7D9FB2900102209A800F09BFB30
:105180002200290007A800F096FB29001C220DA888
:1051900000F091FB2022290014A800F08CFB6C4C3D
:1051A0006C4B200023606C4BA5606360F423FF33DD
:1051B000E360743BFF3B25616561A361FCF706FE7C
:1051C000802309A95B0120000993FCF7AFFE2000B2
:1051D000FCF717FE202307A9200007930895FCF78A
:1051E0003BFF0C220DA920000D950E950F951195F2
:1051F00012951395FCF760FE802314A99B012000F3
:105200001993149515951695179518951B95FCF7F8
:1052100057FF012251493800FCF796FF5048FFF72D
:1052200011FE3000FBF700FC01354E4F3B78072B99
:10523000FDD81800FAF770FF040BFB1F22250F5C46
:10524000802252003A492800FFF79EFEEDE74648CB
:10525000FFF7F8FDE9E772B6FFF702FEFFF71AFE67
:10526000122242494248FEF723FE424B18700323A4
:105270003B7062B6D9E780229200E3E703233B70DC
:10528000D3E73D4F3B680193002B0CD10A223B49E9
:105290003000FBF77BFA2000FCF720FD384B019A29
:1052A0003D601A60C1E7374A1368002BBDD0002368
:1052B0003549136014933C2214AB2D48FEF708FFC8
:1052C0006A4601902B4B12793C211A701498FAF718
:1052D000C1FF2B4F3B68C018019B3860002BA4D046
:1052E0002A4F1A002A49380000F0EEFA3800AFE7DA
:1052F0003000FBF795FA2000FCF700FD00221E4B62
:105300001B481A60FFF79CF81A4B021E187003D056
:105310001F491E4800F0D8FA1E48FFF793FDFFF71B
:105320000FFE0023ABE7C046001002400703000059
:105330000008004800040048E01000200030014050
:105340009C0F002000380140C011002000240140C3
:1053500094100020002C0140CF02000044110020D6
:1053600010670008DC0200202F67000800120020F0
:105370000C120020DC100020D80200204611002072
:10538000E0020020D40200201C1000205A1100204E
:10539000386700084F670008F8B53A4D2C68072CAD
:1053A00066D82000FAF7C2FE04641E2C3A64485600
:1053B000002201213448FBF789FD002202213248F6
:1053C000FBF784FD02232B60220021002F48304E82
:1053D0000A3294424ED12B68002B02D101222D4B70
:1053E0001A60F8BD012228481100FBF76FFD00226A
:1053F00002212548FBF76AFD03230A242B60E3E71B
:10540000012221481100FBF761FD012202211E4803
:10541000FBF75CFD042314242B60D5E70022012157
:105420001948FBF753FD002202211748FBF74EFDF8
:1054300006231E242B60C7E7012213481100FBF747
:1054400045FD002202211048FBF740FD07232824D8
:105450002B60B9E701220C481100FBF737FD012250
:1054600002210948FBF732FD002332242B60ABE711
:105470000024A9E7631A5B001B5A67009BB2BB5369
:105480000134A6E7E402002000080048461100208D
:105490001C100020D4020020FA2337B51D4C1E4DED
:1054A0009B00012221002800FDF716F91B48FFF799
:1054B000C9FC012221002800FCF746FE184B1A788F
:1054C000032A0ED0052A15D0002A18D12278642A82
:1054D00002D15E3A1A7037BD6278682A0FD1673AF6
:1054E000F8E72278732A01D16E3AF3E7762A06D1DB
:1054F000723AEFE72278662A01D15F3AEAE76B4613
:10550000D91D65230B70FA2301229B002800FDF7AB
:10551000E3F8E0E7441100209C0F002066670008D4
:10552000DC0200207047000001200A4B82B099691C
:105530000143996180219A69490502400092009ACD
:10554000DA690A43DA61DB690B400193019B02B01F
:105550007047C0460010024070B5060088B01422A3
:10556000002103A800F0A7F9254B32689A4244D1E4
:105570008020244B800099690324014399619A6932
:105580000025024080200092009A59698002014360
:10559000596180215A69C90202400192019A5A69EF
:1055A00090200A435A615B69C0050B400293029B3D
:1055B000FF2303A903930494FBF7D8FB124803A924
:1055C000039404940595FBF7D1FB104C104B20007D
:1055D00023608023E360DB1823618023DB006361A9
:1055E00020236560A560A361E561FBF7C7FAA842C7
:1055F00001D0FFF797FF3463666208B070BDC04604
:105600000024014000100240000400487C110020EA
:105610000800024010B5040088B01422002103A83D
:1056200000F049F9114B22689A421CD18020104B9E
:10563000400199690143996180219A69C902024038
:105640000192019A5A690B480A435A615B690B40FF
:105650000293029B38230393363B049303A901333F
:105660000693FBF783FB08B010BDC0460030014035
:105670000010024000040048084B026882B09A42C1
:1056800009D18020064A0001916901439161936923
:1056900003400193019B02B07047C046002C0140BB
:1056A0000010024010B5040088B01422002103A8A5
:1056B00000F001F9174B22689A4228D18020164B3E
:1056C000C00199690143996180219A698902024068
:1056D0000192019A5A6990200A435A615B69C00598
:1056E0000B400293029BC023DB000393022304932D
:1056F0000133069303A9023B0793FBF737FB002214
:105700001B201100FBF7E4F91B20FBF711FA08B08E
:1057100010BDC0460038014000100240084A13780E
:10572000002B03D01378013BDBB21370054A1378CA
:10573000002B03D01378013BDBB213707047C046D7
:1057400039160020381600207047FEE77047704772
:1057500010B5074A13780133DBB213701378092BA5
:1057600003D900231370FFF7D9FFFAF793FE10BD9A
:10577000E802002010B50248FBF7AEFA10BDC046A3
:105780007C11002010B50248FCF79AFD10BDC04600
:105790009C0F00200A4B10B519680200002901D1A6
:1057A000084919606946186882188A4206D900F0CB
:1057B0004FF80C2303600120404210BD1A60FCE743
:1057C000EC02002040160020704710B5FFF71AF9D0
:1057D000C0B210BD10B5FFF7AFF9C0B210BD10B523
:1057E000FFF7B4F9C0B210BD10B5FFF7F9F9C0B2B8
:1057F00010BD10B5FFF74EFAC0B210BD0D4885467A
:105800000D480E490E4A002302E0D458C450043318
:10581000C4188C42F9D30B4A0B4C002301E01360EF
:105820000432A242FBD3FFF7CFFF00F017F8FFF7D7
:10583000BDFBFEE7002000200000002088000020C3
:10584000306800088800002040160020FEE70000B5
:10585000014B18687047C0462400002070B5002630
:105860000C4D0D4C641BA410A64209D1002600F07B
:1058700043FC0A4D0A4C641BA410A64205D170BD1E
:10588000B300EB5898470136EEE7B300EB58984762
:105890000136F2E728680008286800082868000830
:1058A0002C680008002310B59A4200D110BDCC5CD2
:1058B000C4540133F8E703008218934200D17047C3
:1058C00019700133F9E700000EB410B59DB002A9BC
:1058D000029008610B4882248860486101204042A0
:1058E0001FABC881084804CBA400006801938C81D9
:1058F00000F06EF80023029A13701DB010BC08BCB3
:1059000003B01847FFFFFF7F24000020F0B58E682A
:1059100085B007000C00039201939E4239D8902372
:105920008A89DB001A4234D00325096923685B1A8F
:105930000293636902985D43EB0F5D19019B6D1043
:1059400001331B18AB4200D91D00530532D5290085
:10595000380000F031FB061E09D10C233B604023C8
:105960000120A28940421343A38105B0F0BD029AF1
:105970002169FFF797FFA389144A1A408023134334
:10598000A381029B2661F61826606561019EED1ACF
:10599000A560019BB34200D21E003200039920682B
:1059A00000F0ADFAA36800209B1BA36023689E193A
:1059B0002660DAE72A00380000F05CFB061EE0D122
:1059C0002169380000F0AEFAC7E7C0467FFBFFFF51
:1059D000F0B59FB0029005938B890F0016001B064F
:1059E00011D50B69002B0ED1402100F0E5FA38608B
:1059F0003861002805D10C23029A013813601FB0CA
:105A0000F0BD40237B61002306AD6B6120336B76D4
:105A10001033AB7634002378002B47D1A31B0493BB
:105A20000DD0A31B320039000298FFF76FFF431C13
:105A300000D1B5E06A69049B944663446B612378A6
:105A4000002B00D1ACE00122002352426A6002A97F
:105A50005432521801342B60EB60AB601370AB65AD
:105A6000584E05222178300000F03EFA621C0028D2
:105A700020D12968CB0604D5532302AE20309B19D0
:105A800018700B0704D553232B2002AE9B191870F6
:105A900023782A2B16D000200A21099B2278303A3D
:105AA000092A55D9002815D0099313E0252BB5D024
:105AB0000134B0E70123801B8340296814000B43A5
:105AC0002B60CDE7059B181D1B680590002B39DB6B
:105AD0000993140023782E2B0BD16378621C2A2B98
